:020000021000EC
:10000000B88F0020D5190200C5160200E3190200BE
:10001000E3190200E3190200E3190200E3190200E8
:10002000000000000000000000000000E3190200D2
:10003000E319020000000000E3190200E3190200C6
:10004000E7010200E502020095030200E50202005A
:10005000950302007DE00100B1E00100E5E0010050
:1000600019E1010027130200D3C801005DC7010098
:10007000F3C901004BCA010095090200E9E901003A
:10008000E9E90100E9E9010069F30100CDF20100AD
:10009000FBBB010047BC0100C5BC010029BD01003C
:1000A0000000000000000000000000000000000050
:1000B0000000000000000000000000000000000040
:1000C0000000000000000000000000000000000030
:1000D0000000000000000000000000000000000020
:1000E0000000000000000000000000000000000010
:1000F0000000000000000000000000000000000000
:1001000000000000000000000000000000000000EF
:1001100000000000000000000000000000000000DF
:1001200000000000000000000000000000000000CF
:1001300000000000000000000000000000000000BF
:1001400000000000000000000000000000000000AF
:10015000000000000000000000000000000000009F
:10016000000000000000000000000000000000008F
:10017000000000000000000000000000000000007F
:10018000000000000000000000000000000000006F
:10019000000000000000000000000000000000005F
:1001A000000000000000000000000000000000004F
:1001B000000000000000000000000000000000003F
:1001C000FFFFFFFFFFFFFFFFFFFFFFFFFFFFFFFF3F
:1001D000FFFFFFFFFFFFFFFFFFFFFFFFFFFFFFFF2F
:1001E000FFFFFFFFFFFFFFFFFFFFFFFFFFFFFFFF1F
:1001F000FFFFFFFFFFFFFFFFFFFFFFFFFFFFFFFF0F
:1002000010B5054C237833B9044B13B1044800E012
:1002100000BF0123237010BD081C00200000000057
:10022000004A020008B5034B1BB10349034800E034
:1002300000BF08BD000000000C1C0020004A0200A6
:1002400080B487B000AFF860B9601346FB7100233B
:10025000FB750023FB750DE0FA79FB7DD31A013B9A
:10026000FA681A44FB7DB9680B4412781A70FB7D5A
:100270000133FB75FA7DFB799A42EDD300BF00BFD5
:100280001C37BD465DF8047B7047FFFF80B588B022
:1002900000AF786039607B68FB610023BB76002388
:1002A000FB760023BB6007F10C0300221A605A6042
:1002B0009A601CE0F9691E4BA3FB0123DA08134680
:1002C0009B0013445B00CA1A1346BB76BA7EFB7EC2
:1002D00018498A5C20333B4403F8182CFB7E013319
:1002E000FB76FB69124AA2FB0323DB08FB61FB6977
:1002F000092BDFD8FB7E0F49FA690A4412782033B4
:100300003B4403F8182CFB7E0133DAB207F10803F3
:1003100039681846FFF794FFFB7E01333A681344AF
:1003200000221A70FB7E013318462037BD4680BD7F
:10033000CDCCCCCC2832020080B584B000AF786040
:1003400039607B68002B06DB7B6839681846FFF74D
:100350009DFF03460EE07B685B42FB603B682D22FD
:100360001A70FA683B68013319461046FFF78EFF92
:100370000346013318461037BD4680BD80B485B0B2
:1003800000AF03463960FB801346BB800023FB812E
:10039000BB88013B9BB2BB814FF6FF733B814FF69D
:1003A000FF737B812AE0B7F90C20B7F90E30D31A1E
:1003B000DA0F13445B109AB2FB8913449BB23B8162
:1003C000B7F908305B003A6813441B88FA889A42F0
:1003D00002D13B897B8117E0B7F908305B003A68AE
:1003E00013441B88FA889A4204D23B8901339BB29A
:1003F000FB8103E03B89013B9BB2BB81B7F90E2037
:10040000B7F90C309A42CEDDB7F90E20B7F90C30AF
:100410009A4201DDFB897B817B8918461437BD46F2
:100420005DF8047B704780B483B000AF87ED010AAC
:10043000D7ED017AF5EEC07AF1EE10FA05D5D7EDD9
:10044000017AF1EE677AC7ED017A7B6807EE903AA0
:10045000B0EE670A0C37BD465DF8047B7047FFFFBE
:1004600080B584B000AF87ED010A4FF07E53FB608A
:100470000FE0D7ED016AD7ED037A86EEA77AD7EDC4
:10048000037A37EE277AF0EE006AC7EE267AC7EDD8
:10049000037AD7ED037A67EEA76A97ED017AC6EE85
:1004A000877AB7EE007A77EEC77AB0EE670AFFF781
:1004B000BAFF10EE103A184611F080FC08A3D3E9F9
:1004C000002311F059FF0346002BD2D1FB6807EE41
:1004D000903AB0EE670A1037BD4680BDAFF300809A
:1004E0002D431CEBE2361A3F80B483B000AF87ED9A
:1004F000010AD7ED017AB7EE007A37EE877AD7EDA9
:10050000017A67EEA76AB0EE006AC6EE867A77EEE9
:10051000277AB0EE670A0C37BD465DF8047B70475A
:1005200080B483B000AF87ED010AD7ED017AF5EE14
:10053000C07AF1EE10FA01D50B4B0BE0D7ED017A42
:10054000F5EEC07AF1EE10FA02DD4FF07E5301E0D5
:100550004FF0000307EE903AB0EE670A0C37BD4645
:100560005DF8047B704700BF000080BF90B486B088
:1005700000AF07F1080484E80300394681E80C0065
:100580000123FB751FE0BA68FB7D03F18043013B4B
:100590009B00134493ED007A3A68FB7D03F180439E
:1005A000013B9B001344D3ED007A3A6AFB7D03F1D3
:1005B0008043013B9B00134477EE277AC3ED007A1A
:1005C000FB7D0133FB75FA7D3B7B797B01FB03F3FC
:1005D0009A42D8DD00BF00BF1837BD4690BC7047B7
:1005E00090B486B000AF07F1080484E803003946F0
:1005F00081E80C000123FB751FE0BA68FB7D03F165
:100600008043013B9B00134493ED007A3A68FB7DE5
:1006100003F18043013B9B001344D3ED007A3A6A17
:10062000FB7D03F18043013B9B00134477EE677A27
:10063000C3ED007AFB7D0133FB75FA7D3B7B797B53
:1006400001FB03F39A42D8DD00BF00BF1837BD4657
:1006500090BC704790B486B000AF07F1080484E8FE
:100660000300394681E80C000123FB7512E0BA68EB
:10067000FB7D03F18043013B9B001A443968FB7DFD
:1006800003F18043013B9B000B4412681A60FB7D21
:100690000133FB75FA7D3B7B797B01FB03F39A42C7
:1006A000E5DD00BF00BF1837BD4690BC704790B471
:1006B00086B000AF07F1080484E80300394681E8FA
:1006C0000C004FF000037B613B7BBB747B7BBA7CEF
:1006D0009A4201D27B7BBB740123FB741CE0BA6895
:1006E000FB7C03F18043013B9B00134493ED007AB4
:1006F0003A68FB7C03F18043013B9B001344D3ED3C
:10070000007A67EE277A97ED057A77EE277AC7EDBC
:10071000057AFB7C0133FB74FA7CBB7C9A42DED900
:100720007B6907EE903AB0EE670A1837BD4690BC79
:10073000704790B488B000AF07F1100484E803005C
:1007400087ED030A391D81E80C000123FB7718E0CF
:100750003A69FB7F03F18043013B9B00134493ED17
:10076000007A7A68FB7F03F18043013B9B001344CE
:10077000D7ED037A67EE277AC3ED007AFB7F01336A
:10078000FB77FA7F3B7D797D01FB03F39A42DFDD46
:1007900000BF00BF2037BD4690BC704790B589B000
:1007A00000AF07F1080484E80300394681E80C0033
:1007B00097F834303B7597F835307B7597F83430BF
:1007C00097F8352002FB03F39B00184611F03EFE1C
:1007D00003463B610123FB774EE00123BB7744E0F6
:1007E0004FF00003BB6101237B7728E0BA68FB7FF1
:1007F000013B797B03FB01F17B7F0B4403F18043D9
:10080000013B9B00134493ED007A3A687B7F013BE8
:10081000797903FB01F1BB7F0B4403F18043013B7A
:100820009B001344D3ED007A67EE277A97ED067AA2
:1008300077EE277AC7ED067A7B7F01337B777B7B68
:100840007A7F9A42D2D93A69FB7F013B797D03FBDB
:1008500001F1BB7F0B4403F18043013B9B00134438
:10086000BA691A60BB7F0133BB777B79BA7F9A4242
:10087000B6D9FB7F0133FB773B7BFA7F9A42ACD939
:1008800007F130030CCB07F1100103C9FFF7E2FEBB
:100890003B69184611F0E2FD00BF2437BD4690BD0C
:1008A00090B486B000AF07F1080484E8030039462D
:1008B00081E80C0000237B750123FB7561E00123B7
:1008C000BB7517E0BA68FB7D013B797B03FB01F147
:1008D000BB7D0B4403F18043013B9B001A44B96A82
:1008E0007B7D581C78759B000B4412681A60BB7D99
:1008F0000133BB757B7BBA7D9A42E3D90123BB757B
:1009000017E03A68FB7D013B797903FB01F1BB7D80
:100910000B4403F18043013B9B001A44B96A7B7D81
:10092000581C78759B000B4412681A60BB7D01331C
:10093000BB757B79BA7D9A42E3D90123BB7518E078
:100940003A6AFB7D013B97F8251003FB01F1BB7D63
:100950000B4403F18043013B9B001A44B96A7B7D41
:10096000581C78759B000B4412681A60BB7D0133DC
:10097000BB7597F82530BA7D9A42E1D9FB7D0133EA
:10098000FB753B7BFA7D9A4299D900BF00BF1837AF
:10099000BD4690BC704782B090B486B000AF07F1FE
:1009A000080484E803007B621346FB7100237B7517
:1009B0000123FB751BE00123BB7511E0BA68FB7DC9
:1009C00003F18043013B9B001A44796A7B7D581CEC
:1009D00078759B000B4412681A60BB7D0133BB75B0
:1009E000BA7DFB799A42E9D9FB7D0133FB753B7BEC
:1009F000FA7D9A42DFD900BF00BF1837BD4690BCD0
:100A000002B0704790B589B000AF07F1080484E8E0
:100A10000300394681E80C003B793B757B797B7597
:100A20003B7D7A7D02FB03F39B00184611F00EFD1F
:100A300003463B6100BF3B69002BFCD007F110036C
:100A40000CCB07F1080103C9FFF704FE0123FB7774
:100A5000C7E00123BB7763E0BA68FB7F013B797D88
:100A600003FB01F1BB7F0B4403F18043013B9B007F
:100A700013441B68BB6101237B7728E03A69FB7F45
:100A8000013B797D03FB01F17B7F0B4403F1804344
:100A9000013B9B00134493ED007A3A69BB7F013B15
:100AA000797D03FB01F17B7F0B4403F18043013B24
:100AB0009B001344D3ED007A67EE277A97ED067A10
:100AC00077EE677AC7ED067A7B7F01337B777A7F93
:100AD000BB7F9A42D2D33A69BB7F013B797D03FB4E
:100AE00001F1BB7F0B4403F18043013B9B001344A6
:100AF00093ED007A3A69FB7F013B797D03FB01F1BD
:100B0000BB7F0B4403F18043013B9B001344D7EDB3
:100B1000066AC6EE877AC3ED007ABB7F0133BB77E6
:100B2000BA7FFB7F9A4297D3BA68FB7F013B797DFE
:100B300003FB01F1FB7F0B4403F18043013B9B006E
:100B400013441B68BB610123BB7728E03A69FB7F34
:100B5000013B797D03FB01F1BB7F0B4403F1804333
:100B6000013B9B00134493ED007A3A69FB7F013B04
:100B7000797D03FB01F1BB7F0B4403F18043013B13
:100B80009B001344D3ED007A67EE277A97ED067A3F
:100B900077EE677AC7ED067ABB7F0133BB77BA7F02
:100BA000FB7F9A42D2D397ED060AFFF73CFCF0EEAA
:100BB000407A3A69FB7F013B797D03FB01F1FB7FC2
:100BC0000B4403F18043013B9B00D418B0EE670A4D
:100BD000FFF746FCF0EE407AC4ED007AFB7F01336C
:100BE000FB773B7DFA7F9A427FF633AF0223FB7798
:100BF0001CE00123BB7712E03A69BB7F013B797DA2
:100C000003FB01F1FB7F0B4403F18043013B9B009D
:100C100013444FF000021A60BB7F0133BB77BA7FE9
:100C2000FB7F9A42E8D3FB7F0133FB773B7DFA7F62
:100C30009A42DED93B460CCB07F1100103C9FFF7FE
:100C400009FD3B69184611F009FC00BF2437BD4679
:100C500090BDFFFF80B584B000AFF860B9607A60E6
:100C6000FB68002B04D1182011F0F0FB0346FB6059
:100C7000BB685A1CFB685A60FB687A689A60FB681C
:100C800000225A61FB684FF0FF32DA60FB684FF0D8
:100C9000FF321A61FB685B68FA68926802FB03F333
:100CA000184611F0D3FB03461A46FB681A60FB682E
:100CB0001B68002B03D1034811F03CFD00BF103727
:100CC000BD4680BD3432020080B584B000AF78608C
:100CD00039607B68DB6801331A467B685B68B2FB6E
:100CE000F3F101FB03F3D31AFB607B681B691A461F
:100CF000FB68934219D07B681A687B68DB681946E9
:100D00007B689B6801FB03F3D0187B689B681A46DD
:100D1000396811F0ABFBFA687B68DA607B685B6965
:100D20005A1C7B685A61012300E0002318461037E3
:100D3000BD4680BD80B485B000AF87ED010A7B68F9
:100D4000BB609FED1E7AD7ED027AF4EEC77AF1EE22
:100D500010FA01D51A4BBB609FED1A7AD7ED027AD3
:100D6000F4EEC77AF1EE10FA01DD174BBB600023F9
:100D7000FB810FE0FB89154A9B001344D3ED007AF9
:100D800097ED027AB4EEE77AF1EE10FA06D9FB8914
:100D90000133FB81FB89C82BECD900E000BFFB8944
:100DA0000B4A9B0013441B6807EE903AB0EE670AAB
:100DB0001437BD465DF8047B704700BF87164D4071
:100DC00087164D40742485407424854048320200C3
:100DD0006C35020080B487B000AF87ED010A4FF098
:100DE00000033B617B68FB609FED2D7AD7ED037AB2
:100DF000F4EEC77AF1EE10FA01D52A4BFB60B7EE9C
:100E0000007AD7ED037AF4EEC77AF1EE10FA02DD3C
:100E10004FF07E53FB600023FB8234E0FB8A224AC2
:100E20009B001344D3ED007A97ED037AB4EEE77A92
:100E3000F1EE10FA24D8FB8A1B4A9B001344D3ED31
:100E4000007A97ED037A37EE677AFB8A174A9B00A0
:100E50001344D3ED007A67EE277AC7ED027AFB8A56
:100E6000134A9B00134493ED007AD7ED027A77EE94
:100E7000276A97ED037AC6EE877AC7ED047A05E014
:100E8000FB8A0133FB82FB8AC82BC7D93B6907EE7B
:100E9000903AB0EE670A1C37BD465DF8047B704798
:100EA0000AD7A33B0AD7A33B6C3502009038020057
:100EB0004832020080B483B000AF78600B46FB700C
:100EC0007B68FA781A7200BF0C37BD465DF8047B68
:100ED000704780B483B000AF78607B681B7A184697
:100EE0000C37BD465DF8047B7047FFFF80B582B0CC
:100EF00000AF78603960104B104A1A600E4B104AF0
:100F00005A60104B1A780C4B1A720B4B0022DA60A5
:100F1000094B00221A61084A7B685361064A3B6804
:100F20009361054B0022DA6100210348FFF7C2FFFD
:100F300000BF0837BD4680BD741F0020241C002060
:100F40002C1C0020701F002080B582B000AF3B46F3
:100F500083E803007B6807EE903AF8EEE77AB0EE9C
:100F6000670AFFF760FAF0EE407AB3EE097AF4EE22
:100F7000C77AF1EE10FA04D5154B1B680133144AF9
:100F800013607B6807EE903AF8EEE77AB0EE670AF6
:100F9000FFF749FAF0EE407AB3EE097AF4EEC77A39
:100FA000F1EE10FA02DD0A4B00221A60084B1B68B2
:100FB00044F25062934206D1054B00221A6004218C
:100FC0000448FFF777FF00BF0837BD4680BD00BF6C
:100FD0006C1F0020741F0020B0B52DED028B88B06F
:100FE00004AF07F1080383E8030087ED010AAA4B69
:100FF000DB69462B1CD1A84BDB685B08A74AA2FB28
:1010000003235B09A44A5361A34B1B69A34A82FBD8
:1010100003121A449211DB17D31A9F4A93619E4B15
:101020000022DA609C4B00221A619B4B0022DA619D
:10103000994BDA68BB681344974AD360964B1A6998
:10104000FB681344944A1361934BDB690133924A62
:10105000D36107F1080393E80300FFF775FF8E489B
:10106000FFF737FF0346062B00F2E58001A252F896
:1010700023F000BF91100100071101004B11010086
:1010800091110100D1110100FB1101002B1201008F
:10109000BB68184600F0B0FF97ED010A07F108039E
:1010A00093E8030000F008F97D4B93ED058ABB68D7
:1010B00007EE903AF8EE677ADFED7A6A87EEA67A65
:1010C000B0EE470AFFF736FEF0EE407A9FED767AF3
:1010D00067EE877A78EE677AB0EE670AFFF7A3F9D2
:1010E000F0EE407AB2EE047AF4EEC77AF1EE10FA3E
:1010F00004DD04216848FFF7DDFEA7E00121664812
:10110000FFF7D8FEA2E0694B1B685A1C67490A60CA
:10111000462B40F09680654B01221A6002215E4802
:10112000FFF7C8FEBB68624A934240F28A80FB68C0
:10113000002B40F38680FB68B3F5967F80F28180B8
:1011400003215548FFF7B6FE7BE001215248FFF727
:10115000B1FE584B1B681B68184610F02FFE4AA3BF
:10116000D3E9002311F0F4F80346002B02D0FB680A
:10117000132B68DD484C6D4604F110030FCB85E856
:101180000F0094E80F0097ED010A00F089F95DE087
:1011900001214148FFF78EFE464B1B681B6818462D
:1011A00010F00CFE3AA3D3E9002311F0EFF8034648
:1011B000002B4AD1384C6D4604F110030FCB85E863
:1011C0000F0094E80F0097ED010A00F0B9FE3DE032
:1011D00097ED010A07F1080393E8030000F076FE9B
:1011E00097ED010A07F1080393E8030000F064F8A3
:1011F00005212948FFF75EFE28E0FB6807EE903ADC
:10120000F8EEE77AB0EE670AFFF70DF9F0EE407AF4
:10121000B3EE097AF4EEC77AF1EE10FA00DC15E0CD
:1012200001211D48FFF746FE10E000211A48FFF794
:1012300041FE012321E000211748FFF73BFE012377
:101240001BE000BF02E000BF00E000BF144BD3ED85
:10125000057AB0EE670A11F06DFFF0EE407AFCEE11
:10126000E77A17EE902A0E4B1A600D4B1B68642B21
:1012700002D90B4B64221A60002318461037BD4672
:10128000BDEC028BB0BD00BF1904560E2DB28D3FD0
:10129000EC51B81E85EBEF3F741F0020EBA00EEA67
:1012A0002C1C002000007A460000C842700A002072
:1012B000C40301009009002090B587B000AF07F18A
:1012C000080383E8030087ED010ABB68184600F0B5
:1012D00093FEBB6807EE903AB8EE677ADFED5E6A80
:1012E000C7EE267A5D4BC3ED007A5D4B93ED057A30
:1012F0005C4B1B68DFED5C6AC7EE267AC3ED007AB3
:10130000584B1B6804334FF000021A60554B1B68A2
:1013100008334FF000021A600023FB750DE0FA7DE0
:10132000524B1968FB7D9B000B44514992000A44C3
:1013300012681A60FB7D0133FB75FB7D082BEED92B
:101340000023FB750AE04B4B1A68FB7D9B0013449E
:101350004FF000021A60FB7D0133FB75FB7D082B0B
:10136000F1D9444B1B684FF07E521A60414B1B6809
:1013700003F110049FED400AFFF7B6F8F0EE407A53
:10138000C4ED007A3B4B1B6820334FF07E521A604D
:101390000023FB750AE0394B1A68FB7D9B00134460
:1013A0004FF000021A60FB7D0133FB75FB7D052BBE
:1013B000F1D9324B1B68324A1A609FED2F0AFFF7B2
:1013C00093F8F0EE407A2D4B1B680833B7EE007AA5
:1013D00077EE677AC3ED007A0023FB750AE0294BAC
:1013E0001A68FB7D9B0013444FF000021A60FB7DDE
:1013F0000133FB75FB7D022BF1D9224B1B680833AF
:10140000214A1A600023FB750AE0204B1A68FB7D15
:101410009B0013444FF000021A60FB7D0133FB7503
:10142000FB7D012BF1D9194B1B680433184A1A6054
:10143000184B1B684FF000021A60164B1B680433F0
:101440004FF000021A60054B1B68134A136000BF7F
:101450001C37BD4690BD00BF00007A46E41D002049
:101460002C1C0020900900200000C8429809002090
:10147000EC3B0200B0090020617BA3BFB80900204B
:10148000132D3D38C0090020B6F37DBDC8090020EA
:101490000AD723BBD8090020D41D0020FFFFFFFF7F
:1014A00084B0B0B58AB004AF07F1280484E80F0017
:1014B00087ED010AFB6B07EE903AB8EE677ADFED35
:1014C0009A6AC7EE267A994BC3ED007A3B6C07EE19
:1014D000903AB8EEE77ADFED966AC7EE267A954B3A
:1014E000C3ED007A944B95495A6800921B68032219
:1014F00003C9FFF750FA924B92490CCB03C9FFF78F
:1015000081FA8F4B8E490CCB9FED8F0A03C9FFF7F1
:1015100010F98B4A884C88496B4603C983E803005D
:101520000CCA94E80300FFF721F8854B84490CCBE3
:10153000B0EE000A03C9FFF7FCF8814A7E4C8049EF
:101540006B4603C983E803000CCA94E80300FFF765
:1015500047F8794A794C7D4902AB03C983E8030017
:1015600077496B4603C983E803000CCA94E803007B
:10157000FFF796F9764A774C77496B4603C983E8BB
:1015800003000CCA94E80300FFF708F9734B724993
:101590005A6800921B68072203C9FFF7FCF96B4ADF
:1015A0006F4C6A496B4603C983E803000CCA94E890
:1015B0000300FFF7F3F8694A644C64496B4603C9BA
:1015C00083E803000CCA94E80300FEF7CFFF002372
:1015D000FB750AE0634B1A68FB7D9B0013444FF0D8
:1015E00000021A60FB7D0133FB75FB7D022BF1D9F4
:1015F0000023FB751BE05B4B1B6893ED007AFB7DC2
:10160000594A9B001344D3ED006A504B1A68FB7D86
:101610009B001344D3ED007A66EEA77A514B1B680A
:1016200077EE277AC3ED007AFB7D0133FB75FB7DF6
:10163000062BE0D90023FB751EE04A4B1B680433E0
:1016400093ED007AFB7D484A9B001344D3ED006A7A
:101650003E4B1A68FB7D07339B001344D3ED007AA1
:1016600066EEA77A3F4B1B68043377EE277AC3ED0B
:10167000007AFB7D0133FB75FB7D062BDDD9002352
:10168000FB751EE0374B1B68083393ED007AFB7D3A
:10169000354A9B001344D3ED006A2C4B1A68FB7D3E
:1016A0000E339B001344D3ED007A66EEA77A2D4BE0
:1016B0001B68083377EE277AC3ED007AFB7D013390
:1016C000FB75FB7D062BDDD9284B26495A68009215
:1016D0001B68072203C9FFF75EF9244A1B4C234904
:1016E0006B4603C983E803000CCA94E80300FEF7C5
:1016F00077FF0023FB750DE0FA7D124B1968FB7D27
:101700009B000B441A4992000A4412681A60FB7D40
:101710000133FB75FB7D082BEED90023FB757AE0C6
:101720000023BB754BE000BF00007A46E41D00209B
:101730000000C8C3E81D0020000A00209009002016
:10174000080A002098090020BDE38D3CA009002074
:10175000D8090020B8090020100A0020180A00202B
:10176000B0090020A8090020B43B0200D0090020E5
:10177000103C0200BC4B1968BA7D1346DB009A1A74
:10178000FB7D13449B00CA18B84B1968BB7D9B00B6
:101790000B4412681A60B44B1968BA7D1346DB001B
:1017A0009A1AFB7D13449B00CA18B14B1968BB7D84
:1017B0009B000B4412681A60BB7D0133BB75BB7D77
:1017C000022BD7D9AA4AA94CAA496B4603C983E878
:1017D00003000CCA94E80300FEF7E0FFFB7DA64A75
:1017E0009B001344D3ED007AA24BA2490CCBB0EE80
:1017F000670A03C9FEF79DFF9E4AA04C9F496B46AE
:1018000003C983E803000CCA94E80300FEF7AEFEA8
:10181000FB7D0133FB75FB7D062B81D9984B9949E4
:101820005A6800921B68032203C9FFF7B4F8964B6D
:1018300092490CCB03C9FFF7E5F8934B92490CCBC7
:101840009FED920A03C9FEF774FF8F4A8C4C8C49B6
:101850006B4603C983E803000CCA94E80300FEF753
:1018600085FE894B88490CCBB0EE000A03C9FEF710
:1018700060FF854A824C84496B4603C983E80300B4
:101880000CCA94E80300FEF7ABFE7D4A7D4C80490C
:1018900002AB03C983E803007B496B4603C983E8B5
:1018A00003000CCA94E80300FEF7FAFF794B1B68AB
:1018B000794A12681A60784BD3ED007A754B1B6831
:1018C0001C1DB0EE670AFEF72BFEF0EE407AC4ED69
:1018D000007A714BD3ED007AB0EE670AFEF7A3FDF4
:1018E000F0EE407A9FED6D7AF4EEC77AF1EE10FAE1
:1018F00005D5684B1B6804334FF000021A60684B33
:10190000684A1A60644BD3ED007AF5EEC07AF1EEC6
:1019100010FA03D5624B4FF07E521A60624B93ED82
:10192000017A614BD3ED027A67EE277ADFED5F6AC9
:1019300086EEA77AB0EE470AFEF775FDF0EE407A24
:10194000F1EE677AB0EE670AFEF7CEFDF0EE407A70
:10195000574BC3ED007A524BD3ED007A9FED557A89
:1019600067EE877A17EE900A10F028FA3CA3D3E9C5
:10197000002310F07BFA02460B4614461D46464BE8
:101980001B68184610F01AFA02460B4620462946F4
:1019900010F06CFA02460B4614461D46D7ED017A4C
:1019A0009FED457A67EE877A17EE900A10F006FAF7
:1019B00002460B462046294610F082FB02460B46A3
:1019C0001046194610F0ECFC034600EE103AFEF704
:1019D0002AFDF0EE407AF1EE677AB0EE670AFEF784
:1019E00083FDF0EE407A354BC3ED007A344B1B6833
:1019F00010332F4A12681A60314B1B6820332F4A6C
:101A000012681A60264BD3ED007A9FED287A67EEB4
:101A1000877AF1EE676AD7ED017A9FED277A27EE94
:101A2000877A284B1B68C6EE877AC3ED007A204B75
:101A3000D3ED007A234B1B680833B7EE007A77EEBC
:101A4000677AC3ED007A1D4BD3ED007A1D4B1B68FE
:101A50001433B7EE007A77EEC77AC3ED007A33E03D
:101A6000676666666666E63FD0090020280A0020A1
:101A7000300A0020380A0020D03B020098090020DC
:101A8000000A0020A8090020080A0020BDE38D3CC0
:101A9000A0090020D8090020E81D00206F12833A19
:101AA000441C002071F5833F941F00203333333FE3
:101AB000DC1D0020CCFF764200007A46E01D0020AD
:101AC000B0090020B80900204FF000033B6100235B
:101AD000FB7515E0684B1A68FB7D9B001344D3ED42
:101AE000007AB0EE670AFFF775F9B0EE407AD7EDED
:101AF000047A77EE877AC7ED047AFB7D0133FB75B4
:101B0000FB7D062BE6D95D4B1B6897ED047AF1EE61
:101B10000C6AC7EE267AC3ED007A594BD3ED017AF1
:101B2000564B1B680433F1EE677AC3ED007A544BD1
:101B3000D3ED007A534B1B68F1EE677AC3ED007A60
:101B40004D4A4E4C50496B4603C983E803000CCA0A
:101B500094E80300FEF722FE4C4B4A490CCB03C924
:101B6000FEF7A5FD87ED030A0023FB7509E0484B4E
:101B70001A68FB7D9B001344FA681A60FB7D0133F1
:101B8000FB75FB7D062BF2D9414A3F4C3E496B4623
:101B900003C983E803000CCA94E80300FEF7E6FCDF
:101BA0003C4B39490CCB03C9FEF781FDF0EE407A7E
:101BB000394BC3ED007A0023FB750AE0374B1A68F6
:101BC000FB7D9B001344344A12681A60FB7D01338D
:101BD000FB75FB7D062BF1D9304A2B4C30496B4607
:101BE00003C983E803000CCA94E80300FEF7F8FC7D
:101BF0002C4B2D4A1A600023FB7522E0FB7D2B4AFB
:101C00009B00134493ED007A254B1A68FB7D9B00E3
:101C10001344D3ED007A27EE277A214B1A68FB7D17
:101C20009B001344D3ED007A27EE277A1D4BD3EDAA
:101C3000007A77EE277A1B4BC3ED007AFB7D0133E8
:101C4000FB75FB7D062BD9D90023FB750AE0184BE9
:101C50001A68FB7D9B0013444FF000021A60FB7D65
:101C60000133FB75FB7D022BF1D90023FB755EE090
:101C70000023BB7532E000BFA0090020C00900208E
:101C8000941F0020C8090020E0090020D809002086
:101C9000400A0020200A0020D41D0020480A00200D
:101CA000E8090020D81D002066F7E43ED03B020082
:101CB000F0090020724B1968BA7D1346DB009A1AAE
:101CC000FB7D13449B00CA186E4B1968BB7D9B00BB
:101CD0000B4412681A60BB7D0133BB75BB7D022BC0
:101CE000E8D9FB7D684A9B00134493ED007A674B6B
:101CF0001A68FB7D9B001344D3ED007A67EE277AC8
:101D0000604B60490CCBB0EE670A03C9FEF711FDCA
:101D10005C4A5F4C5E496B4603C983E803000CCA0A
:101D200094E80300FEF722FCFB7D0133FB75FB7D8D
:101D3000062B9DD9574BD3ED007AF7EE006A86EE5D
:101D4000A77A554B52490CCBB0EE470A03C9FEF7B0
:101D5000F0FC524B93ED007A514BD3ED007A77EEC5
:101D6000677A504B4C490CCBB0EE670A03C9FEF7BB
:101D7000E0FC4C4A4C4C4D496B4603C983E80300D8
:101D80000CCA94E80300FEF7F1FB484B1B680833CC
:101D9000D3ED007ABFEE007AF4EEC77AF1EE10FAD6
:101DA00004D5424B1B680833414A1A603F4B1B68FD
:101DB0000833D3ED007AB7EE007AF4EEC77AF1EE8D
:101DC00010FA05DD394B1B6808334FF07E521A605C
:101DD000364B1B68D3ED007AF5EEC07AF1EE10FABF
:101DE00003D504213348FFF765F80023FB750EE0A7
:101DF000294B1A68FB7D9B001A442F4B1968FB7D09
:101E00009B000B4412681A60FB7D0133FB75FB7D60
:101E1000022BEDD9284A204C28496B4603C983E898
:101E200003000CCA94E80300FEF7B8FC194BD3ED8D
:101E3000007A224B21490CCBB0EE670A03C9FEF7AA
:101E400078FC1E4A1E4C1E496B4603C983E80300FA
:101E50000CCA94E80300FEF7C3FB144B1B68D3EDD8
:101E6000007A9FED187A67EE877A174BC3ED057AF3
:101E700000BF1837BD46BDE8B04004B0704700BF92
:101E8000D0090020500A0020D03B0200E8090020C1
:101E9000F0090020D81D0020F8090020E41D0020D2
:101EA000D41D0020580A0020A80900209009002015
:101EB000000080BF741F0020600A0020680A002014
:101EC000980900200000C8422C1C002090B585B065
:101ED00000AF07F1080383E8030087ED010ABB6840
:101EE00007EE903AF8EE677ADFED116A87EEA67A90
:101EF000104B1C68B0EE470AFEF71CFFF0EE407A6C
:101F0000C4ED007A0B4B1B6808334FF000021A60D7
:101F1000084B1B68D3ED007A9FED077A67EE877A4E
:101F2000064BC3ED057A00BF1437BD4690BD00BF18
:101F300000007A46900900200000C8422C1C0020B6
:101F400084B080B52DED028B82B000AF07F1180C84
:101F50008CE80F0087ED010A234B1B6893ED008A84
:101F60003B6B18460FF018FF1DA3D3E900230FF0B9
:101F70007DFF02460B461046194610F011FA06EE98
:101F8000900A9FED1A7AC6EE877A174B1B6878EE97
:101F9000277AC3ED007A144B1B68D3ED007AB7EEB5
:101FA000007AF4EEC77AF1EE10FA04DD0E4B1B68EE
:101FB0004FF07E521A600C4B1B68D3ED007A9FEDF8
:101FC0000C7A67EE877A0B4BC3ED057A00BF0837B2
:101FD000BD46BDEC028BBDE8804004B0704700BF39
:101FE000676666666666E63F900900200050C34A51
:101FF0000000C8422C1C002080B485B000AF78607F
:102000000023FB600DE0404B1A68FB689B00134403
:102010003E49FA6892000A4412681A60FB6801336C
:10202000FB60FB680F2BEEDD0023FB600DE0384BFF
:102030001A68FB689B0013443649FA6892000A4408
:1020400012681A60FB680133FB60FB68032BEEDD4E
:102050000023FB600DE0304B1A68FB689B001344C3
:102060002E49FA6892000A4412681A60FB6801332C
:10207000FB60FB68032BEEDD0023FB600DE0284BCB
:102080001A68FB689B0013442649FA6892000A44C8
:1020900012681A60FB680133FB60FB68032BEEDDFE
:1020A0007B6807EE903AB8EE677ADFED1F6AC7EEFD
:1020B000267A1E4BC3ED007A1D4B4FF000021A60CA
:1020C0007B6807EE903AB8EE677ADFED176AC7EEE5
:1020D000267A184BC3ED007A174B184A1A60184B32
:1020E000184A1A60184B194A1A60194B134A1A6099
:1020F000174B144A5A60164B164A9A6000BF1437A1
:10210000BD465DF8047B7047740A0020343C020031
:102110007C0A0020843C0200840A0020943C0200D7
:102120008C0A0020743C020000007A46A41F0020A4
:10213000A81F0020A01F0020AC1F00209EEFA73D7D
:10214000B01F0020B537F83CB41F00207F4E0C3F75
:10215000941F0020A7B4904190B58BB002AF786077
:102160007B6800225A60244B1A697B689A607B68FE
:10217000214A1A607B680022DA601BE07B681868DD
:102180007B685A687B68DB6807F10C0110240094B7
:1021900003F070FA07F10C03FB61FB69D3E902233A
:1021A000164911440B430CD17B68DB6803F1100224
:1021B0007B68DA607B68DA687B689B689A42DDD36B
:1021C00000E000BF7B68DA687B689B689A4203D8AE
:1021D0007B68DB68002B0AD17B681A687B685B68C8
:1021E0001946104603F07AF87B680022DA6000BFD7
:1021F0002437BD4690BD00BF4420002089111FFF39
:1022000082B090B589B002AF786007F1280181E80B
:102210000C007B68DA687B689B689A4207D97B6808
:102220001A687B685B681946104603F057F820A3CC
:10223000D3E90023C7E90C237B6818687B685A68D8
:102240007B68DB681021009107F1280103F035F964
:102250000346002B23D07B6818687B685A687B682C
:10226000DB6807F108011024009403F003FABA6850
:10227000BB6A9A4213D1FA68FB6A9A420FD1D7E936
:102280000401D7E90C23994208BF904207D17B682B
:10229000DB6803F110027B68DA60002301E04FF095
:1022A000FF3318461C37BD46BDE8904002B070476A
:1022B00077EEE0000000000080B483B000AF7860EB
:1022C00039607B683A689A6000BF0C37BD465DF89C
:1022D000047B704780B483B000AF78607B68B3F94B
:1022E0000A3018460C37BD465DF8047B704780B550
:1022F00082B000AF78607B685B68786898477B68DD
:1023000000221A7000BF0837BD4680BD80B582B07C
:1023100000AF78607B689B68786898477B6801228B
:102320001A7000BF0837BD4680BD80B582B000AFCF
:1023300078607B68D3F810387868984700BF083712
:10234000BD4680BD80B483B000AF78607B681B69F8
:1023500018460C37BD465DF8047B704780B483B0E7
:1023600000AF78607B685B6918460C37BD465DF846
:10237000047B704780B483B000AF78607B685B7F7C
:1023800018460C37BD465DF8047B704780B483B0B7
:1023900000AF78607B6893F8583018460C37BD461C
:1023A0005DF8047B7047FFFF80B483B000AF7860B6
:1023B0007B68184A1A627B68002283F858207B6881
:1023C0004FF47A52DA617B6801221A767B686422C4
:1023D0005A647B6864221A647B680022DA637B6833
:1023E00032229A847B684FF6FC72DA847B6844F26E
:1023F0006822DA627B68084A1A637B684DF2D86209
:102400005A637B6800221A8700BF0C37BD465DF80F
:10241000047B7047005C2605B805010080B582B0DA
:1024200000AF78607B6893F8A8207B6883F8A920C8
:1024300005F0D8FC03461A467B6883F8A82000BF45
:102440000837BD4680BD80B483B000AF78607B683C
:1024500093F8A83018460C37BD465DF8047B7047EA
:1024600080B483B000AF78607B6893F8A830012B0C
:1024700006D17B6893F8A930002B01D1012300E03D
:10248000002318460C37BD465DF8047B704780B5C5
:1024900084B000AF7860786800F0AEFB0346FB6064
:1024A0007B689B6C7A68D26D92F822201A437B6815
:1024B0009A647B689A6C7B68DB6D93F823301B020F
:1024C0001A437B689A647B689A6CFB681B041A4306
:1024D0007B689A6400BF1037BD4680BD80B582B06E
:1024E00000AF78607B68DB6D184603F0ECFB7B681F
:1024F000DB6D1846FFF726FF02467B68DA6400BFF3
:102500000837BD4680BD80B582B000AF78607B687B
:10251000DB6D184603F0F8FB7B68DB6D1846FFF7B0
:102520001DFF02467B681A6700BF0837BD4680BDA5
:1025300080B582B000AF78607B68DB6D184603F031
:1025400005FC00BF0837BD4680BD80B582B000AF36
:1025500078607B68DB6D184603F019FC7B68DB6DE7
:102560001846FFF707FF02467B681A6500BF083769
:10257000BD4680BD80B582B000AF78607B68DB6D02
:10258000184603F024FC00BF0837BD4680BD80B567
:1025900082B000AF78607B68DB6D184603F04CFCBE
:1025A00000BF0837BD4680BD80B582B000AF7860FF
:1025B0007B6893F88430002B16D17868FFF7E6FE2D
:1025C0000346032B0BD07868FFF7E0FE0346042B8D
:1025D00005D07868FFF7DAFE0346102B67D10E218D
:1025E000786800F079F862E07B6893F88430012B1A
:1025F0000FD17868FFF7CAFE03460E2B04D10321E2
:10260000786800F069F852E07B68002283F8842043
:102610004DE07B6893F88430022B0AD17868FFF78D
:10262000B5FE03460E2B42D10421786800F054F821
:102630003DE07B6893F88430032B10D17868FFF776
:10264000A5FE03460E2B05D07868FFF79FFE0346D4
:10265000102B2CD10321786800F03EF827E07B682E
:1026600093F88430042B16D17868FFF78FFE034669
:102670000E2B0BD07868FFF789FE0346032B05D09D
:102680007868FFF783FE0346072B10D11021786886
:1026900000F022F80BE00521786800F01DF87B6857
:1026A000002283F884201621786800F095FA00BF94
:1026B0000837BD4680BDFFFF80B582B000AF7860AF
:1026C000012240F2012103480AF0C0FB00BF083795
:1026D000BD4680BD7C2B002080B582B000AF786005
:1026E0000B46FB70FB78013B0F2B66D801A252F81A
:1026F00023F000BF352701004327010073270100A5
:102700006B270100832701009F270100512701004B
:10271000AF270100AF270100AF270100AF2701005D
:10272000AF270100AF27010063270100A7270100A1
:102730007B270100786800F0A7F87B6800225A65C3
:1027400036E0786800F0D0F87B6800229A672FE0C6
:10275000786800F016FA1B4B1B680133194A1360A6
:1027600026E0786800F090F822E0786800F097F8AA
:102770001EE0786800F0B8F81AE0786800F09AF87F
:1027800016E0786800F080F87B68002283F88420E7
:10279000786800F0F6F97B680022DA6308E0786870
:1027A00000F012F804E0786800F01CF800E000BFC8
:1027B0007B68FA7883F8582000E000BF0837BD46F0
:1027C00080BD00BF3820002080B582B000AF7860A7
:1027D0007B68DB6D184604F03CFB00BF0837BD4644
:1027E00080BDFFFF80B588B002AF7860124BD3ED9B
:1027F000057A9FED127A67EE877AB0EE670A10F0DD
:1028000099FCF0EE407AFCEEE77A17EE903ABB6066
:102810007B685B6CFB606A4607F1100393E803007A
:1028200082E8030007F108030CCB0548FFF7E8FC3A
:1028300000BF1837BD4680BD2C1C00200000C842D8
:102840002820002080B582B000AF7860786800F062
:1028500008F801217868FFF73FFF00BF0837BD4641
:1028600080BD80B582B000AF78607B68DB6D1846B4
:1028700003F050F97B6800225A657B6800229A6455
:1028800000BF0837BD4680BD80B582B000AF78601C
:10289000786800F036F800BF0837BD4680BD80B5C7
:1028A00082B000AF7860786800F011F800BF083798
:1028B000BD4680BD80B582B000AF78607B681B6E7E
:1028C0001846FFF723FD00BF0837BD4680BD80B521
:1028D00082B000AF78607B681B6E1846FFF707FD7B
:1028E00000BF0837BD4680BD80B582B000AF7860BC
:1028F0007B689B6E1846FFF7FAFC00BF0837BD46A1
:1029000080BD80B582B000AF78607B689B6E184652
:10291000FFF7FCFC00BF0837BD4680BD80B483B024
:1029200000AF786039607B681B6D3A689A420CBFD3
:1029300001230023DBB218460C37BD465DF8047B4B
:10294000704780B582B000AF78607B68DB6D184659
:1029500003F008F900BF0837BD4680BD80B582B0DE
:1029600000AF78607B68DB6D184603F087F900BF25
:102970000837BD4680BDFFFF80B586B000AF7860E8
:102980007B6893F85830012B00F08F801423BB60D4
:102990007B68DB6D1B681B685B687B617B68DB6D3C
:1029A0001B681B685B683B610023FB7336E07B6838
:1029B000DB6D1B681968FA7B13465B0013449B00B0
:1029C0000B445B687A699A420BD27B68DB6D1B68AB
:1029D0001968FA7B13465B0013449B000B445B6849
:1029E0007B617B68DB6D1B681968FA7B13465B00B3
:1029F00013449B000B445B683A699A420BD97B688D
:102A0000DB6D1B681968FA7B13465B0013449B005F
:102A10000B445B683B61FB7B0133FB73FB7B0F2B40
:102A2000C5D97B6941F29A02934218D97B681B6F22
:102A3000042B14DD1F4B1B781A46BB68934207D248
:102A40001C4B00221A7001217868FFF745FE09E04F
:102A5000184B1B780133DAB2164B1A7002E0154B93
:102A600000221A703B6940F6B732934219D87B684E
:102A70001B6F13F1040F14DA0F4B1B781A46BB6857
:102A8000934207D201217868FFF726FE0A4B002205
:102A90001A700BE0084B1B780133DAB2064B1A7040
:102AA00004E0054B00221A7000E000BF1837BD4655
:102AB00080BD00BF3C2000203D20002080B584B0B8
:102AC00000AF78600023FB730CE07B68D3F88C20A8
:102AD000FB7B9B0013441B68184602F0C5F9FB7B87
:102AE0000133FB73FA7B7B68D3F888309A42ECD3CE
:102AF00000BF00BF1037BD4680BD80B582B000AFBB
:102B000078607B68DB6F184602F08CF900BF0837ED
:102B1000BD4680BD80B582B000AF78607B68D3F8D9
:102B20008030184602F07EF900BF0837BD4680BDF0
:102B300080B582B000AF78607B68DB6D184603F02B
:102B4000B9F900BF0837BD4680BD80B584B000AF7D
:102B500078607B68DB6D1B6818687B68DB6D1B68C1
:102B60001B7907F10C02194602F045FE7B68DB6D0C
:102B7000FA681146184604F059FB00BF1037BD46ED
:102B800080BD80B582B000AF78607B68DB6D184691
:102B900004F021FB00BF0837BD4680BD80B582B080
:102BA00000AF786039607B68D3F8A4303968184684
:102BB000FFF782FB00BF0837BD4680BD80B582B0FD
:102BC00000AF78607B68D3F8A4301846FFF7ADFB00
:102BD00000BF0837BD4680BD80B582B000AF7860C9
:102BE000396039687868FFF7D9FF7868FFF7E6FF42
:102BF00000BF0837BD4680BD90B589B000AF786092
:102C00000023FB7614E07B68D3F88C20FB7E9B00CE
:102C100013441B68FC7E1846FFF75CFB03461A460C
:102C2000630020333B4423F8142CFB7E0133FB76F6
:102C3000FB7E032BE7D97B68DB6F1846FFF74AFB67
:102C40000346BB827B68D3F880301846FFF742FB0F
:102C50000346FB82BB89BB83BB89FB830123BB7615
:102C600024E0BB7E5B0020333B4433F9143CB7F9CE
:102C70001C209A4206DDBB7E5B0020333B4433F8C8
:102C8000143CBB83BB7E5B0020333B4433F9143CD4
:102C9000B7F91E209A4206DABB7E5B0020333B4424
:102CA00033F8143CFB83BB7E0133BB76BB7E052B24
:102CB000D7D9B7F91E30642B04DCB7F91C3013F1F7
:102CC0000A0F10DA144B1B880A2B04D9134B01226C
:102CD0001A7001231CE0104B1B8801339AB20E4B73
:102CE0001A80002314E00D4B1B78002B09D0B7F994
:102CF0001E305A2B03DCB7F91C30002B01DA0123FC
:102D000006E0054B00221A80044B00221A700023B3
:102D100018462437BD4690BD402000203E200020AC
:102D200080B582B000AF7860786805F0C5F900BF63
:102D30000837BD4680BD80B584B000AFF860B9608B
:102D40007A603B60FB68BA681A60FB6800225A60D0
:102D5000FB687A681A61FB683A685A61FB6803F598
:102D60007973184600F0F0F800BF1037BD4680BDFB
:102D700080B582B000AF78600B467B807B6803F53E
:102D800054737A881146184601F070F97B6803F590
:102D90003A737A881146184600F01DFC00BF0837C8
:102DA000BD4680BD80B584B000AF78600B467B80A7
:102DB0007B6803F56E737A880121184601F0F5FDF2
:102DC0000346FB73FA7B7B881946786800F004F8A9
:102DD00000BF1037BD4680BD80B584B000AF7860BD
:102DE0000B467B8013467B700023FB7338E0FA7B35
:102DF000796813461B019B1ADB000B4470331B6878
:102E0000D98BFB7B78685A1C13461B019B1ADB008D
:102E1000034404331B8899421ED1FA7B13461B01DD
:102E20009B1ADB0018337A6813447A78798818463D
:102E300001F028FF0120FFF773FFFB7B5A1C1346AC
:102E40001B019B1ADB0018337A6813447A7879885F
:102E5000184601F017FF00E000BFFB7B0233FB7355
:102E6000FB7B052BC3D900BF00BF1037BD4680BD1B
:102E700080B584B000AF78600B46FB707B6803F5CB
:102E80005473FA781146184601F098F90023FB7341
:102E90000FE0FA7B13461B019B1ADB0018337A689C
:102EA0001344FA781146184601F036FFFB7B0133D4
:102EB000FB73FB7B052BECD90023FB720023BB7259
:102EC00030E0BB7A9AB2FB78043B9BB29B009BB28A
:102ED00013449BB20533BB81FB78032B01D800233D
:102EE000BB81FA7A13461B019B1ADB0018337A6800
:102EF0001344BA891146184601F038FFFB7A5A1C70
:102F000013461B019B1ADB0018337A681344BA89F5
:102F10001146184601F02AFFFB7A0233FB72BB7A96
:102F20000133BB72FB7A052BCBD900BF00BF103732
:102F3000BD4680BD80B483B000AF786000BF0C3761
:102F4000BD465DF8047B704780B485B000AF786003
:102F50007B68002BFCD00023FB6007E07A68FB68ED
:102F6000134400221A70FB680133FB60FB68072BD7
:102F7000F4DD7B6800229A607B680022DA6000BF83
:102F80001437BD465DF8047B704780B487B000AF4E
:102F900078600B467B8000237B820023FB827B686A
:102FA0001B88BB8222E0FA8ABB8A13445B107B82B7
:102FB0007B685A687B8ADB001344FB60FB681B88D4
:102FC0007A889A4201D17B8A27E0FB681B887A883D
:102FD0009A4208D27B8ABB82BB8A002B06D0BB8A6E
:102FE000013BBB8202E07B8A0133FB82FA8ABB8A07
:102FF0009A42D8D3FA8ABB8A9A420CD17B685A6823
:10300000FB8ADB001344FB60FB681B887A889A42CA
:1030100001D1FB8A01E04FF6FF7318461C37BD460D
:103020005DF8047B704780B400AFFEE780B483B0E6
:1030300000AF78600B467B8013467B707B681B88F3
:103040007A889A420DD27B884FF6FF72934208D05D
:103050007B685A687B88DB0013449B787A789A42B5
:1030600001D300230BE07B685A687B88DB001344A4
:1030700059687A7813465B0013449B000B4418464A
:103080000C37BD465DF8047B704780B584B000AF57
:10309000F860B9607A60FB68002B08D0B968F868FE
:1030A00000F009F87968F86800F034F800E000BF33
:1030B0001037BD4680BD80B584B000AF7860396000
:1030C0007B68002B03D03B681B78072B02D9FFF7E6
:1030D000AAFF1CE03B681A787B6883F83420002341
:1030E000FB600DE03A68FB689B0013445A687968FE
:1030F000FB680C339B000B449A60FB680133FB6058
:103100007B6893F834301A46FB689342EADB103749
:10311000BD4680BD80B588B000AF786039607A6800
:10312000D37843F08003D3700023FB770023BB6187
:1031300067E07A68BB690C339B0013441B897B8270
:103140007A68BB690C339B0013449B7A7B747A6862
:10315000BB690C339B001344DB7A3B747B8A1946B2
:103160003868FFF712FF0346FB81FB894FF6FF72B9
:10317000934203D1786800F051F849E07A7CFB89EA
:1031800019463868FFF752FFB860BB68002B03D1BF
:10319000786800F043F83BE000237B6125E0BB68E2
:1031A000DB881A467B6993420ADABB6819687A6938
:1031B000FB7F0A44796804339B000B445A6007E0A4
:1031C000FB7F154A1268796804339B000B445A60F0
:1031D000FB7F0133FB77FB7F082B03D9786800F076
:1031E0001DF815E07B6901337B613B7C7A699A426B
:1031F000D5DB7A68D3786FF3C713D370BB6901331B
:10320000BB617B6893F834301A46BB69934290DB0C
:103210002037BD4680BD00BFA00A002080B485B025
:1032200000AF78600023FB600BE0FB680A4A1A4499
:103230007968FB6804339B000B445A60FB680133D8
:10324000FB60FB68072BF0DD00BF00BF1437BD46F5
:103250005DF8047B704700BF980A002080B487B0F7
:1032600000AFF860B9601346FB800023FB820AE0E0
:10327000FB8ABA681A44FB8AF9680B4412781A7000
:10328000FB8A0133FB82FA8AFB889A42F0D300BFA3
:1032900000BF1C37BD465DF8047B704780B582B027
:1032A00000AF7860034B1B687868984700BF083709
:1032B000BD4680BD940A002080B483B000AF786022
:1032C0007B680022A3F84C2000BF0C37BD465DF898
:1032D000047B704780B582B000AF786039607B684E
:1032E000802283F820207B68243339460422184644
:1032F000FFF7B4FF7B68082283F828207B68183327
:103300001846FFF7CBFF3B681946786800F004F8D1
:1033100000BF0837BD4680BD80B582B000AF786081
:1033200039607B683A689A657868FFF7C5FF7B6803
:1033300000225A757B68002283F854207B680022A3
:1033400083F860207B68032283F8612000BF083780
:10335000BD4680BD80B487B000AFF860B960134649
:10336000FB800023FB820AE0FB8ABA681A44FB8ACE
:10337000F9680B4412781A70FB8A0133FB82FA8ACF
:10338000FB889A42F0D300BF00BF1C37BD465DF8F2
:10339000047B704780B485B000AF78607B681B7891
:1033A0003B727B685B787B723B8918461437BD465D
:1033B0005DF8047B704780B485B000AF78607B68AF
:1033C0001B783B727B685B787B727B689B78BB72F7
:1033D0007B68DB78FB72BB6818461437BD465DF826
:1033E000047B704780B485B000AF786039603B687B
:1033F000BB603A7A7B681A707B6801337A7A1A70FC
:103400007B680233BA7A1A707B680333FA7A1A70CF
:1034100000BF1437BD465DF8047B704780B582B0AD
:1034200000AF7860034B1B687868984700BF083787
:10343000BD4680BD940A002080B483B000AF7860A0
:1034400039607B685A6A3B681340002B14BF012324
:103450000023DBB218460C37BD465DF8047B70478D
:1034600080B483B000AF78607B680122A3F84C2061
:1034700000BF0C37BD465DF8047B704780B483B055
:1034800000AF78607B680022A3F84C2000BF0C37A7
:10349000BD465DF8047B704780B483B000AF7860B0
:1034A0000B467B807B68B3F84C207B8813449AB230
:1034B0007B68A3F84C2000BF0C37BD465DF8047B49
:1034C000704780B483B000AF78607B68B3F84C205D
:1034D0007B68B3F84E309A428CBF01230023DBB2E5
:1034E00018460C37BD465DF8047B704780B483B046
:1034F00000AF78607B68B3F84C30002B14BF012319
:103500000023DBB218460C37BD465DF8047B7047DC
:1035100080B584B000AFF860B9607A60FB680122C2
:103520001A70FA6893694FF4C06161F31C039361E8
:10353000FB68082283F82820FB68002283F82920F2
:10354000FA6853684FF4B06161F31C035360FB6881
:1035500000225A75FB6800229A85FB680022DA85F2
:10356000FB68002283F83020BB68B3F86420FB6856
:103570005A86BB689A6EFB685A63FB680022A3F800
:103580004020FB68002283F84220FB6800225A6436
:10359000FB6800229A64F868FFF770FFFB6800225E
:1035A000A3F84E20FB687A681A65FB68002283F84E
:1035B0005420FB6800229A65FB680022DA65FB68EC
:1035C000002283F86020FB68002283F8612000BF9E
:1035D0001037BD4680BD80B584B000AF78600B4623
:1035E0007B807B881946786800F00EF80346FB73F1
:1035F000FB7B002B03D07B68FA7B83F8612000BF44
:103600001037BD4680BDFFFF80B584B000AF786045
:103610000B467B807B681B7883F00103DBB2002BB9
:1036200001D001238FE07B6893F86030002B01D13B
:10363000002388E07868FFF759FF0346002B10D07D
:103640007B8819467868FFF727FF7868FFF739FF0E
:103650000346002B05D03E497868FFF75DFE032343
:1036600071E0786800F040FB034683F00103DBB2B1
:10367000002B01D0012366E00123FB737B685B7D97
:10368000002B04D17B6893F85430002B5AD07B6810
:103690005B7D002B19D07868FFF7F0FE7B681B7B01
:1036A0005B09DBB2042B10D17B6810331846FFF79F
:1036B00082FE02467B68DA657B6800225A757B6869
:1036C000002283F8602003233DE07B6893F860309C
:1036D000103B052B32D801A252F823F0F536010039
:1036E000013701000D3701001937010025370100AE
:1036F00031370100786800F02DF80346FB731EE0B7
:10370000786800F079F80346FB7318E0786800F0F9
:1037100001F90346FB7312E0786800F091F9034663
:10372000FB730CE0786800F0ADF90346FB7306E02C
:10373000786800F049FA0346FB7300E000BF7B683D
:1037400000225A75FB7B18461037BD4680BD00BF6E
:103750000000040580B584B000AF7860786800F0A0
:10376000EFFA7B685B6CDA887B68DA857B68DB8DD7
:10377000042B1CD87B68DB8DC3F104039B005BB278
:1037800003F00C035BB243F023035BB2BB737B68B3
:10379000BA7B83F820207B6803F124007B685B6C94
:1037A00019687B68DB8D1A46FFF7D4FD0EE02123F4
:1037B000FB737B68FA7B83F820207B6803F124028B
:1037C0007B68DB8D19461046FFF70CFE7B681833CB
:1037D0001846FFF723FE7868FFF742FE7B68002259
:1037E00083F854207B68112283F860200123184657
:1037F0001037BD4680BDFFFF80B586B000AF786052
:103800007B681B7BFB75FB7D5B09DBB2032B05D063
:103810003E497868FFF75EFD032373E07B680D3354
:103820001846FFF7B7FD0346BB827B68DB7BFB7462
:103830007B68B3F84030BA8A9A4205D17B6893F826
:103840004230FA7C9A4205D031497868FFF742FD50
:10385000032357E07B68DB8D042B05D87B680022AF
:1038600083F8602002234DE07B685B6C1B68FB6083
:103870007B68DB8D1A467B689B8D07339A4222DC7E
:103880007B68DB8DBB727B682133BA7A92B2F968B0
:103890001846FFF75FFD7B68DA8D7B689A857B6849
:1038A00093F830305AB2BB7AC3F107035B005BB2C6
:1038B00013435BB243F001035BB27B727B687A7A9D
:1038C00083F8202011E07B6821330722F96818462D
:1038D000FFF740FD7B6807229A857B6893F83030BC
:1038E000FB727B68FA7A83F820207868FFF7B8FDCE
:1038F0007B6818331846FFF791FD7B68122283F826
:103900006020012318461837BD4680BD23000A06F3
:103910004300040680B586B000AF78607B681B7BEF
:10392000FB75FB7D5B09DBB2012B05D04249786852
:10393000FFF7D0FC03237BE0FB7D03F010037A68E4
:1039400092F83020934205D03C497868FFF7C2FCDA
:1039500003236DE07B6893F8303083F01003DAB214
:103960007B6883F830207B68DA8D7B689B8D9A4278
:1039700005D87B68002283F86020022358E07B682A
:103980005B6C1B687A68928D13443B617B68DB8DAE
:103990001A467B689B8D07339A4227DC7B68DB8D58
:1039A000DAB27B689B8DDBB2D31ABB737B682133A1
:1039B000BA7B92B239691846FFF7CCFC7B68DA8D86
:1039C0007B689A857B6893F830305AB2BB7BC3F131
:1039D00007035B005BB213435BB243F001035BB2CE
:1039E0007B737B687A7B83F8202014E07B6821332B
:1039F000072239691846FFF7ADFC7B689B8D0733BA
:103A00009AB27B689A857B6893F83030FB737B6849
:103A1000FA7B83F820207868FFF722FD7B68183353
:103A20001846FFF7FBFC7B68122283F86020012315
:103A300018461837BD4680BD23000A06000003055E
:103A400080B584B000AF7860786800F079F94023E1
:103A5000FB737B68FA7B83F820207B681833184659
:103A6000FFF7DCFC7868FFF7FBFC7B68002283F83B
:103A700054207B68142283F86020012318461037F5
:103A8000BD4680BD80B584B000AF78607B681B7B8D
:103A9000FB73FB7B5B09DBB2022B05D046497868E0
:103AA000FFF718FC032382E07B680D331846FFF70D
:103AB00071FC0346BB817B68DB7BFB727B68B3F8E0
:103AC0004030BA899A4205D17B6893F84230FA7A3D
:103AD0009A4205D039497868FFF7FCFB032366E07A
:103AE000FB7B03F00303032B2CD1FB7B9B109BB2CE
:103AF00003F003039BB2C3F104039AB27B68DA8537
:103B00007B685B6CDA887B68DB8D9A4205D22C4936
:103B10007868FFF701FC032349E07B685B6C186859
:103B20007B6803F110017B68DB8D1A46FFF712FCFE
:103B30007B68DA8D7B689A857B68002283F8602039
:103B4000022334E0FB7B03F00303012B2AD17B68C3
:103B500010331846FFF72FFC03469AB27B68DA85CC
:103B60007B685B6CDA887B68DB8D9A4205D21449EE
:103B70007868FFF7AFFB032319E07B6800229A8582
:103B80007B68602283F820207868FFF769FC7B68F7
:103B900018331846FFF742FC7B68152283F8602033
:103BA000012304E007497868FFF794FB03231846D4
:103BB0001037BD4680BD00BF23000A06430004063F
:103BC000050004051000070680B586B000AF7860D8
:103BD0007B681B7BFB75FB7D5B09DBB2002B05D093
:103BE0003F497868FFF776FB032374E0FB7D03F021
:103BF00010037A6892F83020934205D039497868EA
:103C0000FFF768FB032366E07B6893F8303083F0AE
:103C10001003DAB27B6883F830207B685B6C1B682A
:103C20007A68928D13443B617B68DB8D1A467B6812
:103C30009B8D07339A4222DCFB7D03F00103002BAE
:103C400006D14FF000617868FFF744FB032342E0A0
:103C50007B6803F10D017B68DA8D7B689B8DD31A3D
:103C60009BB21A463869FFF775FB7B68DA8D7B6873
:103C70009A857B68002283F8602002232BE0FB7D7D
:103C800003F00103002B06D04FF000617868FFF7C6
:103C900021FB03231FE07B680D3307221946386997
:103CA000FFF758FB7B689B8D07339AB27B689A8538
:103CB0007B6893F8303043F06003FB737B68FA7BDA
:103CC00083F820207B6818331846FFF7A7FB786835
:103CD000FFF7C6FB012318461837BD4680BD00BF5D
:103CE00023000A060000030580B584B000AF7860A9
:103CF0007B681B6DDA8B7B685B8E9A420CD17B688C
:103D00001A6D7B685B6B19461046FFF795FB0346FF
:103D1000002B01D0012300E00023FB73FB7B03F0A9
:103D20000103FB737B685B8E002B02D0FB7B002BB7
:103D300001D0012300E0002318461037BD4680BDA6
:103D400080B483B000AF78607B68002283F83020B5
:103D50007B6800229A857B68B3F84030DAB27B68D2
:103D600083F821207B68B3F840301B0A9BB2DAB29B
:103D70007B6883F822207B6893F842207B6883F875
:103D8000232000BF0C37BD465DF8047B704780B42C
:103D900087B000AFF860B9601346FB800023FB8258
:103DA0000AE0FB8ABA681A44FB8AF9680B44127865
:103DB0001A70FB8A0133FB82FA8AFB889A42F0D39D
:103DC00000BF00BF1C37BD465DF8047B704780B460
:103DD00085B000AF78607B681B783B727B685B784E
:103DE0007B723B8918461437BD465DF8047B7047EB
:103DF00080B485B000AF78607B681B783B727B68CD
:103E00005B787B727B689B78BB727B68DB78FB722C
:103E1000BB6818461437BD465DF8047B704780B414
:103E200085B000AF786039603B68BB603A7A7B68E8
:103E30001A707B6801337A7A1A707B680233BA7A17
:103E40001A707B680333FA7A1A7000BF1437BD46C4
:103E50005DF8047B7047FFFF80B582B000AF7860EB
:103E6000034B1B687868984700BF0837BD4680BD84
:103E7000940A002080B483B000AF78600B467B804A
:103E800013467B707B681B887A889A420DD27B88A8
:103E90004FF6FF72934208D07B685A687B88DB003C
:103EA00013449B787A789A4201D300230BE07B6815
:103EB0005A687B88DB00134459687A7813465B00A4
:103EC00013449B000B4418460C37BD465DF8047B39
:103ED000704780B483B000AF78607B680122A3F89C
:103EE0004C2000BF0C37BD465DF8047B704780B4A2
:103EF00083B000AF78607B680022A3F84C2000BF3D
:103F00000C37BD465DF8047B704780B483B000AFCA
:103F100078600B467B807B68B3F84C207B88134429
:103F20009AB27B68A3F84C2000BF0C37BD465DF801
:103F3000047B704780B483B000AF78607B68B3F8CF
:103F40004C207B68B3F84E309A428CBF012300238B
:103F5000DBB218460C37BD465DF8047B704780B471
:103F600083B000AF78607B68B3F84C30002B14BF8F
:103F700001230023DBB218460C37BD465DF8047BF5
:103F8000704780B584B000AFF860B9607A603B607C
:103F9000FB6801221A70BB6893F85C3003F5B063CC
:103FA00023F06041FA68936961F31C039361FB6835
:103FB000082283F82820FB68002283F82920BB68A8
:103FC00093F85C3003F5C06323F06041FA685368EE
:103FD00061F31C035360FB6800221A75FB68002222
:103FE0005A75FB6800229A85FB680022DA85FB6817
:103FF000002283F83020BB68B3F85E20FB685A8645
:10400000FB6800221A87FB683A68DA63FB680022C3
:10401000A3F84020FB68002283F84220FB680022BE
:104020005A64FB6800229A64F868FFF760FFBB6877
:10403000B3F86020FB68A3F84E20FB687A681A6525
:10404000FB68002283F85420FB6800229A65FB6815
:104050000022DA65FB68002283F86020FB680022FA
:1040600083F8612000BF1037BD4680BD80B582B0A7
:1040700000AF78600B467B807B881946786800F03B
:1040800009F803461A467B6883F8612000BF0837A9
:10409000BD4680BD80B584B000AF78600B467B80A4
:1040A0007B681B7883F00103DBB2002B01D0012376
:1040B0007DE07868FFF753FF0346002B10D07B8824
:1040C00019467868FFF721FF7868FFF733FF03464A
:1040D000002B05D038497868FFF71EF9032366E006
:1040E0000123FB737B685B7D002B04D17B6893F815
:1040F0005430002B5AD07B685B7D002B26D078682B
:10410000FFF7F5FE7B681B7B5B09DBB2042B10D14C
:104110007B6810331846FFF76BFE02467B68DA6552
:104120007B6800225A757B68002283F86020032395
:104130003DE07B6893F86030002B07D1786800F091
:10414000A1F80346032B01D1032330E07B6893F8E9
:104150006030113B042B25D801A252F823F000BF98
:104160007541010081410100A54101008D4101001F
:1041700099410100786800F0E9F80346FB7312E00A
:10418000786800F0ADF90346FB730CE0786800F046
:1041900087FA0346FB7306E0786800F0DDFA034611
:1041A000FB7300E000BF7B6800225A75FB7B18465A
:1041B0001037BD4680BD00BF0000040580B485B047
:1041C00000AF78600B46FB707B681B78FB737B68E5
:1041D00000221A70FB7803F07F03D9B27A68137E4D
:1041E00061F306031376FB7803F07F03D9B27A6894
:1041F000137961F3060313717B68FA7B1A7000BFB1
:104200001437BD465DF8047B704780B584B000AFBD
:1042100078607B680D331846FFF7D9FD03461A46D0
:104220007B68A3F840207B68DA7B7B6883F84220B8
:104230007B68DA6B7B68B3F8403019461046FEF7AE
:10424000A4FE03461A467B681A877B681B8F4FF6CD
:10425000FF72934201D1002310E07B68D86B7B682A
:10426000198F7B6893F842301A46FFF703FEF86017
:10427000FB68002B01D1002300E0FB6818461037D3
:10428000BD4680BD80B584B000AF78607B681B7B85
:104290005B09FB73FB7B012B08D0FB7B022B05D05A
:1042A00027497868FFF716F8032345E07868FFF799
:1042B000ACFF02467B685A647B685B6C002B05D1BF
:1042C00020497868FFF706F8032335E0FB7B012BD4
:1042D00020D17B685B6C1B7903F00203002B05D1B6
:1042E00019497868FEF7F6FF032325E07B685B6CCD
:1042F0009B68002B03D17B685B6C1B6803E07B68C9
:104300005B6C9B681B687A6893647B68112283F8F6
:10431000602010E07B685B6C1B7903F00103002BCD
:1043200005D109497868FEF7D5FF032304E07B68CF
:10433000142283F86020012318461037BD4680BD43
:1043400001000405110009060000010680B584B0D3
:1043500000AF78607B6893F85430002B2DD07B68D9
:104360005B6C9B685B6898470346BB73BB7B032B06
:1043700011D17B68002283F854207868FFF7B7FDDD
:104380007B6818331846FFF767FD7B68002283F8C7
:10439000602002239AE0BB7B022B0CD17B680022B9
:1043A00083F854207868FFF7A2FD4A497868FEF741
:1043B00091FF03238AE0012388E0786800F066FA21
:1043C0007B681B7BFB73FB7B03F00303032B48D150
:1043D000FB7B9B109BB203F003039BB2C3F104036E
:1043E0009AB27B68DA857B685B6CDA887B68DB8DE8
:1043F0009A420BD27B68986C7B6803F110017B6852
:104400005B6CDB881A46FFF7C2FC09E07B68986C9E
:104410007B6803F110017B68DB8D1A46FFF7B7FC60
:104420007B68DA8D7B689A857B68602283F8202020
:104430007B685B6C9B68002B0AD17B68183318463D
:10444000FFF70AFD7B68002283F8602002233DE02D
:104450007868FFF73EFD7B68012283F85420012332
:1044600034E0FB7B03F00303012B2AD17B6810337C
:104470001846FFF7BDFC03469AB27B68DA857B6875
:104480005B6CDA887B68DB8D9A4205D212497868CA
:10449000FEF720FF032319E07B6800229A857B68E2
:1044A000602283F820207868FFF713FD7B681833BB
:1044B0001846FFF7D1FC7B68122283F860200123A5
:1044C00004E006497868FEF705FF03231846103715
:1044D000BD4680BD21000008050004051000070648
:1044E00080B586B000AF78607B6893F85430002BBD
:1044F0002DD07B685B6C9B685B68984703467B7339
:104500007B7B032B11D17B68002283F854207868D1
:10451000FFF7EDFC7B6818331846FFF79DFC7B68BE
:10452000002283F860200223B0E07B7B022B0CD1B9
:104530007B68002283F854207868FFF7D8FC55493F
:104540007868FEF7C7FE0323A0E001239EE07B68A6
:104550001B7BFB75FB7D5B09DBB2002B05D04E4955
:104560007868FEF7B7FE032390E0FB7D03F01003AD
:104570007A6892F83020934205D048497868FEF76F
:10458000A9FE032382E07B689B6C7A68928D1344BA
:104590003B617B68DB8D1A467B689B8D07339A42B3
:1045A0003FDCFB7D03F00103002B06D14FF00061DF
:1045B0007868FEF78FFE032368E07B6803F10D0146
:1045C0007B68DA8D7B689B8DD31A9BB21A4638695B
:1045D000FFF7DDFB7B68DA8D7B689A857B6893F853
:1045E000303043F02003BB737B68BA7B83F8202014
:1045F0007B685B6C9B68002B0AD17B68183318467C
:10460000FFF72AFC7B68002283F8602002233DE04C
:104610007868FFF75EFC7B68012283F85420012351
:1046200034E0FB7D03F00103002B06D04FF0006166
:104630007868FEF74FFE032328E07B680D330722DE
:1046400019463869FFF7A3FB7B689B8D07339AB245
:104650007B689A857B6893F8303043F02003FB73C6
:104660007B68FA7B83F820207868FFF732FC7B6850
:1046700018331846FFF7F0FB7B6893F8303083F06F
:104680001003DAB27B6883F830200123184618370C
:10469000BD4680BD2100000823000A060000030576
:1046A00080B584B000AF7860786800F0EFF87B6880
:1046B0005B6CDA887B68DA857B68DB8D042B2AD813
:1046C0007B68DB8DC3F104039B005BB203F00C033A
:1046D0005BB243F043035BB2BB737B68BA7B83F886
:1046E00020207B6803F124007B685B6C19687B6881
:1046F000DB8D1A46FFF74BFB7B6818331846FFF734
:10470000ABFB7B68DA8D7B689A857B68002283F837
:10471000602002231BE04123FB737B68FA7B83F854
:1047200020207B6803F124027B68DB8D194610464C
:10473000FFF775FB7B6818331846FFF78DFB786829
:10474000FFF7C7FB7B68152283F86020012318461A
:104750001037BD4680BDFFFF80B586B000AF7860E2
:104760007B681B7BFB75FB7D5B09DBB2032B05D0F4
:1047700044497868FEF7AEFD03237EE0FB7D03F03D
:1047800010037A6892F83020934205D03E49786849
:10479000FEF7A0FD032370E07B685B6C1B687A6802
:1047A000928D13443B617B68DB8D1A467B689B8D41
:1047B00007339A423ADC7B68DB8DDAB27B689B8DEB
:1047C000DBB2D31ABB737B682133BA7B92B23969EF
:1047D0001846FFF7DCFA7B68DA8D7B689A857B6880
:1047E00093F830305AB2BB7BC3F107035B005BB276
:1047F00013435BB243F001035BB27B737B687A7B4C
:1048000083F820207B6818331846FFF725FB7B6868
:1048100093F8303083F01003DAB27B6883F83020ED
:104820007B68002283F86020022326E07B68213326
:10483000072239691846FFF7AAFA7B689B8D073370
:104840009AB27B689A857B6893F83030FB737B68FB
:10485000FA7B83F820207B6818331846FFF7FCFAB0
:104860007868FFF736FB7B6893F8303083F01003ED
:10487000DAB27B6883F83020012318461837BD462A
:1048800080BD00BF23000A060000030580B483B08A
:1048900000AF78607B68002283F830207B680022BC
:1048A0009A857B685A7B7B6883F821207B689A7B9A
:1048B0007B6883F822207B68DA7B7B6883F823207F
:1048C00000BF0C37BD465DF8047B704780B485B0EF
:1048D00000AF78607B681B783B727B685B787B728B
:1048E0003B8918461437BD465DF8047B704780B499
:1048F00085B000AF78600B467B807B883B813A7A3D
:104900007B681A707B6801337A7A1A7000BF14379B
:10491000BD465DF8047B704780B582B000AF78601B
:10492000034B1B687868984700BF0837BD4680BDB9
:10493000940A002080B483B000AF786039607B684F
:1049400003221A747A683B68043393E8030082E810
:1049500003007B6800225A743B689A897B689A82BC
:104960003B68DA897B68DA823B68B3F858207B6859
:104970001A833B6893F85A207B689A767B680022FA
:104980009A837B680022DA837B68002283F82020E8
:104990007B6800225A627B68002283F8282000BFCF
:1049A0000C37BD465DF8047B704780B584B000AF1E
:1049B00078600B46FB7013463B800023FB737B68DB
:1049C000DB7823F07F03DBB2002B70D17B689A8BFE
:1049D0003B881344BB817B689B8BBA899A4202D97E
:1049E0007B68BA899A837B68DB7803F04003DBB28B
:1049F000002B33D07B689A8B7B689B8A9A424AD380
:104A00007B68DB8B01339AB27B68DA837B68DA8B55
:104A10007B681B8B9A4218D97B680122DA837B68FA
:104A200093F820300133DAB27B6883F820207B686A
:104A300093F820207B689B7E9A4203D97B680022F2
:104A400083F82020786800F051F8786800F034F896
:104A50000123FB737B6800229A831CE07B685B7CEC
:104A6000002B18D07B6808331846FFF72FFF03464A
:104A70001A467B68DA837B689A7A7B6883F8202001
:104A8000786800F033F87B6800229A830123FB7377
:104A90007B6800225A747B689A8B7B68DB8A9A4217
:104AA00094BF01230023DAB27B6883F82820FB7BC4
:104AB00018461037BD4680BD80B582B000AF786023
:104AC0007B6803F108027B68DB8B19461046FFF711
:104AD0000EFF7B6893F820207B689A727B681846EB
:104AE000FFF71AFF00BF0837BD4680BD80B483B012
:104AF00000AF78607B6893F820301A46012393401A
:104B00001A467B685A6200BF0C37BD465DF8047BCD
:104B10007047FFFF80B582B000AF7860034B1B6821
:104B20007868984700BF0837BD4680BD940A0020CA
:104B300080B400AFFEE780B483B000AF7860396026
:104B40007B685A6A3B681340002B14BF0123002383
:104B5000DBB218460C37BD465DF8047B704780B564
:104B600084B000AFF860B9607A603B603A687968F9
:104B7000F868FEF78AFABB691A68FB68DA65BB69F0
:104B80001A89FB68A3F86420BB695A89FB68A3F8FB
:104B90006620BB699A89FB68A3F86820BB699A7B89
:104BA000FB6883F86A20BB691A69FB68DA66FB68F0
:104BB000DA6DFB681A60FB6808221A74FB68002231
:104BC0005A74FB68BA689A65FB68B3F86830DAB261
:104BD000FB6883F87020FB68B3F86630DAB2FB68D4
:104BE00083F87120FB68002283F87220FB683A7F0B
:104BF00083F87320FB683A6A5A673B7F022B05D122
:104C00003B6A002B07D1FFF793FF04E0BB69002B41
:104C100001D1FFF78DFF00BF1037BD4680BD80B5C5
:104C200084B000AF78607B6893F87330022B0AD1B0
:104C30007B685B6F7A680832104698477B68184635
:104C4000FFF768FF1AE00023FB7310E07B6803F1B5
:104C50001402FB7B9B0013441A687B6803F1080174
:104C6000FB7B0B4412781A70FB7B0133FB73FB7BDD
:104C7000072BEBD97B681846FFF74CFF00BF1037B6
:104C8000BD4680BD80B582B000AF78600B467B80AA
:104C900013467B707B68DB7823F07F03DBB2002B4D
:104CA00036D17B68B3F864304FF6FF72934208D177
:104CB0007B6893F87230002B2AD07868FFF7AFFF3B
:104CC00026E07B78002B23D07B689B6DDA8B7B689A
:104CD000B3F864309A420ED17B689A6D7B68DB6EC4
:104CE00019461046FFF727FF0346002B03D07868CC
:104CF000FFF795FF0CE07B68B3F86430002B07D119
:104D00007B6893F87230002B02D07868FFF787FF3A
:104D100000BF0837BD4680BD80B485B000AF786065
:104D20000B46FB707B68DB78C3F3C013DBB2002B50
:104D300014BF01230023FB737A68D37843F0800308
:104D4000D370FB7803F07F03D9B27A68137861F3EC
:104D5000060313707A68D378F97B61F3C713D370B5
:104D600000BF1437BD465DF8047B704780B485B042
:104D700000AF78600B467B807B68DB78C3F3C013A1
:104D8000DBB2002B14BF01230023FB737A68D378B6
:104D900043F08003D3707B687A88A3F864207A6834
:104DA000D378F97B61F3C713D37000BF1437BD46C6
:104DB0005DF8047B704780B582B000AF78607B6897
:104DC0001B697868984700BF0837BD4680BD80B52D
:104DD00082B000AF78607B685B697868984700BFF5
:104DE0000837BD4680BD80B586B000AFB9601146BA
:104DF0001A460346FB810B46BB811346FB8000230A
:104E0000FB82BA89FB89B9681846FBF7B7FA0346F3
:104E1000FB82FA8AFB8813449BB21BB218461837F0
:104E2000BD4680BD80B582B000AF78607868FFF77E
:104E3000C2FF7B6898897B6819687B689A887B6861
:104E4000B3F90630FFF7CFFF0346064A82FB031291
:104E50009210DB17D31A1AB27B685A8100BF083749
:104E6000BD4680BD6766666680B582B000AF78607B
:104E70007868FFF7ACFF00BF0837BD4680BD80B53E
:104E800084B000AF78607B685B68786898470346B9
:104E9000FB737B68FA7B1A70FB7B012B08D17B6864
:104EA0005B69092B04D87B685B695A1C7B685A6173
:104EB000FB7B002B13D17B685B69092B0FD97B68C7
:104EC000DB685A1C7B68DA607B68DA687B689B6801
:104ED0009A4208D37B689A687B68DA6003E07B6853
:104EE0000022DA6000BF00BF1037BD4680BD80B42D
:104EF00085B000AF78607B68FB60FB68002BFCD05E
:104F0000FB6818461437BD465DF8047B704780B5D2
:104F100084B000AF78600B46FB7007F10F02F91CFC
:104F20000123786800F033FCFB7B18461037BD4640
:104F300080BD80B586B000AF786000237B61002320
:104F40003B610023FB600023BB60786800F035FC08
:104F50009F217868FFF7DBFFA5217868FFF7D7FF6F
:104F600003463B61A5217868FFF7D1FF0346FB604C
:104F7000A5217868FFF7CBFF0346BB60786800F097
:104F80002BFC3B691A04FB681B021343BA681343EA
:104F90007B617B6918461837BD4680BD90B585B0EA
:104FA00000AF7860786800F008FC4B217868FFF764
:104FB000AEFF0023FB7306E0A5217868FFF7A7FF8B
:104FC000FB7B0133FB73FB7B032BF5D90023BB7306
:104FD0000CE0BC7BA5217868FFF799FF03461A46D1
:104FE0007B6823445A70BB7B0133BB73BB7B072BAD
:104FF000EFD9786800F0F0FB00BF1437BD4690BDD4
:1050000080B582B000AF7860786800F0D6FB0621EA
:105010007868FFF77CFF786800F0DEFB012003F082
:105020004BF800BF0837BD4680BD80B584B000AFE7
:1050300078600B46FB700023FB73786800F0BDFBC3
:10504000FB78012B0ED105217868FFF760FFA521C1
:105050007868FFF75CFF0346FB737B68FA7B83F895
:1050600024201FE0FB78022B0ED135217868FFF752
:105070004EFFA5217868FFF74AFF0346FB737B6864
:10508000FA7B83F825200DE015217868FFF73FFFB4
:10509000A5217868FFF73BFF0346FB737B68FA7B2B
:1050A00083F82620786800F097FBFB7B18461037C2
:1050B000BD4680BD80B582B000AF7860012002F0AF
:1050C000FBFF786800F079FB05217868FFF71FFF88
:1050D000A5217868FFF71BFF03461A467B6883F813
:1050E0002420012002F0E8FF7B6893F8243003F0CD
:1050F0000103002BECD1786800F06EFB00BF08378D
:10510000BD4680BD80B584B000AFF860B96013467D
:10511000FB80FB68BA689A62FB881946B86803F09E
:10512000E7FD00BF1037BD4680BDFFFF80B586B0EC
:1051300000AF78604FF4867267497868FFF7E2FF46
:105140007B68012283F82720012002F0B5FF7B68ED
:105150009B6A7B617B699B68786998477868FFF7F1
:10516000E8FE38613B69DBB2FB60FB68DBB2113BF8
:105170000F2B6CD801A252F823F000BF415201005E
:10518000335201002552010017520100095201005B
:10519000FB510100ED510100DD510100CD51010035
:1051A0004F5201004F5201004F5201004F52010077
:1051B0004F5201004F520100BD5101007B6809228E
:1051C0001A707B684FF48062DA6146E07B680822DF
:1051D0001A707B684FF40072DA613EE07B68072248
:1051E0001A707B684FF48072DA6136E07B680622C1
:1051F0001A707B688022DA612FE07B6805221A70C2
:105200007B684022DA6128E07B6804221A707B68A0
:105210002022DA6121E07B6803221A707B68102269
:10522000DA611AE07B6802221A707B680822DA6170
:1052300013E07B6801221A707B680422DA610CE0BB
:105240007B6800221A707B680222DA6105E07B68C5
:10525000002283F8272000233AE07B684FF4807215
:105260005A817B684FF480521A617B68DB691A01AE
:105270007B685A617B685B697A68126902FB03F399
:105280007A685289B3FBF2F27B68DA607B681B694B
:105290001A017B689A617B685B697A68126902FB14
:1052A00003F39A0A7B681A627868FFF777FE012198
:1052B0007868FFF7BAFE02217868FFF7B6FE03218F
:1052C0007868FFF7B2FE7B68002283F8272001236D
:1052D00018461837BD4680BD4421002080B582B0F5
:1052E00000AF7860396002E0012002F0E5FE7B68E3
:1052F00093F82730012BF7D07B68012283F8272011
:105300007868FFF7D7FE7B681A693B6802FB03F3F6
:105310003B607868FFF774FE786800F04EFA7B68AF
:105320001B78072B0BD921217868FFF7F0FD3B682C
:105330001B0EDBB219467868FFF7E9FD03E0202178
:105340007868FFF7E4FD3B681B0CDBB21946786810
:10535000FFF7DDFD3B681B0ADBB219467868FFF7F3
:10536000D6FD3B68DBB219467868FFF7D0FD786858
:1053700000F032FA7868FFF79DFE012002F09CFEF3
:105380007B68002283F8272000BF0837BD4680BD18
:1053900080B483B000AF786039607B681B693A687D
:1053A00002FB03F37A685289B3FBF2F318460C3719
:1053B000BD465DF8047B704780B584B000AFF860EF
:1053C000B9607A603B6002E0012002F075FEFB6884
:1053D00093F82730012BF7D0FB68012283F82720B0
:1053E000BA693B681344FA685289934202D8BB6990
:1053F000002B05D1FB685B891A463B68D31ABB6159
:105400003A68BB691344FA685289934205D9FB682C
:105410005B891A463B68D31ABB61F868FFF74AFEFE
:10542000F868FFF7EDFDF86800F0C7F9FB685B89E5
:105430001A467B6802FB03F33A6813447B60FB68FF
:105440001B78072B0BD91221F868FFF760FD7B68EA
:105450001B0EDBB21946F868FFF759FD03E0022185
:10546000F868FFF754FD7B681B0CDBB21946F8683F
:10547000FFF74DFD7B681B0ADBB21946F868FFF7A2
:1054800046FD7B68DBB21946F868FFF740FDBA6954
:10549000B968F86800F067F9F86800F09DF9F868F5
:1054A000FFF708FE012002F007FEFB68002283F8E8
:1054B000272000BF1037BD4680BD80B58AB002AF3F
:1054C000F860B9607A603B60FB681B69BA6A9A420F
:1054D00002D8BB6A002B02D1FB681B69BB62FB6868
:1054E0001B693A689A4201D3002347E03A68BB6AD5
:1054F0001A44FB681B699A4206D9FB681B691A4665
:105500003B68D31ABB6101E0BB6ABB617968F8688C
:10551000FFF73EFF0246FB685B8919463B68B3FB19
:10552000F1F31344FB61FB685B891A463B68B3FBEC
:10553000F2F101FB02F29B1A7B61BB6900937B696C
:10554000FA69B968F868FFF737FFFB690133FB6157
:10555000FB685B891A467B69D31ABA69D31ABB61A7
:10556000FB685B891A467B69D31ABA681344BB602F
:1055700000237B61BB69002BDFDC01231846203749
:10558000BD4680BD80B584B000AFF860B9607A6078
:105590003B6002E0012002F08FFDFB6893F82730AA
:1055A000012BF7D0FB68012283F82720FB685B8979
:1055B0001A46BB69934202D8BB69002B02D1FB6833
:1055C0005B89BB613A68BB691344FA6852899342AC
:1055D00005D9FB685B891A463B68D31ABB61FB6837
:1055E0005B891A467B6802FB03F33A6813447B60CD
:1055F000F86800F0E2F8FB681B78072B0BD90C2148
:10560000F868FFF784FC7B681B0EDBB21946F8686C
:10561000FFF77DFC03E00B21F868FFF778FC7B685F
:105620001B0CDBB21946F868FFF771FC7B681B0A9C
:10563000DBB21946F868FFF76AFC7B68DBB21946F3
:10564000F868FFF764FC0021F868FFF760FCBA69AE
:10565000B968F86800F073F8F86800F0BDF8012048
:1056600002F02AFDFB68002283F8272000BF1037D4
:10567000BD4680BD80B58AB002AFF860B9607A607F
:105680003B60FB681B69BA6A9A4202D8BB6A002B6E
:1056900002D1FB681B69BB62FB681B693A689A42CE
:1056A00001D3002347E03A68BB6A1A44FB681B69D0
:1056B0009A4206D9FB681B691A463B68D31ABB613C
:1056C00001E0BB6ABB617968F868FFF761FE0246DA
:1056D000FB685B8919463B68B3FBF1F31344FB613C
:1056E000FB685B891A463B68B3FBF2F101FB02F2EF
:1056F0009B1A7B61BB6900937B69FA69B968F8689A
:10570000FFF740FFFB690133FB61FB685B891A46C9
:105710007B69D31ABA69D31ABB61FB685B891A46E5
:105720007B69D31ABA681344BB6000237B61BB69F1
:10573000002BDFDC012318462037BD4680BD80B535
:1057400086B000AFF860B9607A60FB689B6A7B61E5
:105750007B691B6A7A68B968786998470346002BA9
:105760001837BD4680BD80B586B000AFF860B9601F
:105770007A60FB689B6A7B617B699B697A68B96820
:10578000786998470346002B1837BD4680BD90B511
:1057900087B000AFF860B9607A603B60FB689B6AD5
:1057A0007B617B69DC693B687A68B9687869A04786
:1057B0000346002B1C37BD4690BD80B584B000AFBA
:1057C00078607B689B6AFB60FB689B68F868984719
:1057D00000BF1037BD4680BD80B584B000AF786093
:1057E0007B689B6AFB60FB68DB68F868984700BFD2
:1057F0001037BD4680BD80B489B000AFF8600B465D
:105800007A60FB724FF0FF33FB610023FB760023CD
:105810007B6125E07A6913465B0013449B001A46BE
:10582000FB6813441B7A002B17D17A6913465B007F
:1058300013449B001A46FB6813445B68FA699A425A
:105840000BD97B69FB767A6913465B0013449B0096
:105850001A46FB6813445B68FB617B6901337B611B
:10586000FB7A7A699A42D5DB7B68FA691A60FB7E1B
:1058700018462437BD465DF8047B704780B483B07A
:1058800000AF78607B689B6918460C37BD465DF8B1
:10589000047B704780B483B000AF786039607B6868
:1058A0003A689A6100BF0C37BD465DF8047B7047CB
:1058B00080B586B000AFF860B9607A60FB70FB68B5
:1058C0007A681A60FB68FA7883F85E20F86800F05E
:1058D00091FCFB685B6B1846FFF7D0FF0346002B7B
:1058E00040F01481F86800F049FC3B7D43F001036F
:1058F0003B753B7D43F010033B753B7D062262F315
:1059000043033B753B7D062262F347133B755021F1
:10591000F86800F050FC3E21F86800F008FD012115
:10592000F86800F023FD4FF6FF71F86800F000F909
:10593000FC21F86800F008FCF721F86800F03EFD53
:105940002A21F86800F0E6FB0621F86800F0D5FC93
:105950000721F86800F090FB0721F86800F0A6FB2B
:105960000F21F86800F0BCFBBB68B3F8583019464B
:10597000F86801F04FF90821F86801F086FA40F65E
:10598000AC51F86801F09BFA0021F86801F0FEFACA
:105990006421F86801F0E0FA0021F86801F0EBFBFF
:1059A0000021F86801F0FFFB0021F86801F0A0FA7F
:1059B0003C21F86801F0B6FA0021F86801F000FB1C
:1059C0000221F86801F016FBBB681B681946F868ED
:1059D00000F036FEBB685B681946F86800F070FF9F
:1059E000BB689B681946F86800F06CFEBB68DB6812
:1059F0001946F86800F098FFBB681B691946F868FB
:105A000001F05DF8BB685B691946F86800F0D6FDE7
:105A1000BB689B691946F86800F01EFFBB68DB692C
:105A20001946F86801F02EF8BB681B6A1946F86839
:105A300000F0A2FDBB685B6A1946F86800F0E8FE5A
:105A4000BB689B6A1946F86800F0FEFFBB681B6BD9
:105A50001946F86800F0CCFCBB685B6B1946F86827
:105A600000F072FEBB689B6B1946F86800F090FF6F
:105A7000BB68DB6B1946F86800F004FDBB681B6C63
:105A80001946F86800F092FEBB685B6C1946F8682E
:105A900000F0ACFFBB68B3F948301946F86801F074
:105AA000F8F8BB68B3F94A301946F86801F0D1F844
:105AB000BB68B3F94C301946F86801F02AF9BB68A5
:105AC000B3F94E301946F86801F003F9BB68B3F931
:105AD00050301946F86801F09CF9BB68B3F95230B0
