:020000021000EC
:10000000303D0020C99B010035A001000D9C01007E
:100010000D9C01000D9C01000D9C01000D9C010038
:100020000000000000000000000000000D9C010026
:100030000D9C0100000000000D9C01000D9C0100C2
:1000400079B2010077B3010027B4010077B3010052
:1000500027B401000DBA010097CE0100C7CD010001
:1000600053CF01009DCF010047AB01000DBA010045
:100070000DBA0100C5D0010031DA010095D90100A7
:10008000DDBF0100000000000000000000000000D3
:100090000000000000000000000000000000000060
:1000A0000000000000000000000000000000000050
:1000B0000000000000000000000000000000000040
:1000C0000000000000000000000000000000000030
:1000D0000000000000000000000000000000000020
:1000E0000000000000000000000000000000000010
:1000F0000000000000000000000000000000000000
:1001000000000000000000000000000000000000EF
:1001100000000000000000000000000000000000DF
:1001200000000000000000000000000000000000CF
:1001300000000000000000000000000000000000BF
:1001400000000000000000000000000000000000AF
:10015000000000000000000000000000000000009F
:10016000000000000000000000000000000000008F
:10017000000000000000000000000000000000007F
:10018000000000000000000000000000000000006F
:10019000000000000000000000000000000000005F
:1001A000000000000000000000000000000000004F
:1001B000000000000000000000000000000000003F
:1001C000FFFFFFFFFFFFFFFFFFFFFFFFFFFFFFFF3F
:1001D000FFFFFFFFFFFFFFFFFFFFFFFFFFFFFFFF2F
:1001E000FFFFFFFFFFFFFFFFFFFFFFFFFFFFFFFF1F
:1001F000FFFFFFFFFFFFFFFFFFFFFFFFFFFFFFFF0F
:1002000010B5054C237833B9044B13B1044800E012
:1002100000BF0123237010BD20100020000000004B
:100220009CF5010008B5034B1BB10349034800E0EE
:1002300000BF08BD00000000241000209CF5010054
:1002400080B500AF0DF08EFD0DF08CFE0DF0C8FDF9
:100250000DF0C0FC0DF094FE0DF0B8FE00BF80BDA7
:1002600080B487B000AFF860B9601346FB8000230C
:10027000FB820AE0FB8ABA681A44FB8AF9680B44DD
:1002800012781A70FB8A0133FB82FA8AFB889A4241
:10029000F0D300BF00BF1C37BD4680BC704780B4A0
:1002A00085B000AF78607B681B783B727B685B78B9
:1002B0007B723B8918461437BD4680BC704780B4BA
:1002C00085B000AF78607B681B783B727B685B7899
:1002D0007B727B689B78BB727B68DB78FB72BB6848
:1002E00018461437BD4680BC704780B483B000AF59
:1002F00078607B6893F8613018460C37BD4680BC47
:10030000704780B483B000AF78607B68002283F8C8
:10031000612000BF0C37BD4680BC704780B483B0FD
:1003200000AF78600B46FB707B68FA7883F8512049
:1003300000BF0C37BD4680BC7047FFFF80B400AFE4
:10034000BFF34F8F00BF064BDB6803F4E062044944
:10035000044B1343CB60BFF34F8F00BF00BFFDE7DB
:1003600000ED00E00400FA0580B582B000AF7860CF
:1003700039607B68D3F8303139687868984700BFB6
:100380000837BD4680BD80B582B000AF78607B681D
:100390009B68002B04D07B689B687868984700E0D6
:1003A00000BF0837BD4680BD80B582B000AF786021
:1003B0007B68DB68002B04D07B68DB687868984733
:1003C00000E000BF0837BD4680BD80B582B000AFF9
:1003D00078600B46FB70FB7819467868FFF79EFF44
:1003E00000BF0837BD4680BD80B483B000AF7860E1
:1003F0007B6800221A6000BF0C37BD4680BC704786
:1004000080B582B000AF78607B6808331846FFF78C
:10041000BAFF00BF0837BD4680BD80B582B000AFCF
:1004200078607B6808331846FFF7BEFF00BF0837C7
:10043000BD4680BD80B483B000AF78600B46FB70D2
:100440007B68FA7883F8402500BF0C37BD4680BC36
:100450007047FFFF80B584B000AF78607B6893F889
:1004600029391A464D4B4E49786806F0B3FE7B6831
:1004700004229A607B684FF4C0625A647B684FF430
:10048000B0621A647B68474AC3F830217B68464AE9
:10049000C3F834217B68454AC3F828257B68444A61
:1004A000C3F82C257B68434AC3F834257B68424A4D
:1004B000C3F838257B68414AC3F83025404937489E
:1004C0000DF042FD7B6800225A700023FB7341E06F
:1004D0007B68D3F80419FA7B1346DB009B1ADB0018
:1004E000CA18FB7B12682E4941F82320FB7B2C4A5B
:1004F00052F8233004229A60FB7B294A52F82330B9
:1005000000221A60FB7B264A52F823309A68FB7B54
:10051000234951F8233002F5B062DA600023BB733F
:100520000AE0FB7B1E4A52F82320BB7B13440022C7
:100530001A74BB7B0133BB73BB7B1F2BF1D9FB7BD5
:10054000174A52F8233000211846FFF7E7FEFB7BDD
:100550000133FB73FA7B7B685B689A42B8D3002354
:100560007B7310E07B68D3F804197A7B1346DB00B9
:100570009B1ADB000B441B6802211846FFF725FF7E
:100580007B7B01337B737B6893F829397A7B9A42B2
:10059000E8D300BF00BF1037BD4680BDE82A002069
:1005A00040100020C5050100F505010025060100E9
:1005B000A1060100510E010079070100A907010001
:1005C000FD10010080B582B000AF78603960084B43
:1005D000D3F804193A681346DB009B1ADB000B447E
:1005E0001846FFF71AFF00BF0837BD4680BD00BFA1
:1005F000B02D002080B582B000AF78603960084B24
:10060000D3F804193A681346DB009B1ADB000B444D
:100610001846FFF7F5FE00BF0837BD4680BD00BF96
:10062000B02D002080B584B000AFF860C7E900238A
:10063000F9684FF000024FF00003C1E90623FB68A0
:1006400006221A74154B93F84035002B0CD1F8682C
:1006500007F0AEF9FB68072283F86824D7E9002386
:100660000E4807F0E9F914E00C4B93F84035012BE4
:1006700004D00A4B93F84035022B0AD1FB685B6A21
:1006800003211846FFF74AFED7E90023F86807F070
:100690009DF800BF1037BD4680BD00BFB02D0020C3
:1006A00080B584B000AFF860C7E90023FB685B6ADF
:1006B00000211846FFF732FE2D4B93F84035002BF2
:1006C00032D12C4B1B780133DAB22A4B1A70294BEA
:1006D0001B78012B05D8D7E90023F86806F0A6FDA2
:1006E00042E0244B00221A70F86807F040F90346F4
:1006F0001946F868FFF738FE0221F86807F00EF98E
:100700000246FB685A62FB685B6A002B06D11848F8
:1007100002F040FDFB6806221A7425E0D7E90023A9
:10072000F86806F083FD1FE0114B93F84035012B6C
:1007300004D00F4B93F84035022B15D1FB685B6A50
:100740009A68FB689B68D31A1946F868FFF70CFE95
:10075000D7E90023F86807F039F8FB68D3F82831A7
:100760005A1CFB68C3F828211037BD4680BD00BF66
:10077000B02D00203C10002080B485B000AFF860A0
:10078000C7E90023074B93F84135002B04D1FB68E0
:100790000022C3F8202100E000BF1437BD4680BC12
:1007A000704700BFB02D002080B584B000AFF86066
:1007B000C7E90023FB685B6A03211846FFF7AEFD1B
:1007C000054803F0FDFE02210348FFF733FE00BF9A
:1007D0001037BD4680BD00BFB02D002080B582B06F
:1007E00000AF78607B6803F54C731846FFF77DFD1A
:1007F0000346032B0FD10B4B1B885A1C91B2094A9D
:100800001180B3F57A7F09D97B6803F54C731846DC
:10081000FFF777FD02E0034B00221A8000BF083784
:10082000BD4680BD3E100020B0B5B8B000AF7860C6
:100830007B6807F1100003F26943BD2219460EF0F0
:1008400059FC3B7C002B31D0BA7CD54B83F89A25E0
:10085000FA7CD34B83F899253A7DD14B83F89825C0
:100860007B7D1A46CE4BC3F89425BB7D1A46CC4BF4
:10087000C3F8902507F11003013306331846FFF73C
:100880000EFD034618460EF049F8C3A3D3E9002332
:100890000DF0C8FD02460B46104619460EF0A8F8AA
:1008A0000346BF4AC2F88C3500233B747B7E002B85
:1008B00038D0FA7EBA4B83F89D253A7FB84B83F83F
:1008C0009C257A7FB64B83F89B25B54BD3F86838C7
:1008D000B34AC2F8603807F110030A3304331846EC
:1008E000FFF7EDFC0346AE4AC2F86838AC4BD3F8CC
:1008F0006828AB4BD3F860389A4203D2A84B002249
:10090000C3F86028A64BD3F86828A54BD3F8603805
:10091000D31AA34AC2F82438A14B012283F8002934
:1009200000237B7697F82230002B07D097F82A20F7
:100930009B4B83F8A425002387F82230002387F8F7
:10094000DF3078E2964BD3F8041997F8DF2013468E
:10095000DB009B1ADB000B441B6893F85130032B20
:1009600040F0638297F8DF30362202FB03F307F191
:10097000E0021344B53B1B78002B00F0B38097F8DE
:10098000DF3007F11002362101FB03F31833134463
:10099000191D07F1080308221846FFF761FC07F14B
:1009A00008031846FFF77BFC03461A4613469B00D4
:1009B00013445B00C7F8D430D7F8D43047F2305234
:1009C000934212D9D7F8D430764A93420DD8744B5B
:1009D000D3F8041997F8DF201346DB009B1ADB00DD
:1009E0000B441B68D7F8D4209A6607F1080302333A
:1009F0001846FFF754FC03461BB21A466FF0090372
:100A000003FB02F3C7F8D030D7F8D030664A9342E0
:100A100012DBD7F8D030654A93420DDC604BD3F837
:100A2000041997F8DF201346DB009B1ADB000B4408
:100A30001B68D7F8D0201A67594BD3F8041997F8D8
:100A4000DF201346DB009B1ADB000B441B683A7B5C
:100A500083F863203B7B98B2514BD3F8041997F885
:100A6000DF201346DB009B1ADB000B441B680246A9
:100A7000114689000A44520092B2A3F86420484B00
:100A8000D3F8041997F8DF201346DB009B1ADB002C
:100A90000B441B687A7B83F85C2007F1080306335C
:100AA0001846FFF7FCFB034618463D4BD3F80419E4
:100AB00097F8DF201346DB009B1ADB000B441B6812
:100AC000C2B283F89E20364B012283F8452997F85D
:100AD000DF30362202FB03F307F1E0021344B53B9B
:100AE00000221A7097F8DF30362202FB03F307F179
:100AF000E0021344AC3B1B78002B3AD0002387F86C
:100B0000DE3027E097F8DF3007F11002362101FBD5
:100B100003F320331344053397F8DE20520098186E
:100B20001F4BD3F8041997F8DF201346DB009B1AFC
:100B3000DB000B441C6897F8DE50FFF7B0FB034660
:100B40001A4605F13C0324F8132097F8DE300133F0
:100B500087F8DE3097F8DE30032BD3D997F8DF30F3
:100B6000362202FB03F307F1E0021344AC3B002200
:100B70001A7097F8DF30362202FB03F307F1E00228
:100B80001344A33B1B78002B4AD0002387F8DD30A9
:100B900037E000BFAFF30080BA490C022B87B63FA5
:100BA000B02D0020F724010081C7FEFF7F3801002F
:100BB00097F8DF3007F11002362101FB03F32833E9
:100BC0001344063397F8DD20520098189F4BD3F852
:100BD000041997F8DF201346DB009B1ADB000B4457
:100BE0001C6897F8DD301D1DFFF759FB03461A46B8
:100BF00005F13C0324F8132097F8DD30013387F822
:100C0000DD3097F8DD30032BD2D997F8DF3036226C
:100C100002FB03F307F1E0021344AC3B00221A701D
:100C200097F8DF30362202FB03F307F1E0021344AA
:100C30009A3B1B78002B70D0844BD3F8041997F89B
:100C4000DF201346DB009B1ADB000B441B6803F11B
:100C5000980097F8DF3007F11002362101FB03F30B
:100C600030331344073306221946FFF7F9FA97F891
:100C7000DF10764BD3F8040997F8DF201346DB002A
:100C80009B1ADB0003441B684A1C362101FB02F25D
:100C900007F1E0010A44C93A127883F89F2097F8D7
:100CA000DF30362202FB03F307F1E0021344923BEC
:100CB0001B7887F8CF3097F8CF30002B22D097F8E9
:100CC000CF30092B1ED8614BD3F8041997F8DF20D9
:100CD0001346DB009B1ADB000B441B68B3F864006F
:100CE00097F8CF3099B2594BD3F8044997F8DF20E1
:100CF0001346DB009B1ADB0023441B68421892B2A8
:100D0000A3F8642097F8DF30362202FB03F307F1E3
:100D1000E00213449A3B00221A7097F8DF30362223
:100D200002FB03F307F1E0021344913B1B78002B15
:100D30003CD0002387F8DC3029E097F8DF3007F15A
:100D40001002362101FB03F338331344083397F8BC
:100D5000DC20520098183D4BD3F8041997F8DF2097
:100D60001346DB009B1ADB000B441C6897F8DC3051
:100D700003F10805FFF793FA03461A4605F13C0311
:100D800024F8132097F8DC30013387F8DC3097F82B
:100D9000DC30032BD1D997F8DF30362202FB03F386
:100DA00007F1E0021344913B00221A7097F8DF30FC
:100DB000362202FB03F307F1E0021344883B1B7861
:100DC000002B33D0002387F8DB3029E097F8DF30A1
:100DD00007F11002362101FB03F3403313440933BA
:100DE00097F8DB2052009818184BD3F8041997F89D
:100DF000DF201346DB009B1ADB000B441C6897F8CE
:100E0000DB3003F10C05FFF74AFA03461A4605F1F9
:100E10003C0324F8132097F8DB30013387F8DB30EC
:100E200097F8DB30032BD1D900E000BF97F8DF3013
:100E3000013387F8DF3097F8DF30022B7FF682AD81
:100E400000BF00BFE037BD46B0BD00BFB02D0020E1
:100E500080B586B000AF78607B68D3F82431DB6B57
:100E600023F07F037B617B68D3F82431DB6BDBB23B
:100E700003F07F03FB740023BB747B6803F26943B8
:100E8000FB60FB7C022B11D17B69B3F5C07F0DD1D8
:100E9000FB6801221A70FB68581C7B68D3F8243168
:100EA000943308221946FFF7DBF921E1FB7C022B82
:100EB00012D17B69B3F5207F0ED1FB6801225A72F3
:100EC000FB6803F10A007B68D3F8243194330822CD
:100ED0001946FFF7C5F90BE1FB7C022B11D17B69A9
:100EE000B3F5607F0DD1FB6801229A74FB6803F1B2
:100EF00013007B68D3F82431943308221946FFF796
:100F0000AFF97B689B68DBB2FA7CD31ABB74BA7CFE
:100F10007B685B689A4280F0E880774BD3F80419CD
:100F2000BA7C1346DB009B1ADB000B441B68184697
:100F3000FFF75AFA704BD3F80419BA7C1346DB005A
:100F40009B1ADB000B441B6893F85130032B40F0D5
:100F5000CF807B69B3F5906F77D07B69B3F5906FE5
:100F600000F2C5807B69B3F5607F54D07B69B3F52F
:100F7000607F00F2BC807B69B3F5407F00F09A800F
:100F80007B69B3F5407F00F2B2807B69B3F5207FC7
:100F900027D07B69B3F5207F00F2A9807B69B3F588
:100FA000C07F04D07B69B3F5007F68D09FE0BB7C35
:100FB000FA68362101FB03F313441B3301221A7034
:100FC000BB7C362202FB03F31833FA681344181D66
:100FD0007B68D3F82431943308221946FFF740F98F
:100FE00086E0BB7CFA68362101FB03F3134424330B
:100FF00001221A70BB7C362202FB03F32033FA680D
:101000001344581D7B68D3F82431943308221946C1
:10101000FFF726F96CE0BB7CFA68362101FB03F38D
:1010200013442D3301221A70BB7C362202FB03F3DA
:101030002833FA681344981D7B68D3F8243194331D
:1010400008221946FFF70CF952E0BB7CFA683621FA
:1010500001FB03F31344363301221A70BB7C3622A2
:1010600002FB03F33033FA681344D81D7B68D3F8CE
:101070002431943308221946FFF7F2F838E0BB7C9C
:10108000FA68362101FB03F313443F3301221A703F
:10109000BB7C362202FB03F33833FA68134403F1B6
:1010A00008007B68D3F82431943308221946FFF7EF
:1010B000D7F81DE0BB7CFA68362101FB03F313442B
:1010C000483301221A70BB7C362202FB03F3403303
:1010D000FA68134403F109007B68D3F82431943390
:1010E00008221946FFF7BCF802E000BF00E000BF8D
:1010F0001837BD4680BD00BFB02D002080B584B03C
:1011000000AF78607B68DA6B7B68943319461046D1
:1011100004F004FD7B68DB6BFB607B68DB6B23F01A
:101120007F03B3F5906F1AD0B3F5906F1DD8B3F568
:10113000607F14D0B3F5607F17D8B3F5407F0ED031
:10114000B3F5407F11D8B3F5207F08D0B3F5207FE9
:101150000BD8B3F5C07F02D0B3F5007F05D1254B86
:10116000D3F834352348984741E000BF214BDB6872
:10117000FA689A423BD11F4B1B7C002B19D11D4BA7
:10118000D3F824311B4AD2689A621A4BD3F824311F
:1011900000229A63174BD3F82421164BD3F824313D
:1011A0008433194610460CF035FE124B01221A7496
:1011B0001AE0104B1B7C022B03D10E4B03221A7436
:1011C00012E00C4B1B7C042B0ED17B6893F89430FF
:1011D0001A46084B5B6A9B689A4207D1064BD3E9D3
:1011E0000023044806F022F800BF00E000BF1037DB
:1011F000BD4680BDB02D0020F0130020B0B590B0EA
:1012000000AF154B93F87B39012B21D1124B0022F3
:1012100083F87B29114B3C461D460FCD0FC40FCDE3
:101220000FC40FCD0FC495E80F0084E80F00012311
:101230003B7038464023012208490CF0DFFE0121B3
:10124000642008F03DFE064B00221A70FFF776F886
:1012500000BF4037BD46B0BDB02D002040000008A3
:101260004C10002080B483B000AF0346FB800949D6
:10127000FB881B0A9BB21A46FB88DBB2120113449F
:1012800051F82330C3F34003DBB218460C37BD4698
:1012900080BC70470008084080B483B000AF78601D
:1012A0007B681B7918460C37BD4680BC704780B5FB
:1012B00082B000AF78607B689B68002B04D07B68AD
:1012C0009B687868984700E000BF0837BD4680BD3E
:1012D00080B582B000AF78607B68DB68002B04D0FB
:1012E0007B68DB687868984700E000BF0837BD4638
:1012F00080BD80B483B000AF78600B46FB707B6824
:10130000FA781A7000BF0C37BD4680BC7047FFFFEB
:1013100080B582B000AF78607B68654AC3F810285A
:101320007B68644AC3F80C287B68634AC3F88C2640
:101330007B68624AC3F890267B68614AC3F89426AA
:101340007B68604AC3F8AC267B685F4AC3F8B02666
:101350007B685E4AC3F8B4267B685D4AC3F8B8264A
:101360007B685C4AC3F8CC267B685B4AC3F8D0260E
:101370007B685A4AC3F8D4267B68594AC3F8D826F2
:101380007B68584AC3F8EC267B68574AC3F8F026B6
:101390007B68564AC3F8F4267B68554AC3F8F8269A
:1013A0007B68544AC3F808267B68534AC3F80C2666
:1013B0007B68524AC3F810267B68514AC3F8282636
:1013C0007B68504AC3F82C267B684F4AC3F8302606
:1013D0007B684E4AC3F868267B684D4AC3F86C2682
:1013E0007B684C4AC3F870267B684B4AC3F82C27AD
:1013F0007B684A4AC3F80C277B68494AC3F84C27E4
:101400007B68484AC3F850277B68474AC3F854278B
:101410007B68464AC3F848267B683F4AC3F82C27B6
:101420007B68434AC3F830277B68424AC3F83427B5
:101430007B68414AC3F8D0277B68404AC3F8D42769
:101440007B683F4AC3F8B0277B683E4AC3F8B4279D
:101450007B683D4AC3F86C277B683C4AC3F8702719
:101460007B683A4AC3F874277B68394AC3F8EC278B
:101470007B68384AC3F8F0277B68364AC3F8F427FC
:101480007B68354AC3F88C277B6842F22502C3F893
:1014900080277B6842F22602C3F800287B6803F2AB
:1014A000FC53184604F07AFE00BF0837BD4680BDE5
:1014B000AD2101003920010025160100B91B0100F2
:1014C000851E01005D150100951C0100A91E01008B
:1014D000B51C0100A5150100E51C0100C91E010095
:1014E000D11F0100C3150100051D0100E91E010007
:1014F00005200100DF150100251D0100091F010065
:10150000F3150100391D01001D1F0100F116010036
:10151000591D01003D1F010011160100C1160100F7
:10152000C51801007D1D01006D1F0100D5160100C9
:101530006B1D0100511F0100C91D0100B91F0100F1
:10154000A51D0100951F0100B91A0100711E0100BF
:10155000951B0100E11D01000D17010080B584B04D
:1015600000AF786040F20740FFF77CFE0346FB7354
:101570000B4B1B7823F00203DAB2094B1A70084BAD
:101580001B785AB2FB7B5B005BB213435BB2DAB2EF
:10159000034B1A70FB7B18461037BD4680BD00BF59
:1015A0005010002080B584B000AF786040F2013068
:1015B000FFF758FE0346FB73FB7B18461037BD460A
:1015C00080BD80B584B000AF78600F20FFF74AFE81
:1015D0000346FB73FB7B18461037BD4680BD80B4C5
:1015E00083B000AF7860002318460C37BD4680BC3E
:1015F000704780B584B000AF786040F20940FFF7D3
:1016000031FE0346FB73FB7B18461037BD4680BD99
:1016100080B483B000AF7860002318460C37BD4615
:1016200080BC704780B584B000AF78607B681B7861
:10163000FB734FF48160FFF715FE0346BB73BA7B63
:10164000FB7B9A421AD01B4B1B785A1CD1B2194A09
:1016500011700A2B12D9184B1B7823F00103DAB250
:10166000154B1A70144B1A78BB7B1343DAB2124B2A
:101670001A70104B00221A70BB7B17E0BA7BFB7B01
:101680009A4202D10B4B00221A700C4B93F82D3169
:10169000012B0AD1084B1B7823F00103DAB2064B69
:1016A0001A70054B1A78044B1A70FB7B18461037DA
:1016B000BD4680BD5910002050100020B02D0020E4
:1016C00080B483B000AF7860002318460C37BD4665
:1016D00080BC704780B582B000AF78604FF4007076
:1016E000FFF7C0FD0346DBB218460837BD4680BD94
:1016F00080B582B000AF78604FF40070FFF7B2FDA4
:101700000346DBB218460837BD4680BD80B582B0BF
:1017100000AF78607B681B78002B16D1644B5B7838
:1017200023F01003DAB2624B5A70614B5A78604B67
:101730005A705F4B5B7823F02003DAB25C4B5A702F
:101740005B4B5A785A4B5A7036E05A4B1B78002B39
:1017500019D0574B5B7823F01003DAB2544B5A7010
:10176000534B5A78524B5A70514B5B7823F02003FD
:10177000DAB24F4B5A704E4B5B7843F02003DAB22B
:101780004B4B5A7018E04A4B5B7823F01003DAB2E7
:10179000474B5A70464B5B7843F01003DAB2444B28
:1017A0005A70434B5B7823F02003DAB2404B5A70F7
:1017B0003F4B5A783E4B5A707B681B78002B2FD1D9
:1017C0003D4BD3F88C35002B2AD13B4B93F8C836D0
:1017D000012B25D1384B93F8E836012B20D1364B1D
:1017E00093F88836012B1BD140F20620FFF73AFD13
:1017F0000346012B06D17B68DA69304B1B681A441B
:101800007B68DA617B68DB6940F2DC5293420AD97B
:101810007B6801221A707B680022DA61012342E0B2
:101820007B680022DA617B681B78012B39D1224B5F
:1018300093F8C836012B09D11F4B93F8E836012BDA
:1018400004D11D4B93F88836012B05D07B6800220C
:101850001A70184B01221A7040F20620FFF702FDA1
:101860000346012B07D1164B1A68144B1B6813440F
:10187000134A136002E0124B00221A60104B1B68DF
:10188000322B0ED10B4B1B78002B14BF01230023EE
:10189000DBB283F00103DBB203F00103DAB2054BE4
:1018A0001A707B681B7818460837BD4680BD00BF9C
:1018B0005010002000080020B02D002098F50100F5
:1018C0006C10002080B584B000AF78607B681B7816
:1018D000002B1ED1704B1B881E2B13D96F4B1B780E
:1018E00023F02003DAB26D4B1A706C4B1B785AB29E
:1018F0007B681B785B015BB213435BB2DAB2674B68
:101900001A7019E0644B1B8801339AB2624B1A803B
:1019100012E0624B1B7823F02003DAB25F4B1A709F
:101920005E4B1B785AB27B681B785B015BB213433A
:101930005BB2DAB2594B1A70594B93F88836002BC8
:1019400001D10123A4E0564B93F88836012B0FD127
:10195000534BD3F88C35002B0AD17B681B78002BB6
:1019600006D1504B1B8801339AB24E4B1A8002E0CD
:101970004C4B00221A804B4B1B8847F2305293424B
:1019800001D9012384E0464B93F88837012B08D115
:101990007B681B78012B02D17B6800221A70002320
:1019A00076E040F20720FFF75DFC0346FB733E4BF9
:1019B0001B88092B0CD8FB7B002B09D17B681B787B
:1019C000002B05D1384B1B8801339AB2364B1A8055
:1019D000FB7B012B13D1344B1B88092B0FD9304BC8
:1019E000D3F88C35002B0AD17B681B78002B06D1ED
:1019F0002E4B1B8801339AB22C4B1A8002E02B4BE2
:101A000000221A80294B1B88322B0CD9244B93F8C7
:101A10004035022B07D1254B00221A80244B00228F
:101A20001A80012334E0224B1B88092B0CD8FB7B46
:101A3000002B09D17B681B78012B05D11C4B1B881F
:101A400001339AB21A4B1A80FB7B012B0AD1184B37
:101A50001B88092B06D9174B1B780133DAB2154BBB
:101A60001A7002E0134B00221A70124B1B781E2BC7
:101A70000CD97B681B78012B08D17B6800221A7077
:101A8000094B00221A80044B00221A807B681B78C5
:101A900018461037BD4680BD66100020501000204B
:101AA000B02D00205A1000205C100020641000208F
:101AB0005E1000205810002080B584B000AF786020
:101AC000304B93F88837012B02D17B681B7854E0A8
:101AD00040F20620FFF7C6FB0346BB737B681B780A
:101AE000FB73BB7B002B09D1274B1B88042B05D82C
:101AF000254B1B8801339AB2234B1A80BB7B012BE9
:101B00000AD1214B1B88042B06D9204B1B8801339B
:101B10009AB21E4B1A8002E01C4B00221A801B4B0B
:101B20001B881E2B09D97B681B78002B05D101234C
:101B3000FB73154B00221A800CE0144B1B881E2BE4
:101B400008D97B681B78012B04D10023FB730E4B53
:101B500000221A800E4B1B7823F01003DAB20C4BD4
:101B60001A700B4B1B785AB2FB7B1B015BB2134301
:101B70005BB2DAB2064B1A70FB7B18461037BD46D3
:101B800080BD00BFB02D002062100020601000203A
:101B90005010002080B584B000AF786040F207207C
:101BA000FFF760FB0346FB73FB7B18461037BD460F
:101BB00080BDFFFFFFFFFFFF80B582B000AF786000
:101BC0002D48FFF774FB2D4B93F84835012B09D0B6
:101BD0002A4B93F84837012B04D0284B93F87A39D5
:101BE000002B03D02648FFF773FB19E0234B93F833
:101BF0004837002B14D1214B93F84035022B0FD1DD
:101C00001E4BD3F8A835002B07D01C4BD3F8A835B2
:101C1000013B1A4AC2F8A83502E01948FFF747FB12
:101C2000184804F05CF8154B012283F87C27012149
:101C30001548FFF75EFB154BD3E900231046194604
:101C40000CF0A0FE0AA3D3E900230CF01BFD024612
:101C50000B46104619460DF02FFA02460B460C496A
:101C6000C1E9002300BF0837BD4680BDAFF3008047
:101C7000000000000088C34078350020B02D00200F
:101C80005835002018350020AC330020F013002018
:101C9000B009002080B582B000AF78600122012138
:101CA00003480AF008FB00BF0837BD4680BD00BFEF
:101CB0001829002080B582B000AF78600120FFF7BE
:101CC000D1FA0346002B0CBF01230023DBB21A46D6
:101CD000012103480AF0EFFA00BF0837BD4680BD76
:101CE0001829002080B582B000AF7860012240F250
:101CF000024103480AF0DFFA00BF0837BD4680BD45
:101D00001829002080B582B000AF7860012240F22F
:101D1000091103480AF0CFFA00BF0837BD4680BD5D
:101D20001829002080B483B000AF786000BF0C3762
:101D3000BD4680BC7047FFFF80B582B000AF7860C1
:101D40000122002103480AF0B6FA00BF0837BD4659
:101D500080BD00BF1829002080B483B000AF786038
:101D600000BF0C37BD4680BC704780B483B000AF65
:101D7000786000BF0C37BD4680BC704780B483B02C
:101D800000AF7860064B012283F8C826044B01227D
:101D900083F8E82600BF0C37BD4680BC704700BF03
:101DA000B02D002080B582B000AF78607B68012242
:101DB0001A7001220E2103480AF07DFA00BF08378D
:101DC000BD4680BD1829002080B483B000AF786084
:101DD0007B6801221A7000BF0C37BD4680BC70477B
:101DE000B0B586B004AF78601D48FFF755FA0346DA
:101DF000002B15D17B681B7D002B11D07968194B06
:101E0000D3E9002312F5FA7443F10005CDE9024548
:101E1000042300930B4602221349144805F096FA56
:101E20000F48FFF739FA0346022B07D17B680022DF
:101E30001A750E4B002283F834200CE00848FFF797
:101E40002BFA0346032B06D1084B002283F83420DB
:101E50007B6800221A7500BF0837BD46B0BD00BFC1
:101E6000E02D0020F013002000081000B02D00200D
:101E700080B483B000AF786000BF0C37BD4680BC33
:101E80007047FFFF80B582B000AF7860054804F06E
:101E900085F900210348FFF72CFA00BF0837BD463B
:101EA00080BD00BFAC33002080B582B000AF786049
:101EB0000022012103480AF0FEF900BF0837BD46A1
:101EC00080BD00BF1829002080B582B000AF7860C7
:101ED000002240F2024103480AF0EDF900BF083742
:101EE000BD4680BD1829002080B582B000AF786063
:101EF000002240F2091103480AF0DDF900BF08375B
:101F0000BD4680BD1829002080B483B000AF786042
:101F100000BF0C37BD4680BC7047FFFF80B582B064
:101F200000AF78600022002103480AF0C4F900BF26
:101F30000837BD4680BD00BF1829002080B483B09B
:101F400000AF786000BF0C37BD4680BC7047FFFF14
:101F500080B483B000AF7860034B93F80036002B59
:101F60000C37BD4680BC7047B02D002080B483B0D4
:101F700000AF7860064B002283F8C826044B00228D
:101F800083F8E82600BF0C37BD4680BC704700BF11
:101F9000B02D002080B582B000AF78607B68002251
:101FA0001A7000220E2103480AF085F900BF083795
:101FB000BD4680BD1829002080B483B000AF786092
:101FC0007B6800221A7000BF0C37BD4680BC70478A
:101FD00080B582B000AF786040F20240FFF742F96E
:101FE0000346002B0CBF01230023DBB21A4640F24C
:101FF000024103480AF05FF900BF0837BD4680BDC3
:102000001829002080B582B000AF786040F2091036
:10201000FFF728F90346002B0CBF01230023DBB296
:102020001A4640F2091103480AF045F900BF083783
:10203000BD4680BD1829002080B483B000AF786011
:102040007B6893F8A030002B22D17B6893F8C030D6
:10205000002B1DD17B6893F8E030002B18D17B68F2
:1020600093F80031002B13D14D4B1B78002B0FD16F
:102070007B6893F86031002B0AD17B6893F8883035
:10208000002B05D1474B93F83939002B00F08280A3
:10209000434B1B78002B02D0414B00221A70414B5E
:1020A00093F83939002B03D03E4B002283F83929AD
:1020B0007B6893F88830002B55D07B681B79022B06
:1020C00037D0022B50DC002B02D0012B17D04BE075
:1020D000354B5B7823F00103DAB2334B5A70324B45
:1020E0005A78314B5A70304B5B7823F00203DAB2E6
:1020F0002D4B5A702C4B5A782B4B5A7034E02A4B8C
:102100005B7823F00203DAB2274B5A70264B5B78D8
:1021100043F00203DAB2244B5A70234B5B7823F06E
:102120000103DAB2204B5A701F4B5A781E4B5A707B
:102130001AE01D4B5B7823F00203DAB21A4B5A7097
:10214000194B5A78184B5A70174B5B7823F00103E0
:10215000DAB2154B5A70144B5B7843F00103DAB2D4
:10216000114B5A7000E000BF0F4B5B7823F0040363
:10217000DAB20D4B5A700C4B5B785AB2094B93F89C
:1021800048359B005BB213435BB2DAB2064B5A7020
:10219000012300E0002318460C37BD4680BC704781
:1021A00068100020B02D00205010002080B483B0B3
:1021B00000AF786000BF0C37BD4680BC7047FFFFA2
:1021C00080B500AF224B1B7823F00403DAB2204B1A
:1021D0001A7040F20910FFF745F8034699001C4BAE
:1021E0001A78CBB21343DAB2194B1A70184B1B781A
:1021F00023F00803DAB2164B1A7040F20240FFF7E0
:1022000031F80346D900124B1A78CBB21343DAB235
:102210000F4B1A700F4B93F88836002B15D10C4BCF
:102220001B7823F00403DAB2094B1A70084B1A78B2
:10223000074B1A70064B1B7823F00803DAB2044BE5
:102240001A70034B1A78024B1A7000BF80BD00BF92
:1022500050100020B02D002080B483B000AF786013
:102260007B6893F8613018460C37BD4680BC7047D8
:1022700080B483B000AF78600B46FB707B68FA785F
:1022800083F85E2000BF0C37BD4680BC7047FFFF5F
:1022900080B584B000AF78607B68032283F8292979
:1022A0007B68002283F841257B68002283F820297F
:1022B0007B68002283F84C297B68002283F8282958
:1022C0007B682C4AC3F804297B682B4AC3F824296D
:1022D0007B6803F515614FF000024FF00003C1E980
:1022E00000230023FB733AE0FB7B7A6803F242236E
:1022F0009B00134400225A60FA7B1346DB009B1AB2
:10230000DB001C4A1344FA7B1146184603F0D8FD43
:10231000FB7BFA7B194951F8231016481346DB0062
:102320009B1ADB00034410331960FB7BFA7B1449D2
:1023300051F823100F481346DB009B1ADB000344BF
:1023400014331960FA7B0B491346DB009B1ADB0040
:102350000B4434330B4A1A60FB7B0133FB737B68FD
:1023600093F82939FA7B9A42BED300BF00BF1037D9
:10237000BD4680BD7010002089230100980900200F
:10238000A40900200925010080B483B000AF786063
:102390007B6893F82039022B04D97B68032283F8E9
:1023A000202908E07B6893F82039002B03D17B6853
:1023B000002283F8202900BF0C37BD4680BC70473F
:1023C00080B584B000AF78600023FB7311E0FA7B26
:1023D000F87B10491346DB009B1ADB000B441A689C
:1023E000796800F501739B000B445A60FB7B013355
:1023F000FB737B6893F82939FA7B9A42E7D37B68B1
:1024000003F61403184604F063FB00BF1037BD4603
:1024100080BD00BF7010002080B582B000AF786032
:102420007B6801221A70012240F20B11034809F067
:1024300042FF00BF0837BD4680BD00BF18290020FD
:1024400080B582B000AF78607B6801221A700122EB
:102450004FF48271034809F02EFF00BF0837BD46D4
:1024600080BD00BF1829002080B582B000AF786021
:102470007B6801221A7001224FF48671034809F02B
:102480001AFF00BF0837BD4680BD00BF18290020D5
:1024900080B582B000AF78607B6800221A7000229D
:1024A00040F20B11034809F006FF00BF0837BD4694
:1024B00080BD00BF1829002080B582B000AF7860D1
:1024C0007B6800221A7000224FF48271034809F0E1
:1024D000F2FE00BF0837BD4680BD00BF18290020AE
:1024E00080B582B000AF78607B6800221A7000224D
:1024F0004FF48671034809F0DEFE00BF0837BD4681
:1025000080BD00BF18290020B0B586B004AF786048
:102510000B46FB701346BB701848FFF79DFE034641
:10252000002B27D17B681B68FA7811461846FFF705
:102530009FFE134A7B68C2F80839114ABB7882F8BB
:1025400068347B681B6899687B681B6803F15E00D0
:102550000C4BD3E9002312F5FA7443F10005CDE9E1
:1025600002450423009303460A460749044804F041
:10257000EDFE00E000BF0837BD46B0BDE0300020F2
:10258000B02D0020F01300200103200080B58AB098
:1025900000AF78607B6893F8453983F00103DBB2C4
:1025A000002B40F014817B68002283F845298B4B77
:1025B0001B685A1E89490A60022B00F20A81874B68
:1025C00001221A6000237B6296233B620023FB6199
:1025D0000023BB610023FB600023BB600023FB756D
:1025E0000023BB7500233B6148E07B68D3F80419E6
:1025F0003A691346DB009B1ADB000B441B6893F817
:102600005C30032B37D13B69BB757B6A01337B623E
:10261000BB69FB607B68D3F804193A691346DB0099
:102620009B1ADB000B441B6893F863301A46BB69A6
:102630001344BB617B68D3F804193A691346DB0085
:102640009B1ADB000B441B687833184603F019FD16
:1026500003461A46FB7D1344FB75BB69002B01DC66
:102660000123BB61BA69FB689A4204DDFB68002B59
:1026700001D0FB68BB613B6901333B617B6893F828
:1026800029391A463B699342AFDBBB69002B01DC59
:102690000123BB61BB69632B01DD6323BB61504A2E
:1026A000BB6952F82330BB607B6A012B02D19623B1
:1026B0003B620AE07B6A022B02D15A233B6204E0B0
:1026C0007B6A032B01D13C233B62BB68A3F54F43DC
:1026D000083B4FF47A7202FB03F23B6A92FBF3F37E
:1026E000FB617B6A032B4ED07B6A032B63DC7B6A26
:1026F000012B03D07B6A022B2ED05CE0BB69142B2C
:1027000003DCFB69A3F5FA63FB61FB6948F6B702DA
:10271000934202DD48F6B803FB61FB6941F288325F
:10272000934202DC41F28833FB617B68D3F80419E1
:10273000BA7D1346DB009B1ADB000B441B6893F841
:102740009830372B39D9FB6943F69822934234DD10
:1027500043F69823FB6130E0BB69142B03DCFB6973
:10276000A3F5FA63FB61FB694AF6C772934202DD87
:102770004AF6C873FB61FB69B3F57A7F1FDC42F24E
:102780001073FB611BE0BB69142B03DCFB69A3F531
:10279000FA63FB61FB694CF24F32934202DD4CF26B
:1027A0005033FB61FB6943F69822934209DC43F600
:1027B0009823FB6105E000BF04E000BF02E000BF1A
:1027C00000E000BF7B68FA69C3F82C2902E000BF73
:1027D00000E000BF2837BD4680BD00BF00140020C8
:1027E0000408002080B588B000AF78607B6803F6ED
:1027F00014033B617B6893F8A4351B09FB73FB7BD7
:10280000002B05D0FB7B012B02D0FB7B022B02D1DE
:102810000023FB7701E00123FB77FB7F002B02D134
:102820003A4BBB6101E03A4BBB617B6893F8483798
:10283000012B01D1364BBB613B690022DA630023D7
:10284000FB7515E0FA7D3B6953F8223093F851305F
:10285000032B0AD13B69DB6BF97D3A6952F82120E1
:10286000B2F864201A443B69DA63FB7D0133FB75DF
:10287000FB7D022BE6D94FF07E51B8690CF0D4FBFA
:102880000346002B02D04FF07E53BB613B69DB6BEC
:10289000312B03D83B690022DA601DE03B69DA6B1B
:1028A00013469B0013445B001344A3F226231846EF
:1028B0000CF0C4F90346BB60B969B86804F058FA73
:1028C0000346144918460CF0C5FA034618460CF0A6
:1028D000D3FB02463B69DA603B69DB68002B02D11F
:1028E0003B690022DA603B69DB68F92B02D93B695E
:1028F000FA22DA607B6803F61403FA7F1146184661
:1029000004F036F900BF2037BD4680BD0000B0415D
:102910000000E0410000204180B483B000AF786047
:102920007B6893F8613018460C37BD4680BC704711
:1029300080B483B000AF78607B68002283F86120A8
:1029400000BF0C37BD4680BC704780B483B000AF79
:1029500078600B46FB707B68002B04D07B68FA78AC
:1029600083F85D2000E000BF0C37BD4680BC704797
:1029700080B582B000AF78600B46FB701346BB7029
:102980007B685B6BBA78F9787868984700BF08373E
:10299000BD4680BD80B483B000AF78600B46FB704D
:1029A0007B68FA7883F8402500BF0C37BD4680BCB1
:1029B000704780B483B000AF78600B46FB707B68D3
:1029C00093F84135FA789A4208D07B68FA7883F810
:1029D00041257B68012283F8582900E000BF0C37AD
:1029E000BD4680BC7047FFFF80B582B000AF786005
:1029F000044BD3E9002379680348884700BF0837B0
:102A0000BD4680BDF0130020B02D002080B485B0FD
:102A100000AFF860C7E90023FB6803F51563D3E94D
:102A20000023D7E90001994208BF904208D3FB6810
:102A300003F51563D3E90023134301D0012300E01C
:102A4000002303F00103DBB218461437BD4680BCF7
:102A5000704780B483B000AF78607B686422DA612D
:102A600000BF0C37BD4680BC7047FFFF80B500AF8C
:102A7000FDF7E6FB04F01CFA054804F037FA0548B8
:102A800004F0FAFA044805F0ADF800BF80BD00BFBD
:102A9000FC320020703300205C33002080B582B00F
:102AA00000AF78607868FEF733FC7868FFF7F0FBDA
:102AB0007868FFF785FC7868FDF7CCFC03F03EF8FA
:102AC0007B68D3F84839184605F0AAF87B68034AB2
:102AD000C3F8482900BF0837BD4680BD3418002020
:102AE00080B582B000AF7860786800F085FB7B68C5
:102AF00093F84835002B02D0012B04D007E078680A
:102B000000F00AF803E0786800F046F800BF00BF64
:102B10000837BD4680BDFFFF80B582B000AF78604A
:102B20007B68D3F888357A6802F24C521046984791
:102B30007B6893F88035012B23D17B6893F841356E
:102B4000002B1ED1134B1B680133124A1360114B2B
:102B50001B68B3F5AF7F18D97B68D3F82438632B93
:102B600013D87B68D3F85C357A6802F25452104669
:102B700098477B68012283F84825064B00221A609B
:102B800003E0044B00221A6000E000BF00BF0837DA
:102B9000BD4680BD2411002080B582B000AF7860B2
:102BA0007B68D3F888357A6802F24C521046984711
:102BB0007B6893F88035002B15D1194B1B680133C6
:102BC000174A1360164B1B68322B25D97B68D3F844
:102BD00060357A6802F25452104698477B680022AA
:102BE00083F8482518E0786801F0CEFC0346002BF6
:102BF000B8BF5B42B3F5FA7F0BDA094B00221A60CB
:102C00007B68D3F860357A6802F2545210469847D0
:102C100002E0034B00221A6000BF0837BD4680BDAA
:102C20002011002080B483B000AF786000BF0C3763
:102C3000BD4680BC7047FFFFB0B584B000AFF86000
:102C4000C7E90023FB6893F87939002B0AD0FB68A9
:102C5000D3F8E83542F67B6293423DD9F86800F03C
:102C6000B2FA39E0FB6893F84835012B36D0FB689F
:102C700093F88836012B06D0FB68D3F8E83542F686
:102C80000312934207D817494FF000024FF0000398
:102C9000C1E9002323E0144B1B6818464FF00001E4
:102CA000104BD3E90023841841EB03050D4BC3E916
:102CB00000450C4BD3E90023002B08BFB2F5FA6F97
:102CC0000DD108494FF000024FF00003C1E9002385
:102CD000F86800F078FA02E000BF00E000BF1037AB
:102CE000BD46B0BD3011002098F5010090B585B00B
:102CF00000AF78600023FB73CAE07B68D3F8041947
:102D0000FA7B1346DB009B1ADB000B441B6893F82D
:102D10005130032B40F0B2807B68D3F80419FA7B62
:102D20001346DB009B1ADB000B441B6818685D4BE5
:102D300019687B68D3F80449FA7B1346DB009B1AB9
:102D4000DB0023441B6842181A607B68D3F804191F
:102D5000FA7B1346DB009B1ADB000B441B681B68E5
:102D6000B3F5167FC0F08C807B68D3F80419FA7B2A
:102D70001346DB009B1ADB000B441B681B6840F604
:102D8000B73293421BD87B68D3F80419FA7B1346F9
:102D9000DB009B1ADB000B441B6893F85C30032BB1
:102DA00070D07B68D3F80419FA7B1346DB009B1ABA
:102DB000DB000B441B6893F85C300E2B62D07B6801
:102DC000D3F88C35052B0ED97B68D3F80419FA7B20
:102DD0001346DB009B1ADB000B441B681B6842F2A6
:102DE0000F72934250D97B68D3F80419FA7B1346CB
:102DF000DB009B1ADB000B441B6893F85C30032B51
:102E000018D17B68D3F81039002B0DD17B68D3F82B
:102E10001439002B08D1FB7B1946786801F071FC4E
:102E2000786800F0B7F9ADE1FB7B1946786801F0EE
:102E300068FC2AE07B68D3F80419FA7B1346DB00B0
:102E40009B1ADB00CA187B68D3F818399A4203D161
:102E50007B680022C3F81829FB7B1946786801F0CB
:102E600050FC7B68D3F80419FA7B1346DB009B1AED
:102E7000DB000B441B6801225A6006E000BF04E03F
:102E800000BF02E000BF00E000BFFB7B0133FB732B
:102E90007B6893F82939FA7B9A42FFF42EAF00231E
:102EA000BB7352E098F501007B68D3F80419BA7B34
:102EB0001346DB009B1ADB000B441B6893F85C3065
:102EC000032B3FD17B68D3F80419BA7B1346DB0090
:102ED0009B1ADB000B441B6893F8A830022B31D1FE
:102EE0007B68D3F80419BA7B1346DB009B1ADB001E
:102EF0000B441B68B3F8A000A44B1B6899B27B6815
:102F0000D3F80449BA7B1346DB009B1ADB00234449
:102F10001B68421892B2A3F8A0207B68D3F804196A
:102F2000BA7B1346DB009B1ADB000B441B68B3F82B
:102F3000A03044F62062934204D9BB7B19467868DE
:102F400001F0DFFBBB7B0133BB737B6893F829394E
:102F5000BA7B9A42A8D37B68D3F804391B6893F8EC
:102F60005D30032B64D07B68D3F8043938331B6899
:102F700093F85D30032B5BD07B68D3F80439703352
:102F80001B6893F85D30032B52D07B68D3F804396B
:102F90001B6893F85D30042B4AD07B68D3F8043962
:102FA00038331B6893F85D30042B41D07B68D3F82D
:102FB000043970331B6893F85D30042B38D07B687C
:102FC000D3F804391B6893F85C30072B30D07B684A
:102FD000D3F8043938331B6893F85C30072B27D0BB
:102FE0007B68D3F8043970331B6893F85C30072B87
:102FF0001ED07B68D3F804391B6893F85C30022B31
:1030000016D07B68D3F8043938331B6893F85C30EA
:10301000022B0DD07B68D3F8043970331B6893F80A
:103020005C30022B04D07B6893F87A39002B03D0F4
:10303000574B00221A600DE0554B1B680133544A70
:103040001360534B1B6840F2DC52934202D97868FC
:1030500000F0A0F800237B7390E07B68D3F804199C
:103060007A7B1346DB009B1ADB000B441B6893F84A
:103070005C30032B0DD07B68D3F804197A7B1346A0
:10308000DB009B1ADB000B441B6893F85C30042BBD
:103090000DD17B68D3F804197A7B1346DB009B1AA9
:1030A000DB000B441B680022A3F8602050E07B6823
:1030B000D3F804197A7B1346DB009B1ADB000B4420
:1030C0001B6893F85C300E2B42D17B68D3F804194F
:1030D0007A7B1346DB009B1ADB000B441B6893F8DA
:1030E0005D30032B34D17B68D3F804197A7B134607
:1030F000DB009B1ADB000B441A68B2F86030591CE5
:1031000089B2A2F86010B3F5167F21D97B68D3F895
:1031100004197A7B1346DB009B1ADB000B441B6807
:10312000002283F85D207B68D3F804197A7B13466C
:10313000DB009B1ADB000B441B680022A3F8602015
:103140007B6893F82039013BDAB27B6883F8202949
:103150007B68D3F804197A7B1346DB009B1ADB00EB
:103160000B441B6893F85C30052B04D17B7B19461C
:10317000786801F0C6FA7B7B01337B737B7B022B83
:103180007FF66BAF1437BD4690BD00BF98F50100C8
:103190002811002080B582B000AF78607B680122E2
:1031A00083F840257868FFF773F87868FFF708F927
:1031B0007868FDF74FF97B68184604F0F9FB00BF0B
:1031C0000837BD4680BD80B582B000AF78607B68AF
:1031D000042283F840257868FFF75AF87868FFF7EB
:1031E000EFF87868FDF736F97B68184604F0E0FBE5
:1031F00000BF0837BD4680BD80B582B000AF7860A3
:103200007B6893F85839002B09D0554BD3E900233C
:10321000786800F0B3F87B68002283F858297B684F
:1032200093F84135062B00F2968001A252F823F064
:103230004D3201007D320100A1320100C532010092
:10324000E93201000D330100313301007B6893F84E
:103250004835002B06D1786800F0D2FE786800F07F
:10326000B3FF77E07B6893F84835012B72D178681B
:1032700001F03CF8786801F000F96BE0384BD3E9D5
:1032800000237868FFF7C2FB0346002B04D000211F
:103290007868FFF78EFB5EE03248FFF7A5FB5AE047
:1032A0002F4BD3E900237868FFF7B0FB0346002BD0
:1032B00004D000217868FFF77CFB4CE02A48FFF738
:1032C00093FB48E0264BD3E900237868FFF79EFB89
:1032D0000346002B04D000217868FFF76AFB3AE030
:1032E0002248FFF781FB36E01D4BD3E900237868C5
:1032F000FFF78CFB0346002B04D000217868FFF712
:1033000058FB28E01A48FFF76FFB24E0144BD3E981
:1033100000237868FFF77AFB0346002B04D00021D6
:103320007868FFF746FB16E01248FFF75DFB12E0F6
:103330000B4BD3E900237868FFF768FB0346002BAB
:1033400004D000217868FFF734FB04E00A48FFF757
:103350004BFB00E000BF00BF0837BD4680BD00BF8B
:10336000F013002015350100DD360100F93A0100A7
:10337000493401004D39010049380100B0B487B02B
:1033800000AFF860C7E90023FB6893F84135062BCE
:1033900041D801A252F823F0B5330100C333010034
:1033A000D1330100DF330100ED330100FB330100B5
:1033B000093401004FF000024FF00003C7E9042375
:1033C00030E044F620624FF00003C7E9042329E00F
:1033D00044F620624FF00003C7E9042322E044F6DC
:1033E00020624FF00003C7E904231BE044F620628B
:1033F0004FF00003C7E9042314E044F620624FF0C5
:103400000003C7E904230DE044F620624FF00003F7
:10341000C7E9042306E04FF000024FF00003C7E9BC
:10342000042300BFD7E90001D7E90423841841EB46
:103430000305FB6803F51563C3E9004500BF1C37AE
:10344000BD46B0BC704700BF80B584B000AFF86027
:10345000C7E90023FB68D3F81839002B0AD10021F3
:10346000F868FFF7A6FAFB6803F54C731846FFF7F8
:103470005FFA4BE0FB68D3F81839002203211846A5
:10348000FFF776FAFB6803F54C731846FFF744FA2A
:103490000346022B22D1FB6893F86834002B1DD120
:1034A000FB68D3F818391B6803211846FFF74DFA5B
:1034B000F86801F0C8F8FB6893F820390133DAB2F4
:1034C000FB6883F820290021F868FFF772FAFB688F
:1034D00003F54C731846FFF72BFA17E0FB6803F56A
:1034E0004C731846FFF718FA0346032B0ED1FB68FE
:1034F00093F86834002B09D10021F868FFF759FAD6
:10350000FB6803F54C731846FFF712FA1037BD46F7
:1035100080BDFFFF80B586B000AFF860C7E900232B
:103520000023FB7525E0FB7DFA6803F242239B0034
:1035300013445B68002B18D0FB7DFA6803F242232A
:103540009B0013445B681B6893F85D30032B0DD11F
:10355000FB7DFA6803F242239B0013445B6801225F
:1035600004211846FFF704FA06E000BFFB7D013393
:10357000FB75FB7D022BD6D9FB6803F54C7318460F
:10358000FFF7CAF90346022B40F08980FB6893F8E5
:103590006834012B40F083800023BB7537E0BB7D8E
:1035A000FA6803F242239B0013445B68002B2AD085
:1035B000BB7DFA6803F242239B0013445B681B68DF
:1035C00093F85D30032B1FD1BB7DFA6803F24223D1
:1035D0009B0013445A68FB68D3F808399A4213D108
:1035E000BB7DFA6803F242239B0013445B681B68AF
:1035F00004211846FFF7A9F9FB6803F54C73184638
:10360000FFF796F900E000BFBB7D0133BB75BB7DC2
:10361000022BC4D900237B752BE07B7DFA6803F273
:1036200042239B0013445B68002B1ED07B7DFA680D
:1036300003F242239B0013445B681B6893F85D30E0
:10364000032B13D1FB6803F54C731846FFF770F991
:103650007B7DFA6803F242239B0013445B680122DE
:1036600004211846FFF784F931E000BF7B7D013368
:103670007B757B7D022BD0D90221F868FFF799F981
:10368000144B4FF47A721A60134B4FF47A721A800B
:10369000FB6803F54C731846FFF74AF917E0FB681F
:1036A00003F54C731846FFF737F90346032B0ED189
:1036B000FB6893F86834012B09D10021F868FFF703
:1036C00078F9FB6803F54C731846FFF731F91837A2
:1036D000BD4680BD1C1100202C11002080B584B097
:1036E00000AFF860C7E9002301F0A8F8034683F0B3
:1036F0000103DBB2002B40F09C80FB68D3F8183943
:10370000002B0AD10521F868FFF753F9FB6803F590
:103710004C731846FFF70CF98CE0FB6893F84835BA
:10372000012B0BD1454B1B680A2B07D9434B1A6859
:10373000434B1B68D31A414A13607BE0FB68D3F804
:103740001839022203211846FFF712F9FB6803F526
:103750004C731846FFF7E0F80346022B48D1FB688C
:1037600093F86834022B43D1FB6893F84835002B5B
:103770001BD1FB68D3F818391B6803211846FFF7E3
:10378000E4F8F86800F05FFFFB6893F82039013334
:10379000DAB2FB6883F820290321F868FFF709F9FA
:1037A000284B4FF47A721A801BE0FB6893F8483577
:1037B000012B16D1FB68D3F818391B680321184672
:1037C000FFF7C3F8FB6893F820390133DAB2FB68DE
:1037D00083F82029F86800F036FF0021F868FFF729
:1037E000E8F8FB6803F54C731846FFF7A1F821E0F1
:1037F000FB6803F54C731846FFF78EF80346032B5E
:1038000018D1FB6893F86834022B13D1FB68D3F806
:1038100018391B6800211846FFF797F80521F8684A
:10382000FFF7C7F8FB6803F54C731846FFF780F8FD
:1038300000E000BF1037BD4680BD00BF1C11002056
:1038400098F501002C11002080B584B000AFF8601D
:10385000C7E9002300F0F2FF034683F00103DBB267
:10386000002B6DD1FB68D3F81839002B0AD1052144
:10387000F868FFF79EF8FB6803F54C731846FFF7EE
:1038800057F85EE0FB68D3F8183903220521184683
:10389000FFF76EF8FB6803F54C731846FFF73CF82A
:1038A0000346022B2BD1FB6893F86834032B26D1F7
:1038B000FB6893F84835002B1AD1FB68D3F8183908
:1038C0001B6803211846FFF740F8F86800F0BBFEBC
:1038D000FB6893F820390133DAB2FB6883F82029BA
:1038E0000321F868FFF765F8174B4FF47A721A80D6
:1038F000FB6803F54C731846FFF71AF821E0FB68E4
:1039000003F54C731846FFF707F80346032B18D14D
:10391000FB6893F86834032B13D1FB68D3F818398C
:103920001B6800211846FFF710F80521F868FFF71B
:1039300040F8FB6803F54C731846FEF7F9FF00E00A
:1039400000BF1037BD4680BD2C11002080B586B069
:1039500000AFF860C7E900230023FB7525E0FB7D7D
:10396000FA6803F242239B0013445B68002B18D0D3
:10397000FB7DFA6803F242239B0013445B681B68DB
:1039800093F85D30042B0DD1FB7DFA6803F24223DE
:103990009B0013445B68042203211846FEF7E8FFEE
:1039A00006E000BFFB7D0133FB75FB7D022BD6D902
:1039B000FB6803F54C731846FEF7AEFF0346022B77
:1039C0007FD1FB6893F86834042B7AD10023BB7550
:1039D00037E0BB7DFA6803F242239B0013445B6827
:1039E000002B2AD0BB7DFA6803F242239B001344CC
:1039F0005B681B6893F85D30042B1FD1BB7DFA68B0
:103A000003F242239B0013445A68FB68D3F8083939
:103A10009A4213D1BB7DFA6803F242239B00134400
:103A20005B681B6803211846FEF78FFFFB6803F5F0
:103A30004C731846FEF77CFF00E000BFBB7D0133EE
:103A4000BB75BB7D022BC4D900237B752BE07B7D2E
:103A5000FA6803F242239B0013445B68002B1ED0DC
:103A60007B7DFA6803F242239B0013445B681B686A
:103A700093F85D30042B13D1FB6803F54C731846A3
:103A8000FEF756FF7B7DFA6803F242239B00134446
:103A90005B68042203211846FEF76AFF29E000BF95
:103AA0007B7D01337B757B7D022BD0D90021F868AB
:103AB000FEF77FFFFB6803F54C731846FEF738FFEF
:103AC00017E0FB6803F54C731846FEF725FF034625
:103AD000032B0ED1FB6893F86834042B09D1002125
:103AE000F868FEF766FFFB6803F54C731846FEF7AF
:103AF0001FFF1837BD4680BD80B586B000AFF860A7
:103B0000C7E9002300F09AFE034683F00103DBB20D
:103B1000002B40F0BD81FB6893F84835002B2CD179
:103B20000023FB7525E0FB7DFA6803F242239B002E
:103B300013445B68002B18D0FB7DFA6803F2422324
:103B40009B0013445B681B6893F85D30042B0DD118
:103B5000FB7DFA6803F242239B0013445B68052255
:103B600000211846FEF704FF33E000BFFB7D013360
:103B7000FB75FB7D022BD6D92BE00023BB7525E01E
:103B8000BB7DFA6803F242239B0013445B68002B61
:103B900018D0BB7DFA6803F242239B0013445B6894
:103BA0001B6893F85D30032B0DD1BB7DFA6803F2DF
:103BB00042239B0013445B68052200211846FEF750
:103BC000D7FE06E000BFBB7D0133BB75BB7D022B7A
:103BD000D6D9FB6803F54C731846FEF79DFE0346E5
:103BE000022B40F03C81FB6893F86834052B40F0D1
:103BF0003681FB6893F84835002B40F08E80002317
:103C00007B754AE07B7DFA6803F242239B001344F4
:103C10005B68002B3DD07B7DFA6803F242239B005A
:103C200013445B681B6893F85D30042B32D17B7DB5
:103C3000FA6803F242239B0013445A68FB68D3F8E6
:103C400008399A4226D17B7DFA6803F242239B0011
:103C500013445B681B6800211846FEF776FE7B7DE7
:103C6000FA6803F242239B00134400225A60F8686A
:103C700000F0B0FDFB6893F82039013BDAB2FB6835
:103C800083F82029FB6803F54C731846FEF750FEB5
:103C900000E000BF7B7D01337B757B7D022BB1D9BA
:103CA00000233B752BE03B7DFA6803F242239B0027
:103CB00013445B68002B1ED03B7DFA6803F242235D
:103CC0009B0013445B681B6893F85D30042B13D191
:103CD000FB6803F54C731846FEF72AFE3B7DFA6835
:103CE00003F242239B0013445B680522002118461F
:103CF000FEF73EFECDE000BF3B7D01333B753B7DD3
:103D0000022BD0D90021F868FEF753FEFB6803F5BB
:103D10004C731846FEF70CFE9AE0FB6893F84835A2
:103D2000012B40F095800023FB744AE0FB7CFA688D
:103D300003F242239B0013445B68002B3DD0FB7CC5
:103D4000FA6803F242239B0013445B681B6893F8F4
:103D50005D30032B32D1FB7CFA6803F242239B00D7
:103D600013445A68FB68D3F808399A4226D1FB7C81
:103D7000FA6803F242239B0013445B681B6800212E
:103D80001846FEF7E2FDFB7CFA6803F242239B0033
:103D9000134400225A60F86800F01CFDFB6893F899
:103DA0002039013BDAB2FB6883F82029FB6803F570
:103DB0004C731846FEF7BCFD00E000BFFB7C0133EE
:103DC000FB74FB7C022BB1D90023BB742BE0BB7CC2
:103DD000FA6803F242239B0013445B68002B1ED059
:103DE000BB7CFA6803F242239B0013445B681B68A8
:103DF00093F85D30032B13D1FB6803F54C73184621
:103E0000FEF796FDBB7CFA6803F242239B00134445
:103E10005B68052200211846FEF7AAFD39E000BFC5
:103E2000BB7C0133BB74BB7C022BD0D91A4B4FF443
:103E30007A721A80194B42F210721A600221F868E5
:103E4000FEF7B7FDFB6803F54C731846FEF770FDEF
:103E5000FB6803F54C731846FEF76AFD19E0FB6832
:103E600003F54C731846FEF757FD0346032B10D19C
:103E7000FB6893F86834052B0BD10021F868FEF736
:103E800098FDFB6803F54C731846FEF751FD00E002
:103E900000BF1837BD4680BD2C1100201C1100202A
:103EA00080B586B000AFF860C7E900230023FB753A
:103EB0002CE0FB68D3F80419FA7D1346DB009B1A4B
:103EC000DB000B441B6893F85130032B1BD1FB68BC
:103ED000D3F80419FA7D1346DB009B1ADB000B4470
:103EE0001B6893F85C300E2B0DD1FB68D3F80419D6
:103EF000FA7D1346DB009B1ADB000B4406220321EC
:103F00001846FEF735FDFB7D0133FB75FB7D022B6B
:103F1000CFD9FB6803F54C731846FEF7FDFC03464A
:103F2000022B54D1FB6893F86834062B4FD1FB6801
:103F300003F54C731846FEF7FBFC0023BB7542E00B
:103F4000FB68D3F80419BA7D1346DB009B1ADB002B
:103F5000CA18FB68D3F808399A4231D1FB6803F5D7
:103F60004C731846FEF7E4FCFB68D3F80419BA7DDD
:103F70001346DB009B1ADB000B441B680321184629
:103F8000FEF7E3FCFB68D3F80419BA7D1346DB00A7
:103F90009B1ADB00CA18FB68C3F80C29FB6893F86E
:103FA00020390133DAB2FB6883F820290221F8684E
:103FB000FEF7F0FCFB6803F28C531846FEF749FD50
:103FC000BB7D0133BB75BB7D022BB9D914E0FB6807
:103FD00003F54C731846FEF79FFC0346032B0BD1E9
:103FE000FB6893F86834062B06D1FB6803F54C7325
:103FF0001846FEF79DFCFFE700BF1837BD4680BDA1
:1040000080B586B000AF78607B680022C3F81829BD
:10401000786800F04EFB02467B68C3F81C29002339
:10402000FB75C5E07B68D3F80419FA7D1346DB0005
:104030009B1ADB000B441B6893F85130032B40F0B4
:10404000AD807B68D3F80419FA7D1346DB009B1A18
:10405000DB000B441B6893F85D30032B00F09E805F
:104060007B68D3F80419FA7D1346DB009B1ADB004A
:104070000B441B689B6E002B00F090807B68D3F88C
:104080000419FA7D1346DB009B1ADB000B441B6806
:1040900093F85C30052B00F081807B68D3F804191D
:1040A000FA7D1346DB009B1ADB000B441B6893F878
:1040B000A830022B72D07B68D3F81839002B0CD1B2
:1040C0007B68D3F80419FA7D1346DB009B1ADB00EA
:1040D000CA187B68C3F8182967E07B68D3F81C39D5
:1040E000002B5DD07B68D3F818391B689A6E7B680B
:1040F000D3F81C391B689B6ED31A3B617B68D3F8DD
:104100000419FA7D1346DB009B1ADB000B441B6885
:104110009A6E7B68D3F81C391B689B6ED31AFB60C0
:104120003B69002B13DDFB68002B10DD3A69FB684F
:104130009A4237DD7B68D3F80419FA7D1346DB0019
:104140009B1ADB00CA187B68C3F818292AE0FB68B1
:10415000002B0CDD7B68D3F80419FA7D1346DB00D5
:104160009B1ADB00CA187B68C3F818291DE03B695D
:10417000002B1ADAFB68002B17DA3A69FB689A42BF
:1041800012DA7B68D3F80419FA7D1346DB009B1A18
:10419000DB00CA187B68C3F8182905E000BF04E0FB
:1041A00000BF02E000BF00E000BFFB7D0133FB75F4
:1041B0007B6893F82939FA7D9A42FFF433AF00BF48
:1041C00000BF1837BD4680BD80B584B000AF7860B1
:1041D0007B68D3F81839002B7CD07B68D3F81C3966
:1041E000002B77D07B68D3F818391B689A6E7B68F0
:1041F000D3F81C391B689B6ED31AFB60786800F0FB
:1042000075F903461A46364B1A70FB6813F1640FB2
:104210001EDBFB68642B1BDC786800F0B5F90346F5
:1042200044F24F6293420FDC2E4B1B685A1C2D49FF
:104230000A60642B10D904217868FEF7BAFB7B680A
:10424000042283F8412507E0264B00221A6003E090
:10425000244B00221A6000E000BF214B1B7883F042
:104260000103DBB2002B37D1FB6813F5FA6F16DBC5
:10427000FB68B3F5FA6F12DC1B4B1B685A1C1A491A
:104280000A60642B29D904217868FEF792FB7B68C9
:10429000042283F84125144B00221A601DE0FB68BC
:1042A000B3F5FA6F12DD104B1B685A1C0E490A60F9
:1042B000642B12D901217868FEF77BFB7B68012211
:1042C00083F84125084B00221A6006E0064B0022C5
:1042D0001A6002E000BF00E000BF1037BD4680BD9D
:1042E000041400203C1100203811002080B487B055
:1042F00000AF78607B680022C3F818290023FB75A3
:10430000AEE07B68D3F80419FA7D1346DB009B1AF4
:10431000DB000B441B6893F85130032B40F098806E
:104320007B68D3F80419FA7D1346DB009B1ADB0087
:104330000B441B6893F85D30032B00F089807B6889
:10434000D3F80419FA7D1346DB009B1ADB000B44FB
:104350001B689B6E002B7BD07B68D3F80419FA7D19
:104360001346DB009B1ADB000B441B6893F85C30A0
:10437000052B6DD07B68D3F81839002B0CD17B68E6
:10438000D3F80419FA7D1346DB009B1ADB00CA1828
:104390007B68C3F8182960E07B68D3F818391B687C
:1043A0009A6E7B68D3F80C391B689B6ED31A3B61FD
:1043B0007B68D3F80419FA7D1346DB009B1ADB00F7
:1043C0000B441B689A6E7B68D3F80C391B689B6E94
:1043D000D31AFB603B69002B13DAFB68002B10DA61
:1043E0003A69FB689A4235DD7B68D3F80419FA7D97
:1043F0001346DB009B1ADB00CA187B68C3F8182938
:1044000028E0FB68002B0CDA7B68D3F80419FA7DEE
:104410001346DB009B1ADB00CA187B68C3F8182917
:104420001BE03B69002B18DDFB68002B15DD3A69AA
:10443000FB689A4210DD7B68D3F80419FA7D1346B5
:10444000DB009B1ADB00CA187B68C3F8182903E05D
:1044500000BF02E000BF00E000BFFB7D0133FB7541
:104460007B6893F82939FA7D9A42FFF44AAF00BF7E
:1044700000BF1C37BD4680BC704780B584B000AF1C
:1044800078607B68D3F81839002B2AD07B68D3F882
:104490000C39002B25D07B68D3F80C391B689A6E39
:1044A0007B68D3F818391B689B6ED31AFB60FB68D6
:1044B00013F5967F0CDBFB68B3F5967F08DC0421CF
:1044C0007868FEF776FA7B68042283F8412509E0D4
:1044D000FB68B3F5967F05DD03217868FEF769FA7E
:1044E00000E000BF1037BD4680BDFFFF80B485B03F
:1044F00000AF78607B68D3F80C39002B12D07B6852
:10450000D3F80C391B681B6FFB60FB68002BB8BF2E
:104510005B4241F28832934204DD194B00221A605B
:10452000002327E07B68D3F81039002B12D07B687A
:10453000D3F810391B681B6FFB60FB68002BB8BFFA
:104540005B4241F28832934204DD0D4B00221A6037
:1045500000230FE00A4B1B6841F28732934208D8D0
:10456000074B1A68074B1B681344054A1360002366
:1045700000E0012318461437BD4680BC704700BFD9
:104580001811002098F5010080B483B000AF786066
:104590007B68D3F804391B681A6F7B68D3F8043939
:1045A00038331B681B6F1A447B68D3F804397033A7
:1045B0001B681B6F134418460C37BD4680BC704700
:1045C00080B584B000AF78600023FB7332E07B6875
:1045D000D3F80419FA7B1346DB009B1ADB000B446B
:1045E0001A687B685B6A9A4203D0FB7B0133FB73DA
:1045F00020E07B68D3F80419FA7B1346DB009B1A92
:10460000DB000B44184601F093FC7B68D3F80419D7
:10461000FA7B1346DB009B1ADB00CA187B68C3F8E1
:104620000C297B6893F820390133DAB27B6883F870
:10463000202905E07B6893F82939FA7B9A42C6D392
:104640001037BD4680BD80B485B000AF78600023D0
:10465000FB7322E0FB7B7A6803F242239B00134446
:104660005A687B68D3F818399A421DD0FB7B7A6868
:1046700003F242239B0013445B68002B0AD1FB7BAF
:104680007A68D2F81829796803F242239B000B4418
:104690005A600AE0FB7B0133FB737B6893F829398E
:1046A000FA7B9A42D6D300E000BF1437BD4680BCE7
:1046B000704780B485B000AF78600023FB7314E0CE
:1046C000FB7B7A6803F242239B0013445B68002B58
:1046D00003D1FB7B0133FB7307E0FB7B7A6803F2BA
:1046E00042239B0013445B6806E07B6893F82939FA
:1046F000FA7B9A42E4D3002318461437BD4680BCA7
:10470000704780B584B000AF78600B46FB707B6863
:10471000D3F80419FA781346DB009B1ADB000B442C
:10472000184601F0F3FB0023FB734AE0FB7B7A6839
:1047300003F242239B00134459687B68D3F80409B1
:10474000FA781346DB009B1ADB000344994203D03E
:10475000FB7B0133FB7334E0FB7B7A6803F242237B
:104760009B00134400225A607B68D3F80C39002B5D
:104770000FD17B68D3F810297B68C3F80C297B68BC
:10478000D3F814297B68C3F810297B680022C3F88A
:1047900014297B68D3F81039002B09D17B68D3F832
:1047A00014297B68C3F810297B680022C3F81429F8
:1047B0007B6893F82039013BDAB27B6883F82029C3
:1047C00005E07B6893F82939FA7B9A42AED310371B
:1047D000BD4680BD80B485B000AF78600023FB7318
:1047E00023E0FB7B7A6803F242239B0013445B685F
:1047F000002B17D1FB7B0133F87B7A6803F242234D
:104800009B0013445A68796800F242239B000B44D2
:104810005A60FB7B01337A6803F242239B00134406
:1048200000225A60FB7B0133FB73FB7B012BD8D941
:1048300000BF00BF1437BD4680BC704780B400AFD6
:10484000094B1B88002B01D1012309E0064B1A8874
:10485000064B1B689BB2D31A9AB2034B1A800023F3
:104860001846BD4680BC70472C11002098F5010009
:1048700080B588B000AF786039603B680A221A7052
:104880003B6801333B603B6850221A703B68013340
:104890003B603B684D221A703B6801333B603B68CC
:1048A00055221A703B6801333B603B683A221A700C
:1048B0003B6801333B603B6820221A703B68013340
:1048C0003B607B6893F840353968184603F068F917
:1048D00003461A463B6813443B603B682C221A701F
:1048E0003B6801333B607B6893F841353968184673
:1048F00003F056F903461A463B6813443B603B6895
:104900002C221A703B6801333B607B681B7C396842
:10491000184603F045F903461A463B6813443B60CA
:104920003B682C221A703B6801333B607B6893F82C
:1049300048353968184603F033F903461A463B6890
:1049400013443B603B682C221A703B6801333B6088
:104950007B6893F820393968184603F021F903463B
:104960001A463B6813443B603B682C221A703B6834
:1049700001333B607B68D3F82C393968184603F063
:10498000B7F803461A463B6813443B603B682C2249
:104990001A703B6801333B603F4B1B7839681846FF
:1049A00003F0FEF803461A463B6813443B603B683D
:1049B0002C221A703B6801333B607B68D3F8303996
:1049C0003968184603F094F803461A463B681344C6
:1049D0003B603B682C221A703B6801333B607B686C
:1049E000D3F834393968184603F082F803461A467A
:1049F0003B6813443B603B682C221A703B680133D0
:104A00003B607B68D3F854383968184603F070F877
:104A100003461A463B6813443B603B682C221A70DD
:104A20003B6801333B607B68D3F82038396818460F
:104A300003F05EF803461A463B6813443B603B684C
:104A40002C221A703B6801333B607B68D3F828380E
:104A50003968184603F04CF803461A463B6813447D
:104A60003B603B682C221A707B68D3F80C39002B12
:104A700014D03B6801333B607B68D3F80C391B686A
:104A80009B6E3968184603F033F803461A463B68B4
:104A900013443B600EE000BF041400203B68013368
:104AA0003B603968002003F023F803461A463B6850
:104AB00013443B603B682C221A703B6801333B6017
:104AC0007B68D3F804391B681A6F7B68D3F8043904
:104AD00038331B681B6F1A447B68D3F80439703372
:104AE0001B681B6F13443968184603F059F80346D6
:104AF0001A463B6813443B603B682C221A703B68A3
:104B000001333B607B68D3F8AC3518460AF0B4FA41
:104B100003469BB23968184602F0EAFF03461A467C
:104B20003B6813443B603B682C221A703B6801339E
:104B30003B607B68D3F8B83518460AF09DFA034607
:104B40009BB23968184602F0D3FF03461A463B6809
:104B500013443B603B682C221A703B6801333B6076
:104B60007B68D3F8B03518460AF086FA03469BB244
:104B70003968184602F0BCFF03461A463B681344E6
:104B80003B603B682C221A703B6801333B607B68BA
:104B9000D3F84C383968184602F0AAFF03461A4683
:104BA0003B6813443B603B682C221A703B6801331E
:104BB0003B607B68D3F834383968184602F098FFB8
:104BC00003461A463B6813443B603B682C221A702C
:104BD0003B6801333B607B68D3F804391B6893F86A
:104BE00051303968184602F083FF03461A463B6885
:104BF00013443B603B682C221A703B6801333B60D6
:104C00007B68D3F804391B6893F85D30396818461F
:104C100002F06EFF03461A463B6813443B603B6854
:104C20002C221A703B6801333B607B68D3F804394F
:104C30001B7A3968184602F05BFF03461A463B6848
:104C400013443B603B682C221A703B6801333B6085
:104C50007B68D3F804391B681B683968184602F072
:104C600047FF03461A463B6813443B603B682C22CF
:104C70001A703B6801333B607B68D3F804393833E2
:104C80001B6893F851303968184602F031FF03462B
:104C90001A463B6813443B603B682C221A703B6801
:104CA00001333B607B68D3F8043938331B6893F8D1
:104CB0005D303968184602F01BFF03461A463B6810
:104CC00013443B603B682C221A703B6801333B6005
:104CD0007B68D3F8043938331B7A3968184602F0F8
:104CE00007FF03461A463B6813443B603B682C228F
:104CF0001A703B6801333B607B68D3F80439383362
:104D00001B681B683968184602F0F2FE03461A4613
:104D10003B6813443B603B682C221A703B680133AC
:104D20003B607B68D3F8043970331B6893F85130CB
:104D30003968184602F0DCFE03461A463B68134405
:104D40003B603B682C221A703B6801333B607B68F8
:104D5000D3F8043970331B6893F85D30396818460E
:104D600002F0C6FE03461A463B6813443B603B68AC
:104D70002C221A703B6801333B607B68D3F80439FE
:104D800070331B7A3968184602F0B2FE03461A46A1
:104D90003B6813443B603B682C221A703B6801332C
:104DA0003B607B68D3F8043970331B681B68396833
:104DB000184602F09DFE03461A463B6813443B60CA
:104DC0003B682C221A707B68D3F80C39002B13D067
:104DD0003B6801333B607B68D3F80C391B689B68E8
:104DE0003968184602F084FE03461A463B681344AD
:104DF0003B603B682C221A707B68D3F81039002B7B
:104E000013D03B6801333B607B68D3F810391B68D3
:104E10009B683968184602F06BFE03461A463B68E9
:104E200013443B603B682C221A707B68D3F814391A
:104E3000002B13D03B6801333B607B68D3F81439F7
:104E40001B689B683968184602F052FE03461A46F2
:104E50003B6813443B603B682C221A703B6801336B
:104E60003B607B6893F891333968184602F040FE46
:104E700003461A463B6813443B603B682C221A7079
:104E80003B6801333B607B6893F8683439681846A7
:104E900002F02EFE03461A463B6813443B603B6813
:104EA0002C221A703B6801333B60704B1B783968C9
:104EB000184602F01DFE03461A463B6813443B6049
:104EC0003B682C221A703B6801333B60674B5B7870
:104ED0003968184602F00CFE03461A463B68134434
:104EE0003B603B682C221A703B6801333B607B6857
:104EF000D3F8E8353968184602F0FAFD03461A4639
:104F00003B6813443B603B682C221A703B680A22C2
:104F10001A703B6801333B603B6842221A703B6861
:104F200001333B603B6850221A703B6801333B60A1
:104F30003B6830221A703B6801333B603B683A2281
:104F40001A703B6801333B603B6820221A703B6853
:104F500001333B607B68D3F804391B6893F85C30FD
:104F60003968184602F01CFE03461A463B68134493
:104F70003B603B682C221A703B6801333B607B68C6
:104F8000D3F804391B6893F89E303968184602F04C
:104F900007FE03461A463B6813443B603B682C22DD
:104FA0001A703B6801333B607B68D3F804391B6897
:104FB00093F863303968184602F09AFD03461A46A2
:104FC0003B6813443B603B682C221A703B680133FA
:104FD0003B607B68D3F804391B689B6E39681846C0
:104FE00002F086FD03461A463B6813443B603B686B
:104FF0002C221A703B6801333B607B68D3F804397C
:105000001B681B6F3968184602F0CAFD03461A4632
:105010003B6813443B603B682C221A700023FB6101
:105020001EE03B6801333B607B68D3F804391B68A2
:10503000FA693C3233F812300D4AA2FB03235B09B4
:105040009BB23968184602F053FD03461A463B6886
:1050500013443B603B682C221A70FB690133FB61EF
:10506000FB690F2BDDDD0023BB611DE0501000202C
:105070001F85EB513B6801333B607B68D3F80439F3
:105080001A68BB69134498331B783968184602F0D4
:1050900087FD03461A463B6813443B603B682C225D
:1050A0001A70BB690133BB61BB69052BE2DD3B684C
:1050B00001333B603B680A221A703B6801333B6056
:1050C0003B6842221A703B6801333B603B685022C8
:1050D0001A703B6801333B603B6831221A703B68B1
:1050E00001333B603B683A221A703B6801333B60F6
:1050F0003B6820221A703B6801333B607B68D3F821
:10510000043938331B6893F85C303968184602F06C
:1051100047FD03461A463B6813443B603B682C221C
:105120001A703B6801333B607B68D3F8043938332D
:105130001B6893F89E303968184602F031FD03462B
:105140001A463B6813443B603B682C221A703B684C
:1051500001333B607B68D3F8043938331B6893F81C
:1051600063303968184602F0C3FC03461A463B68B0
:1051700013443B603B682C221A703B6801333B6050
:105180007B68D3F8043938331B689B6E396818463E
:1051900002F0AEFC03461A463B6813443B603B6892
:1051A0002C221A703B6801333B607B68D3F80439CA
:1051B00038331B681B6F3968184602F0F1FC034650
:1051C0001A463B6813443B603B682C221A7000234C
:1051D0007B611AE03B6801333B607B68D3F804399C
:1051E00038331A687B69134498331B78396818463A
:1051F00002F0D6FC03461A463B6813443B603B680A
:105200002C221A707B6901337B617B69052BE1DD00
:105210003B6801333B603B680A221A703B680133EC
:105220003B603B6842221A703B6801333B603B683D
:1052300050221A703B6801333B603B6832221A707F
:105240003B6801333B603B683A221A703B6801338C
:105250003B603B6820221A703B6801333B607B68EF
:10526000D3F8043970331B6893F85C3039681846FA
:1052700002F096FC03461A463B6813443B603B68C9
:105280002C221A703B6801333B607B68D3F80439E9
:1052900070331B6893F89E303968184602F080FC22
:1052A00003461A463B6813443B603B682C221A7045
:1052B0003B6801333B607B68D3F8043970331B686B
:1052C00093F863303968184602F012FC03461A4618
:1052D0003B6813443B603B682C221A703B680133E7
:1052E0003B607B68D3F8043970331B689B6E396868
:1052F000184602F0FDFB03461A463B6813443B6028
:105300003B682C221A703B6801333B607B68D3F802
:10531000043970331B681B6F3968184602F040FC73
:1053200003461A463B6813443B603B682C221A70C4
:1053300000233B611FE03B6801333B607B68D3F88F
:10534000043970331B683A693C3233F81230A74A8B
:10535000A2FB03235B099BB23968184602F0C8FB25
:1053600003461A463B6813443B603B682C221A7084
:105370003B6901333B613B690F2BDCDD0023FB60A4
:105380001AE03B6801333B607B68D3F80439703323
:105390001A68FB68134498331B783968184602F082
:1053A000FFFB03461A463B6813443B603B682C22D4
:1053B0001A70FB680133FB60FB68052BE1DD3B687D
:1053C00001333B603B680A221A703B6801333B6043
:1053D0003B684D221A703B6801333B603B684322B7
:1053E0001A703B6801333B603B683A221A703B6895
:1053F00001333B603B6820221A703B6801333B60FD
:105400007B68D3F88C353968184602F071FB034687
:105410001A463B6813443B603B682C221A703B6879
:1054200001333B607B68D3F890353968184602F049
:105430005FFB03461A463B6813443B603B682C22E3
:105440001A703B6801333B607B68D3F89435396848
:10545000184602F04DFB03461A463B6813443B6076
:105460003B682C221A703B6801333B607B6893F8E1
:1054700098353968184602F03BFB03461A463B68EC
:1054800013443B603B682C221A703B6801333B603D
:105490007B6893F899353968184602F029FB034672
:1054A0001A463B6813443B603B682C221A703B68E9
:1054B00001333B607B6893F89B353968184602F0EE
:1054C00017FB03461A463B6813443B603B682C229B
:1054D0001A703B6801333B607B6893F89C353968F0
:1054E000184602F005FB03461A463B6813443B602E
:1054F0003B682C221A703B6801333B607B6893F851
:105500009D353968184602F0F3FA03461A463B689F
:1055100013443B603B682C221A703B6801333B60AC
:105520007B6893F89A353968184602F0E1FA034629
:105530001A463B6813443B603B680A221A702C4BA6
:10554000D3F804391B6893F85130032B15D10D2380
:10555000FB720FE03B6801333B60254BD3F8043905
:105560001A68FB7A013B13441A7C3B681A70FB7A79
:10557000013BFB72FB7A002BECD13B6801333B60B3
:105580003B680A221A701A4BD3F8043938331B6867
:1055900093F85130032B16D10D23BB7210E03B68FA
:1055A00001333B60124BD3F8043938331A68BB7AA5
:1055B000013B13441A7C3B681A70BB7A013BBB72F7
:1055C000BB7A002BEBD13B6801333B603B680A227E
:1055D0001A70074BD3F8043970331B6893F85130B5
:1055E000032B1BD10D237B7215E000BF1F85EB51F0
:1055F000B02D00203B6801333B60134BD3F80439D6
:1056000070331A687B7A013B13441A7C3B681A702A
:105610007B7A013B7B727B7A002BEBD13B680133B9
:105620003B603B682A221A703B6801333B603B6851
:105630000A221A703B6801333B603B6800221A70F3
:1056400000BF2037BD4680BDB02D002080B483B0A0
:1056500000AF78607B6800225A747B6800225A731E
:105660007B680022DA737B6800229A737B680022D1
:105670001A737B6800229A607B6800221A747B6828
:1056800000221A607B6800225A607B6800225A61FF
:1056900000BF0C37BD4680BC7047FFFFFFFFFFFF18
:1056A00090B587B000AF786039607B68D3F8043973
:1056B0001B681A6F7B68D3F8043938331B681B6F7B
:1056C0001A447B68D3F8043970331B681B6F13448A
:1056D000184609F0B7FA03467B617B68D3F80C39AA
:1056E0001B689B6E184609F0A9FA03463B612E4BD6
:1056F000D3F88C35184609F001F929A3D3E9002322
:1057000008F090FE02460B461046194609F090F943
:105710000346FB60244BD3F89435184609F08EFA03
:105720000346BB603969786909F0E0FA03461F490E
:10573000184609F08FFB03461A463B681A603B681F
:10574000DC683B681B681A49184609F083FB03466E
:105750001946204609F0C2F903461A463B68DA604A
:10576000F968B86809F0C2FA03461A463B685A60FD
:105770003B689C683B685B680D49184609F06AFB0A
:1057800003461946204609F0A9F903461A463B6824
:105790009A6000BF1C37BD4690BD00BFAFF30080CC
:1057A0000AD7A3703D0AF33FB02D002000247449AE
:1057B0000000E14580B483B000AF786000BF0C37D3
:1057C000BD4680BC7047FFFF80B582B000AF7860F7
:1057D000284B1B780133DAB2264B1A70254B1B7805
:1057E000322B02D1234B00221A70224B1B78012B43
:1057F00008D17B68D3F8D4357A6802F5B9621046CF
:10580000984733E01B4B1B78022B07D17B68D3F8FA
:10581000F8357A6802F5B862104698477B6893F8C5
:105820004035022B16D17B68D3F8F435B3F57A7F77
:1058300007D27B68D3F8F4355A1C7B68C3F8F4258B
:1058400014E07B68D3F8D0357A6802F5B962104667
:1058500098470BE07B68D3F8D4357A6802F5B962D3
:10586000104698477B680022C3F8F4250837BD46E8
:1058700080BD00BF4011002080B487B000AFF86049
:10588000B9601346FB800023FB820AE0FB8ABA68FA
:105890001A44FB8AF9680B4412781A70FB8A0133A8
:1058A000FB82FA8AFB889A42F0D300BF00BF1C3704
:1058B000BD4680BC704780B485B000AF78600B46B1
:1058C0007B807B883B813A7A7B681A707B680133E6
:1058D0007A7A1A7000BF1437BD4680BC7047FFFF4C
:1058E00080B483B000AF7860034A7B68136000BF68
:1058F0000C37BD4680BC7047F40E002080B584B0E4
:1059000000AFF860B9607A60FB68D3F8C832C3F3BF
:105910001C031A46BB68934218D1FB6893F8CB323C
:1059200003F04003DBB2002B0ED1FB6803F53470AB
:10593000FB6893F8D8329BB21A467968FFF79CFF50
:10594000FB68012283F8D922012333E0FB68D3F8F6
:10595000FC31C3F31C031A46BB68934212D1FB68A7
:1059600093F85832002B0DD0FB6803F50173082221
:1059700079681846FFF780FFFB68012283F80D2243
:10598000012317E0FB68D3F86432C3F31C031A4603
:10599000BB6893420DD1FB6803F51B73082279683D
:1059A0001846FFF769FFFB68012283F8752201237F
:1059B00000E0002318461037BD4680BD80B582B098
:1059C00000AF7860164B1B789BB219467868FFF7DA
:1059D00072FF7B680133124A527892B21146184620
:1059E000FFF769FF7B6802330E4AD2F8202892B293
:1059F00011461846FFF75FFF7B68181D094BD3F867
:105A00002C39094A82FB03129210DB17D31A9BB27E
:105A10001946FFF750FF00BF0837BD4680BD00BFE5
:105A200050100020B02D00206766666690B583B0E8
:105A300000AF78607B689A1D1F4BD3F80C391B6848
:105A40009B6E1E49A1FB0313DB089BB2194610464F
:105A5000FFF731FF7B68181D174BD3F804391B681B
:105A60001A6F154BD3F8043938331B681B6F1A446F
:105A7000114BD3F8043970331B681B6F1344104A61
:105A800082FB03129210DB17D31A9BB21946FFF761
:105A900012FF7B689C1C084BD3F8B835184609F0F8
:105AA000EBFA03469BB219462046FFF704FF00BFFE
:105AB0000C37BD4690BD00BFB02D0020CDCCCCCC66
:105AC0006766666680B483B000AF786000BF0C374D
:105AD000BD4680BC704780B483B000AF786000BF23
