:020000021000EC
:10000000F89700203D2F0200512C02004B2F0200D8
:100010004B2F02004B2F02004B2F02004B2F0200F0
:100020000000000000000000000000004B2F020054
:100030004B2F0200000000004B2F02004B2F02004C
:10004000C7170200C518020075190200C518020082
:10005000751902005DF6010091F60100C5F6010078
:10006000F9F60100072902008BDF010015DE01000F
:10007000ABE0010003E10100751F0200C9FF0100B0
:10008000C9FF0100C9FF010049090200AD080200D3
:10009000B3D20100FFD201007DD30100E1D3010002
:1000A0000000000000000000000000000000000050
:1000B0000000000000000000000000000000000040
:1000C0000000000000000000000000000000000030
:1000D0000000000000000000000000000000000020
:1000E0000000000000000000000000000000000010
:1000F0000000000000000000000000000000000000
:1001000000000000000000000000000000000000EF
:1001100000000000000000000000000000000000DF
:1001200000000000000000000000000000000000CF
:1001300000000000000000000000000000000000BF
:1001400000000000000000000000000000000000AF
:10015000000000000000000000000000000000009F
:10016000000000000000000000000000000000008F
:10017000000000000000000000000000000000007F
:10018000000000000000000000000000000000006F
:10019000000000000000000000000000000000005F
:1001A000000000000000000000000000000000004F
:1001B000000000000000000000000000000000003F
:1001C000FFFFFFFFFFFFFFFFFFFFFFFFFFFFFFFF3F
:1001D000FFFFFFFFFFFFFFFFFFFFFFFFFFFFFFFF2F
:1001E000FFFFFFFFFFFFFFFFFFFFFFFFFFFFFFFF1F
:1001F000FFFFFFFFFFFFFFFFFFFFFFFFFFFFFFFF0F
:1002000010B5054C237833B9044B13B1044800E012
:1002100000BF0123237010BD401A00200000000021
:10022000305A020008B5034B1BB10349034800E0F4
:1002300000BF08BD00000000441A0020305A020030
:1002400080B487B000AFF860B9601346FB7100233B
:10025000FB750023FB750DE0FA79FB7DD31A013B9A
:10026000FA681A44FB7DB9680B4412781A70FB7D5A
:100270000133FB75FA7DFB799A42EDD300BF00BFD5
:100280001C37BD465DF8047B7047FFFF80B588B022
:1002900000AF786039607B68FB610023BB76002388
:1002A000FB760023BB6007F10C0300221A605A6042
:1002B0009A601DE0F9691F4BA3FB0123DA0813467E
:1002C0009B0013445B00CA1A1346BB76BA7EFB7EC2
:1002D00019498A5C07F120010B4403F8182CFB7EB6
:1002E0000133FB76FB69134AA2FB0323DB08FB61A6
:1002F000FB69092BDED8FB7E0F49FA690A441278A4
:1003000007F120010B4403F8182CFB7E0133DAB20D
:1003100007F1080339681846FFF792FFFB7E0133A7
:100320003A68134400221A70FB7E013318462037C6
:10033000BD4680BDCDCCCCCC7842020080B584B027
:1003400000AF786039607B68002B06DB7B6839681A
:100350001846FFF79BFF03460EE07B685B42FB609D
:100360003B682D221A70FA683B6801331946104623
:10037000FFF78CFF0346013318461037BD4680BD9A
:1003800080B485B000AF03463960FB801346BB8064
:100390000023FB81BB88013B9BB2BB814FF6FF73FF
:1003A0003B814FF6FF737B812AE0B7F90C20B7F948
:1003B0000E30D31ADA0F13445B109AB2FB89134440
:1003C0009BB23B81B7F908305B003A6813441B8845
:1003D000FA889A4202D13B897B8117E0B7F908304D
:1003E0005B003A6813441B88FA889A4204D23B891E
:1003F00001339BB2FB8103E03B89013B9BB2BB8194
:10040000B7F90E20B7F90C309A42CEDDB7F90E20BD
:10041000B7F90C309A4201DDFB897B817B89184654
:100420001437BD465DF8047B7047FFFF80B584B08C
:1004300000AFF860B9607A60FB68002B04D1182027
:1004400013F05AF80346FB60BB685A1CFB685A60FD
:10045000FB687A689A60FB6800225A61FB684FF07B
:10046000FF32DA60FB684FF0FF321A61FB685B68AD
:10047000FA68926802FB03F3184613F03DF803464E
:100480001A46FB681A60FB681B68002B03D10348FF
:1004900013F070F900BF1037BD4680BD84420200E2
:1004A00080B584B000AF786039607B68DB68013369
:1004B0001A467B685B68B2FBF3F103FB01F3D31AC6
:1004C000FB607B681B691A46FB68934219D07B6806
:1004D0001A687B68DB6819467B689B6803FB01F33D
:1004E000D0187B689B681A46396813F015F8FA68CB
:1004F0007B68DA607B685B695A1C7B685A61012300
:1005000000E0002318461037BD4680BDFFFFFFFF07
:1005100090B58BB002AF78607B6800225A60284BA0
:100520001A697B689A607B68254A1A607B6800229A
:10053000DA601EE07B6818687B685A687B68DB6855
:1005400007F10C011024009406F0CCFA07F10C031B
:10055000FB61FB69D3E9022317A1D1E900018B42BA
:1005600008BF82420CD17B68DB6803F110027B6814
:10057000DA607B68DA687B689B689A42DAD300E0CD
:1005800000BF7B68DA687B689B689A4203D87B6807
:10059000DB68002B0AD17B681A687B685B681946A8
:1005A000104606F0D3F87B680022DA6000BF2437DB
:1005B000BD4690BDAFF3008094F0E0000000000065
:1005C0001C270020FFFFFFFF82B090B589B002AF6B
:1005D000786007F1280181E80C007B68DA687B68A5
:1005E0009B689A4207D97B681A687B685B681946E2
:1005F000104606F0ABF820A3D3E90023C7E90C238B
:100600007B6818687B685A687B68DB6810210091FA
:1006100007F1280106F089F90346002B23D07B68F7
:1006200018687B685A687B68DB6807F1080110244A
:10063000009406F057FABA68BB6A9A4213D1FA6876
:10064000FB6A9A420FD1D7E90401D7E90C239942FA
:1006500008BF904207D17B68DB6803F110027B681A
:10066000DA60002301E04FF0FF3318461C37BD4627
:10067000BDE8904002B0704794F0E0000000000038
:1006800090B589B002AF786039607B68DB68002B79
:1006900002D14FF0FF331EE07B6818687B685A6810
:1006A0007B68DB68103B07F108011024009406F01A
:1006B00019FA0346002B0CD0BA683B681A60FA6836
:1006C0003B685A60D7E904233968C1E90223002353
:1006D00001E04FF0FF3318461C37BD4690BD80B493
:1006E00087B000AF7861396187ED030AC7ED020A70
:1006F00087ED011A7B691B68FA681A607B691B68C1
:10070000BA685A607B691B687A689A607B691B6863
:100710003A6912681A617B691B683A6952685A61C2
:100720007B691B683A6992689A6100BF1C37BD46B5
:100730005DF8047B704780B582B000AF7860786860
:1007400000F086FF786801F0ADF800BF0837BD46BD
:1007500080BD80B582B000AF78607B6808330ECB77
:10076000786800F037F8786800F0E8F8786800F00A
:1007700063F9786800F0EAF9786800F025FA7B6898
:100780002C330ECB786800F025F8786800F06CFD0B
:10079000786800F0C3FA786800F022FB786800F00F
:1007A0003BFB786800F070FB786800F0ABFB786882
:1007B00000F02AFC786800F04FFC786800F090FCAC
:1007C000786800F0E3FC786800F0ACFE00BF083702
:1007D000BD4680BDF0B593B00AAFF86107F11000D7
:1007E00080E80E00524D3C46514A01AB07CA83E8EF
:1007F00007000323009307F110030ECB204602F0FD
:1008000010F92C463B4693E8070084E80700494E60
:100810003D46FC69474A6B4607CA83E8070004F176
:1008200014030ECB284602F035F934463B4693E8D4
:10083000070084E807003F4E3D463E4C3D4A6B466C
:1008400007CA83E807009FED3C0A94E80E0028469B
:1008500001F024FF34463B4693E8070084E8070094
:10086000334E3D46324C324A03AB07CA83E8070099
:10087000304A6B4607CA83E8070094E80E00284612
:1008800001F04FFE34463B4693E8070084E807003A
:10089000284E3D46274C274A6B4607CA83E8070087
:1008A000B0EE000A94E80E00284601F0F7FE344648
:1008B0003B4693E8070084E807001E4E3D461C4C6B
:1008C0001C4A03AB07CA83E807001A4A6B4607CAEB
:1008D00083E8070094E80E00284601F060FE3446E5
:1008E0003B4693E8070084E80700FD693E46FB6944
:1008F00006AC203393E8070084E807000D4A03ABF9
:1009000007CA83E807000A4A6B4607CA83E807005C
:1009100007F110030ECB304602F006F805F1200374
:100920003A4607CA83E8070000BF2437BD46F0BD3A
:10093000201E00202C1E0020BDE38D3CF0B58FB0A2
:1009400006AFF8613A4B7B6007F10806FD69384A4B
:1009500003AB07CA83E80700FB696C46743393E86E
:10096000070084E8070005F144030ECB304601F090
:10097000CFFE7C6807F1080393E8070084E80700CE
:100980002C4E07F108052A4C2A4A01AB07CA83E816
:1009900007000723009394E80E00284602F041F870
:1009A000344607F1080393E8070084E80700FD696F
:1009B00007F1080CFE69FB6903AC203393E80700DC
:1009C00084E80700FB696C46203393E8070084E85D
:1009D000070006F138030ECB604601F099FE05F1E1
:1009E000200307F1080207CA83E80700FD6907F141
:1009F000080CFE69FB6903AC203393E8070084E828
:100A000007000C4A6B4607CA83E8070006F120037B
:100A10000ECB604601F085FD05F1200307F10802C9
:100A200007CA83E8070000BF2437BD46F0BD00BFFA
:100A3000381E0020441E002080B485B000AF7860CE
:100A40000023FB600AE07B68DA6AFB689B001344C2
:100A50004FF000021A60FB680133FB60FB68022B59
:100A6000F1DD0023FB601BE07B68DB6A93ED007A1D
:100A7000354AFB689B001344D3ED006A7B681A6A11
:100A8000FB689B001344D3ED007A66EEA77A7B687F
:100A9000DB6A77EE277AC3ED007AFB680133FB60EF
:100AA000FB68062BE0DD0023FB601EE07B68DB6A51
:100AB000043393ED007A244AFB689B001344D3ED82
:100AC000006A7B681A6AFB6807339B001344D3ED06
:100AD000007A66EEA77A7B68DB6A043377EE277AC2
:100AE000C3ED007AFB680133FB60FB68062BDDDD9C
:100AF0000023FB601EE07B68DB6A083393ED007A1D
:100B0000114AFB689B001344D3ED006A7B681A6AA4
:100B1000FB680E339B001344D3ED007A66EEA77A90
:100B20007B68DB6A083377EE277AC3ED007AFB68CF
:100B30000133FB60FB68062BDDDD00BF00BF14370F
:100B4000BD465DF8047B704798420200F0B58DB059
:100B500006AF78617D69BC467E697B6901AC503324
:100B600093E8070084E807000723009306F12C03AD
:100B70000ECB604601F055FF05F150033A4607CA17
:100B800083E807007D69BC467E697B6903AC50330E
:100B900093E8070084E807007B696C46503393E8CC
:100BA000070084E8070006F120030ECB604601F041
:100BB000F6FC05F150033A4607CA83E8070000BF78
:100BC0001C37BD46F0BDFFFFF0B591B006AF7861B0
:100BD00000237B620DE07B695A697B6A9B001344AA
:100BE00049497A6A92000A4412681A607B6A0133A2
:100BF0007B627B6A082BEEDD00233B627BE00023F7
:100C0000FB6124E07B69196DFA691346DB009A1ACF
:100C10003B6A13449B00CA183C4B1968FB699B0054
:100C20000B4412681A607B69196DFA691346DB0080
:100C30009A1A3B6A13449B00CA18354B1968FB6922
:100C40009B000B4412681A60FB690133FB61FB696E
:100C5000022BD7DD2F4E3D462C4C2E4A03AB07CA44
:100C600083E807002A4A6B4607CA83E8070094E82E
:100C70000E00284601F04CFD34463B4693E8070041
:100C800084E80700244A3B6A9B001344D3ED007AB2
:100C9000204E3D461F4C1F4A6B4607CA83E807009B
:100CA000B0EE670A94E80E00284601F0F7FC3446DF
:100CB0003B4693E8070084E807007D69BC467E69EF
:100CC0007B6903AC143393E8070084E80700114AFA
:100CD0006B4607CA83E8070006F114030ECB604693
:100CE00001F01FFC05F114033A4607CA83E8070028
:100CF0003B6A01333B623B6A062B80DD00BF00BFCD
:100D00002C37BD46F0BD00BFF4420200681E002033
:100D1000741E0020801E0020B4420200F0B58FB087
:100D200006AF78617D69BC467E697B6903AC803320
:100D300093E8070084E807007B696C46203393E85A
:100D4000070084E8070006F15C030ECB604601F063
:100D5000DFFC05F180033A4607CA83E807007B6998
:100D60007A696C4603F1780103C984E803005B6F7C
:100D7000683207CA01F051FC87ED060A0023FB61C7
:100D800009E0164B1A68FB699B001344BA691A60A4
:100D9000FB690133FB61FB69062BF2DD7D69BC4613
:100DA0007E697B6903AC803393E8070084E8070021
:100DB0000A4A6B4607CA83E8070006F180030ECB98
:100DC000604601F0AEFB05F180033A4607CA83E8AE
:100DD000070000BF2437BD46F0BD00BF8C1E0020B9
:100DE00090B585B002AF78600A4B7A686C46191DE1
:100DF00003C984E803001B68803207CA01F00DFCB8
:100E0000F0EE407A7B68C3ED237A00BF0C37BD4615
:100E100090BD00BF5C1E0020F0B58FB006AF7861BA
:100E20000023FB610BE0174B1A68FB699B0013441E
:100E30007A69D2F88C201A60FB690133FB61FB6987
:100E4000062BF0DD7D69BC467E697B6903AC90337F
:100E500093E8070084E807000A4A6B4607CA83E85C
:100E6000070006F180030ECB604601F098FB05F108
:100E700090033A4607CA83E8070000BF2437BD46FF
:100E8000F0BD00BF981E002080B485B000AF786030
:100E90007B681A4AC3F89C200023FB6024E07B682F
:100EA00093ED277A164AFB689B001344D3ED006A42
:100EB0007B68D3F89020FB689B001344D3ED007A45
:100EC00066EEA76A7B68D3F89020FB689B0013440A
:100ED000D3ED007A66EEA77A77EE277A7B68C3EDCA
:100EE000277AFB680133FB60FB68062BD7DD00BF68
:100EF00000BF1437BD465DF8047B704766F7E43EDB
:100F0000B4420200F0B591B006AF786100237B6275
:100F10000BE07B69D3F8A0207B6A9B0013444FF061
:100F200000021A607B6A01337B627B6A022BF0DD70
:100F300000233B625CE00023FB6113E07B69196DD9
:100F4000FA691346DB009A1A3B6A13449B00CA18DD
:100F50002B4B1968FB699B000B4412681A60FB69F4
:100F60000133FB61FB69022BE8DD264A3B6A9B00EB
:100F7000134493ED007A7B69D3F890203B6A9B0081
:100F80001344D3ED007A67EE277A1D4E3D461C4C84
:100F90001B4A6B4607CA83E80700B0EE670A94E86D
:100FA0000E00284601F07AFB34463B4693E80700E2
:100FB00084E807007D69BC467E697B6903ACA03389
:100FC00093E8070084E807000D4A6B4607CA83E8E8
:100FD000070006F1A0030ECB604601F0A2FA05F16E
:100FE000A0033A4607CA83E807003B6A01333B6225
:100FF0003B6A062B9FDD00BF00BF2C37BD46F0BD0E
:10100000A41E0020B4420200F0B58BB004AF78619A
:101010007B69D3ED277AF7EE006A86EEA77A7D69C1
:10102000BC467E697B696C46AC3393E8070084E874
:101030000700B0EE470A06F1A0030ECB604601F0B0
:101040002DFB05F1AC033A4607CA83E8070000BF51
:101050001C37BD46F0BDFFFFF0B58DB006AF78611F
:101060007B691B6893ED007A7B69D3ED237A77EE79
:10107000677A1A4E3D467C69184A6B4607CA83E870
:101080000700B0EE670A04F1AC030ECB284601F06E
:1010900005FB34463B4693E8070084E807007D697A
:1010A000BC467E697B6903AC083393E8070084E89B
:1010B00007000A4A6B4607CA83E8070006F12C03BB
:1010C0000ECB604601F02DFA05F108033A4607CA37
:1010D00083E8070000BF1C37BD46F0BDB01E0020EE
:1010E00080B483B000AF78607B689B68D3ED007AF2
:1010F0009FED217AF4EEC77AF1EE10FA03DB7B68FC
:101100009B681E4A1A607B689B68D3ED007A9FED4E
:101110001C7AF4EEC77AF1EE10FA03D87B689B686C
:10112000184A1A607B689B680833D3ED007AB7EEE3
:10113000007AF4EEC77AF1EE10FA05DB7B689B6863
:1011400008334FF07E521A607B689B680833D3EDFA
:10115000007ABFEE007AF4EEC77AF1EE10FA00D909
:1011600004E07B689B680833074A1A6000BF0C37AD
:10117000BD465DF8047B70470000C8420000C842CD
:1011800057EC8F3E57EC8F3E000080BFF0B58FB01C
:1011900006AF78610023FB610FE07B69D3F8AC20D8
:1011A000FB699B001A442E4B1968FB699B000B449A
:1011B00012681A60FB690133FB61FB69022BECDDED
:1011C000284E3D467C69274A03AB07CA83E80700DF
:1011D000234A6B4607CA83E8070004F1AC030ECB31
:1011E000284601F095FA34463B4693E8070084E828
:1011F00007007B69D3ED277A1A4E3D46194C194AF0
:101200006B4607CA83E80700B0EE670A94E80E0051
:10121000284601F043FA34463B4693E8070084E849
:1012200007007D69BC467E697B6903AC143393E893
:10123000070084E807000B4A6B4607CA83E80700EB
:1012400006F114030ECB604601F0A9F905F1140371
:101250003A4607CA83E8070000BF2437BD46F0BD01
:10126000BC1E0020C81E002080B582B000AF786090
:10127000786800F011F8786800F0A6F8786800F057
:10128000BBF8786800F0FEF8786800F037F900BF26
:101290000837BD4680BDFFFF80B582B000AF7860E3
:1012A0007B681A687B685B6F52681A607B681B6892
:1012B000D3ED017AB0EE670A01F0CEFD07EE900A99
:1012C0007B685B6F0433F8EEE77AC3ED007A7B68E6
:1012D0001B68D3ED017AB0EE670A01F013FDF0EE62
:1012E000407A9FED337AF4EEC77AF1EE10FA05D525
:1012F0007B685B6F04334FF000021A602D4B2E4A5F
:101300001A607B681B68D3ED017AF5EEC07AF1EEC6
:1013100010FA03D5274B4FF07E521A607B681B688A
:10132000D3ED067ADFED256A86EEA77AB0EE470A9E
:1013300001F0E8FCF0EE407AF1EE677AB0EE670A71
:1013400001F03EFDF0EE407A7B68C3ED2E7A194B3A
:10135000D3ED007A9FED1A7A67EE877A9FED177AC0
:1013600027EE877A7B681B68D3ED017A27EE277A10
:101370007B681B68D3ED027ADFED126A67EEA67A0E
:10138000C7EE276AB0EE660A01F0BCFCF0EE407AC8
:10139000F1EE677AB0EE670A01F012FDF0EE407AE6
:1013A0007B68C3ED2F7A00BF0837BD4680BD00BF04
:1013B0006F12833B5C1A002071F5833F3333333F58
:1013C000CCFF76420000874680B483B000AF7860DF
:1013D0007B689B6B10337A68D2F8B8201A607B6800
:1013E0009B6B20337A68D2F8BC201A6000BF0C37A0
:1013F000BD465DF8047B704780B483B000AF786071
:101400001C4BD3ED007AF1EE677A9FED1B7A67EE05
:10141000877A9FED1A7A67EE876A7B681B68D3ED3F
:10142000027A9FED177A27EE877A7B685B6CC6EEAF
:10143000877AC3ED007A7B68D3ED2E7A7B685B6C8C
:101440000833B7EE007A77EE677AC3ED007A7B68EF
:10145000D3ED2F7A7B685B6C1433B7EE007A77EEAE
:10146000C77AC3ED007A00BF0C37BD465DF8047B38
:10147000704700BF5C1A00203333333F0000C8427E
:101480000000874680B584B000AF78604FF000035D
:10149000FB600023BB6015E07B681A6ABB689B0099
:1014A0001344D3ED007AB0EE670A00F06FFFB0EEA0
:1014B000407AD7ED037A77EE877AC7ED037ABB6877
:1014C0000133BB60BB68062BE6DD7B68DB6D97ED07
:1014D000037AF1EE0C6AC7EE267AC3ED007A7B68D8
:1014E0001B68D3ED057A7B68DB6D0433F1EE677A18
:1014F000C3ED007A00BF1037BD4680BD80B483B015
:1015000000AF78607B681B68D3ED047A7B689B6EC4
:10151000F1EE677AC3ED007A00BF0C37BD465DF887
:10152000047B704780B582B000AF78607B689B68B1
:10153000D3ED007AB0EE670A00F028FFB0EE407AF3
:101540007B689B68D3ED007A27EE277A7B689B68DF
:101550000433D3ED006A7B681B68D3ED057A66EE31
:10156000A77A37EE677A7B681B68D3ED016A7B68E0
:101570001B68D3ED047A66EEA77A37EE677A7B684C
:101580009B680833D3ED007ADFED2E6A67EEA67A0A
:1015900037EE277A7B685B6F0433D3ED007ADFED9B
:1015A0002A6A67EEA67A7B685B6877EE277AC3EDD6
:1015B000017A7B689B68D3ED007AB0EE670A12F07F
:1015C000E3FDF0EE407A7B685B68FCEEE77A17EEAD
:1015D000902A1A607B689B68D3ED007A9FED1B7A96
:1015E000F4EEC77AF1EE10FA03DB7B685B686422E5
:1015F0001A607B689B68D3ED007AF5EEC07AF1EE55
:1016000010FA03D87B685B6800221A607B689B68CD
:101610000833D3ED007A9FED0B7A27EE877A7B684B
:101620005B6F0433D3ED007ADFED076A67EEA67ACD
:101630007B685B6877EE277AC3ED047A00BF0837D2
:10164000BD4680BDB6F37D3D0AD7233B0000C842AE
:1016500080B483B000AF7860584B594A1A60594B38
:10166000594A1A60594B5A4A1A605A4B5A4A1A60D8
:101670005A4B5B4A1A605B4B5B4A1A605B4B5C4A95
:101680001A605C4B5C4A1A605C4B5D4A1A605D4BA9
:101690005D4A1A605D4B5E4A1A605E4B5E4A1A6094
:1016A0005E4B5F4A1A605F4B5F4A1A605F4B604A4D
:1016B0001A60604B604A1A60604B614A1A60614B65
:1016C000614A1A60614B624A1A60624B624A1A6050
:1016D000624B634A1A60634B634A1A60634B644A05
:1016E0001A60644B644A1A60644B654A1A60654B21
:1016F000654A1A60654B664A1A60664B664A1A600C
:10170000664B674A1A607B682C4A083307CA83E82D
:1017100007007B682B4A143307CA83E807007B68FD
:101720002A4A203307CA83E807007B68294A2C33FA
:1017300007CA83E807007B68284A383307CA83E86A
:1017400007007B68274A443307CA83E807007B68A1
:10175000264A5C3307CA83E807007B68254A68335A
:1017600007CA83E807007B68244A503307CA83E826
:1017700007007B68234A743307CA83E807007B6845
:10178000224A803307CA83E807007B68214A9033E6
:1017900007CA83E807007B68204AA03307CA83E8AA
:1017A00007007B681F4AAC3307CA83E8070000BF05
:1017B0000C37BD465DF8047B704700BF781D0020E4
:1017C000601A0020841D00206C1A0020901D00204B
:1017D000901A00209C1D0020E41A0020A81D002063
:1017E000F01A0020B41D0020141B0020C01D002092
:1017F0002C1B0020CC1D0020381B0020D81D0020F1
:10180000401B0020E41D0020941B0020F01D002040
:101810009C1B0020FC1D0020B81B0020081E00207F
:10182000D41B0020141E0020E01B0020201E0020DE
:10183000EC1B00202C1E0020101C0020381E002055
:10184000341C0020441E0020401C0020501E00209C
:10185000941C00205C1E0020A01C0020681E00209C
:10186000BC1C0020741E0020C81C0020801E00200C
:10187000D41C00208C1E0020F81C0020981E002084
:10188000141D0020A41E0020301D0020B01E0020CA
:101890003C1D0020BC1E0020481D0020C81E00204A
:1018A000541D002090B585B000AF78607B6803229E
:1018B000DA607B6801221A617B681B68D3ED007ACD
:1018C0007B689C68B0EE670A00F010FDF0EE407A8D
:1018D000C4ED007A7B689B6804334FF000021A6005
:1018E0007B689B6808334FF000021A607B68032214
:1018F0009A617B680322DA610023FB600DE07B685C
:101900005A69FB689B0013448549FA6892000A44AF
:1019100012681A60FB680133FB60FB68082BEEDD80
:101920007B6803225A627B6807229A627B680322E3
:101930001A637B6801225A637B6803225A657B68BD
:1019400007229A657B680322DA637B6803221A64A4
:101950000023FB600AE07B689A6BFB689B001344E2
:101960004FF000021A60FB680133FB60FB68082B34
:10197000F1DD7B689B6B4FF07E521A607B689B6B3E
:1019800003F110049FED670A01F01AFAF0EE407AB5
:10199000C4ED007A7B689B6B20334FF07E521A6057
:1019A0007B6803229A647B680222DA640023FB606E
:1019B0000AE07B685A6CFB689B0013444FF00002FE
:1019C0001A60FB680133FB60FB68052BF1DD7B6867
:1019D0005B6C554A1A609FED530A01F0F1F9F0EE85
:1019E000407A7B685B6C0833B7EE007A77EE677AF3
:1019F000C3ED007A7B6801221A667B6803225A666F
:101A00000023FB600AE07B68DA6DFB689B001344EF
:101A10004FF000021A60FB680133FB60FB68022B89
:101A2000F1DD7B68DB6D0833404A1A607B68012278
:101A3000DA667B6802221A670023FB600AE07B6893
:101A40009A6EFB689B0013444FF000021A60FB681B
:101A50000133FB60FB68012BF1DD7B689B6E043377
:101A6000334A1A607B6802229A677B680122DA6730
:101A70007B681A687B685B6F52681A607B685B6F73
:101A800004334FF000021A607B680122C3F88420FF
:101A90007B680722C3F888207B681B681A687B680C
:101AA000C3F88C207B680122C3F894207B6807224E
:101AB000C3F898207B680322C3F8A4207B68012226
:101AC000C3F8A8207B680322C3F8B0207B680122FA
:101AD000C3F8B4207B681A687B685B6812685A6038
:101AE0007B689B68D3ED007AB0EE670A12F04CFB7E
:101AF000F0EE407A7B685B68FCEEE77A17EE902A9E
:101B00001A607B685B684FF000021A61094B07227C
:101B10005A60084B01229A600023FB601AE000BF64
:101B2000D0420200617BA3BFBC292FB8B6F37D3D34
:101B30000AD7233B5C1E0020344B1A68FB689B00CD
:101B400013443349FA6892000A4412681A60FB6829
:101B50000133FB60FB68062BEEDD2E4B03225A603F
:101B60002C4B03229A602C4B03225A602A4B0322EF
:101B70009A602A4B03225A60284B01229A60284B14
:101B800003225A60264B07229A60264B03225A6092
:101B9000244B01229A60244B03225A60224B0122DB
:101BA0009A60224B01225A60204B03229A60204BFC
:101BB00003225A601E4B03229A601E4B01225A6078
:101BC0001C4B07229A601C4B01225A601A4B0722B9
:101BD0009A601A4B03225A60184B01229A60184BE4
:101BE00003225A60164B01229A60164B01225A605A
:101BF000144B03229A60144B03225A60124B0322A7
:101C00009A6000BF1437BD4690BD00BF5C1E002027
:101C100098420200201E00202C1E0020381E0020AA
:101C2000441E0020501E0020681E0020741E00204C
:101C3000801E00208C1E0020981E0020A41E002064
:101C4000B01E0020BC1E0020C81E002080B485B03D
:101C500000AFF86087ED020AC7ED010A87ED001AB0
:101C6000FB681B68BA681A60FB681B687A685A6070
:101C7000FB681B683A689A6000BF1437BD465DF880
:101C8000047B704780B582B000AF7860786800F060
:101C9000F9F9786800F058FA00BF0837BD4680BDF2
:101CA00080B582B000AF7860786800F016F8786888
:101CB00000F03EF8786800F055F8786800F0C0F859
:101CC000786800F029F9786800F062F8786800F028
:101CD0005DF900BF0837BD4680BD80B483B000AF5A
:101CE00078607B685A6A7B685B6A0C3392681A601A
:101CF0007B681A687B685B6A083352681A607B6885
:101D00005B6A04337A6892681A607B681B6893ED9B
:101D1000007A7B681B68D3ED027A77EE677A7B687E
:101D2000C3ED027A00BF0C37BD465DF8047B7047F7
:101D300090B585B002AF78607B687A686C4603F135
:101D4000340103C984E803001B6B243207CA00F086
:101D500064FCF0EE407A7B68C3ED0F7A00BF0C376D
:101D6000BD4690BD80B483B000AF78607B681B68CF
:101D700093ED007A7B68D3ED0F7A77EE677A7B6814
:101D8000C3ED107A00BF0C37BD465DF8047B704789
:101D9000F0B597B006AF786107F11C00264B0ECB6B
:101DA00000F064FB07F128067D69244A03AB07CAEB
:101DB00083E807007B696C46243393E8070084E8D6
:101DC000070005F118030ECB304600F0A1FC07F127
:101DD0003405194A03AB07CA83E807006C4607F1CC
:101DE000280393E8070084E8070007F11C030ECBE3
:101DF000284600F0D4FB7D693E467B6903AC0C337A
:101E000093E8070084E807007B696C460C3393E88D
:101E1000070084E8070007F134030ECB304600F0DA
:101E200077FC05F10C033A4607CA83E8070000BFB8
:101E30004437BD46F0BD00BF542000206020002084
:101E4000F0B58FB006AF78610023FB610EE07B69CF
:101E50005A6AFB699B001A442D4B1968FB699B0069
:101E60000B4412681A60FB690133FB61FB69032BA9
:101E7000EDDD7D69BC467E697B6903AC183393E870
:101E8000070084E80700224A6B4607CA83E8070078
:101E900006F10C030ECB604600F03AFC05F1180386
:101EA0003A4607CA83E807007B697A696C4603F102
:101EB0001C0103C984E803009B69243207CA00F0AF
:101EC000ACFBF0EE407A9FED137A77EE877AF7EE6F
:101ED000006A86EEA77A7D69BC467E697B696C469E
:101EE000183393E8070084E80700B0EE470A06F1CC
:101EF00018030ECB604600F0D1FB05F118033A46FB
:101F000007CA83E8070000BF2437BD46F0BD00BF05
:101F10007820002092CB7F3FF0B591B006AF78617A
:101F20007B69D3ED107A07F11C057C69164A6B4674
:101F300007CA83E80700B0EE670A04F118030ECB66
:101F4000284600F0ABFB7D69BC467E697B6903AC2B
:101F5000303393E8070084E807006C4607F11C0360
:101F600093E8070084E8070006F130030ECB6046D3
:101F700000F0D7FA05F130033A4607CA83E80700B4
:101F800000BF2C37BD46F0BD8420002080B483B054
:101F900000AF78607B681B6B0C3393ED007A7B6835
:101FA0001B6B0833D3ED007A77EE676A7B681B6B97
:101FB0000433D3ED007AB7EE007A37EE877A7B6888
:101FC0005B68C6EE877AC3ED007A7B681B6B0C33C7
:101FD00093ED007A7B681B6B0433D3ED006A7B685A
:101FE0001B6B0833D3ED007A66EEA77A77EE277A7B
:101FF00077EEA76A7B681B6B043393ED007A7B68EE
:102000001B6B0433D3ED007A67EE277AB7EE007AC4
:1020100037EEC77A7B685B68C6EE877AC3ED017AD4
:102020007B681B6B0433D3ED007AB7EE007A77EE52
:10203000877A9FED0D7A67EE876A7B681B6B0433A6
:10204000D3ED007AB7EE007A77EEC77A37EEA77A4B
:102050007B685B68C6EE877AC3ED027A00BF0C37F7
:10206000BD465DF8047B7047333333BF80B483B023
:1020700000AF78607B685B6818460C37BD465DF83A
:10208000047B704780B483B000AF78601C4B1D4A5E
:102090001A601D4B1D4A1A601D4B1E4A1A601E4BCA
:1020A0001E4A1A601E4B1F4A1A601F4B1F4A1A60B5
:1020B0001F4B204A1A60204B204A1A60204B214AAD
:1020C0001A607B680E4A0C3307CA83E807007B68F6
:1020D0000D4A183307CA83E807007B680C4A24338B
:1020E00007CA83E807007B680B4A303307CA83E8D6
:1020F000070000BF0C37BD465DF8047B704700BF8A
:1021000024200020D41E002030200020141F002096
:102110003C200020241F002048200020341F0020E5
:1021200054200020441F002060200020841F002035
:102130006C200020C41F00207820002004200020F4
:10214000842000201420002080B485B000AF786087
:102150007B6804221A617B6804225A610023FB60B9
:102160000DE07B68DA68FB689B0013445349FA680A
:1021700092000A4412681A60FB680133FB60FB6836
:102180000F2BEEDD7B680422DA617B6801221A6284
:102190000023FB600DE07B689A69FB689B00134499
:1021A0004749FA6892000A4412681A60FB680133D2
:1021B000FB60FB68032BEEDD7B6801229A627B6883
:1021C0000422DA620023FB600DE07B685A6AFB6838
:1021D0009B0013443B49FA6892000A4412681A6053
:1021E000FB680133FB60FB68032BEEDD7B681A683C
:1021F0007B685B6A083352681A607B6804225A6302
:102200007B6801229A630023FB600DE07B681A6BF8
:10221000FB689B0013442C49FA6892000A44126838
:102220001A60FB680133FB60FB68032BEEDD7B6803
:102230001B681A687B68DA637B684FF000021A64D7
:102240007B681B6893ED007A7B681B68D3ED027A8C
:1022500077EE677A7B68C3ED027A7B685B681B4A1E
:102260001A607B685B681A4A5A607B685B68194A27
:102270009A60194B04225A60174B04229A60174B3C
:1022800004225A60154B04229A60154B04225A60AE
:10229000134B04229A60134B04225A60114B012203
:1022A0009A60114B04225A600F4B01229A6000BFC2
:1022B0001437BD465DF8047B704700BF1843020029
:1022C0006843020078430200584302004B59063C21
:1022D000B537F83C7F4E0C3F542000206020002092
:1022E0006C200020782000208420002080B485B05D
:1022F00000AF87ED010A7B68BB609FED1E7AD7EDCA
:10230000027AF4EEC77AF1EE10FA01DD1A4BBB60E7
:102310009FED1A7AD7ED027AF4EEC77AF1EE10FA51
:1023200001D5174BBB600023FB600FE0154AFB682B
:102330009B001344D3ED007A97ED027AB4EEE77A6E
:10234000F1EE10FA06DAFB680133FB60FB68C72B7D
:10235000ECDD00E000BF0C4AFB689B0013441B68E7
:1023600007EE903AB0EE670A1437BD465DF8047B7D
:10237000704700BFA4708540A470854082E24B4046
:1023800082E24B4088430200A846020080B487B036
:1023900000AF87ED010A4FF000037B617B683B6172
:1023A0009FED2D7AD7ED047AF4EEC77AF1EE10FAAC
:1023B00001DD2A4B3B61B6EE007AD7ED047AF4EEEC
:1023C000C77AF1EE10FA02D54FF07C533B6100233F
:1023D000FB6034E0224AFB689B001344D3ED007A93
:1023E00097ED047AB4EEE77AF1EE10FA24DB1C4A9A
:1023F000FB689B001344D3ED007A97ED047A37EE27
:10240000677A184AFB689B001344D3ED007A67EEA5
:10241000277AC7ED027A144AFB689B00134493EDB8
:10242000007AD7ED027A77EE276A97ED047AC6EE46
:10243000877AC7ED057A05E0FB680133FB60FB682E
:10244000C72BC7DD7B6907EE903AB0EE670A1C37F1
:10245000BD465DF8047B70470000C8420000C842DA
:10246000A8460200C84902008843020090B587B020
:1024700000AFF860384680E80E0038463B460ECB89
:1024800000F025F801237B6112E03A687B69013B8B
:10249000B96801FB03F17B690B4403F18043013B05
:1024A0009B0013444FF07E521A607B6901337B61BD
:1024B0007B687A699A42E8D9FB681C463B4693E8F8
:1024C000070084E80700F8681C37BD4690BD90B44B
:1024D00086B000AFF860384680E80E0001237B61CB
:1024E0000CE03A687B6903F18043013B9B00134495
:1024F0004FF000021A607B6901337B617B68BA6828
:1025000002FB03F37A699A42EBD9FB681C463B460F
:1025100093E8070084E80700F8681837BD4690BCC8
:10252000704790B486B000AFF860384680E80E007F
:1025300001237B611FE03A687B6903F18043013B23
:102540009B00134493ED007A3A6A7B6903F1804360
:10255000013B9B001344D3ED007AFA6A7B6903F1D7
:102560008043013B9B00134477EE277AC3ED007A4A
:102570007B6901337B617B68BA6802FB03F37A698C
:102580009A42D8D9FB681C4607F12C0393E8070050
:1025900084E80700F8681837BD4690BC704790B4CF
:1025A00086B000AFF860384680E80E0001237B61FA
:1025B0001FE03A687B6903F18043013B9B001344B1
:1025C00093ED007A3A6A7B6903F18043013B9B00FB
:1025D0001344D3ED007AFA6A7B6903F18043013B2F
:1025E0009B00134477EE677AC3ED007A7B69013371
:1025F0007B617B68BA6802FB03F37A699A42D8D997
:10260000FB681C4607F12C0393E8070084E80700E9
:10261000F8681837BD4690BC704782B090B488B057
:1026200000AF3C1D84E80700FB624FF00003FB6134
:10263000BB68BB61FB68BA699A4201D2FB68BB61A7
:1026400001237B611CE07A687B6903F18043013BD5
:102650009B00134493ED007AFA6A7B6903F180438F
:10266000013B9B001344D3ED007A67EE277A97ED88
:10267000077A77EE277AC7ED077A7B6901337B61AA
:102680007A69BB699A42DED9FB6907EE903AB0EEEF
:10269000670A2037BD4690BC02B0704790B488B03E
:1026A00000AF786107F1080080E80E0087ED010AAD
:1026B0000123FB6118E0BA68FB6903F18043013B29
:1026C0009B00134493ED007ABA6AFB6903F18043DF
:1026D000013B9B001344D7ED017A67EE277AC3EDE7
:1026E000007AFB690133FB61FB683A6902FB03F383
:1026F000FA699A42DFD97B691C4607F1280393E8FF
:10270000070084E8070078692037BD4690BC704711
:10271000B0B594B004AFF86107F1100080E80E0086
:102720007B69012B1FD1BB69012B1CD13B69D3ED08
:10273000007A07F15C056C4607F15C0393E807003B
:1027400084E80700B0EE670A07F150030ECB284675
:10275000FFF7A4FFFB691C4607F15C0393E8070041
:1027600084E80700ABE07B6D012B24D1BB6D012B0E
:1027700021D13B6DD3ED007A3D466C4607F15C03F9
:1027800093E8070084E80700B0EE670A07F110033A
:102790000ECB2846FFF782FF07F15C033A4607CAD3
:1027A00083E80700FB691C4607F15C0393E8070018
:1027B00084E8070083E03B6EBB627B6EFB623B6E8E
:1027C0007A6E02FB03F39B00184610F095FE034659
:1027D0007B620123FB634EE00123BB6344E04FF0C7
:1027E00000037B6301233B6328E03A69FB6B013BF9
:1027F000B96901FB03F13B6B0B4403F18043013BDF
:102800009B00134493ED007A3A6D3B6B013BB96D2D
:1028100001FB03F1BB6B0B4403F18043013B9B00C5
:102820001344D3ED007A67EE277A97ED0D7A77EEB1
:10283000277AC7ED0D7A3B6B01333B63BB693A6B7B
:102840009A42D2D97A6AFB6B013BF96A01FB03F128
:10285000BB6B0B4403F18043013B9B0013447A6B39
:102860001A60BB6B0133BB63BB6DBA6B9A42B6D9BE
:10287000FB6B0133FB637B69FA6B9A42ACD93D4633
:102880006C4607F15C0393E8070084E8070007F152
:1028900024030ECB284600F016F807F15C033A46F5
:1028A00007CA83E807007B6A184610F02DFEFB6913
:1028B0001C4607F15C0393E8070084E80700F86909
:1028C0004037BD46B0BD90B486B000AFF860384622
:1028D00080E80E0001237B6112E03A687B6903F116
:1028E0008043013B9B001A44396A7B6903F18043B2
:1028F000013B9B000B4412681A607B6901337B61CA
:102900007B68BA6802FB03F37A699A42E5D9FB68EF
:102910001C4607F1200393E8070084E80700F868E5
:102920001837BD4690BC704790B48AB000AFF860CD
:10293000384680E80E0000237B6201233B625FE0A3
:102940000123FB6117E03A683B6A013BB96801FB70
:1029500003F1FB690B4403F18043013B9B001A44E4
:10296000B96C7B6A581C78629B000B4412681A6031
:10297000FB690133FB61BB68FA699A42E3D9012321
:10298000BB6117E03A6B3B6A013BB96B01FB03F19A
:10299000BB690B4403F18043013B9B001A44B96CB3
:1029A0007B6A581C78629B000B4412681A60BB69F2
:1029B0000133BB61BB6BBA699A42E3D901237B61E6
:1029C00017E0FA6B3B6A013B796C01FB03F17B6911
:1029D0000B4403F18043013B9B001A44B96C7B6AB2
:1029E000581C78629B000B4412681A607B690133A3
:1029F0007B617B6C7A699A42E3D93B6A01333B6223
:102A00007B683A6A9A429BD9FB681C4607F14803E7
:102A100093E8070084E80700F8682837BD4690BCB3
:102A2000704790B488B000AFF860384680E80E0078
:102A30000023FB610123BB611BE001237B6111E0EB
:102A40003A68BB6903F18043013B9B001A44F96A71
:102A5000FB69581CF8619B000B4412681A607B6983
:102A600001337B617A69BB6A9A42E9D9BB69013358
:102A7000BB617B68BA699A42DFD9FB681C4607F1E3
:102A80002C0393E8070084E80700F8682037BD4668
:102A900090BC7047B0B590B004AFF860384680E89D
:102AA0000E007B6C7B61BB6CBB617B69BA6902FB0E
:102AB00003F39B00184610F01FFD03463B6100BF67
:102AC0003B69002BFCD007F110056C4607F11003A1
:102AD00093E8070084E807003B460ECB2846FFF743
:102AE000F2FE0123FB62C7E00123BB6263E03A68A8
:102AF000FB6A013BB96901FB03F1BB6A0B4403F1BB
:102B00008043013B9B0013441B687B6201233B62B3
:102B100028E03A69FB6A013BB96901FB03F13B6AB2
:102B20000B4403F18043013B9B00134493ED007A77
:102B30003A69BB6A013BB96901FB03F13B6A0B448B
:102B400003F18043013B9B001344D3ED007A67EE11
:102B5000277A97ED097A77EE677AC7ED097A3B6AAB
:102B600001333B623A6ABB6A9A42D2D33A69BB6A82
:102B7000013BB96901FB03F1BB6A0B4403F18043DC
:102B8000013B9B00134493ED007A3A69FB6A013BD9
:102B9000B96901FB03F1BB6A0B4403F18043013BBC
:102BA0009B001344D7ED096AC6EE877AC3ED007A1D
:102BB000BB6A0133BB62BA6AFB6A9A4297D33A682E
:102BC000FB6A013BB96901FB03F1FB6A0B4403F1AA
:102BD0008043013B9B0013441B68FB610123BB62E4
:102BE00028E03A69FB6A013BB96901FB03F1BB6A62
:102BF0000B4403F18043013B9B00134493ED007AA7
:102C00003A69FB6A013BB96901FB03F1BB6A0B44FA
:102C100003F18043013B9B001344D3ED007A67EE40
:102C2000277A97ED077A77EE677AC7ED077ABB6A5E
:102C30000133BB62BA6AFB6A9A42D2D397ED070AA4
:102C400000F060F8F0EE407A3A69FB6A013BB9693E
:102C500001FB03F1FB6A0B4403F18043013B9B0042
:102C6000D418B0EE670A00F067F8F0EE407AC4EDD1
:102C7000007AFB6A0133FB627B69FA6A9A427FF64B
:102C800033AF0223FB621CE00123BB6212E03A690E
:102C9000BB6A013BB96901FB03F1FB6A0B4403F119
:102CA0008043013B9B0013444FF000021A60BB6A53
:102CB0000133BB62BA6AFB6A9A42E8D3FB6A01330A
:102CC000FB627B69FA6A9A42DED96B4607F14002E1
:102CD00007CA83E8070007F110030ECB07F1400095
:102CE000FFF7F1FD3B69184610F00EFCFB681C462F
:102CF00007F1400393E8070084E80700F8683037DD
:102D0000BD46B0BD80B483B000AF87ED010AD7EDFA
:102D1000017AF5EEC07AF1EE10FA02DBD7ED017A16
:102D200003E0D7ED017AF1EE677AB0EE670A0C376F
:102D3000BD465DF8047B704780B584B000AF87ED79
:102D4000010A4FF07E53FB600FE0D7ED016AD7ED2B
:102D5000037A86EEA77AD7ED037A37EE277AF0EE7C
:102D6000006AC7EE267AC7ED037AD7ED037A67EEDD
:102D7000A76A97ED017AC6EE877AB7EE007A77EE0A
:102D8000C77AB0EE670AFFF7BDFF10EE103A18469B
:102D900010F0CCFA08A3D3E9002310F093FB03460C
:102DA000002BD2D1FB6807EE903AB0EE670A1037DD
:102DB000BD4680BDAFF300808DEDB5A0F7C6B03E37
:102DC00080B586B000AF87ED010A4FF07E537B617E
:102DD00001233B617B68FB6019E097ED057AD7ED35
:102DE000037A77EE277AC7ED057A3B6901333B61B9
:102DF00097ED037AD7ED017A67EE276A3B6907EE14
:102E0000903AB8EEE77AC6EE877AC7ED037A97ED87
:102E1000037AD7ED017AC7EE276AB0EE660AFFF7AC
:102E200071FF10EE103A184610F080FA08A3D3E9AB
:102E3000002310F051FB0346002BCED17B6907EE37
:102E4000903AB0EE670A1837BD4680BDAFF30080F8
:102E50008DEDB5A0F7C6B03E80B483B000AF87ED6E
:102E6000010AD7ED017AF5EE407AF1EE10FA0BD0B7
:102E7000D7ED017AF5EEC07AF1EE10FA01DD01230B
:102E800003E04FF0FF3300E0002318460C37BD4647
:102E90005DF8047B7047FFFF80B582B000AF7860BB
:102EA0007B685B6E1B681B68B4335B6841F2680229
:102EB000934209D87B685B6E1B681B68B4335B6800
:102EC00040F6C312934208D8786801F060F8786839
:102ED00001F06DF8786800F03EFE786800F01CF8AC
:102EE000786800F0A9F8786800F0E2F87B68DB6C9D
:102EF00007EE903AB8EE677ADFED056AC7EE267AFC
:102F0000044BC3ED007A00BF0837BD4680BD00BF4B
:102F10000000C842E021002080B483B000AF786098
:102F2000324B01221A70324B01221A70314B0122AE
:102F30001A70314B00221A70304B00221A70304B3D
:102F400000221A602F4B00221A602F4B00221A60B9
:102F50002E4B00221A602E4B00221A607B682D4AED
:102F60005A647B682C4A9A647B685B6C2B4A1A60B3
:102F70007B685B6C2A4A5A607B689B6C294A1A60A2
:102F80007B689B6C284A5A60284B4FF07E521A602F
:102F90007B68DB6C002B0CD07B68DB6C07EE903A17
:102FA000B8EE677ADFED226AC7EE267A1F4BC3EDD3
:102FB000007A204B01221A707B68002283F8C12A14
:102FC0007B685B6E1B681B68B4335A687B68C3F808
:102FD000B02A7B685B6E5A697B68C3F8B82A00BF69
:102FE0000C37BD465DF8047B704700BFE62100202A
:102FF000E4210020E7210020E8210020E521002035
:10300000EC210020F0210020F4210020F8210020F4
:10301000FC210020AC200020202100209020002056
:10302000A0200020F02000200C210020E021002022
:103030000000C842E921002080B582B000AF78606E
:103040007B685A6C7B685B6E1B681B685B6807EE6D
:10305000903AF8EE677ADFED126A87EEA67A7B681F
:103060009B6F07EE903AF8EEE77ADFED0E6A67EEB7
:10307000A67A9FED0D6AC7EE866A9FED0C1AF0EEF8
:10308000660AB0EE470A1046FEF7E0FD7B685B6C0F
:103090001846FEF7F7FD00BF0837BD4680BD00BFEC
:1030A00000007A4441F1833F0000C8C300000000E3
:1030B00090B583B000AF78607B689C6C7B685B6C7C
:1030C0001846FEF7D3FF02467B685B6E1B681B68E1
:1030D0005B6807EE903AF8EE677ADFED126A87EEEA
:1030E000A67A7B689B6F07EE903AF8EEE77ADFED01
:1030F0000E6A67EEA67A9FED0D6AC7EE866AB7EE96
:10310000001AF0EE660AB0EE470A11462046FDF7B7
:10311000E6FA7B689B6C1846FDF70DFB00BF0C3789
:10312000BD4690BD00007A4441F1833F0000C8C312
:1031300080B582B000AF78607B68002283F8C12A36
:10314000786800F081FA7B68402283F8C12A7B68A6
:103150005B6E5B680F4A934212D97B685B6E5B685B
:103160000D4A93420CD87B685B6E5B69B42B07DC1D
:103170007B685B6E5B69502B02DD786800F00EF8AF
:10318000786800F045F8786800F0B4F800BF0837B8
:10319000BD4680BD3F0501008006010080B483B0BC
:1031A00000AF78607B689B6C9B68D3ED007A9FEDE5
:1031B000137AF4EEC77AF1EE10FA0FD5104B1B78A4
:1031C000DBB2002B07D10F4B1B6801330D4A136094
:1031D0000B4B01221A700C4B01221A700A4B1B7800
:1031E000DBB2012B04D1094B1B680133074A136082
:1031F00000BF0C37BD465DF8047B70470080C742B6
:10320000E9210020FC210020E8210020F0210020FD
:1032100080B483B000AF78607B685B6E5B69192B0C
:103220000ADC7B685B6E5B6913F1190F04DB2A4BC8
:103230001B680133284A13607B685B6E5B691D2B3A
:1032400005DC7B685B6E5B6913F11D0F10DA234BA5
:103250001B78DBB2002B02D1214B01221A701F4BCD
:1032600001221A701C4B00221A601E4B00221A60A9
:10327000194B1B68552B07D11A4B1B680133194A90
:103280001360154B00221A60164B1B680F2B0DD1D3
:10329000124B1B78DBB2002B05D0114B01221A70A8
:1032A0000E4B00221A700F4B00221A600B4B1B783A
:1032B000DBB2012B0AD10C4B1B78DBB2012B02D005
:1032C0000A4B01221A700A4B01221A7000BF0C37F8
:1032D000BD465DF8047B7047F4210020E621002004
:1032E000E5210020F8210020E8210020E421002031
:1032F000E721002080B483B000AF7860084B1B78D2
:10330000DBB2002B06D07B681B6C452B02D8044B2C
:1033100000221A7000BF0C37BD465DF8047B704771
:10332000E921002080B582B000AF7860454B1B6872
:10333000002B0ED0786800F08FF87B6893F8C13AC4
:1033400063F07F03DAB27B6883F8C12A3D4B002229
:103350001A603D4B1B78DBB2002B0ED0786800F072
:10336000BDF87B6893F8C13A43F02003DAB27B687A
:1033700083F8C12A344B00221A707B685B6E5B684D
:10338000002B5BD0314B1B78DBB2002B1DD0786853
:1033900000F016F97B6893F8C13A43F00803DAB2FB
:1033A0007B6883F8C12A7B689B6C5B681A687B68C2
:1033B0001A647B6893F8C13A23F04003DAB27B6861
:1033C00083F8C12A214B00221A70214B1B78DBB2F3
:1033D000002B0ED0786800F0CBF87B6893F8C13AE8
:1033E00043F01003DAB27B6883F8C12A184B00223D
:1033F0001A70184B1B68002B20D0786800F08BF9EE
:10340000786800F0E1F97B6893F8C13A43F004036F
:10341000DAB27B6883F8C12A7B689B6C5B681A68A8
:103420007B681A647B6893F8C13A23F04003DAB2F0
:103430007B6883F8C12A074B00221A6000BF083757
:10344000BD4680BDFC210020E5210020E4210020B4
:10345000E7210020F021002080B485B000AF786023
:103460001A4BFB607B689B6C9B68D3ED007A9FEDE9
:10347000187AF4EEC77AF1EE10FA0ADB7B689B6CDF
:103480009B6893ED007ADFED136AC7EE267AC7EDED
:10349000037A114B93ED007AD7ED037A67EE277A22
:1034A0000D4BC3ED007A0C4BD3ED007A9FED097AFA
:1034B00067EE877AFCEEE77A17EE902A7B68DA648B
:1034C00000BF1437BD465DF8047B7047A4707D3F94
:1034D0000000C6420000C842E021002090B583B041
:1034E00000AF78607B685B6E5B6807EE903AF8EE41
:1034F000677ADFED1E6A87EEA67A7B689B6C9C6814
:10350000B0EE470AFEF7F2FEF0EE407AC4ED007A24
:103510007B689B6C9B68D3ED007AB0EE670A10F075
:1035200033FEF0EE407AFCEEE77A17EE902A7B68E5
:103530001A647B689B6C9B6808334FF000021A602A
:103540007B689B6C5B684FF000021A617B685B6C68
:103550001B684FF000029A607B685B6C1846FEF7B0
:10356000F3FD00BF0C37BD4690BD00BF00007A469A
:1035700080B582B000AF78607B685A6C7B689B6CCA
:103580001B68D3ED007A7B689B6C1B6893ED017A16
:103590007B689B6C5B68D3ED046AB0EE661AF0EE54
:1035A000470AB0EE670A1046FEF750FB7B685B6C7B
:1035B0001846FEF775FB00BF0837BD4680BDFFFF0C
:1035C00090B583B000AF78607B689C6C7B685B6C67
:1035D0001846FEF74BFD02467B685B6E5B6807EEA4
:1035E000903AF8EE677ADFED146A87EEA67A7B6888
:1035F0005B6E5B6907EE903AF8EEE77ADFED0F6AF3
:1036000067EEA67A9FED0E6AC7EE866A0D4BD3ED84
:10361000007AB0EE671AF0EE660AB0EE470A11467D
:103620002046FDF75CF87B689B6C1846FDF791F827
:1036300000BF0C37BD4690BD00007A4641F1833F84
:103640000000C8C3E021002080B483B000AF7860E0
:103650007B68D3F8B42A7B68C3F8B02A7B68D3F8B8
:10366000BC2A7B68C3F8B82A7B685B6E5A687B68A3
:10367000C3F8B42A7B685B6E5A697B68C3F8BC2ABE
:103680007B68002283F8C02A7B68D3F8B42A7B6861
:10369000D3F8B03AD31AB3F57A7F09DC7B68D3F854
:1036A000B42A7B68D3F8B03AD31A13F57A7F0FDACD
:1036B0007B68012283F8C02A7B68D3F8B02A7B6834
:1036C000C3F8B42A7B68D3F8B82A7B68C3F8BC2A4D
:1036D0007B685B6E1B681B68B4335B6840F6C31283
:1036E000934209D97B685B6E1B681B68B4335B68C7
:1036F00041F26802934208D97B6893F8C13A43F0DB
:103700000103DAB27B6883F8C12A00BF0C37BD46DB
:103710005DF8047B704780B582B000AF7860786850
:1037200000F008F8786800F029F800BF0837BD46B7
:1037300080BDFFFF80B483B000AF78600D4B1B7875
:10374000DBB2012B0FD17B689B6C9B68D3ED007AB9
:103750009FED097AF4EEC77AF1EE10FA00DC02E090
:10376000044B00221A7000BF0C37BD465DF8047B85
:10377000704700BFE82100200080C74280B483B0BA
:1037800000AF78600E4B1B78DBB2012B12D17B6847
:103790005B6E5B680B4A934209D97B685B6E5B6921
:1037A000B42B04DC7B685B6E5B69502B02DC044B42
:1037B00000221A7000BF0C37BD465DF8047B7047CD
:1037C000E82100203F05010080B582B000AF78609D
:1037D0007B689B6C9B68D3ED007A9FED467AF4EE94
:1037E000C77AF1EE10FA0EDB7B689B6C9B68D3ED19
:1037F000007A7B689B6C9B689FED3F7A77EE877AB7
:10380000C3ED007A5EE07B689B6C9B68D3ED007A29
:103810009FED3A7AF4EEC77AF1EE10FA0EDB7B6890
:103820009B6C9B68D3ED007A7B689B6C9B689FEDDB
:10383000347A77EE877AC3ED007A43E07B689B6C3D
:103840009B68D3ED007A9FED2F7AF4EEC77AF1EE04
:1038500010FA0EDB7B689B6C9B68D3ED007A7B686B
:103860009B6C9B689FED287A77EE877AC3ED007A90
:1038700028E07B689B6C9B68D3ED007A9FED237AF0
:10388000F4EEC77AF1EE10FA0EDB7B689B6C9B6856
:10389000D3ED007A7B689B6C9B689FED1D7A77EE79
:1038A000877AC3ED007A0DE07B689B6C9B68D3ED53
:1038B000007A7B689B6C9B689FED167A77EE877A1F
:1038C000C3ED007A7B689B6C9B68D3ED007AB0EE09
:1038D000670A10F059FCF0EE407A7B689B6C5B68DD
:1038E000FCEEE77A17EE902A1A6000BF0837BD4653
:1038F00080BD00BF0000C642A69B443B0000C442FE
:103900006F12833B0000C242A69BC43B0000C04232
:10391000BC74133C52499D3A80B483B000AF7860C8
:1039200039607B683A689A6000BF0C37BD465DF825
:10393000047B704780B483B000AF78607B68B3F9D4
:103940000A3018460C37BD465DF8047B704780B5D9
:1039500082B000AF78607B685B68786898477B6866
:1039600000221A7000BF0837BD4680BD80B582B006
:1039700000AF78607B689B68786898477B68012215
:103980001A7000BF0837BD4680BD80B582B000AF59
:1039900078607B68D3F810387868984700BF08379C
:1039A000BD4680BD80B483B000AF78607B681B6982
:1039B00018460C37BD465DF8047B704780B483B071
:1039C00000AF78607B685B6918460C37BD465DF8D0
:1039D000047B704780B483B000AF78607B685B7F06
:1039E00018460C37BD465DF8047B704780B483B041
:1039F00000AF78607B6893F8603018460C37BD469E
:103A00005DF8047B7047FFFF80B483B000AF78603F
:103A10007B68184A1A627B68002283F860207B6802
:103A20004FF47A52DA617B6801221A767B6864224D
:103A3000DA647B6864221A647B680022DA637B683C
:103A400032229A847B684FF6FC72DA847B6844F2F7
:103A50006822DA627B68084A1A637B684DF2D86292
:103A60005A637B6800221A8700BF0C37BD465DF899
:103A7000047B7047005C2605B805010080B582B064
:103A800000AF78607B6893F854267B6883F85526EE
:103A900005F0ECFB03461A467B6883F8542600BF0A
:103AA0000837BD4680BD80B483B000AF78607B68C6
:103AB00093F8543618460C37BD465DF8047B7047C2
:103AC00080B483B000AF78607B6893F85436012BE4
:103AD00006D17B6893F85536002B01D1012300E015
:103AE000002318460C37BD465DF8047B704780B450
:103AF00085B000AF78607B681B6D7A68526E92F873
:103B000022201A437B681A657B685B6E93F823302A
:103B10001B02FB607B681A6DFB681A437B681A65A1
:103B200000BF1437BD465DF8047B704780B582B096
:103B300000AF78607B685B6E184603F004FB7B681F
:103B40005B6E1846FFF72EFF02467B685A6500BF82
:103B50000837BD4680BD80B582B000AF78607B6815
:103B60005B6E184603F010FB7B685B6E1846FFF730
:103B700025FF02467B689A6700BF0837BD4680BDB7
:103B800080B582B000AF78607B685B6E184603F04A
:103B90001DFB00BF0837BD4680BD80B582B000AFB9
:103BA00078607B685B6E184603F031FB7B685B6E68
:103BB0001846FFF70FFF02467B689A6500BF08377B
:103BC000BD4680BD80B582B000AF78607B685B6E1B
:103BD000184603F03CFB00BF0837BD4680BD80B5EA
:103BE00082B000AF78607B685B6E184603F064FBC0
:103BF00000BF0837BD4680BD80B582B000AF786099
:103C00007B6893F88C30002B16D17868FFF7EEFEB6
:103C10000346032B0BD07868FFF7E8FE0346042B1E
:103C200005D07868FFF7E2FE0346102B67D10E211E
:103C3000786800F079F862E07B6893F88C30012BAB
:103C40000FD17868FFF7D2FE03460E2B04D1032173
:103C5000786800F069F852E07B68002283F88C20D5
:103C60004DE07B6893F88C30022B0AD17868FFF71F
:103C7000BDFE03460E2B42D10421786800F054F8B3
:103C80003DE07B6893F88C30032B10D17868FFF708
:103C9000ADFE03460E2B05D07868FFF7A7FE03465E
:103CA000102B2CD10321786800F03EF827E07B68C8
:103CB00093F88C30042B16D17868FFF797FE0346F3
:103CC0000E2B0BD07868FFF791FE0346032B05D02F
:103CD0007868FFF78BFE0346072B10D11021786818
:103CE00000F022F80BE00521786800F01DF87B68F1
:103CF000002283F88C201621786800F080FA00BF3B
:103D00000837BD4680BDFFFF80B582B000AF786048
:103D1000012240F2012103480AF088FB00BF083766
:103D2000BD4680BD2434002080B582B000AF7860ED
:103D30000B46FB70FB78013B0F2B6BD801A252F8AE
:103D400023F000BF853D0100933D0100C53D01000A
:103D5000BD3D0100D53D0100F13D0100A33D010045
:103D6000013E0100013E0100013E0100013E010053
:103D7000013E0100013E0100B53D0100F93D010099
:103D8000CD3D0100786800F0A5F87B680022DA6577
:103D900037E0786800F0CEF87B680022C3F8802016
:103DA0002FE0786800F000FA1C4B1B6801331B4AB7
:103DB000136026E0786800F08DF822E0786800F063
:103DC00094F81EE0786800F0B5F81AE0786800F022
:103DD00097F816E0786800F07DF87B68002283F899
:103DE0008C20786800F0E0F97B680022DA6308E054
:103DF000786800F015F804E0786800F01FF800E03B
:103E000000BF7B68FA7883F860207B680022C3F8E3
:103E1000AC2A00E000BF0837BD4680BD002200206C
:103E200080B582B000AF78607B685B6E184604F0A6
:103E300050FA00BF0837BD4680BDFFFF80B588B08F
:103E400002AF78607B689B6C9B68D3ED007A9FED36
:103E50000E7A67EE877AFCEEE77A17EE903ABB604F
:103E60007B68DB6CFB606A4607F1100393E8030094
:103E700082E8030007F108030CCB0448FCF7A4FB1D
:103E800000BF1837BD4680BD0000C8420C27002087
:103E900080B582B000AF7860786800F008F8012142
:103EA0007868FFF741FF00BF0837BD4680BD80B589
:103EB00082B000AF78607B685B6E184603F062F8F2
:103EC0007B680022DA657B6800221A6500BF08372C
:103ED000BD4680BD80B582B000AF7860786800F0E4
:103EE00036F800BF0837BD4680BD80B582B000AF50
:103EF0007860786800F011F800BF0837BD4680BDD3
:103F000080B582B000AF78607B689B6E1846FFF783
:103F10002DFD00BF0837BD4680BD80B582B000AF23
:103F200078607B689B6E1846FFF711FD00BF08376D
:103F3000BD4680BD80B582B000AF78607B681B6FE6
:103F40001846FFF704FD00BF0837BD4680BD80B5A9
:103F500082B000AF78607B681B6F1846FFF706FDE4
:103F600000BF0837BD4680BD80B483B000AF786025
:103F700039607B689B6D3A689A420CBF012300232D
:103F8000DBB218460C37BD465DF8047B704780B540
:103F900082B000AF78607B685B6E184603F01AF859
:103FA000786800F011F800BF0837BD4680BD80B5C5
:103FB00082B000AF78607B685B6E184603F09EF8B5
:103FC00000BF0837BD4680BD80B586B000AF7860C1
:103FD0007B6893F86030012B7AD000237B617B688B
:103FE0005B6E1B681B685B683B6100237B6136E08E
:103FF0007B685B6E1B6819687A6913465B00134423
:104000009B000B445B683A699A420BD27B685B6EFB
:104010001B6819687A6913465B0013449B000B44C4
:104020005B683B617B685B6E1B6819687A69134645
:104030005B0013449B000B445B68FA689A420BD9FF
:104040007B685B6E1B6819687A6913465B001344D2
:104050009B000B445B68FB607B6901337B617B6980
:104060000F2BC5DD3B6941F29A02934212D91A4BDC
:104070001B780A2B07D901217868FFF755FE164BEC
:1040800000221A7009E0144B1B780133DAB2124B8C
:104090001A7002E0104B00221A70FB68B3F52F6F04
:1040A00012D20E4B1B780A2B07D901217868FFF733
:1040B0003BFE0A4B00221A700BE0084B1B780133C1
:1040C000DAB2064B1A7004E0044B00221A7000E0CA
:1040D00000BF1837BD4680BD042200200522002005
:1040E00080B584B000AF78600023FB730CE07B6880
:1040F000D3F89420FB7B9B0013441B68184602F006
:10410000EBF8FB7B0133FB73FA7B7B68D3F89030D1
:104110009A42ECD300BF00BF1037BD4680BD80B5CA
:1041200082B000AF78607B68D3F88430184602F024
:10413000B1F800BF0837BD4680BD80B582B000AF82
:1041400078607B68D3F88830184602F0A3F800BF87
:104150000837BD4680BD80B582B000AF78607B680F
:104160005B6E184603F0E6F800BF0837BD4680BD19
:1041700080B584B000AF78607B685B6E1B681868A0
:104180007B685B6E1B681B7907F10C02194602F015
:104190006AFD7B685B6EFA681146184604F086FA81
:1041A00000BF1037BD4680BD80B582B000AF7860DB
:1041B0007B685B6E184604F04EFA00BF0837BD46B8
:1041C00080BD80B582B000AF786039607B68D3F87D
:1041D000503639681846FFF79FFB00BF0837BD46C9
:1041E00080BD80B582B000AF78607B68D3F8503670
:1041F0001846FFF7CAFB00BF0837BD4680BD80B533
:1042000082B000AF7860396039687868FFF7D9FF0D
:104210007868FFF7E6FF00BF0837BD4680BDFFFFA7
:1042200090B589B000AF78600023FB7615E07B681D
:10423000D3F89420FB7E9B0013441B68FC7E184639
:10424000FFF778FB03461A46630007F120010B4491
:1042500023F8142CFB7E0133FB76FB7E032BE6D97F
:104260007B68D3F884301846FFF764FB0346BB82B3
:104270007B68D3F888301846FFF75CFB0346FB8267
:10428000BB89BB83BB89FB830123BB7628E0BB7E54
:104290005B0007F12002134433F9143CB7F91C20EA
:1042A0009A4207DDBB7E5B0007F12002134433F81E
:1042B000143CBB83BB7E5B0007F12002134433F93F
:1042C000143CB7F91E209A4207DABB7E5B0007F167
:1042D0002002134433F8143CFB83BB7E0133BB76CE
:1042E000BB7E052BD3D9B7F91E30642B04DCB7F99C
:1042F0001C3013F10A0F10DA144B1B880A2B04D957
:10430000134B01221A7001231CE0104B1B88013350
:104310009AB20E4B1A80002314E00D4B1B78002B31
:1043200009D0B7F91E305A2B03DCB7F91C30002B2B
:1043300001DA012306E0054B00221A80044B00221B
:104340001A70002318462437BD4690BD082200206D
:104350000622002080B582B000AF7860786805F052
:1043600099F800BF0837BD4680BD80B584B000AF66
:10437000F860B9607A603B60FB68BA681A60FB68F5
:1043800000225A60FB687A681A61FB683A685A61D1
:10439000FB6803F20443184600F0F0F800BF103742
:1043A000BD4680BD80B584B000AF78600B467B8091
:1043B0007B6803F576737A880121184601F073FD56
:1043C0000346FB73FA7B7B881946786800F01EF879
:1043D00000BF1037BD4680BD80B582B000AF7860A9
:1043E0000B467B807B6803F558737A881146184624
:1043F00001F020F97B6803F53A737A881146184674
:1044000000F0FBFB00BF0837BD4680BD80B584B01F
:1044100000AF78600B467B8013467B700023FB73F4
:1044200038E0FA7B796813461B019B1ADB000B44CA
:1044300070331B68D98BFB7B78685A1C13461B01B1
:104440009B1ADB00034404331B8899421ED1FA7B7C
:1044500013461B019B1ADB0018337A6813447A78E1
:104460007988184601F06BFE0120FFF773FFFB7B94
:104470005A1C13461B019B1ADB0018337A6813443D
:104480007A787988184601F05AFE00E000BFFB7B7D
:104490000233FB73FB7B052BC3D900BF00BF103772
:1044A000BD4680BD80B584B000AF78600B46FB7020
:1044B0007B6803F55873FA781146184601F062F9E3
:1044C00000237B730FE07A7B13461B019B1ADB00F2
:1044D00018337A681344FA781146184601F054FEEE
:1044E0007B7B01337B737B7B052BECD900233B73F8
:1044F0000023FB7230E0FB7A9AB2FB78043B9BB25C
:104500009B009BB213449BB20533FB81FB78032BCA
:1045100001D80023FB813A7B13461B019B1ADB0069
:1045200018337A681344FA891146184601F056FE8A
:104530003B7B5A1C13461B019B1ADB0018337A681D
:104540001344FA891146184601F048FE3B7B0233BA
:104550003B73FB7A0133FB723B7B052BCBD900BF4E
:1045600000BF1037BD4680BD80B483B000AF786017
:1045700000BF0C37BD465DF8047B704780B485B042
:1045800000AF78607B68002BFCD00023FB6007E065
:104590007A68FB68134400221A70FB680133FB60E1
:1045A000FB68072BF4DD7B6800229A607B680022A1
:1045B000DA6000BF1437BD465DF8047B704780B4F5
:1045C00087B000AF78600B467B8000237B8200239E
:1045D000FB827B681B88BB8222E0FA8ABB8A134479
:1045E0005B107B827B685A687B8ADB001344FB602C
:1045F000FB681B887A889A4201D17B8A27E0FB6896
:104600001B887A889A4208D27B8ABB82BB8A002B9D
:1046100006D0BB8A013BBB8202E07B8A0133FB826E
:10462000FA8ABB8A9A42D8D3FA8ABB8A9A420CD1B8
:104630007B685A68FB8ADB001344FB60FB681B88BD
:104640007A889A4201D1FB8A01E04FF6FF7318463F
:104650001C37BD465DF8047B704780B400AFFEE7B1
:1046600080B483B000AF78600B467B8013467B70CC
:104670007B681B887A889A4204D27B884FF6FF7247
:10468000934201D100230BE07B685A687B88DB00F2
:10469000134459687A7813465B0013449B000B441B
:1046A00018460C37BD465DF8047B704780B584B072
:1046B00000AFF860B9607A60FB68002B08D0B96879
:1046C000F86800F009F87968F86800F035F800E05B
:1046D00000BF1037BD4680BD80B584B000AF7860A4
:1046E00039607B68002B03D03B681B78072B02D90D
:1046F000FFF7B3FF1CE03B681A787B6883F834202F
:104700000023FB600DE03A68FB689B0013445A6885
:104710007968FB680C339B000B449A60FB6801339B
:10472000FB607B6893F834301A46FB689342EADBFF
:104730001037BD4680BDFFFF80B588B000AF786000
:1047400039607A68D37843F08003D3700023FB7715
:104750000023BB6167E07A68BB690C339B0013449C
:104760001B897B827A68BB690C339B0013449B7A5C
:104770007B747A68BB690C339B001344DB7A3B740F
:104780007B8A19463868FFF71AFF0346FB81FB89CD
:104790004FF6FF72934203D1786800F051F849E078
:1047A0007A7CFB8919463868FFF75AFFB860BB6806
:1047B000002B03D1786800F043F83BE000237B61D5
:1047C00025E0BB68DB881A467B6993420ADABB683E
:1047D00019687A69FB7F0A44796804339B000B44AB
:1047E0005A6007E0FB7F154A1268796804339B0022
:1047F0000B445A60FB7F0133FB77FB7F082B03D907
:10480000786800F01DF815E07B6901337B613B7C23
:104810007A699A42D5DB7A68D3786FF3C713D3707D
:10482000BB690133BB617B6893F834301A46BB69BE
:10483000934290DB2037BD4680BD00BF9C0900201D
:1048400080B485B000AF78600023FB600BE0FB68AC
:104850000A4A1A447968FB6804339B000B445A6087
:10486000FB680133FB60FB68072BF0DD00BF00BF76
:104870001437BD465DF8047B704700BF94090020E3
:1048800080B487B000AFF860B9601346FB800023A6
:10489000FB820AE0FB8ABA681A44FB8AF9680B4477
:1048A00012781A70FB8A0133FB82FA8AFB889A42DB
:1048B000F0D300BF00BF1C37BD465DF8047B7047D6
:1048C00080B582B000AF7860034B1B68786898476A
:1048D00000BF0837BD4680BD9009002080B483B07A
:1048E00000AF78607B680022A3F8542000BF0C372B
:1048F000BD465DF8047B704780B582B000AF78603C
:1049000039607B68802283F820207B682433394615
:1049100004221846FFF7B4FF7B68082283F828209A
:104920007B6818331846FFF7CBFF3B681946786859
:1049300000F004F800BF0837BD4680BD80B582B0E6
:1049400000AF786039607B683A681A667868FFF76C
:10495000C5FF7B6800225A757B68002283F85C20C3
:104960007B68002283F868207B68032283F8692033
:1049700000BF0837BD4680BD80B487B000AFF86087
:10498000B9601346FB800023FB820AE0FB8ABA6809
:104990001A44FB8AF9680B4412781A70FB8A0133B7
:1049A000FB82FA8AFB889A42F0D300BF00BF1C3713
:1049B000BD465DF8047B704780B485B000AF786079
:1049C0007B681B783B727B685B787B723B891846FF
:1049D0001437BD465DF8047B704780B485B000AFE6
:1049E00078607B681B783B727B685B787B727B6846
:1049F0009B78BB727B68DB78FB72BB681846143708
:104A0000BD465DF8047B704780B485B000AF786028
:104A100039603B68BB603A7A7B681A707B68013307
:104A20007A7A1A707B680233BA7A1A707B68033319
:104A3000FA7A1A7000BF1437BD465DF8047B7047E0
:104A400080B582B000AF7860034B1B6878689847E8
:104A500000BF0837BD4680BD9009002080B483B0F8
:104A600000AF786039607B685A6A3B681340002B5E
:104A700014BF01230023DBB218460C37BD465DF896
:104A8000047B704780B483B000AF78607B680122FC
:104A9000A3F8542000BF0C37BD465DF8047B704777
:104AA00080B483B000AF78607B680022A3F8542004
:104AB00000BF0C37BD465DF8047B704780B483B0FF
:104AC00000AF78600B467B807B68B3F854207B880E
:104AD00013449AB27B68A3F8542000BF0C37BD463C
:104AE0005DF8047B704780B483B000AF78607B686A
:104AF000B3F854207B68B3F856309A428CBF012338
:104B00000023DBB218460C37BD465DF8047B7047C6
:104B100080B483B000AF78607B68B3F85430002B6A
:104B200014BF01230023DBB218460C37BD465DF8E5
:104B3000047B704780B584B000AFF860B9607A60DC
:104B4000FB6801221A70FA6893694FF4C06161F33F
:104B50001C039361FB68082283F82820FB6800226D
:104B600083F82920FA6853684FF4B06161F31C039D
:104B70005360FB6800225A75FB6800229A86FB6826
:104B80000022DA86FB68002283F83820BB68B3F87D
:104B90006420FB685A87BB689A6EFB68DA63FB681F
:104BA0000022A3F84820FB68002283F84A20FB6813
:104BB0000022DA64FB6800221A65F868FFF770FFCC
:104BC000FB680022A3F85620FB687A689A65FB68A8
:104BD000002283F85C20FB6800221A66FB68002232
:104BE0005A66FB68002283F86820FB68002283F87D
:104BF000692000BF1037BD4680BD80B584B000AFCE
:104C000078600B467B807B881946786800F00EF848
:104C10000346FB73FB7B002B03D07B68FA7B83F896
:104C2000692000BF1037BD4680BDFFFF80B584B04E
:104C300000AF78600B467B807B681B7883F00103B4
:104C4000DBB2002B01D001238FE07B6893F8683042
:104C5000002B01D1002388E07868FFF759FF034655
:104C6000002B10D07B8819467868FFF727FF7868FB
:104C7000FFF739FF0346002B05D03E497868FFF760
:104C80005DFE032371E0786800F040FB034683F08B
:104C90000103DBB2002B01D0012366E00123FB738B
:104CA0007B685B7D002B04D17B6893F85C30002B24
:104CB0005AD07B685B7D002B19D07868FFF7F0FE37
:104CC0007B681B7B5B09DBB2042B10D17B68103344
:104CD0001846FFF782FE02467B685A667B68002210
:104CE0005A757B68002283F8682003233DE07B68C7
:104CF00093F86830103B052B32D801A252F823F00C
:104D0000194D0100254D0100314D01003D4D0100BF
:104D1000494D0100554D0100786800F02DF803461B
:104D2000FB731EE0786800F079F80346FB7318E027
:104D3000786800F001F90346FB7312E0786800F030
:104D400091F90346FB730CE0786800F0ADF9034677
:104D5000FB7306E0786800F049FA0346FB7300E055
:104D600000BF7B6800225A75FB7B18461037BD4692
:104D700080BD00BF0000040580B584B000AF78603E
:104D8000786800F0EFFA7B68DB6CDA887B68DA869B
:104D90007B68DB8E042B1CD87B68DB8EC3F104039D
:104DA0009B005BB203F00C035BB243F023035BB2E6
:104DB000BB737B68BA7B83F820207B6803F12400F7
:104DC0007B68DB6C19687B68DB8E1A46FFF7D4FDC5
:104DD0000EE02123FB737B68FA7B83F820207B683D
:104DE00003F124027B68DB8E19461046FFF70CFEA8
:104DF0007B6818331846FFF723FE7868FFF742FEFA
:104E00007B68002283F85C207B68112283F868208D
:104E1000012318461037BD4680BDFFFF80B586B020
:104E200000AF78607B681B7BFB75FB7D5B09DBB2A9
:104E3000032B05D03E497868FFF75EFD032373E03E
:104E40007B680D331846FFF7B7FD0346BB827B68CE
:104E5000DB7BFB747B68B3F84830BA8A9A4205D191
:104E60007B6893F84A30FA7C9A4205D031497868D9
:104E7000FFF742FD032357E07B68DB8E042B05D848
:104E80007B68002283F8682002234DE07B68DB6C9E
:104E90001B68FB607B68DB8E1A467B689B8E073342
:104EA0009A4222DC7B68DB8EBB727B682133BA7A44
:104EB00092B2F9681846FFF75FFD7B68DA8E7B686F
:104EC0009A867B6893F838305AB2BB7AC3F10703ED
:104ED0005B005BB213435BB243F001035BB27B72D6
:104EE0007B687A7A83F8202011E07B6821330722DF
:104EF000F9681846FFF740FD7B6807229A867B68B1
:104F000093F83830FB727B68FA7A83F8202078684F
:104F1000FFF7B8FD7B6818331846FFF791FD7B68F3
:104F2000122283F86820012318461837BD4680BD39
:104F300023000A064300040680B586B000AF7860FF
:104F40007B681B7BFB75FB7D5B09DBB2012B05D00E
:104F500042497868FFF7D0FC03237BE0FB7D03F038
:104F600010037A6892F83820934205D03C4978685B
:104F7000FFF7C2FC03236DE07B6893F8383083F0C1
:104F80001003DAB27B6883F838207B68DA8E7B689E
:104F90009B8E9A4205D87B68002283F86820022302
:104FA00058E07B68DB6C1B687A68928E13443B6127
:104FB0007B68DB8E1A467B689B8E07339A4227DC20
:104FC0007B68DB8EDAB27B689B8EDBB2D31ABB7355
:104FD0007B682133BA7B92B239691846FFF7CCFC63
:104FE0007B68DA8E7B689A867B6893F838305AB291
:104FF000BB7BC3F107035B005BB213435BB243F0BF
:1050000001035BB27B737B687A7B83F8202014E01A
:105010007B682133072239691846FFF7ADFC7B68AE
:105020009B8E07339AB27B689A867B6893F83830F8
:10503000FB737B68FA7B83F820207868FFF722FDFA
:105040007B6818331846FFF7FBFC7B68122283F855
:105050006820012318461837BD4680BD23000A0684
:105060000000030580B584B000AF7860786800F078
:1050700079F94023FB737B68FA7B83F820207B68F7
:1050800018331846FFF7DCFC7868FFF7FBFC7B68F9
:10509000002283F85C207B68142283F868200123B7
:1050A00018461037BD4680BD80B584B000AF78602B
:1050B0007B681B7BFB73FB7B5B09DBB2022B05D0A0
:1050C00046497868FFF718FC032382E07B680D33BC
:1050D0001846FFF771FC0346BB817B68DB7BFB72E4
:1050E0007B68B3F84830BA899A4205D17B6893F857
:1050F0004A30FA7A9A4205D039497868FFF7FCFBC2
:10510000032366E0FB7B03F00303032B2CD1FB7B23
:105110009B109BB203F003039BB2C3F104039AB24A
:105120007B68DA867B68DB6CDA887B68DB8E9A4288
:1051300005D22C497868FFF701FC032349E07B681E
:10514000DB6C18687B6803F110017B68DB8E1A4604
:10515000FFF712FC7B68DA8E7B689A867B680022F8
:1051600083F86820022334E0FB7B03F00303012B68
:105170002AD17B6810331846FFF72FFC03469AB2FA
:105180007B68DA867B68DB6CDA887B68DB8E9A4228
:1051900005D214497868FFF7AFFB032319E07B6859
:1051A00000229A867B68602283F820207868FFF7C7
:1051B00069FC7B6818331846FFF742FC7B681522B0
:1051C00083F86820012304E007497868FFF794FB1F
:1051D000032318461037BD4680BD00BF23000A06D2
:1051E00043000406050004051000070680B586B0DC
:1051F00000AF78607B681B7BFB75FB7D5B09DBB2D6
:10520000002B05D03F497868FFF776FB032374E055
:10521000FB7D03F010037A6892F83820934205D0A2
:1052200039497868FFF768FB032366E07B6893F8E9
:10523000383083F01003DAB27B6883F838207B685B
:10524000DB6C1B687A68928E13443B617B68DB8E53
:105250001A467B689B8E07339A4222DCFB7D03F063
:105260000103002B06D14FF000617868FFF744FB83
:10527000032342E07B6803F10D017B68DA8E7B68D3
:105280009B8ED31A9BB21A463869FFF775FB7B6871
:10529000DA8E7B689A867B68002283F86820022376
:1052A0002BE0FB7D03F00103002B06D04FF00061E3
:1052B0007868FFF721FB03231FE07B680D3307228B
:1052C00019463869FFF758FB7B689B8E07339AB203
:1052D0007B689A867B6893F8383043F06003FB73F1
:1052E0007B68FA7B83F820207B6818331846FFF729
:1052F000A7FB7868FFF7C6FB012318461837BD46A1
:1053000080BD00BF23000A060000030580B584B0FD
:1053100000AF78607B689B6DDA8B7B685B8F9A420D
:105320000CD17B689A6D7B68DB6B19461046FFF7E2
:1053300095FB0346002B01D0012300E00023FB7303
:10534000FB7B03F00103FB737B685B8F002B02D0B8
:10535000FB7B002B01D0012300E00023184610370F
:10536000BD4680BD80B483B000AF78607B6800220A
:1053700083F838207B6800229A867B68B3F848302F
:10538000DAB27B6883F821207B68B3F848301B0AC7
:105390009BB2DAB27B6883F822207B6893F84A20BC
:1053A0007B6883F8232000BF0C37BD465DF8047B83
:1053B000704780B487B000AFF860B9601346FB80D7
:1053C0000023FB820AE0FB8ABA681A44FB8AF96868
:1053D0000B4412781A70FB8A0133FB82FA8AFB882D
:1053E0009A42F0D300BF00BF1C37BD465DF8047B76
:1053F000704780B485B000AF78607B681B783B72E3
:105400007B685B787B723B8918461437BD465DF834
:10541000047B704780B485B000AF78607B681B78F0
:105420003B727B685B787B727B689B78BB727B6826
:10543000DB78FB72BB6818461437BD465DF8047B09
:10544000704780B485B000AF786039603B68BB605E
:105450003A7A7B681A707B6801337A7A1A707B68B3
:105460000233BA7A1A707B680333FA7A1A7000BF73
:105470001437BD465DF8047B7047FFFF80B582B0EE
:1054800000AF7860034B1B687868984700BF083707
:10549000BD4680BD9009002080B483B000AF786025
:1054A0007B680122A3F8542000BF0C37BD465DF88D
:1054B000047B704780B483B000AF78607B680022C3
:1054C000A3F8542000BF0C37BD465DF8047B70473D
:1054D00080B483B000AF78600B467B807B68B3F804
:1054E00054207B8813449AB27B68A3F8542000BFF1
:1054F0000C37BD465DF8047B704780B483B000AFC5
:1055000078607B68B3F854207B68B3F856309A42D1
:105510008CBF01230023DBB218460C37BD465DF873
:10552000047B704780B483B000AF78607B68B3F8C9
:105530005430002B14BF01230023DBB218460C3774
:10554000BD465DF8047B704780B584B000AFF8605D
:10555000B9607A603B60FB6801221A70BB6893F8FF
:105560005C3003F5B06323F06041FA68936961F33E
:105570001C039361FB68082283F82820FB68002243
:1055800083F82920BB6893F85C3003F5C06323F0EF
:105590006041FA68536861F31C035360FB680022A2
:1055A0001A75FB6800225A75FB6800229A86FB6810
:1055B0000022DA86FB68002283F83820BB68B3F843
:1055C0005E20FB685A87FB680022A3F84020FB6836
:1055D0003A685A64FB680022A3F84820FB6800225E
:1055E00083F84A20FB680022DA64FB6800221A650F
:1055F000F868FFF75FFFBB68B3F86020FB68A3F8AB
:105600005620FB687A689A65FB68002283F85C2064
:10561000FB6800221A66FB6800225A66FB680022BB
:1056200083F86820FB68002283F8692000BF1037E8
:10563000BD4680BD80B582B000AF78600B467B80F0
:105640007B881946786800F009F803461A467B689B
:1056500083F8692000BF0837BD4680BD80B584B09F
:1056600000AF78600B467B807B681B7883F001037A
:10567000DBB2002B01D001237DE07868FFF752FFF9
:105680000346002B10D07B8819467868FFF720FF6F
:105690007868FFF732FF0346002B05D03849786859
:1056A000FFF74CF9032366E00123FB737B685B7D06
:1056B000002B04D17B6893F85C30002B5AD07B68B8
:1056C0005B7D002B26D07868FFF7F4FE7B681B7BA0
:1056D0005B09DBB2042B10D17B6810331846FFF74F
:1056E00099FE02467B685A667B6800225A757B6881
:1056F000002283F8682003233DE07B6893F868303C
:10570000002B07D1786800F065F80346032B01D120
:10571000032330E07B6893F86830113B042B25D8D5
:1057200001A252F823F000BF3D5701004957010084
:105730006D5701005557010061570100786800F06E
:10574000ADF80346FB7312E0786800F04DF90346AC
:10575000FB730CE0786800F027FA0346FB7306E061
:10576000786800F077FA0346FB7300E000BF7B68BF
:1057700000225A75FB7B18461037BD4680BD00BF1E
:105780000000040580B485B000AF78600B46FB7064
:105790007B681B78FB737B6800221A70FB7803F030
:1057A0007F03D9B27A68137E61F306031376FB7820
:1057B00003F07F03D9B27A68137961F3060313719A
:1057C0007B68FA7B1A7000BF1437BD465DF8047B16
:1057D0007047FFFF80B584B000AF78607B681B7BAB
:1057E0005B09FB73FB7B012B08D0FB7B022B05D0F5
:1057F00029497868FFF780F8032349E07B680D3377
:105800001846FFF7F6FD03461A467B68A3F84820C2
:105810007B68DA7B7B6883F84A20FB7B012B1BD1FA
:105820007B681B6F7A68B2F848201202796891F899
:105830004A100A4410467A6802F12C017A6836321E
:1058400098477B68DB6C9B681A687B681A657B6885
:10585000112283F868201AE07B681B6F7A68B2F81F
:1058600048201202796891F84A100A4410467A6872
:1058700002F130017A68363298477B68DB6C9B68AE
:105880001A687B681A657B68142283F868200123F4
:1058900018461037BD4680BD0100040580B584B0B0
:1058A00000AF78607B6893F85C30002B2DD07B686C
:1058B000DB6C9B685B6898470346BB73BB7B032B21
:1058C00011D17B68002283F85C207868FFF7F2FD35
:1058D0007B6818331846FFF7D1FD7B68002283F8F8
:1058E0006820022376E0BB7B022B0CD17B68002270
:1058F00083F85C207868FFF7DDFD38497868FEF7AB
:10590000FBFF032366E0012364E0786800F03CFAC3
:105910007B681B7BFB73FB7B03F00303032B24D10E
:105920007B68D86A7B6803F110017B68DB8E1A46BE
:10593000FFF73FFD7B68DA8E7B689A867B68602282
:1059400083F820207B6818331846FFF797FD7B68A3
:10595000002283F868207B685B6F7A68107C7A6825
:10596000D26A11469847022334E0FB7B03F003031D
:10597000012B2AD17B6810331846FFF74BFD0346F5
:105980009AB27B68DA867B68DB6CDA887B68DB8EB0
:105990009A4205D212497868FEF7AEFF032319E058
:1059A0007B6800229A867B68602283F820207868D2
:1059B000FFF772FD7B6818331846FFF75FFD7B68C1
:1059C000122283F86820012304E006497868FEF774
:1059D00093FF032318461037BD4680BD2100000801
:1059E000050004051000070680B586B000AF78609A
:1059F0007B6893F85C30002B2DD07B68DB6C9B6858
:105A00005B68984703467B737B7B032B11D17B68D4
:105A1000002283F85C207868FFF74CFD7B68183320
:105A20001846FFF72BFD7B68002283F868200223CD
:105A3000B0E07B7B022B0CD17B68002283F85C20DA
:105A40007868FFF737FD55497868FEF755FF03235F
:105A5000A0E001239EE07B681B7BFB75FB7D5B095F
:105A6000DBB2002B05D04E497868FEF745FF0323D3
:105A700090E0FB7D03F010037A6892F8382093429F
:105A800005D048497868FEF737FF032382E07B683A
:105A90001B6D7A68928E13443B617B68DB8E1A46DD
:105AA0007B689B8E07339A423FDCFB7D03F001034A
:105AB000002B06D14FF000617868FEF71DFF03232D
:105AC00068E07B6803F10D017B68DA8E7B689B8E52
:105AD000D31A9BB21A463869FFF76BFC7B68DA8EE3
