:10800000F83F0020C9D0000005CF0000A5D0000037
:10801000A5D00000A5D00000A5D00000A5D000008C
:10802000000000000000000000000000A5D00000DB
:10803000A5D0000000000000A5D00000A5D00000E1
:108040009DC6000079C70000A1C8000079C70000E4
:10805000A1C80000C9BE000055BE000081CC0000D0
:1080600081CC000081CC0000C1B300001DB4000031
:10807000B9B400002DB500000000000000000000B1
:1080800000000000000000000000000000000000F0
:1080900000000000000000000000000000000000E0
:1080A00000000000000000000000000000000000D0
:1080B00000000000000000000000000000000000C0
:1080C00000000000000000000000000000000000B0
:1080D00000000000000000000000000000000000A0
:1080E0000000000000000000000000000000000090
:1080F0000000000000000000000000000000000080
:10810000000000000000000000000000000000006F
:10811000000000000000000000000000000000005F
:10812000000000000000000000000000000000004F
:10813000000000000000000000000000000000003F
:10814000000000000000000000000000000000002F
:10815000000000000000000000000000000000001F
:10816000000000000000000000000000000000000F
:1081700000000000000000000000000000000000FF
:1081800000000000000000000000000000000000EF
:1081900000000000000000000000000000000000DF
:1081A00000000000000000000000000000000000CF
:1081B00000000000000000000000000000000000BF
:1081C000FFFFFFFFFFFFFFFFFFFFFFFFFFFFFFFFBF
:1081D000FFFFFFFFFFFFFFFFFFFFFFFFFFFFFFFFAF
:1081E000FFFFFFFFFFFFFFFFFFFFFFFFFFFFFFFF9F
:1081F000FFFFFFFFFFFFFFFFFFFFFFFFFFFFFFFF8F
:1082000010B5054C237833B9044B13B1044800E092
:1082100000BF0123237010BD581000200000000093
:10822000C4D6000008B5034B1BB10349034800E066
:1082300000BF08BD000000005C100020C4D6000094
:1082400008B50160002141600261436100F53D70A5
:1082500000F026F808BDF8B505460E460A4601218D
:1082600000F5327000F02EFF0746314605F5187014
:1082700000F04CFC314605F5FC7000F085F9002457
:108280000AE0C4EB0413DB0018333A463146E81821
:1082900000F0D3FF0134E4B2032CF2D9F8BD7047EB
:1082A0000028FDD0002302E00022C2540133072B36
:1082B000FADD00238360C360704730B4054603884D
:1082C000002401E0013084B29C420ED2E018C0F3D9
:1082D0004F006A6832F830208A4209D0F2D910B1D2
:1082E000431E9BB2F0E70346EEE703D04FF6FF7064
:1082F00030BC70476B6833F834308B4202D04FF695
:10830000FF70F5E72046F3E7B8B130B40A460446FB
:108310000978072900D9FEE780F83410002308E027
:1083200002EB8300456803F10C0004EB80008560DC
:1083300001339942F4DC30BC7047FEE72DE9F84385
:1083400005460F46C37843F08003C3704FF0000822
:10835000444695F83430434534DD08F10C0305EB11
:10836000830393F80A90DE7A19893846FFF7A5FF50
:108370004FF6FF7398421AD03B88984224D27B680C
:1083800003EBC0008378994520D2416809EB490985
:1083900011EB89011CD0002327E0234919441A1D41
:1083A00005EB820251600133072BF6DD0AE0002362
:1083B000FAE71D4919441A1D05EB82025160013389
:1083C000072BF6DDBDE8F8830023F9E70023F7E784
:1083D0000023F5E7221D05EB820214480068506077
:1083E0000134E4B2082C16D801339E4215DDCA8848
:1083F0009A42EFDD0A68D018221D05EB8202506018
:10840000EEE7094919441A1D05EB82025160013358
:10841000072BF6DDD6E70023FAE7EB786FF3C713F7
:10842000EB7008F1010894E7240700202C070020D6
:1084300048B138B514460546FFF766FF2146284681
:10844000FFF77CFF38BD704781650023A0F84C30F2
:10845000437580F8543080F86030032380F8613031
:108460007047FFFF10B582B004460191802380F869
:10847000203000F124010023032B07D802AA1A445C
:1084800012F8042CCA5401339BB2F5E7082384F890
:108490002830054B1B6804F11800984701992046C5
:1084A000FFF7D2FF02B010BD20070020002380F8A4
:1084B00030308385B0F8403080F821301B0A80F8D6
:1084C000223090F8423080F82330704730B40123D6
:1084D000037083694FF4C06464F31C038361082351
:1084E00080F82830002380F8293044684FF4B065C4
:1084F00065F31C04446043758385C38580F8303080
:10850000B1F864404486896E4163A0F8403080F839
:10851000423043648364A0F84C30A0F84E300265CA
:1085200080F854308365C36580F8603080F861302E
:1085300030BC704770B4039C012580F8615001F095
:108540007F01067E61F306060676067961F306066C
:108550000671A0F8402080F84230BDF81030A0F835
:108560004E302279074B1A71E288DA8022681A604D
:10857000A2689A60436480F85450102380F86030F9
:1085800070BC7047C4200020F0B583B00446037867
:10859000002B00F05A8290F86050002D00F05682B7
:1085A000B0F84C303BB1194489B2A0F84C10B0F887
:1085B0004E30994224D8226DD18B638E994224D0BB
:1085C000002213B1002A00F04682637D23B994F89B
:1085D0005420002A00F0418233B10023A4F84C302B
:1085E000237B5B09042B18D0103D052D00F22B8254
:1085F000DFE815F027006600CA002D014201C50121
:10860000BD49FFF721FF032520E2616B526A114249
:1086100001D00122D5E70022D3E7237C8DF800307A
:10862000637C8DF80130A37C8DF80230E37C8DF8FB
:108630000330009BE3650023637584F860300325F5
:1086400004E22046FFF732FF616CCA88E285042A03
:1086500024D8C2F104039B0003F00C0343F023036E
:1086600084F8203004F124050868002303E0C15C8D
:10867000E95401339BB29A42F9D8A04B1B6804F12C
:10868000180098470125A4F84C50002384F8543072
:10869000112384F8603000236375D7E1212384F827
:1086A000203084F82420C2F3072384F82530C2F355
:1086B000074384F82630C2F3076284F82720DCE7FA
:1086C000257B6D09032D1FD1637B8DF80030A37BC3
:1086D0008DF80130BDF80020E17BB4F840309A42BB
:1086E00018D194F84230994214D1E28D042A16D957
:1086F000636C1968A38D07339A4234DCD6B204F157
:1087000021053246002313E07D492046FFF7AAFEEB
:108710000325C0E77B492046FFF7A4FEBBE7002303
:1087200084F860300225B6E7C85CE85401339BB298
:108730009A42F9D8E38DA38594F93030C6F1070247
:1087400043EA42035BB243F0010384F82030012581
:10875000A4F84C50694B1B6804F118009847122389
:1087600084F8603097E704F12100002303E0CA5C3D
:10877000C25401339BB2062BF9D90723A38594F881
:10878000303084F82030E2E7237B5D09012D1CD1D5
:1087900094F8302003F0100393421CD182F01002B1
:1087A00084F83020E38DA08D83421AD9626C116861
:1087B0000144C21D934238DCDAB2C0B2121AD7B2F9
:1087C00004F121063A46002314E04D492046FFF704
:1087D00049FE03255FE74C492046FFF743FE03258A
:1087E00059E7002384F86030022554E7C85CF05450
:1087F00001339BB29A42F9D8E38DA38594F93030C6
:10880000C7F1070243EA42035BB243F0010384F875
:1088100020300123A4F84C30384B1B6804F11800B9
:108820009847122384F8603035E704F121000023D3
:1088300003E0CA5CC25401339BB2062BF9D9A38D65
:108840000733A38594F8303084F82030E1E72046E0
:10885000FFF72CFE402384F82030284B1B6804F1DE
:10886000180098470125A4F84C50002384F8543090
:10887000142384F860300EE7237B5909022945D17F
:10888000627B8DF80020A27B8DF80120BDF80000EE
:10889000E57BB4F8402090423ED194F842209542C6
:1088A0003AD103F00305032D3CD0012D61D1237C87
:1088B0008DF80030637C8DF80130A37C8DF8023098
:1088C000E37C8DF80330BDF80030E385626CD2881C
:1088D000934248D80023A385602384F820300123E5
:1088E000A4F84C30054B1B6804F118009847152379
:1088F00084F86030CFE600BF0000040520070020A8
:1089000023000A06430004060000030554492046DC
:10891000FFF7A8FD0325BEE652492046FFF7A2FD5A
:108920000325B8E6C3F38102C2F1040292B2E285E4
:10893000636CD888824204D81E6804F110050023B5
:1089400008E049492046FFF77FFDA4E6E85CF054C3
:1089500001339BB29A42F9D8E38DA385002384F8B2
:1089600060300D4697E640492046FFF77BFD032522
:1089700091E63E492046FFF775FD03258BE6217BF6
:108980004B091AD194F8303001F010029A421AD1F2
:1089900083F0100384F83030636C1A68A08D0244B1
:1089A000E38DC51DAB4228DC11F0010F11D004F19D
:1089B0000D051B1A99B2002316E029492046FFF73E
:1089C00051FD032567E62A492046FFF74BFD0325A5
:1089D00061E64FF000612046FFF744FD03255AE6AB
:1089E000E85CD05401339BB29942F9D8E38DA3855A
:1089F000002384F8603002254DE611F0010F03D109
:108A000004F10D0000230AE04FF000612046FFF75B
:108A100029FD03253FE6C15CD15401339BB2062BEF
:108A2000F9D9A38D0733A38594F8303043F0600360
:108A300084F820300F4B1B6804F11800984701257B
:108A4000A4F84C5027E6012525E601250DB184F850
:108A5000615003B0F0BD0125F8E70125F6E700BF3E
:108A600023000A064300040605000405100007065B
:108A70000000030520070020002380F830308385A4
:108A8000437B80F82130837B80F82230C37B80F8E1
:108A90002330704770B40124047091F85C4004F5F1
:108AA000B064856964F31C058561082480F828405A
:108AB000002480F8294091F85C5005F5C0654668AF
:108AC00065F31C064660047544758485C48580F88A
:108AD0003040B1F85E5045860487C363A0F840403B
:108AE00080F8424044648464A0F84C40B1F860309F
:108AF000A0F84E30026580F854408465C46580F863
:108B0000604080F8614070BC7047FFFF70B582B074
:108B100004460378002B00F0AD82B0F84C303BB136
:108B2000194489B2A0F84C10B0F84E3099421ED8C2
:108B3000637D23B994F85420002A00F099824BB148
:108B40000023A4F84C30237B5B09042B14D094F849
:108B500060302BB394F86030113B042B00F2868216
:108B6000DFE813F088001A018402CE011B02B0492D
:108B7000FFF76AFC03257EE2237C8DF80030637CDE
:108B80008DF80130A37C8DF80230E37C8DF8033042
:108B9000009BE3650023637584F8603003256AE277
:108BA000257B6D096B1EDBB2012B35D8637B8DF8FD
:108BB0000030A37B8DF80130BDF80010A4F8401000
:108BC000E37B84F84230E06BFFF777FB20874FF6BA
:108BD000FF73984226D0E36B94F8422019888842AC
:108BE00022D25B6803EBC00083789A421ED24368AE
:108BF00002EB420213EB82031AD06364D3B1012D5E
:108C00001ED01B7913F0010F2ED0142384F860308E
:108C10000125032D9ED12EE286492046FFF722FC36
:108C20000325F6E70023E8E70023E6E70023E4E76F
:108C30000023E2E780492046FFF714FC0325E8E71C
:108C40001A7912F0020F07D09A685AB11368A36418
:108C5000112384F86030DCE778492046FFF702FCF6
:108C60000325D6E71B68F2E774492046FFF7FAFBB5
:108C70000325CEE794F8543013B3636C9B685B68AC
:108C80009847032803D002280FD001265CE1002575
:108C900084F85450A4F84C50694B1B6804F1180038
:108CA000984784F8605002264EE1002384F854303F
:108CB000A4F84C3063492046FFF7D4FB032643E178
:108CC0002046FFF7D9FE237B03F00306032E25D0B1
:108CD000012E5BD1237C8DF80030637C8DF8013050
:108CE000A37C8DF80230E37C8DF80330BDF80030B2
:108CF000E385626CD288934242D80023A385602327
:108D000084F820300123A4F84C304D4B1B6804F14B
:108D100018009847122384F8603015E1C3F38102EC
:108D2000C2F1040292B2E285636CDB889A420AD8EF
:108D3000A56C04F1100000239A4209D9C15CE954E2
:108D400001339BB2F8E740492046FFF78BFBFBE07D
:108D5000E38DA385602384F82030636C9B682BB17E
:108D60000126A4F84C6084F85460EDE0344B1B6895
:108D700004F118009847002384F860300226E3E0ED
:108D800031492046FFF76EFB0326DDE02F492046E0
:108D9000FFF768FB0326D7E094F8543013B3636CF5
:108DA0009B685B689847032803D002280FD00126F0
:108DB000CAE0002584F85450A4F84C50204B1B689E
:108DC00004F11800984784F860500226BCE00023A4
:108DD00084F85430A4F84C301A492046FFF742FB7F
:108DE0000326B1E0217B4B0915D194F8303001F016
:108DF00010029A4215D1A26CA08D0244E38DC51DCC
:108E0000AB4251DC11F0010F26D004F10D051B1A05
:108E100099B200232BE00E492046FFF723FB0326DF
:108E200092E00C492046FFF71DFB03268CE000BFB3
:108E300000000405010004051100090600000106F8
:108E40002007002021000008050004051000070687
:108E500023000A06000003054FF000612046FFF7DB
:108E600001FB032670E0E85CD05401339BB29942C9
:108E7000F9D8E38DA38594F8303043F0200384F8CB
:108E80002030636C9B682BB10126A4F84C6084F8F9
:108E9000546059E07A4B1B6804F11800984700238E
:108EA00084F8603002264FE011F0010F09D104F17F
:108EB0000D000023062B0BD8C15CD15401339BB2AB
:108EC000F8E74FF000612046FFF7CCFA03263BE0BD
:108ED000A38D0733A38594F8303043F0200384F842
:108EE00020300126A4F84C60654B1B6804F1180083
:108EF000984794F8303083F0100384F8303023E042
:108F00002046FFF7B9FD616CCA88E285042A24D99E
:108F1000412384F8203084F82420C2F3072384F806
:108F20002530C2F3074384F82630C2F3076284F881
:108F30002720534B1B6804F1180098470126A4F81A
:108F40004C60152384F860300023637594F86050FA
:108F5000002D00F0908035468DE0C2F104039B00A7
:108F600003F00C0343F0430384F8203004F124059C
:108F70000868002303E0C15CE95401339BB29A42C4
:108F8000F9D83F4B1B6804F118009847E38DA3857F
:108F9000002384F860300226D6E7237B5E09032E87
:108FA00011D194F8302003F01003934211D1636C77
:108FB0001A68A08D0244E38DC11D8B420EDD04F1C1
:108FC000210000233AE02F492046FFF74BFA032601
:108FD000BAE72D492046FFF745FAB5E7D9B2C0B246
:108FE000091ACEB204F121053146002303E0D05C1A
:108FF000E85401339BB29942F9D8E38DA38594F9E3
:109000003030C6F1070243EA42035BB243F001038A
:1090100084F820301A4B1B6804F11800984794F824
:10902000303083F0100384F83030002384F860304F
:10903000022689E7D15CC15401339BB2062BF9D9D2
:10904000A38D0733A38594F8303084F820300C4B7F
:109050001B6804F1180098470126A4F84C6094F8A6
:10906000303083F0100384F830306DE701266BE771
:1090700001266BE7012584F8615002B070BD00BF86
:109080002007002023000A060000030503460A46C5
:10909000032101749168506883E80300002159742A
:1090A00090899882D089D882B2F85800188392F8B3
:1090B0005A209A769983D98383F82010596283F8CD
:1090C00028107047C17890F90330002B5ADB10B597
:1090D00082B00446838B1A4492B2934200D28283B8
:1090E00011F0400F36D0A28BA38A9A4248D3E38B6B
:1090F00001339BB2E383228B934212D90123E38392
:1091000094F820300133DBB284F82030A27E934201
:1091100002D9002384F8203094F8202001239340C2
:109120006362E38B2372C3F30723637294F82030E6
:10913000A372154B1B68204698470023A383012088
:10914000A38BE28A93428CBF0023012384F828304A
:1091500002B010BD607C0028F2D0237A8DF8003078
:10916000637A8DF80130BDF80030E383A27A84F889
:1091700020200123934063620023A3836374DFE70D
:109180000020DDE7002070472007002010B50446CE
:1091900090F87330022B01D0002311E0436F0830A8
:1091A00098470B4B1B68204698470FE004F11402C8
:1091B00052F8231004F108020978D1540133DBB2CC
:1091C000072BF3D9024B1B682046984710BD00BF00
:1091D000200700202DE9F04104460E461146069D69
:1091E0009DF81C80089F1A46FFF722F92B68E3655B
:1091F0002A89A4F864206A89A4F86620A989A4F8B9
:109200006810A87B84F86A00236008232374002375
:109210006374A66584F8701084F8712084F8723045
:1092200084F873806767B8F1020F02D025B1BDE8FA
:10923000F081002FFBD1FEE7FEE708B590F903307F
:10924000002B14DBB0F864304FF6FF718B420BD06B
:109250006AB1826DD18B8B420DD043B990F87230D8
:109260002BB1FFF793FF02E090F8723003B908BD0D
:10927000FFF78CFFFBE7C16E526A1142EDD0FFF79A
:1092800085FFF4E728B130B4054600234FF6FF70A0
:109290000BE07047EA5C82EA1022064C246834F93D
:1092A000122082EA002080B201338B42F2D330BC1C
:1092B000704700BF30070020002393420FD230B424
:1092C000CC5C84EA1024064D2D6835F9144084EAFC
:1092D000002080B201339342F2D330BC7047704714
:1092E0003007002070B58AB0064602AC1A4D0FCD8B
:1092F0000FC495E80F0084E80F000DF1090106F195
:109300000C0000F099F90DF1170106F12C0000F0A6
:1093100093F94FF4803333614FF42033336302AC5D
:1093200030350FCD0FC495E80F0084E80F009DF88D
:1093300008308DF800309DF809308DF801309DF827
:109340000A308DF802309DF80B308DF80330009B09
:1093500073600AB070BD00BF8004000838B50446D1
:109360000D46002301F8013B0C3000F08FF905F1A8
:109370000F0104F12C0000F089F938BDC0F86C141D
:10938000704710B40178072905D8DFE801F00B0B0E
:109390000B0B0B070B0B00210C4606E040F28A2159
:1093A000002402E041F288310024891844EB0303D1
:1093B000C0F86014C0F864345DF8044B704703785B
:1093C0008B4202D001700123037270472DE9F041F6
:1093D00090B006464FF0400842460021684603F030
:1093E000E6FE104F6C463D460FCD0FC40FCD0FC4A7
:1093F0000FCD0FC495E80F0084E80F006946304692
:10940000FFF7ACFFD6F86C341B6A42466946384613
:10941000984710B910B0BDE8F08107213046FFF73A
:10942000CEFFF7E78004000810B504460C3000F0CA
:1094300052F900B910BDA38AA386637E84F839303F
:10944000E368E362234633F8162F9B78E28684F8BC
:1094500038302046FFF7BAFFD4F8703420469847DA
:10946000E8E710B50446838E838290F8393043765E
:10947000C36AC360034633F8362F9B78C2820376F3
:10948000FFF7A4FFD4F874342046984710BD10B5F8
:1094900004464368012B17D0022B19D0D0F86C3446
:1094A000DB69984704F10C0000F015F9E0B904F10C
:1094B0002C0000F010F9E0B9012384F8683405218C
:1094C0002046FFF77CFF10BD0121FFF778FFFAE788
:1094D0000121FFF774FFD4F87834002BF3D1072172
:1094E0002046FFF76CFFEEE705212046FFF767FFF8
:1094F000E9E72046FFF7B5FF05212046FFF75FFFAC
:10950000E1E710B50446D0F86C341B689847002397
:1095100084F868342046FFF7E5FE2046FFF7B7FFE2
:1095200010BD10B504460C3000F0EAF870B1E168E7
:109530002069FFF7A7FEA082002363762046FFF78D
:1095400045FF06212046FFF73AFF10BD07212046C0
:10955000FFF735FFF9E7FFFFF0B591B00746114C73
:1095600001AD04F1300C26460FCE28606960AA6078
:10957000EB60344610356645F5D107CC286069604C
:10958000AA6000230093D7F86C341B6A4022694616
:109590000548984708B911B0F0BD07213846FFF7D4
:1095A0000EFFF8E7C4040008C0040008F0B589B055
:1095B000044600234376FFF737FF04F10C073846D3
:1095C00000F0BDF86368022B14D0D4F88034204634
:1095D0009847D4F86C34DB6920469847D4F86C344B
:1095E0009B68204698472046FFF7B6FF002363603C
:1095F00009B0F0BDD4F87C3420469847D4F86C34D8
:10960000DB69204698474FF47C43E3646D46094E7E
:109610000FCE0FC596E80F0085E80F0001A9384668
:1096200000F00AF84FF48033236102212046FFF74F
:10963000C6FED8E7C004000882B00B788DF8003071
:109640004B788DF801308B788DF80230CB788DF81F
:109650000330009BB3F5003F28BF4FF40033036095
:109660000B7A003B18BF012343730B4633F8092FD5
:109670009B78428103730B7B8DF800304B7B8DF818
:109680000130BDF80030038102B0704703680B70F1
:10969000C3F307224A70C3F307428A70C3F3076318
:1096A000CB7043680B71C3F307224A71C3F30742BF
:1096B0008A71C3F30763CB71437B0B72034633F8A4
:1096C0000A2F9B78A1F80920CB7203890B73C3F38F
:1096D00007234B73704708B5C369984708BD10B599
:1096E00004460168B1F5003F28BF4FF400314068DF
:1096F000FFF7C8FD2389834214BF0020012010BD5D
:1097000010B5044601684068FFF7BCFD2389834219
:1097100014BF0020012010BD38B50446436901691B
:1097200051F80C0B4FF480629847054620694FF4BE
:109730008062FF210C3003F03AFD284638BD08B5A1
:10974000836904214068984708BD10B504468188A4
:109750000C30FFF797FD2389834214BF00200120BE
:1097600010BD08B5034608469962114600F09CFDFD
:1097700008BD036901FB03F14089B1FBF0F07047BC
:1097800008B5806A036A984708BD08B5806A83698E
:10979000984708BD10B5806AC469A04710BD00B5E0
:1097A00085B08DF8071001230DF10F020DF10701AF
:1097B000FFF7F0FF9DF80F0005B05DF804FB08B55A
:1097C000806A8368984708BD08B5806AC36898476F
:1097D00008BDF8B50546FFF7F2FF9F212846FFF7C1
:1097E000DEFFA5212846FFF7DAFF0746A521284618
:1097F000FFF7D5FF0446A5212846FFF7D0FF064610
:109800002846FFF7E1FF240244EA074444EA060041
:10981000F8BD38B50546FFF7D2FF4B212846FFF7C4
:10982000BEFF002405E0A5212846FFF7B8FF01345C
:10983000E4B2032CF7D9002407E0A5212846FFF75E
:10984000AEFF2B1958700134E4B2072CF5D9284625
:10985000FFF7BAFF38BD10B50446FFF7B0FF062189
:109860002046FFF79CFF2046FFF7AEFF4FF47A71CA
:10987000012003F0FBFA10BD38B504460D46FFF792
:109880009EFF012D11D0022D1BD015212046FFF780
:1098900086FFA5212046FFF782FF054684F82600B3
:1098A0002046FFF791FF284638BD05212046FFF7E7
:1098B00076FFA5212046FFF772FF054684F82400B5
:1098C000EEE735212046FFF76AFFA5212046FFF786
:1098D00066FF054684F82500E2E7FFFF10B5044661
:1098E0004FF486723D49FFF73CFF012084F82700C2
:1098F0004FF47A7103F0BAFAA06A83689847204659
:10990000FFF767FFC0B211380F2862D8DFE800F018
:109910005C57524D48433E38326161616161610874
:10992000092323704FF48063E3614FF480736381F4
:109930004FF480532361E3691A0162611B041A0A20
:10994000E2604FF48032A2619B0A23622046FFF757
:1099500060FF01212046FFF78FFF02212046FFF71D
:109960008BFF03212046FFF787FF002384F8273071
:10997000012010BD082323704FF40073E361D4E786
:10998000072323704FF48073E361CEE7062323702F
:109990008023E361C9E7052323704023E361C4E723
:1099A000042323702023E361BFE7032323701023E4
:1099B000E361BAE7022323700823E361B5E70123DB
:1099C00023700423E361B0E7002323700223E361E3
:1099D000ABE7002084F82700CBE700BFDC200020A5
:1099E00010B504464FF47A71012003F03FFA204687
:1099F000FFF7E5FE05212046FFF7D1FEA521204611
:109A0000FFF7CDFE84F824004FF47A71012003F0B3
:109A10002DFA94F8243013F0010FEFD12046FFF710
:109A2000D3FE10BD38B504460D4694F82730012BFF
:109A300005D14FF47A71012003F018FAF5E70123FC
:109A400084F827302046FFF7CBFF216905FB01F59D
:109A50002046FFF700FF2046FFF7B1FE2378072BD3
:109A600029D921212046FFF79AFE290E2046FFF72B
:109A700096FEC5F307412046FFF791FEC5F3072187
:109A80002046FFF78CFEE9B22046FFF788FE4FF430
:109A90007A71C82003F0EAF92046FFF795FE2046C8
:109AA000FFF79EFF4FF47A71012003F0DFF90023E6
:109AB00084F8273038BD20212046FFF770FED8E714
:109AC0002DE9F04104460F4690461D46069E94F847
:109AD0002700012805D14FF47A71012003F0C6F95F
:109AE000F5E7012384F82730721963899A4200D878
:109AF00006B95E1B7219934200D25E1B2046FFF727
:109B00006FFF2046FFF7A7FE2046FFF758FE638948
:109B100008FB03552378072B2FD912212046FFF786
:109B20003EFE290E2046FFF73AFEC5F307412046C8
:109B3000FFF735FEC5F307212046FFF730FEE9B2F7
:109B40002046FFF72CFE324639462046FFF71DFE21
:109B50004FF47A71032003F089F92046FFF734FEB1
:109B60002046FFF73DFF4FF47A71012003F07EF9A4
:109B7000002384F82730BDE8F08102212046FFF75A
:109B80000EFED2E72DE9F04383B080460D46114624
:109B900099460A9C0369A34202D314B91C4600E00B
:109BA0001C464B4523D904EB0902934201D2A3EB97
:109BB00009044046FFF7DDFDB8F80A30B9FBF3F6BB
:109BC000871903FB1696009433463A4629464046C9
:109BD000FFF776FF0137B8F80A309B1BE41A1D44E3
:109BE0000026B442EFDC012003B0BDE8F083002082
:109BF000FAE72DE9F04104460F4690461D46069EC1
:109C000094F82700012805D14FF47A71012003F060
:109C10002DF9F5E7012384F827306089B04202D39B
:109C200016B9064600E006467319984200D2461B54
:109C300008FB00552046FFF7C2FD2378072B2BD9E0
:109C40000C212046FFF7ABFD290E2046FFF7A7FDAC
:109C5000C5F307412046FFF7A2FDC5F307212046C3
:109C6000FFF79DFDE9B22046FFF799FD0021204650
:109C7000FFF795FD324639462046FFF781FD204625
:109C8000FFF7A2FD4FF47A71012003F0EFF80023F3
:109C900084F82730BDE8F0810B212046FFF77FFDD7
:109CA000D6E72DE9F04383B080460D46114699462C
:109CB0000A9C0369A34202D314B91C4600E01C4667
:109CC0004B4523D904EB0902934201D2A3EB0904CB
:109CD0004046FFF74EFDB8F80A30B9FBF3F6871996
:109CE00003FB1696009433463A4629464046FFF752
:109CF00080FF0137B8F80A309B1BE41A1D44002688
:109D0000B442EFDC012003B0BDE8F0830020FAE7A5
:109D100008B503689A68126859681868904708BDC2
:109D200008B5C2691378012B0DD0036A013B0362A9
:109D3000012B05D91378022BF3D18368984705E0EE
:109D40008368984702E04FF0FF33036208BD08B50F
:109D50000368186800F0F0FF08BD2DE9F0410546E2
:109D60000F4616460368D3F800800024B4420AD296
:109D7000072301223919404601F0A4FA2846FFF7CB
:109D8000CFFF0134F2E70020BDE8F0812DE9F84370
:109D90000646884617460368D3F800900024BC4264
:109DA0000DD20723012208EB0401484601F095FA81
:109DB00005463046FFF7B4FF25B90134EFE7002030
:109DC000BDE8F8831220FBE72DE9F04782B0064694
:109DD000894690461F460368D3F800A00024BC4281
:109DE0000ED207250095012308EB040209EB0401BC
:109DF000504601F07CFA3046FFF792FF0134EEE75F
:109E0000002002B0BDE8F087016070470379012BA4
:109E100003D0044B02221A707047024B01221A70C1
:109E2000704700BF5809002008B50348034B036082
:109E30004368984708BD00BF3409002030D30000B4
:109E400010B5044C0449204602F02AFE204602F0D8
:109E50009FFE10BDC839002078D3000010B5044C17
:109E60000449204602F01CFE204602F091FE10BD7F
:109E700058390020ACD3000010B5044C04492046EA
:109E800002F00EFE204602F083FE10BDAC39002029
:109E9000E0D3000008B5FFF7D3FFFFF7DFFFFFF7C0
:109EA000EBFF08BD08B5084B9A68D26A186890475E
:109EB000064B9A68D26A18689047054B9A68D26A2E
:109EC0001868904708BD00BF6CD30000A0D3000005
:109ED000D4D3000008B5037913B902480368984742
:109EE00008BD00BFD020002008B5037913B902488F
:109EF0004368984708BD00BFD020002008B503790B
:109F000013B902488368984708BD00BFD0200020DD
:109F100070B50E4615461C46012824D0022829D0CB
:109F2000002240F20231354801F067FB012E2ED0AD
:109F3000022E32D000220D21304801F05EFB012DAF
:109F400036D0022D3AD000220E212C4801F055FBCC
:109F5000012C3ED0022C43D0002240F2062127489B
:109F600001F04BFB70BD012240F20231234801F0A9
:109F700044FBDBE7224BD3F8C820C2F3400282F057
:109F8000010240F202311D4801F037FBCEE7012209
:109F90000D211A4801F031FBD1E7194B5A6BC2F37E
:109FA000400282F001020D21144801F026FBC6E7B1
:109FB00001220E21114801F020FBC9E7104B9A6BDA
:109FC000C2F3400282F001020E210C4801F015FBA1
:109FD000BEE7012240F20621084801F00EFBC1E76E
:109FE000074BD3F89820C2F3400282F0010240F2FE
:109FF0000621024801F001FBB4E700BF2039002030
:10A0000000080840094B1B781BB9094B1B78002B33
:10A01000F8D0064B1B781BB90020054B1870704711
:10A02000024B00221A700320704700BF77100020F7
:10A030007510002010B5054C0549204601F040FD83
:10A0400001220221204601F000FF10BDE43900206A
:10A050001CD3000008B5024801F076FC08BD00BF23
:10A06000E439002070B582B006460D4600238DF815
:10A0700007300A460146124801F0CCFEC8B9002458
:10A0800001E00134E4B2AC4210D20DF107034FF409
:10A09000004206EBC4310A4801F092FE60B99DF817
:10A0A0000730012BEDD14FF0FF3000E0002002B06F
:10A0B00070BD4FF0FF30FAE74FF0FF30F7E700BF19
:10A0C000E4390020002393420CD230B4C556CC565C
:10A0D000A54205D101339342F8D3012030BC70472B
:10A0E0000020FBE701207047F8B505460E461446F0
:10A0F000134602460B4801F07CFE68B90A4F22461F
:10A100002946384603F046F8224631463846FFF7DE
:10A11000D9FF20B10020F8BD4FF0FF30FBE74FF032
:10A12000FF30F8E7E43900207C1000202DE9F041F1
:10A1300082B000AF04460D4616460023FB7162B69E
:10A14000012201462D4801F065FE002849D12C4B23
:10A1500093F80080B8F1000F06D02A4B1B78002B33
:10A16000FBD0284B00221A70FB1D402221462348B9
:10A1700001F026FE002837D1FB79012B37D0022BC6
:10A1800025D03346224629461C4801F032FE88BBC2
:10A19000B8F1000F06D01C4B1B78002BFBD01A4BDC
:10A1A00000221A706C46F31DDB08A4EBC3039D4626
:10A1B00032462946684602F0EDFF2946684602F01D
:10A1C000FEFF58B9A5460837BD46BDE8F081FFF748
:10A1D00019FF0028D5D04FF0FF30F4E74FF0FF30E3
:10A1E000F0E74FF0FF30EEE74FF0FF30EBE74FF0D6
:10A1F000FF30E8E74FF0FF30E5E700BFE43900202B
:10A200001CD3000076100020781000200378032B68
:10A2100012D8DFE803F00A0E0602084B01221A707A
:10A220007047074B01221A707047064B01221A70C3
:10A230007047054B01221A70704700BF771000204D
:10A2400075100020761000207810002008B50068F6
:10A250004368984708BD08B500688368984708BDFB
:10A2600008B500680369984708BD10B500684469DF
:10A27000A04710BD08B50068C368984708BDFFFF38
:10A2800008B501228188024801F0B7F908BD00BF76
:10A290002039002008B500228188024801F0ADF97C
:10A2A00008BD00BF2039002010B5044681800D4B49
:10A2B00083600D4BC3600D4B03610D4B43610D4B30
:10A2C00083610D4BC3610D4B036201220C4801F009
:10A2D00094F900B110BD0B4820600B49FFF794FDC5
:10A2E000F8E700BF95A2000081A200004DA2000087
:10A2F00057A2000061A200006BA2000075A200003E
:10A30000203900203409002030D300000823837155
:10A31000002303714371704710B5064C2046FFF7C8
:10A32000F5FF04F11400FFF7F1FF0349034802F0C1
:10A3300095F810BD08210020D8D20000283900204F
:10A340008288B2F5806F12D110B50346084A02F137
:10A350002804014651F8240F496803C4997F82F804
:10A3600022109B69D361136B1046984710BD70474C
:10A370000021002010B5794B93F8383373B9774B2F
:10A3800093F83033072B12D8DFE813F012002D00BA
:10A39000480067008600A100C700E000704C714BC8
:10A3A000D3E900232046FEF7ECFF0023237210BD03
:10A3B0006C4BD3E900016C4BD3E90023994208BFF1
:10A3C000904203D3134308D1002300E0002333B1AC
:10A3D00007216348FEF7F3FFE9E70123F7E7604849
:10A3E000FFF78FF8E3E75F4BD3E900015E4BD3E95A
:10A3F0000023994208BF904203D3134308D100239E
:10A4000000E0002333B107215548FEF7D8FFCEE71F
:10A410000123F7E75248FFF7C9F8C8E7514BD3E9E2
:10A420000001514BD3E90023994208BF904203D366
:10A4300013430BD1002300E000234BB94748D0F869
:10A440009C37DB6800F54C709847B0E70123F4E7D0
:10A4500007214348FEF7B3FFA9E7424BD3E90001C8
:10A46000414BD3E90023994208BF904203D31343E1
:10A470000BD1002300E000234BB93848D0F89C37BB
:10A480001B6900F54C70984791E70123F4E7072119
:10A490003348FEF794FF8AE7324BD3E90001324B91
:10A4A000D3E90023994208BF904203D3134308D154
:10A4B000002300E0002333B107212948FEF77FFF86
:10A4C00075E70123F7E72648FFF72BF86FE7254BE1
:10A4D000D3E90001244BD3E90023994208BF9042FD
:10A4E00003D3134312D1002300E000231BB11B4B05
:10A4F00093F8983763B1194B93F83933012B7FF4F4
:10A5000056AF01211648FEF75AFF50E70123EDE749
:10A5100006211348FEF753FF49E7124BD3E9000128
:10A52000114BD3E90023994208BF904203D3134350
:10A530000AD1002300E00023002B3FF438AF0621AE
:10A540000748FEF73CFF32E70123F5E70348D0F860
:10A550009C379B6900F54C70984728E738310020FC
:10A560006834002080200020C838002008B5012170
:10A570000148FDF770FE08BD3831002008B51C4ABF
:10A5800013685168013341F1000113605160194AA9
:10A59000136801331360012B0BD0C82B0FD0B3F518
:10A5A000C87F13D0B3F5167F17D0B3F5487F1BD003
:10A5B00008BD002211461046FFF7AAFCF8E7002369
:10A5C000012219461846FFF7A3FCF1E700231A46BB
:10A5D00001211846FFF79CFCEAE700231A461946BA
:10A5E0000120FFF795FCE3E7024B00221A60DFE74A
:10A5F000802000207C20002008B5054B054A1A6009
:10A60000054A5A60054A9A60FFF744FC08BD00BF3E
:10A61000D02000207DA500006DA5000075A30000DE
:10A620007047FFFF034BB3F88E22A3F8802303206B
:10A63000704700BF38310020024B042283F83023DA
:10A64000032070473831002008B50648FFF77DF831
:10A6500008B9022008BD03210348FEF7B0FE03201D
:10A66000F8E700BFB43400206834002008B504487F
:10A67000FFF746F808B9022008BD0320FCE700BF39
:10A68000743400207047704770477047C2692830A3
:10A69000284BD3F8C832C3F31C039A420ED0254B83
:10A6A000D3F8FC31C3F31C039A4221D0214BD3F8D9
:10A6B0006432C3F31C039A4239D070471D4B93F8A0
:10A6C000CB3213F0400FF8D110B41A4B93F8D842A4
:10A6D000002304E0C15C184A995401339BB29C42A8
:10A6E000F8D8144B012283F8D9225DF8044B704747
:10A6F000104B93F85832002BD8D00023072B05D8E5
:10A70000C15C0E4A995401339BB2F7E7094B012211
:10A7100083F80D227047C15C094A995401339BB2FA
:10A72000072BF8D9034B012283F8752270470023C9
:10A73000F6E700BF38310020083400203C33002009
:10A74000A433002010B502460A4B03F1140401465D
:10A7500051F8080F496803C41168C1F31C019960DE
:10A76000127C9A7303F108025968034801F0D4FD82
:10A7700010BD00BF002100202839002070B584B032
:10A78000FFF74EFF274B284A1A60284A284C294BCE
:10A790001B6852F8481C2046FDF752FD264904F577
:10A7A0003270FEF773FC002423E0244B53F824306E
:10A7B0001F4D04EBC4018A0002F5CC721E490A4405
:10A7C000C4EB0416F000183002930223019304EB4B
:10A7D000840606FA03F303F5A4730B4404330093D1
:10A7E0006B69043205F532712844FEF7F3FC01343D
:10A7F000E4B2032CD9D90E4C04F532760E4D6369C0
:10A800003246294604F51870FEF744F932462946C7
:10A8100004F5FC70FDF75AFE094B0A4A1A6304B0AE
:10A8200070BD00BF2007002045A70000B40900202C
:10A8300038310020240E00206C090020D40E0020A6
:10A84000002100208DA60000704770477047FFFF71
:10A85000BFF34F8F0549CA6802F4E062044B13430B
:10A86000CB60BFF34F8F00BFFDE700BF00ED00E0FE
:10A870000400FA0508B572B6FFF736FC62B608BDEB
:10A8800008B5FFF753FC08BD08B5FFF777FFFFF7E2
:10A8900043FD08BD10B504460C30FEF73DFF48B936
:10A8A000B4F852300133A4F8523002212046FEF7AA
:10A8B00086FD10BD07212046FEF781FDF9E7FFFF69
:10A8C00070B586B005460E4600235C1CE4B2B34268
:10A8D0002ED81A4B93F85932002BFAD10395032145
:10A8E0008DF810100123ADF812300023059341F2CA
:10A8F0008833019303AB0093062342F20102104810
:10A90000FDF718FE0D4B93F85932012BFAD0032BAB
:10A9100005D10A4B002283F859222346D5E7074B7D
:10A92000002283F8592202212846FEF748FD03E061
:10A9300007212846FEF743FD06B070BD38310020E0
:10A940003033002010B504460C30FEF7E5FE68B940
:10A95000B4F852300133A4F8523002212046FEF7F9
:10A960002EFD03212046FFF7ABFF10BD0721204637
:10A97000FEF725FDF9E710B504460221FEF71FFD9D
:10A9800094F8683423B1F1212046FFF799FF10BDF8
:10A990000321F9E708B5FFF75DFB08BD08B5FFF730
:10A9A00049FB08BD08B5FFF73FFA0248FEF796FFDE
:10A9B00008BD00BFF0380020C36803F58032C36CC7
:10A9C000934204D30F4B042283F83023704710B511
:10A9D00082B003F58062C264A3F57C431A0B0A4C73
:10A9E0004FF480610091C3F30B03103200F1580162
:10A9F0002046FFF756F90321A4F59160FEF7DFFC2E
:10AA000002B010BD38310020F03800202DE9F043AD
:10AA100083B08146C36A1B0B03F1410806694024D9
:10AA2000002344451AD20F4D4FF48052FF2128468F
:10AA300002F0BDFB4FF480570097002322462946C1
:10AA40000948FFF72EF9D9F820303A462946304612
:10AA500098473E44034608B90134E2E7184603B07C
:10AA6000BDE8F08334210020F038002010B5044602
:10AA70000C30FEF764FE00B110BD2046FFF7C6FFA4
:10AA8000FAE7FFFF2DE9F04182B08046C7683F0B2F
:10AA9000413740240025BC4214D20C4E214630469A
:10AAA000FEF7C0FFD8F810104FF480530093002336
:10AAB000224601EB05313046FFF764F80135EDB26F
:10AAC0000134E8E7002002B0BDE8F081F038002052
:10AAD00008B572B6FFF7C6FA62B608BD08B50249F6
:10AAE000FEF74CFC08BD00BF0C0F002008B5024962
:10AAF000FEF744FC08BD00BFE40E002010B5144C66
:10AB00002046FFF7F3FF04F14C02E263E261114AD1
:10AB100022642262104A62646262104AA262104A8F
:10AB2000A264104AC4F880240F4AC4F87C240F4A57
:10AB3000C4F870240E4AC4F874240E4AC4F8782469
:10AB40002046FFF72FFF00212046FEF738FC10BDFE
:10AB50006834002075A80000D1AA0000DF9600002C
:10AB60005DAC0000EDAA0000DDAA000085AA00008F
:10AB70006DAA0000EDAB00002DE9F04782B08A46D7
:10AB8000060B4FEA113909EB103909F101094FF0B1
:10AB900000084FF6FF7514E0124F4FF48052FF216A
:10ABA000384602F004FB00940023324639460E4832
:10ABB000FFF777F8224639462846FEF77DFB054623
:10ABC00001364E450AD2AAEB083408F101082CB12F
:10ABD000B4F5805FE0D94FF48054DDE7284602B039
:10ABE000BDE8F08734210020F038002030B58BB06C
:10ABF00002AC194D0FCD0FC495E80F0084E80F008B
:10AC00009DF80C308DF800309DF80D308DF8013036
:10AC10009DF80E308DF802309DF80F308DF803301E
:10AC20000099B1F5003F01D94FF400319DF818307B
:10AC30008DF800309DF819308DF80130BDF80040D6
:10AC40004FF48030FFF798FFA04202D101200BB0F3
:10AC500030BD0020FBE700BFC004000810B501684C
:10AC60000489B1F5003F28BF4FF400314FF4802034
:10AC7000FFF782FFA04214BF0020012010BDFFFF9C
:10AC800008B5074B00221A6003F54F639860BFF3C5
:10AC90004F8F036883F308884368984708BD00BF57
:10ACA00010E000E008B5FFF729FFFFF767FDFFF7A9
:10ACB000A3FC1AE04FF47A71322002F0D7F8FFF7C4
:10ACC000F1F80D4B9A685269186890470B4B9A68D7
:10ACD000D268186890470A4B9A685268186890477B
:10ACE000084BD3F84003FFF7CBFF064B93F8303304
:10ACF000062BFAD1DEE700BF10D30000CCD2000053
:10AD0000C0D2000038310020022800D0704708B5BA
:10AD1000024B5968024800F09FFD08BDC0D20000F8
:10AD20002039002008B5FFF7BDFF002008BD4162B3
:10AD3000C26283620020704710B50446002303609E
:10AD400043685B691BB19A68126A18689047636828
:10AD50001B691BB19A68126A18689047636893F977
:10AD6000023003F01F005B09012202FA00F01F49C4
:10AD7000203341F82300BFF34F8FBFF36F8F636819
:10AD800093F9013003F01F005B0902FA00F0203351
:10AD900041F82300BFF34F8FBFF36F8F636893F9C0
:10ADA000033003F01F005B0902FA00F0203341F882
:10ADB0002300BFF34F8FBFF36F8F636893F90430A5
:10ADC00003F01F005B098240203341F82320BFF3CA
:10ADD0004F8FBFF36F8FA26813786FF386131370D2
:10ADE000A368DA780020D87010BD00BF00E100E051
:10ADF000F8B506460569037803F5800303F58D531E
:10AE00001B021C1D002D26D06B681B684FF00062D2
:10AE10001A606B681B689C60AB681B68696828686F
:10AE200098470746A8B973699BB15A6812684FF4EE
:10AE3000002111605A68126854609A681268596853
:10AE400018689047074620B11DB1AB681B6A286897
:10AE500098473846F8BD0027E5E7FFFF2DE9F04F9A
:10AE600083B04268577A57BB082141F0B00147BB15
:10AE70001025967AD37A46EA4306537B46EA033690
:10AE8000126A13780BBBF7B980231E4321F001012E
:10AE9000547821EAC413610141EA440119439478CA
:10AEA00092F803C004FA0CF426F0700343EA0C1382
:10AEB00016796EB1022E6CD0202600960AE0002191
:10AEC000D3E70025D5E70023DFE741F00101DFE705
:10AED00000260096567926B145F0010C012E5BD074
:10AEE000654692F80690167A06F0030643EA860352
:10AEF000002F54D143F4604392F809E0967A01960A
:10AF0000D67AEFF3108B4FF0010C8CF31088DFF83A
:10AF10009880D8F804A047683F78C7F113070CFA67
:10AF200007FC2AEA0C07C8F80470D8F804708BF301
:10AF30001088876897F803C04FF0000C87F803C0AB
:10AF40008768C9B239708168E4B24C7081689DF835
:10AF500000408C708168D2798A7282685FFA8EFEB6
:10AF600082F80CE081689DF804204A738268F6B28A
:10AF700096738268EDB2D57382689BB21382836840
:10AF800083F820908368102283F8212003B0BDE865
:10AF9000F08F302600969DE745F00305A1E70026D7
:10AFA0000196B646ADE700BF00400840F0B44368E4
:10AFB00093F9022099790901C9B2324B9C1884F89F
:10AFC0000013314D45F82200304C02F1C00154F815
:10AFD00021606FF3104644F8216002F01F06520909
:10AFE000012101FA06F602F1600743F8276043F8F1
:10AFF0002260466896F9012076793601F6B29F18EC
:10B0000087F8006345F8220002F1C00654F8267064
:10B010006FF3104744F8267002F01F06520901FA38
:10B0200006F602F1600743F8276043F8226046689D
:10B0300096F90420367A3601F6B29F1887F8006335
:10B0400045F8220002F1C00654F826706FF310474D
:10B0500044F8267002F01F045209A14002F1600476
:10B0600043F8241043F82210426892F90310D27971
:10B070001201D2B20B4483F8002345F82100F0BC42
:10B08000704700BF00E100E06C3A00200060004023
:10B0900070B504460D460846FFF7AAFE064608B1FD
:10B0A000304670BD6560AB696362EB69E3620023A3
:10B0B000A3622B7803F5800303F58D531B02A36075
:10B0C0002046FFF7CBFE2046FFF770FF014B2360C1
:10B0D000E6E700BF4950535230B48468E27AD2B2F6
:10B0E000238A9BB290F820100F2914D922F0400235
:10B0F00042F020020D460F2902D9013189084D1F67
:10B1000023F4706343EA0523D2B2E27282689BB2F1
:10B11000138230BC7047072902D842F04002E9E7A9
:10B1200022F06002E6E78268137843F04003137070
:10B130007047FFFF70B50E461D469DF810308168C0
:10B14000097811F0400F40F0B7800446C6600261F4
:10B15000002141618161C56180F820304168486902
:10B1600000282BD0A5610F2B62D94B695B681B6847
:10B17000D978022060F30511D97063685B695B6858
:10B180001B689978022060F38301997063685B699A
:10B190005B681B68A9B2D98163685B695B681B68DF
:10B1A0009A60002A57D063685B699A685268596848
:10B1B0000968186890470346002837D163681A6900
:10B1C000002A2CD0656194F820200F2A52D91B69DF
:10B1D0005B681B68DA78022161F30512DA70636834
:10B1E0001B695B681B68DA78022161F38302DA70FD
:10B1F00063681B695B681B68ADB2DD8163681B69AE
:10B200005B681B685E60002E47D063681B699A68A4
:10B2100052685968096818689047034630B9204653
:10B22000FFF75AFF2046FFF77EFF0023184670BD48
:10B23000072B07D84B695B681B68D9786FF305113A
:10B24000D9709AE74B695B681B68D978012060F375
:10B250000511D97091E763685B695B681B689A7830
:10B260006FF383029A7063685B695B681B68134ABB
:10B270009A6098E7072A07D81B695B681B68DA7829
:10B280006FF30512DA70AAE71B695B681B68DA784E
:10B29000012161F30512DA70A1E763681B695B683D
:10B2A0001B68DA786FF38302DA7063681B695B6886
:10B2B0001B68034A5A60A8E70823B7E7A0200020CC
:10B2C000A420002000B583B0009313460A46002155
:10B2D000FFF730FF03B05DF804FB00B583B00093C7
:10B2E00013460022FFF726FF03B05DF804FB10B5FC
:10B2F00082B09DF810400094FFF71CFF02B010BD13
:10B300008369C2699A420BD0026952B190F8201049
:10B310000F2909D98168496842F8231001338361F4
:10B32000704782685268F9E7072903D8816809796C
:10B33000D154F3E78168898822F81310EEE7436956
:10B34000C2699A420BD0C26852B190F820100F29FE
:10B350000AD9816852F823204A600133436170475B
:10B36000826800215160F8E7072903D88168D25C20
:10B370000A71F2E7816832F813208A80EDE730B570
:10B3800085B004460D46836ABBB193E807000DF112
:10B39000100C0CE90700626812781A601D71E26AED
:10B3A0009A60626A18469047A36A23B104AA12E918
:10B3B000070083E8070005B030BD01ABEBE7FFFFF6
:10B3C00010B5EFF30383C3F30803103B5BB2104ADD
:10B3D00003F1C00152F821006FF3104042F8210040
:10B3E0000C4A52F823402046FFF78AFFA269E3691E
:10B3F0009A4200D010BD636893F9033003F01F0137
:10B400005B0901228A40044941F82320F2E700BF8A
:10B41000006000406C3A002000E100E010B5EFF35E
:10B420000383C3F30803103B5BB2204A03F1C0015E
:10B4300052F821006FF3104042F821001C4A52F8E4
:10B4400023004268136A13B15B78012B02D0FFF727
:10B4500076FF10BD4169C369013B99420DD0136964
:10B46000002BF4D092F9033003F01F015B09012295
:10B470008A40104941F82320E9E792F903300B4A4A
:10B4800003F1C00152F821406FF3104442F821400B
:10B4900003F01F015B0901228A40064903F16004A1
:10B4A00041F8242041F82320D1E700BF006000408C
:10B4B0006C3A002000E100E0EFF30383C3F30803DC
:10B4C000103B5BB2164A03F1C00152F821006FF342
:10B4D000104042F82100134A52F823008268D278C3
:10B4E00012F0020F04D04268527A012A00D070474D
:10B4F00010B503F01F025B09012101FA02F22033AB
:10B50000094C44F82320BFF34F8FBFF36F8F82683D
:10B5100013786FF386131370FFF731FF10BD00BF70
:10B52000006000406C3A002000E100E070B5EFF3ED
:10B530000384C4F30804103C64B2184B53F824503D
:10B54000AA6813786FF386131370AA68D378DEB2F3
:10B550000021D17013F0080F11D116F0010F13D193
:10B5600016F0040F02D016F0100F12D10C4BC0349D
:10B5700053F824206FF3104243F8242070BD0521B6
:10B580002846FFF7FCFEE8E704212846FFF7F7FE10
:10B59000E6E708212846FFF7F2FEE7E76C3A0020CD
:10B5A0000060004003460020186070470B0A1B0132
:10B5B00053FA81F1034B53F82130C3F34003137066
:10B5C0000020704700080840090A490101F1804144
:10B5D00001F500214B6813800020704702EA030048
:10B5E00023EA0203090A490101F1804101F5002122
:10B5F00040EA03438B6000207047CBB201209840A3
:10B6000080B262B9024600200B0A5B0103F180435D
:10B6100003F5002340EA02409860002070470022B2
:10B62000F2E710B4090A490101F1804101F5002156
:10B63000086802EA0304204362EA030202400A6047
:10B6400000205DF8044B7047090A490101F180416F
:10B6500001F500214B68C3F30F43138000207047AE
:10B660000B0A5B0103F1804303F500235868C9B25C
:10B67000012303FA01F18BB201EA1041994203D090
:10B68000002313700020704701231370FAE702EAC9
:10B69000030023EA0203090A490101F1804101F58F
:10B6A000002140EA0343CB6000207047062070472A
:10B6B00010B4000A400100F1804000F50020C46889
:10B6C000012B0AD044EA02426FEA01416FEA1141BC
:10B6D0001140C1605DF8044B704721434FF6FF7382
:10B6E00043EA02421140F4E708B5134601F47F40F3
:10B6F000012A09D0C9B2012202FA01F18AB200215D
:10B70000FFF7D6FF002008BDC9B2012202FA01F1FD
:10B7100089B20022F4E7FFFF10B411F4803F0ED08D
:10B72000030A0C4A1B0153FA80F352F823406FF3CB
:10B73000104442F8234021F4803442F82340030AA5
:10B740001B0153FA80F0034B43F820105DF8044BC3
:10B75000704700BF00080840F8B50026374632465B
:10B760001FE001219940C9B20F430133022B17D8C2
:10B77000416801EBC204A588144C34F81340A5427B
:10B78000F3D151F8321001F0F851B1F1807FE8D0D7
:10B79000B1F1106FE5D001219940C9B20E43E4E741
:10B7A00001320388934201D90023DFE7012001F031
:10B7B0004FFC074A92F8BB343B43F743FFB21F40AC
:10B7C00082F8BB74012001F00FFCF8BDC8D5000061
:10B7D00000E0014038B50546FFF7BEFFEFF31081EA
:10B7E000012383F310881A4B1B6823B9194B0022DD
:10B7F000DA704022DA70164A13680133136081F35D
:10B80000108800242B88A3420AD96B6803EBC4027A
:10B8100053F834109088FFF77FFF0134A4B2F1E7AA
:10B82000EFF31083012282F31088094A12681AB1DB
:10B8300007490A68013A0A60054A126822B9054AAE
:10B840000021D1708021D17083F3108838BD00BFF2
:10B85000683A0020000D084008B5034B0360084615
:10B86000FFF7B8FF002008BD54524F5008B50846F6
:10B87000FFF7B0FF002008BD70B584B00C46154638
:10B88000ADF8041000920126ADF80860CDF80CD098
:10B8900002A8FFF761FFEFF3108286F31088144BC4
:10B8A0001B6823B9134B0021D9704021D970104E69
:10B8B00033680133336082F3108829462046FFF74E
:10B8C0002BFFEFF31083012282F31088326812B14C
:10B8D0003268013A3260064A126822B9054A0021EC
:10B8E000D1708021D17083F31088002004B070BD26
:10B8F000683A0020000D0840054BB3F8843003F08F
:10B90000810313B90B700020704701230B70FAE715
:10B9100000E07F40062070470620704706207047F1
:10B92000062070470B46064A92E8030083E80300AE
:10B93000044A083392E8030083E8030000207047BC
:10B9400000D6000008D6000000230360436893F986
:10B950001130002B0CDB03F01F015B0901228A4030
:10B960002033104941F82320BFF34F8FBFF36F8F6F
:10B970000D4B00221A76436893F9133093420CDB87
:10B9800003F01F015B0901228A402033054941F879
:10B990002320BFF34F8FBFF36F8F0020024B18752A
:10B9A000704700BF00E100E000E07F408163026477
:10B9B000C36300207047FFFF10B4002380F83430C9
:10B9C000374C012384F81634236AC3F30262C3F3AD
:10B9D00002733449096801FA02F2DA40236AC3F3B8
:10B9E00002639940D940304B9A4255D902F57422EE
:10B9F00002F23F2204F1467404F5FF348334A4FBC1
:10BA00000232920C01F5742303F23F23A4FB0313CB
:10BA10009B0C02F5F0522549A1F8E42043F6B851F9
:10BA200001FB03F1224AA2FB01418908816040F633
:10BA3000D86101FB03F1A2FB01418908C1605900F3
:10BA4000A2FB014189080161542101FB03F1A2FB22
:10BA5000014189084161174901FB03F1A2FB014142
:10BA60008908816144F2506101FB03F1A2FB0141AD
:10BA700089084162104901FB03F1A2FB01418908D9
:10BA800001620E4901FB03F3A2FB03329208C2617B
:10BA900000205DF8044B70474FF4FB70F9E700BFDE
:10BAA00000E00140F43B0020FF083D0000E07F4043
:10BAB000ABAAAAAA38AF040080DE0F00A0F70300EB
:10BAC0002DE9F041044641600B78002B52D04B68C1
:10BAD0008363CB6803640026C663DFF8B0E001200F
:10BAE0008EF8180091F911300D7C2D01EDB2244A29
:10BAF000D71887F80053DFF898C04CF82340214D41
:10BB000003F1C00755F8278066F3104845F82780F1
:10BB100003F01F075B0900FA07F703F1600842F81A
:10BB2000287042F8237098238EF8143091F913305E
:10BB3000897C0901C9B2D71887F800134CF8234053
:10BB400003F1C00155F8217066F3104745F82170E4
:10BB500003F01F015B09884003F1600142F82100F6
:10BB600042F823002046FFF727FF08B9064B236061
:10BB7000BDE8F081054B00221A761A75F2E700BF86
:10BB800000E100E0006000404E45504F00E07F4083
:10BB90006C3A002008B5FFF70FFF08BD10B582B062
:10BBA00004460A46C36BA3B193E803000DF1080CE9
:10BBB0000CE903001A70226C5A60A26B1846904779
:10BBC000E36B23B102AA12E9030083E8030002B089
:10BBD00010BD6B46EEE7FFFF70B483B04FF49643A1
:10BBE000019343681A7862B393F91130214C03F141
:10BBF000C00254F822106FF3104144F8221003F0F1
:10BC00001F055B09012202FA05F51B4903F16006D5
:10BC100041F8265041F82350436893F9133003F15B
:10BC2000C00054F820506FF3104544F8205003F042
:10BC30001F005B09824003F1600041F8202041F8B9
:10BC400023200E4B4AF68022A3F884200B4BB3F836
:10BC500084309BB2802B05D0019B3BB1019B013B03
:10BC60000193F3E7002003B070BC70474FF4FA7003
:10BC7000F9E700BF0060004000E100E000E07F4025
:10BC800008B501F0E5FA08BD70B50546FFF7A4FF59
:10BC9000E0B96B681B78D3B1012385F834300646D0
:10BCA00032460421284601F0CBFA6B681B786BB949
:10BCB00018224FF4805101F0E3FA04462B6B0BB1CC
:10BCC0000028EDD001F0CCFA04B1204670BDEE683A
:10BCD000E6E7FFFF70B5054681620263FFF77CFF70
:10BCE00018BB06466B681B78EBB1022385F834302D
:10BCF0000F4B0122A3F8E02032464021284601F0F4
:10BD0000C7FA6B681B786BB919224FF4005101F028
:10BD1000B7FA04462B6B0BB10028EDD001F0A0FA66
:10BD200004B1204670BDEE68E2E74FF4FA70F9E71F
:10BD300000E07F40F8B507460C4616461D46FFF763
:10BD40004BFF10BB1D4B002283F8D0201C633444F2
:10BD5000013C5C63A3F5F03371221A70D0221A7093
:10BD60007B681B7863B97969B20802FB0112134939
:10BD7000D1F8801011F4004F09D13AB1013AF6E739
:10BD8000032387F8343002232B70F8BD14204FF4BE
:10BD9000FC72002101F074FA0446084B93F8D43089
:10BDA000DBB2012B07D000232B7001F059FA002CD5
:10BDB000EBD02046E9E72B70F7E700BF00E07F40BB
:10BDC00010B5B1F5C02F11D2002480F834401C709A
:10BDD0002046904208D20C5CFF2C01D10130F8E7DC
:10BDE00001221A70002000E0002010BDFFF7A2FF22
:10BDF000FBE708B55B0803638162C262002380F839
:10BE00003430B2F1006F02D201F052FA08BDFFF7F0
:10BE10003BFFFBE708B5002380F83430B1F1006F39
:10BE20000ED2B1F5803F06D221F4FF5121F01F015F
:10BE300001F036FA08BD21F4FF4121F07F01F7E758
:10BE400021F03F01FFF746FFF4E708B501F010FAD3
:10BE500008BDFFFF70B5EFF30384C4F30804103C82
:10BE600064B2164B53F82450154A137CD2F8802044
:10BE700013F0080F0BD1D9B211F0800F18D111F0C7
:10BE8000100F17D012F4405F16D0072600E00426EA
:10BE9000284601F0DDF90B4BC03453F824206FF332
:10BEA000104243F8242031462846FFF777FE70BD44
:10BEB0000526EDE70726EBE70626E9E76C3A0020C2
:10BEC00000E07F400060004038B5EFF30383C3F328
:10BED0000803103B5BB21E4A52F823401D4AC03390
:10BEE00052F823106FF3104142F8231094F83450A5
:10BEF000012D12D0022D1ED0174B93F8D430DBB297
:10BF0000012B22D0022501F0ABF9002384F8343054
:10BF100029462046FFF742FE38BD236B002BF2D0A6
:10BF200000220421204601F08BF90028F4D020469D
:10BF300001F08EF9F0E7236B0BB90025E3E700224F
:10BF40004021204601F0A4F9E6E70325DBE700BF26
:10BF50006C3A00200060004000E07F4006207047FF
:10BF60000620704790F90430044AC03352F8231079
:10BF70006FF3186142F82310002070470060004002
:10BF800090F90420114B53F8223000220A604A60D5
:10BF9000DA7812F0C00F11D04FF480728A60DA891B
:10BFA000D2B2CA60DA7802F0C002802A0CD14FF413
:10BFB00080320A609B899BB24B6005E04FF480326F
:10BFC0008A60DB899BB2CB600020704700000020B4
:10BFD000034690F904200849C03251F822006FF35B
:10BFE000186041F8220093F904100020034A42F837
:10BFF00021001860704700BF006000400000002072
:10C0000090F904300449C03351F8232042F0807283
:10C0100041F82320002070470060004010B582B036
:10C020000191009290F904202149C03251F8224038
:10C030006FF3186441F8224090F90420C03251F89F
:10C040002210C1F3080141F400411A4AD28992B288
:10C050008A42FAD0174A08211174019A32B190F934
:10C060000410154A52F8212001995160009A32B10A
:10C0700090F90410104A52F821200099916090F92B
:10C0800004100D4A52F82110CA7802F0C002802A2A
:10C0900002D012B9CB8100E08B81064B18221A74B2
:10C0A000FFF7AEFF08B902B010BD1320FBE700BFD9
:10C0B00000600040005400400000002008B5FFF779
:10C0C0009FFF08BD002109E0DA89D2B242EA0222CC
:10C0D000DA8101319B7813F0C00F06D000EB011319
:10C0E000DA7812F0C00FF4D0EEE7704738B50546A5
:10C0F0000C460846FFF7E6FF054B08221A7495F92F
:10C100000410044A42F8214018221A7038BD00BFBA
:10C11000005400400000002010B5044690F904309F
:10C120000F4AC03352F823006FF3186042F823001F
:10C1300094F90430C03352F82320C2F3080242F4C9
:10C140000042084BDB899BB29342FAD02046FFF7AE
:10C15000CDFF2046FFF754FF00B910BD1320FCE7C8
:10C16000006000400054004038B50F4B1B7803B10D
:10C1700038BD01240C4B1C70EFF3108184F3108840
:10C180000A4B1A6822F480021A601B6881F3108837
:10C19000074D4FF4C0720021284601F008F8054B06
:10C1A0005D611C73E4E700BFA82000200040084048
:10C1B000000000200054004038B505460C46FFF74B
:10C1C000D3FF636893F90030002B0EDB084A52F866
:10C1D00023200AB1082038BD2B7121682846FFF7BB
:10C1E00085FF044B2B600020F5E70B20F3E700BF31
:10C1F000000000200043544430B4034600209860FF
:10C200001A6892F9152002F01F055109012202FA5D
:10C2100005F51E4C203144F82150BFF34F8FBFF37A
:10C220006F8F196891F9161001F01F05490902FA7C
:10C2300005F5203144F82150BFF34F8FBFF36F8FC6
:10C24000196891F9171001F01F05490902FA05F55F
:10C25000203144F82150BFF34F8FBFF36F8F5968DF
:10C2600081F84C08C1F82C04EFF3108582F3108894
:10C2700007494C681B681B68C3F102039A402243BC
:10C280004A604B6885F3108830BC704700E100E0DD
:10C2900000400840062070474268B2F842389BB21E
:10C2A0000B6092F84E384B7392F84F380B7392F83C
:10C2B000503803F07F030B6183F07F0382F850381E
:10C2C00000207047C1614262036200207047FFFF97
:10C2D000037B5BB1022B06D0022B12D00023106827
:10C2E00020F0604007E010790028F5D11068094B74
:10C2F00003EA80400023527943EA827303430B60D0
:10C3000070471379012B01D00023E8E74FF0004379
:10C31000E5E700BF0000FC1FF8B5034617460268BA
:10C3200010695E68731893F82038DB091FD10D4639
:10C3300001F1200306EB03143A462146FFF7C8FF3C
:10C34000BA79A38862F30303A380B879A31D07F128
:10C350000C0204E012F8010B03F8010B0846411E21
:10C360000028F7D13544802385F82038F8BD4EF6F3
:10C370006320FBE7F0B58DB007460C46D0F820C02F
:10C38000BCF1000F22D001AD66460FCE0FC50FCE17
:10C390000FC596E8070085E8070065460FCC0FC576
:10C3A0000FCC0FC594E8070085E80700FB696046DD
:10C3B00098473C6A44B101AD0FCD0FC40FCD0FC4F7
:10C3C00095E8070084E807000DB0F0BD8C46EDE766
:10C3D0004268B2F840386FF38A23A2F84038B2F8C6
:10C3E000403861F30923A2F84038B2F8423803F428
:10C3F000E063B3EB012FF8D17047F8B504460D4662
:10C400004768437B93420AD1237BAB4206D0052D7C
:10C410000FD029462046FFF7DBFF2573F8BD1646EF
:10C420000221FFF7D5FF87F858686673022323734C
:10C43000EAE702212046FFF7CBFFB7F8403843F484
:10C440008063A7F84038B7F8423813F4806FFAD009
:10C45000E3E708B5FFF7D1FF002008BD2DE9F04163
:10C46000074688460D690E6806F58026A83636030D
:10C470004660EFF3108C012181F31088804A5468E4
:10C48000D8F80030C3F1020301FA03F324EA0303EE
:10C49000536053688CF31088C0F80080D8F80830D7
:10C4A000C361D8F80C304362002404622B78037611
:10C4B0002246FFF7A2FF2A7B2B7DDB0043EA4203E3
:10C4C00043F4E073A6F84038D8F804201368591EE6
:10C4D0006C4B03EA01435168013943EA01739168E7
:10C4E000013943EA0123D268013A43EA02333A7E32
:10C4F0001343C6F84438224602213846FFF77DFF31
:10C50000802386F850384FF400722146B01800F0AE
:10C510004EFE04E00023321982F8203801341F2C2B
:10C5200011D8AA6802EBC4029379002BF2D12969D1
:10C53000A142F0D904F1200106EB01112846FFF7D2
:10C54000C7FE4023E7E70023184608E003F58071A3
:10C5500046F8212099000F228A40104301332A69AE
:10C56000B3EB920F0DD26A6852F823206FF060414E
:10C570008A42F3D2297B0029E8D1434901EA824269
:10C58000E4E7C043C6F82804002211463846FFF706
:10C5900034FFB6F8403843F02003A6F84038B6F828
:10C5A000403813F0200FFAD198F9152098F814109C
:10C5B0000901C9B2354B981880F80013344D45F87D
:10C5C0002270344802F1C00150F821406FF310444A
:10C5D00040F8214002F01F045209012101FA04F43D
:10C5E00002F1600C43F82C4043F8224098F91620E1
:10C5F00098F814402401E4B203EB020C8CF80043D9
:10C6000045F8227002F1C00450F824C06FF3104CBA
:10C6100040F824C002F01F04520901FA04F402F1A8
:10C62000600C43F82C4043F8224098F9172098F802
:10C6300014402401E4B203EB020C8CF8004345F8EB
:10C64000227002F1C00450F824506FF3104540F8F6
:10C65000245002F01F005209814002F1600043F8AB
:10C66000201043F822103E2386F84C384FF0FF3359
:10C67000C6F82C34084BBB600020BDE8F08100BF39
:10C68000004008400000FF030000FC1F00E100E044
:10C690006C3A0020006000404E41435230B58DB0EE
:10C6A000EFF30383C3F30803103B5BB22F4AC0339D
:10C6B00052F823106FF3104142F82310EFF3038375
:10C6C000C3F30803103B5BB2294A52F823502C22D3
:10C6D000002101A800F06BFD6C6894F84D38ADF8AE
:10C6E0000830002284F84D28B4F8422812F0100FC8
:10C6F0003AD043F02003ADF8083094F85328D2B272
:10C70000022384F8533894F8523803F01F0384F856
:10C710005328E11891F820286FF3820281F820282D
:10C72000002205922A68126801926A6A06920493AE
:10C7300001A92846FFF71EFE2B681969B4F84228A4
:10C7400012F0100F0ED00A7D62B193F91530002B54
:10C7500008DB03F01F015B0901228A4040330549D1
:10C7600041F823200DB030BD0023D9E70060004020
:10C770006C3A002000E100E0F0B58DB0EFF30383E8
:10C78000C3F30803103B5BB2424AC03352F8231094
:10C790006FF3104142F82310EFF30384C4F308044D
:10C7A000103CE6B264B23C4B53F82400456895F85F
:10C7B0005328D2B2002385F8533895F8523803F045
:10C7C0001F0385F85328426803F1200C4FEA0C1C24
:10C7D00052F80C70C7F380718DF821100168096957
:10C7E000097B52F80CC041EADC7101F001018DF8BF
:10C7F000201011BBC7F38A47079703F1200102EB12
:10C8000001118988C1F3030701F00F018DF822702F
:10C81000082902D908218DF8221000219DF82270E4
:10C82000B9420ED202EB03170F4497F806C20CAFC1
:10C830000F4407F808CC0131F0E727F0604707976D
:10C84000DBE71A44442182F820180022099207AA43
:10C8500005924FF48062ADF80820049303681B68CA
:10C860000193436A069301A9FFF784FDB5F84238A6
:10C8700013F0010F0BD0002C09DB06F01F06640932
:10C88000012303FA06F64034044B43F824600DB04C
:10C89000F0BD00BF006000406C3A002000E100E005
:10C8A00030B58DB0EFF30383C3F30803103B5BB2E5
:10C8B000244AC03352F823106FF3104142F823107A
:10C8C000EFF30383C3F30803103B5BB21E4A52F835
:10C8D00023500023ADF808306C6894F85318C9B29F
:10C8E000012284F8532894F8522802F01F0284F899
:10C8F0005318A11881F8203881F8203804924FF499
:10C900000062ADF808202A68126801926A6A0692ED
:10C91000059301A92846FFF72DFDB4F8423813F01E
:10C92000020F0DD02B6893F91730002B08DB03F0B2
:10C930001F015B0901228A404033044941F823204A
:10C940000DB030BD006000406C3A002000E100E016
:10C95000C3688268013B9BB213808368F1221A721C
:10C96000002070478368F0221A720020704706206A
:10C9700070470161826143610020704781680A7AD3
:10C9800002F001020B7AC3F340039A42FAD100206D
:10C99000704710B50446FFF7F1FF10B9A368F02205
:10C9A0001A7210BD10B50446FFF7E8FF20B9E3681E
:10C9B000A268013B9BB2138010BD38B505460C46FA
:10C9C000FFF7DCFF40B9AB681B7AC3F34003237168
:10C9D000AB681B889BB2236038BDFFFF10B50446CF
:10C9E000FFF7CCFF10BBA368F4221A72A3680022E1
:10C9F0001A73636893F9123013F1210F14D0934224
:10CA00000CDB03F01F015B0901228A402033084937
:10CA100041F82320BFF34F8FBFF36F8F636893F903
:10CA20001220044B43F822400023236010BD00BFB6
:10CA300000E100E06C3A002070B4CA6915782B461A
:10CA40001679D47804F0070435B90A7AAAB182F0CD
:10CA500002031B01002202E0502D10D00A7A23436A
:10CA600081680E73816800248C738168DBB24B721D
:10CA70008168D3B28B7270BC70470022EFE700224E
:10CA8000EDE7FFFFC16043681A7C044B43F82210B6
:10CA900089B2013989B2836819807047AC200020BF
:10CAA00070B504460D460B7C03F5800303F56863FF
:10CAB0001B0283604160EFF31086012383F310882B
:10CAC0000B7C032B4ED82C480168032B4CD8C3F1A8
:10CAD000030201239340DB430B4003602B7C032BB9
:10CAE00048D8254B1B6886F31088A36800221A7269
:10CAF000A3681A7A12F0020FFAD100229A7229461C
:10CB00002046FFF799FF69682046FFF7BBFF95F9BC
:10CB10001230002B1DDB6A7C1201D2B21749C818F3
:10CB200080F80023164A42F82340164A03F1C00059
:10CB300052F820606FF3104642F8206003F01F00A7
:10CB40005B090122824003F1600041F8202041F896
:10CB500023206B692361AB69A361002060610A4BEC
:10CB6000236070BD0948AFE7C3F11302012393406E
:10CB7000DB43B1E7054BB5E70C40084000E100E0BE
:10CB80006C3A0020006000405447410010400840CB
:10CB900038B50446FFF7F2FE054630B963681B78E6
:10CBA000012B04D0A368F1221A72284638BDE1682F
:10CBB0002046FFF767FFF5E770B504460D46FFF71F
:10CBC000DDFE064608B1304670BD29462046FFF717
:10CBD00059FFF8E7437AC3F3021333F0030213D18A
:10CBE00010B419460C4A146AC4F30260C4F3022458
:10CBF0000A4A1268824022FA04F00BB183F0020163
:10CC0000C8405DF8044B7047817A01F007014FF48A
:10CC10000040C840704700BF00E00140F43B0020E6
:10CC200070B504460D46FFF7A9FE064618BBE3683B
:10CC3000AB606368DA691278502A16D1A068A0F553
:10CC400080701B7C013B0D4A52F823300BB96B609E
:10CC50000FE0FFF7BFFF63681B7C013B074A52F8F8
:10CC60002330B0FBF3F0686003E0A068FFF7B2FF89
:10CC7000686000232B70304670BD00BFAC200020E0
:10CC800030B585B0EFF30383C3F30803103B5BB209
:10CC9000204A03F1C00152F821006FF3104042F81E
:10CCA00021001D4A52F82340A1680A7AD2B21346E5
:10CCB00060680078012823D02269DAB1656935B34C
:10CCC00095E807000DF1100C0CE9070013F0200F98
:10CCD00001D000232B71A3692B6023692846984754
:10CCE000636923B104AA12E9070083E80700A36877
:10CCF0001B7ADBB2A26803F00F03137205B030BDDC
:10CD0000F4230B7202F0F003A2681372D4E701ADB2
:10CD1000DCE700BF006000406C3A0020064A92F851
:10CD20002610064B53F82130126AC2F30262D34038
:10CD3000034A1360704700BF00E001403C10002030
:10CD4000F43B002008B5084B084A1A60084A5A60AC
:10CD50004FF400429A600749D9601A61064A5A6145
:10CD6000FFF7DCFF08BD00BF3C100020002D3101A3
:10CD700000127A00001BB70000E1F50508B50A4B68
:10CD8000012283F81C2103F50053052283F8262095
:10CD9000064A1A62FFF7C2FF054BF1221A730022FE
:10CDA0001A72F0221A7308BD00C001401001011070
:10CDB0000020004008B5284B4AF20352A3F8FE2396
:10CDC000A3F500530122A3F80421244BB3F8043146
:10CDD0009BB2002BF9D10123204AA2F80031A2F521
:10CDE000A83293601360FFF7ADFF1B4B202283F83E
:10CDF0001324092283F8A22093F8803413B3164B2E
:10CE0000002283F8812483F8802483F83220124B97
:10CE100093F83C3013F0080FF9D00F4B43F2021295
:10CE20001A85002283F82A200B4B93F83C3013F02C
:10CE3000200FF9D0FFF7A2FF074B4FF42542A3F8CC
:10CE4000FE2308BD0121044B83F8801440F2C44046
:10CE500000F00CF8D3E700BF00E0014000C0014043
:10CE60007047A0F101000028FBD1704738B501FBE5
:10CE700000F11D4B1A681D48B0FBF2F04A01CB0EC1
:10CE8000521A63F100039C0044EA927495006A18F8
:10CE900044F10003DC0044EA5274D500012C08BFC1
:10CEA000002D06D2B5FBF0F0800808B1FFF7D9FFDE
:10CEB00038BD8000B1FBF0F25001D10E801A61F153
:10CEC00000018B0043EA90738400A01843F1000135
:10CED000CB0043EA5073C2001046012B08BF002A62
:10CEE000E3D34FF0FF30E1E7F43B002000CA9A3B68
:10CEF00008B5034B53F8203003B1984708BD00BF75
:10CF0000283A002038B50B4BB3F84051ADB200249D
:10CF100004E02046FFF7ECFF0134E4B20F2C05D803
:10CF200025FA04F313F0010FF6D0F2E7014BA3F852
:10CF3000305138BD0060004000B585B0032000F0DE
:10CF400087F8244B6FF0FF029A644FF0FF33019390
:10CF500002930393002300E001335F2B14D81E4A91
:10CF600032F81320002AF7D05A0903F01F000121DC
:10CF700001FA00F004A901EB820252F80C1C21EA2C
:10CF8000000142F80C1CE7E700230DE004AA02EBC5
:10CF9000830252F80C2C114941F8232003F1A00020
:10CFA0000F4941F820200133022BEFD9032000F074
:10CFB0001BF8002308E0084A32F8130003F1C0010F
:10CFC000084A42F8210001335F2BF4D905B05DF81F
:10CFD00004FB00BF00800040B8D400007080004017
:10CFE00000E100E000600040EFF31082012383F3D2
:10CFF0001088144B33F810309BB23BB1114931F813
:10D0000010309BB2013B9BB221F810300D4B33F82E
:10D0100010309BB293B910B40B49B1F8FE339BB2F8
:10D020000A4C34F8100043F4254323EA0003A1F826
:10D03000FE3382F310885DF8044B704782F310884A
:10D04000704700BFEC3B002000E00140BCD6000070
:10D0500010B4EFF31081012383F310880E4B33F8E3
:10D0600010309BB25BB90D4AB2F8FE339BB20C4C48
:10D0700034F81040234343F42543A2F8FE33064A14
:10D0800032F810309BB201339BB222F8103081F39A
:10D0900010885DF8044B7047EC3B002000E0014035
:10D0A000BCD60000BFF34F8F0549CA6802F4E062A6
:10D0B000044B1343CB60BFF34F8F00BFFDE700BFAE
:10D0C00000ED00E00400FA0508B500F003F8FDF7F4
:10D0D00029FEFEE738B5244B4FF47002C3F88820D0
:10D0E000224A9A600020FDF70FFEFFF763FE012041
:10D0F000FDF70AFE1E4B83F30A881E481E4A121AC9
:10D10000002100F054F81D481D4A121A1D4900F074
:10D1100041F81D4D1D4BED1AAD100024AC4205DA4F
:10D120001A4B53F8243098470134F7E7FFF7F6FD20
:10D130000320FFF78DFF002307E003F10801144AE5
:10D140004FF6FF7022F811000133082BF5D90320A8
:10D15000FFF74AFF0220FDF7D7FDFFF7EDFE0020A5
:10D16000FFF77EFE38BD00BF00ED00E0008000004C
:10D17000F83B002058100020F83B002080010020E0
:10D180003C100020C8D600003810002034100020C9
:10D19000000D08400A44431E914200D1704710B56B
:10D1A00011F8014B914203F8014FF9D110BD02442F
:10D1B0000346934200D1704703F8011BF9E710F8CA
:10D1C000012B11F8013B012A28BF9A42F7D0D01A4F
:10D1D0007047FFFF4275696C74207769746820524C
:10D1E000656E6573617320416476616E636564206A
:10D1F000466C657869626C6520536F6674776172FE
:10D2000065205061636B6167652076657273696F35
:10D210006E20332E362E3000332E362E3000000096
:10D2200000000603F8B500BFF8BC08BC9E46704776
:10D23000F8B500BFF8BC08BC9E467047FFFFFFFF73
:10D2400001B40248844601BC604700BF610300206E
:10D2500001B40248844601BC604700BF950200202B
:10D2600001B40248844601BC604700BF8101002030
:10D2700001B40248844601BC604700BF4906002053
:10D2800001B40248844601BC604700BFF10300209E
:10D2900001B40248844601BC604700BF150300206A
:10D2A00001B40248844601BC604700BFA7050020C6
:10D2B00001B40248844601BC604700BF71050020EC
:10D2C0002039002038D4000090D5000028390020F3
:10D2D000D8D2000070D6000000000000340F0020FB
:10D2E00041A3000000000000F0D200000200010293
:10D2F0000000000088200020440F002000000000F3
:10D300001800000000000000000000000000000005
:10D31000E43900201CD3000010D6000001000000FA
:10D320000DA200000000000000000000020502063F
:10D33000743900203CD3000078D50000000A0B0CA3
:10D340000D010101010000000100000008D40000EF
:10D3500020D400000D9E00000000000060D30000FB
:10D36000010000000000000300000000C839002098
:10D3700078D300008CD600000000000050C30000ED
:10D3800000000000A861000000030700D59E000017
:10D390000000000098D3000000000001000000FF22
:10D3A00058390020ACD300008CD6000000000000EB
:10D3B00050C3000000000000A86100000104080044
:10D3C000E99E000000000000CCD300000000000136
:10D3D000000000FFAC390020E0D300008CD6000034
:10D3E0000000000050C3000000000000A861000021
:10D3F00002050900FD9E00000000000000D40000AE
:10D4000000000001000000FF5039002014D400008B
:10D410004CD60000041000201CD400000BFFFFFFBE
:10D42000A43900202CD400004CD600001410002099
:10D4300034D400000AFFFFFF0F00000040D40000BA
:10D440000400000002000000040000000D000000C5
:10D45000040000000E000000040000000F000000A7
:10D460000000011002010000000001100301000093
:10D470000000010008010000000001060901000091
:10D48000000001060A010000000001060B01000077
:10D49000050000000C010000040000000102000073
:10D4A000040000000602000000000100000300006C
:10D4B0000400000002030000A100A400A500A200D7
:10D4C000A30031003000400043004600C401C50104
:10D4D000C801C701000000000000000000000000BB
:10D4E000000000000000000000000000000000003C
:10D4F000000000000000000000000000000000002C
:10D50000000000000000000000000000000000001B
:10D51000000000000000000000000000000000000B
:10D5200000000000000000000000000000000000FB
:10D5300000000000000000000000000000000000EB
:10D5400000000000000000000000000000000000DB
:10D5500000000000000000000000000000000000CB
:10D5600000000000000000000000000000000000BB
:10D57000000000000000000091B00000C5B20000F3
:10D58000DBB20000EFB200002FAD000039AD0000AB
:10D5900059B80000A5B500006DB8000079B80000CA
:10D5A00061B60000E9B60000ADB60000ADB5000000
:10D5B000FBB5000023B6000049B600008FB600009E
:10D5C000C9B50000DDB50000020403040404FFFF38
:10D5D00000000000FFFF00000020000080000000AD
:10D5E00000000100FFFF0500008000008000000037
:10D5F00000000008FF1F00084000000004000000B9
:10D6000002000000D0D5000001000000F0D50000AD
:10D61000C1BA0000F3BD000015BE0000C1BD00008E
:10D6200025B9000049B90000F9B8000019B9000097
:10D630001DB9000015B9000081BC000095BB0000B9
:10D640004BBE000021B90000ADB90000B9C1000017
:10D6500019C100001DC00000BDC0000065BF000072
:10D660005DBF000061BF000081BF0000D1BF0000AE
:10D670005DC4000019C3000095C20000F9C100009C
:10D6800053C4000099C20000C5C20000A1CA000036
:10D6900091CB000093C90000A5C9000051C900004A
:10D6A00065C90000B9CB00006FC9000021CC0000A3
:10D6B000BBC9000073C90000DDC900000100020001
:08D6C00008001000000000004A
:10D6C8001D4BB3F8841089B24FF42A42A3F8842082
:10D6D8004FF49642002000E0013A174BB3F884302B
:10D6E8009BB223B1002AF7D14FF4FA70F4E701296D
:10D6F80002D0802918D070470F4B4DF60112A3F8BD
:10D7080044200E4B0122A3F804210C4BB3F804313A
:10D718009BB2002BF9D10123084AA2F80031A2F5E7
:10D72800A832936013607047054B01225A60044B7E
:10D738005B68002BFBD1DEE700E07F4000C00140C2
:10D748000070004082B04FF4964301930D4BB32212
:10D758001A700D4BD3F8803013F4004F05D1019B9C
:10D7680053B1019B013B0193F3E7074B1B7C13F07B
:10D77800100F04D1002000E0142002B0704740F2DE
:10D78800F510FAE700007E4000E07F4082B04FF4D9
:10D79800964301930D4B50221A700D4BD3F88030ED
:10D7A80013F4004F05D1019B53B1019B013B019339
:10D7B800F3E7074B1B7C13F0100F04D1002000E0A7
:10D7C800142002B0704740F2F510FAE700007E40DE
:10D7D80000E07F4070B5044643681A78EAB193F9CF
:10D7E800113003F01F015B09012202FA01F1174809
:10D7F800203340F82310BFF34F8FBFF36F8F636858
:10D8080093F9133003F01F015B098A40203340F875
:10D818002320BFF34F8FBFF36F8F0D4BB3F88430C6
:10D828009BB27BB1FFF78EFF0646FFF7AFFF0546B9
:10D8380006B13546FFF744FF05B12846002384F8B2
:10D84800343070BD204600F003FAEBE700E100E059
:10D8580000E07F4010B4846A0F4B1C630F4C2023F8
:10D868002370D0232370836A0B448362036B013BCC
:10D878000363104612B95DF8044B7047064BD3F8A2
:10D88800803013F4004F02D118B10138F6E70020B8
:10D89800F1E71420EFE700BF00E07F4000007E4082
:10D8A80030B482B0C46A204B1C63A3F5F033E8247B
:10D8B8001C704D08C1F3470119700024A5421FD9F7
:10D8C80003690193836A1988184B1980164BD3F89A
:10D8D800803013F4806F08D0019B591E0191002BF2
:10D8E800F4D1142002B030BC7047836A02338362DB
:10D8F800C36A0233C362036B013B03630134DDE790
:10D908000A4BD02119700AB91046EBE7064BD3F839
:10D91800803013F4004F02D11AB1013AF6E7002023
:10D92800E0E71420DEE700BF00E07F4000007E4013
:10D9380010B50446114B1B7C13F0100F0BD10020BF
:10D948000E4BD3F880300B4200D1024604B914467E
:10D958008CB9204610BD094BD3F8803013F4804FA2
:10D9680002D140F2F510EBE7044B187C0020187444
:10D9780040F2F510E4E7FFF7E5FEEAE700E07F4054
:10D9880082B083690193134B1963A3F5F0334022E6
:10D998001A7008221A70002305E00F4A32F8131093
:10D9A8000E4A11800133072BF7D90C4BD0221A707D
:10D9B800084BD3F8803013F4004F05D1019B33B1E5
:10D9C800019B013B0193F3E7002002B0704714204C
:10D9D800FBE700BF00E07F402410002000007E40ED
:10D9E80010B40C4B4FF6FF741C805C80C00380B2EF
:10D9F800104380B240F4F040D8806FEA41516FEA9A
:10DA0800515199801C815C819C81DC815DF8044BBB
:10DA1800704700BF2410002010B483B04FF4964321
:10DA28000193204B00221A6043681A78EAB193F9EF
:10DA3800113003F01F015B09012202FA01F11A4CAF
:10DA4800203344F82310BFF34F8FBFF36F8F436821
:10DA580093F9133003F01F015B098A40203344F81F
:10DA68002320BFF34F8FBFF36F8F104B4FF45942F2
:10DA7800A3F844204AF60122A3F884200B4BB3F8FC
:10DA880084309BB2012B05D0019B43B1019B013B24
:10DA98000193F3E7002003B05DF8044B70474FF49F
:10DAA800FA70F8E70070004000E100E000E07F4015
:10DAB80038B50546FFF7B0FF044690B92B6B63B144
:10DAC8005CB9AA6880212846FFF7EAFE18224FF4BD
