:020000040800F2
:10000000008000205D330008D5060008D7060008F0
:10001000D9060008DB060008DD0600080000000025
:10002000000000000000000000000000DF060008E3
:10003000E106000800000000E3060008E5060008ED
:10004000AD330008AD330008AD330008AD33000810
:10005000AD330008AD330008AD330008AD33000800
:10006000AD330008AD330008AD330008ED060008DD
:10007000AD330008AD330008AD330008AD330008E0
:10008000AD33000800000000AD330008AD330008B8
:10009000AD330008FD060008AD330008AD3300089D
:1000A000AD330008AD330008AD330008AD330008B0
:1000B000AD33000845280008AD330008AD33000813
:1000C000AD330008AD330008AD330008AD33000890
:1000D000AD330008AD330008AD330008AD33000880
:1000E000AD330008AD330008AD330008AD33000870
:1000F00055260008AD330008AD33000800000000AD
:1001000000000000AD33000800000000AD3300081F
:10011000AD33000800000000AD330008AD33000827
:10012000AD330008AD330008AD330008AD3300082F
:10013000AD3300080000000000000000AD330008EF
:10014000AD330008AD3300080000000000000000DF
:10015000000000000000000000000000000000009F
:10016000000000000000000000000000AD330008A7
:10017000AD33000800000000000000000000000097
:1001800000000000AD330008000000000000000087
:10019000000000000000000000000000000000005F
:1001A0000000000000000000AD330008AD3300087F
:1001B000AD330008AD330008AD3300080000000087
:1001C00000000000AD330008000000000000000047
:0801D000AD330008AD33000857
:1001D80010B5054C237833B9044B13B10448AFF379
:1001E80000800123237010BDF80C002000000000DF
:1001F8006448000808B5034B1BB103490348AFF333
:10020800008008BD00000000FC0C002064480008C5
:10021800F0B58FB000230B930C930D9305930693C1
:100228000793089309930A9303F1804303F5043372
:10023800DA6C42F00402DA64DA6C02F00402049226
:10024800049ADA6C42F02002DA64DA6C02F02002D6
:100258000392039ADA6C42F00102DA64DA6C02F073
:1002680001020292029ADA6C42F00202DA64DB6C52
:1002780003F002030193019B4FF090434FF40042B7
:100288009A6203F5806308229A6210229A622022F9
:100298009A62454B5A6922F0F002F02393FAA3F3CD
:1002A800002B7AD0B3FA83F303F01F03022101FA7B
:1002B80003F313433C4A53614FF400540B94012356
:1002C8008DF8343000238DF8353003238DF836301F
:1002D8000BA800F059FA354BDB6894FAA4F4002C0B
:1002E8005DD0B4FA84F46400032202FA04F423EA29
:1002F80004044FF4005393FAA3F22C4AD460126812
:1003080093FAA3F3002B4CD0B3FA83F35B000326D4
:1003180006FA03F322EA03034FF4005292FAA2F218
:10032800224A136001250595069600240994204F5A
:1003380005A9384600F07CFB4FF400430593069569
:1003480007960894099405A94FF0904000F070FBB7
:1003580008230593069507960894099405A9384635
:1003680000F066FB102305930695079608940994F8
:1003780005A9384600F05CFB2023059306950794F1
:100388000894099405A9384600F052FB094BDB682C
:10039800094B83F828430FB0F0BD202384E72024BD
:1003A800A1E72023B2E700BF000001400008004891
:1003B8000004004800ED00E000E100E010B5184B33
:1003C8004FF48072C3F88420BFF34F8FBFF36F8F51
:1003D80000F0C0F9134800F0A7FA134C204600F0CB
:1003E800A3FA4FF0904000F09FFA204600F09CFAE4
:1003F800204600F099FA204600F096FA0B4BDA6C8A
:1004080022F00402DA64DA6C22F02002DA64DA6C90
:1004180022F00102DA64DA6C22F00202DA6410BD1A
:1004280000E100E000080048000400480010024015
:1004380008B50F480F4B0360002242608260C2601B
:1004480001230374437482741421416183610C2174
:10045800C1610221016243628362C3620363436331
:100468008263C26301F066F808B172B6FEE708BDA0
:10047800740D00200064004000B589B00023039388
:10048800049305930693079302681B4B9A4202D084
:1004980009B05DF804FB03F5D633D3F8882022F0C1
:1004A800407242F00072C3F888209A6D42F00072E0
:1004B8009A659A6D02F000720192019ADA6C42F024
:1004C8000102DA64DB6C03F001030293029B4FF430
:1004D800C0530393022304930923079303A94FF0FE
:1004E800904000F051FD00221146152000F040FF19
:1004F800152000F075FFCBE70064004008B50268DE
:10050800094B9A4200D008BD084A936D23F0007346
:1005180093654FF4C0514FF0904000F01FFE152036
:1005280000F06CFFEFE700BF0064004000100240DD
:1005380008B5034801F098F908B172B6FEE708BD9E
:10054800740D002010B586B0002301930293039325
:10055800049305931A4A916D41F002019165926DD9
:1005680002F002020092009A164AD268164A82F8ED
:100578001D334FF00051116040F2DB52ADF80420FA
:10058800029342F2107203920493104C01A9204680
:1005980001F040FC236823F080032360A36823F460
:1005A800A03323F00703A360636823F0007323F0EC
:1005B80070036360A36823F08003A36006B010BDD6
:1005C8000010024000ED00E000E100E000040040FF
:1005D80010B586B000230193029303930493059307
:1005E8001C4A116E41F400511166126E02F4005259
:1005F8000092009A184AD268184A82F82C334FF4AD
:10060800805151609622ADF8042002934FF47A721B
:10061800039204930593124C01A9204601F0FAFBBA
:10062800236823F080032360A36823F4A03323F016
:100638000703A360636823F0007323F0700363600B
:10064800636823F470036360A36823F08003A360E6
:1006580006B010BD0010024000ED00E000E100E02F
:100668000034014008B50A4801F028FB094B4FF453
:100678008052C3F88420BFF34F8FBFF36F8F02F10E
:10068800804202F50032136E23F40053136608BD4E
:100698000034014000E100E008B50A4801F00EFB13
:1006A800094B4FF00052C3F88020BFF34F8FBFF3C0
:1006B8006F8F02F1005202F50432936D23F00203AA
:1006C800936508BD0004004000E100E0FEE7FEE796
:1006D800FEE7FEE7FEE770477047704708B501F090
:1006E800A9FF08BD08B5024800F0C6FD08BD00BF57
:1006F800140D002008B5024801F013FA08BD00BF28
:10070800740D002000B583B00E4B1A6E42F0010242
:100718001A661A6E02F001020092009A9A6D42F06F
:1007280080529A659B6D03F080530193019B00F002
:100738009DFA022000F090FA00F000FE03B05DF888
:1007480004FB00BF00100240014B1860704700BF57
:1007580028000020094B0A4A1A6000205860986057
:10076800D8601861074A5A6134221A62586298623E
:10077800D862186378225A63704700BF00040140AA
:100788000000841FFFFF7D000346027A002A00F064
:10079800B18010B4006800283FD05A7A012A1DD0D1
:1007A800022A26D062B101209A7A002A35D0022A7C
:1007B8003FD0032A48D0012A25D040F002002CE07F
:1007C80002F1804202F58232516821EA000050604D
:1007D80019681068014311600020E5E7514A116863
:1007E80021EA000010601968506801435160002038
:1007F800DAE74C4A116808431060196850680143E9
:1008080051600020D0E71C68464AD16821EA0401FB
:10081800D16019689468214391605A68002A51D0C0
:10082800597A012931D0022939D0B9B140F00400F0
:1008380020E01C683B4A916821EA0401916019682C
:10084800D4682143D160E8E71968364A946821439F
:1008580091601968D4682143D160DEE701F18041D5
:1008680001F582314C6A24EA02024A625A680C6A2B
:1008780022430A629A7A2AB3022A26D0032A2FD060
:10088800012A15D040F005001CE026490C6A24EA2C
:1008980002020A625A684C6A22434A62EAE721491C
:1008A8000C6A22430A625A684C6A22434A62E1E7A8
:1008B8005C681C4AD16A21EA0401D1625B68916ACA
:1008C8000B4393625DF8044B70475C68154A916A64
:1008D80021EA040191625B68D16A0B43D362F1E7B4
:1008E8005968104A946A214391625B68D16A0B4344
:1008F800D362E7E700680B4A116821EA000111603A
:100908001868516821EA000151605868116A21EAA3
:10091800000111625968536A23EA010353620020F7
:10092800704700BF00040140B0F1904F13D0394B1D
:1009380098421BD0384B984226D0384B984231D039
:10094800374B98423CD0374B984247D0364B984269
:1009580052D001207047354BDA6A42F00102DA6260
:10096800DA6A22F00102DA620020704703F1784364
:1009780003F50333DA6A42F00202DA62DA6A22F035
:100988000202DA620020704703F1784303F502336C
:10099800DA6A42F00402DA62DA6A22F00402DA62FF
:1009A8000020704703F1784303F50133DA6A42F017
:1009B8000802DA62DA6A22F00802DA620020704776
:1009C80003F1784303F50033DA6A42F01002DA6281
:1009D800DA6A22F01002DA620020704703F17843E5
:1009E80003F5FE33DA6A42F02002DA62DA6A22F0AC
:1009F8002002DA620020704703F1F82303F5803300
:100A0800DA6A42F04002DA62DA6A22F04002DA6216
:100A1800002070470004004800080048000C004807
:100A28000010004800140048001800480010024058
:100A3800F0B40A6892FAA2F212B1B2FA82F24EE067
:100A480020224CE08E68856893FAA3F4E4B1B4FAE6
:100A580084F464004FF0030C0CFA04F425EA04054E
:100A680093FAA3F494B1B4FA84F4640006FA04F493
:100A78002C4384600D68CE68446824EA050406FBAC
:100A880005F52C43446039E02024E2E72024ECE714
:100A980020243BE0202446E0202456E02024A40023
:100AA80006FA04F42C4304624E68056893FAA3F42A
:100AB800002C75D0B4FA84F464004FF0030C0CFADF
:100AC80004F425EA040493FAA3F3002B6AD0B3FADA
:100AD80083F35B0006FA03F32343036001320B68D8
:100AE80033FA02F460D04FF0010C0CFA02FC1CEA55
:100AF8000303F3D04C68013C012CA3D90E69C568E7
:100B080093FAA3F4002CC3D0B4FA84F464004FF031
:100B1800030C0CFA04F425EA040593FAA3F4002C58
:100B2800B8D0B4FA84F4640006FA04F42C43C46020
:100B38004C68022CB8D1FF2B14D84E69056A93FA79
:100B4800A3F4002CA8D0B4FA84F4A4000F2707FA61
:100B580004F425EA040593FAA3F4002C9ED0B4FA11
:100B680084F49CE74F69466A1C0A94FAA4F59DB17F
:100B7800B5FA85F5AD004FF00F0C0CFA05F526EA2D
:100B8800050594FAA4F44CB1B4FA84F4A40007FA65
:100B980004F42C43446287E72025EBE72024F5E79B
:100BA800202489E7202394E70020F0BC7047704791
:100BB80010B5094B4FF0FF329A6300249C631A6406
:100BC8001C649A629C62DA62DC621A631C63FFF737
:100BD800EEFF204610BD00BF00100240104B1B68FE
:100BE8000BB90120704710B504464FF47A70B0FB7A
:100BF800F3F30C4A1068B0FBF3F000F011FC68B98D
:100C08000F2C01D901200AE0002221464FF0FF30C5
:100C180000F0AEFB044B1C60002000E0012010BD7A
:100C280000000020280000200400002010B5032048
:100C380000F08CFB0F20FFF7D1FF10B101242046F4
:100C480010BD0446FFF75EFDF9E70000014B186888
:100C5800704700BFD80D0020034A136B23F002032E
:100C680003431363704700BF00000140024A136B3F
:100C780023F00103136370470000014010B4064CD1
:100C8800616941F0010161610260BFF36F8F4360E8
:100C98005DF8044B704700BF00200240094A5369C1
:100CA80043F480235361EFF3108C72B6402351F85C
:100CB800042B40F8042B013B13F0FF03F7D18CF30E
:100CC8001088704700200240094B5B69002B01DB4C
:100CD80000207047064B074A9A6002F188329A60F2
:100CE8005B69002B01DB002070470120704700BFC3
:100CF8000020024023016745054B5A6942F0004233
:100D08005A615B69002B01DB0120704700207047A6
:100D18000020024038B50546FFF798FF0446134BFC
:100D28001B6913F4803F06D0FFF790FF001BA84211
:100D3800F5D9032038BD0D4B1B694CF2FA3213402C
:100D480009D10A4B1B6913F0010F0CD0074B012284
:100D58001A610020EEE706494A681A434A60034AC6
:100D680013610120E6E70020E4E700BF002002400D
:100D780008000020F8B516461B4A1278012A31D01F
:100D880004460D461F46184B01221A704FF47A701C
:100D9800FFF7C0FF80B9144B58608CB1631E012B5C
:100DA80015D900244FF47A70FFF7B4FF24B10F4A25
:100DB800536923EA040454610B4B00221A70F8BDEE
:100DC80032463B462846FFF759FF0124EAE73146F9
:100DD8002846FFF763FF022C01D00024E2E74FF416
:100DE8008024DFE70220EAE7080000200020024014
:100DF80010F0010F04D0054A536943F0040353610E
:100E0800024A536943F4803353617047002002401B
:100E1800084B5A6922F4FC72C00000F4FF600243D8
:100E28005A615A6942F002025A615A6942F48032A0
:100E38005A61704700200240164B1B7FDBB2012B22
:100E480001D0032B10D1144A116821F400711160EC
:100E5800116841F400611160116821F400611160AA
:100E6800116841F400711160023BDBB2012B03D918
:100E7800084B00221A777047074B1A6842F48052D1
:100E88001A601A6822F480521A601A6842F4806262
:100E98001A60EDE70800002000200240F8B5384B42
:100EA8001B78012B69D004460E46354B01221A7077
:100EB8004FF47A70FFF72EFF0746002858D1304BC1
:100EC80000225A602F4B1B6813F4007F2DD02D4B46
:100ED8001B6813F4806F24D02A4A136823F48063B4
:100EE8001360274B03221A772368012B2FD04FF06A
:100EF800FF333360A568A368E2681344AB4235D971
:100F080061682846FFF784FF4FF47A70FFF702FF05
:100F18001C4A536923F4FD735361074628BB013506
:100F2800E9E7174B01221A77DEE7164B1B6813F423
:100F3800806F08D0134A136823F480631360104B42
:100F480002221A77D0E70E4B00221A77CCE76068A6
:100F5800FFF74EFF4FF47A70FFF7DCFE0746094AA9
:100F6800536923F00403536100E03560FFF764FF21
:100F7800034B00221A703846F8BD0227FBE700BF72
:100F88000800002000200240F0B583B0002362E092
:100F980085685E000324B44025EA0405CC68B440A3
:100FA8002C438460446824EA0C0C4C68C4F3001495
:100FB8009C4044EA0C0444605EE0DD08083550F8C3
:100FC800256003F007044FEA840C0F2404FA0CF49C
:100FD80026EA040E0C6904FA0CF444EA0E0440F8FC
:100FE800254060E0052400E0002404FA0EF42C43B8
:100FF8000CF1020C554D45F82C40554CA568D443CE
:1010080025EA02064F6817F4801F01D042EA050658
:101018004F4DAE60ED6804EA05064F6817F4001FEF
:1010280001D042EA05064A4DEE606D6804EA0506FD
:101038004F6817F4003F01D042EA0506444D6E6040
:101048002D682C404E6816F4803F01D042EA050412
:101058003F4A146001330A6832FA03F474D04FF03F
:10106800010C0CFA03FC1CEA0202F3D04C6804F0F1
:101078000304013C012C8BD94C6804F00304032CB5
:101088000CD0C4685D004FF0030C0CFA05FC24EA90
:101098000C0C8C68AC4044EA0C04C4604C6804F046
:1010A8000304022C89D004684FEA430E4FF0030C66
:1010B8000CFA0EFC24EA0C0C4C6804F0030404FA45
:1010C8000EF444EA0C0404604C6814F4403FC1D0A8
:1010D800204C256E45F001052566246E04F00104B8
:1010E8000194019C4FEA930C0CF10205174C54F83B
:1010F800255003F003044FEA840E0F2404FA0EF47B
:1011080025EA0405B0F1904F3FF46EAF124CA042AF
:1011180012D004F58064A04210D004F58064A04287
:101128000ED004F58064A0420CD004F58064A0427F
:101138003FF458AF062458E7012456E7022454E741
:10114800032452E7042450E703B0F0BD0000014037
:10115800000401400010024000040048002331FA56
:1011680003F200F08180F0B52EE0052500E00025AF
:1011780005FA0CFCA4455BD004685D004FF0030C35
:101188000CFA05FC44EA0C0404604FEAD30E0EF195
:10119800080E50F82E4003F00705AE000F25B540A5
:1011A80024EA050440F82E40C46824EA0C04C4600C
:1011B800446824EA02024260826822EA0C028260E1
:1011C800013331FA03F24ED001229A4012EA0107A4
:1011D800F6D04FEA930E0EF10205244C54F8254040
:1011E80003F0030C4FEA8C0C0F2505FA0CF634407B
:1011F800B0F1904FBBD01E4DA84211D005F58065C7
:10120800A8420FD005F58065A8420DD005F5806588
:10121800A8420BD005F58065A842A6D00625A7E709
:101228000125A5E70225A3E70325A1E704259FE7F4
:10123800104C256825EA07052560656825EA070535
:101248006560E56825EA0705E560A56825EA0707FA
:10125800A760064F0EF1020457F8245025EA060548
:1012680047F8245088E7F0BD704700BF00000140F0
:10127800000400480004014038B5036C196804688C
:101288002568436C03F01F0304229A400A4215D0D4
:1012980015F0040F12D0236813F0200F03D1236830
:1012A80023F004032360436C03F01F02016C042342
:1012B80093404B60036B03B1984738BD02229A40B4
:1012C8000A421CD015F0020F19D0236813F0200F22
:1012D80006D1236823F00A032360012380F8253010
:1012E800436C03F01F02016C022393404B60002300
:1012F80080F82430C36A002BDFD09847DDE7082246
:1013080002FA03F30B42D8D015F0080FD5D02368A2
:1013180023F00E032360436C03F01F03016C0122CA
:1013280002FA03F34B60C26380F82520002380F89B
:101338002430436B002BC0D09847BEE7024A93681D
:1013480043F480439360704700700040074AD368B5
:1013580023F4E0631B041B0C000200F4E060034369
:1013680043F0BF6343F40033D360704700ED00E0FF
:1013780000B5194BDB68C3F30223C3F1070CBCF1BA
:10138800040F28BF4FF0040C03F1040EBEF1060F42
:1013980018D9033B4FF0FF3E0EFA0CFC21EA0C0172
:1013A80099400EFA03F322EA0303194300280BDBE2
:1013B8000901C9B200F1604000F5614080F80013EE
:1013C8005DF804FB0023E5E700F00F000901C9B24E
:1013D800024B1954F4E700BF00ED00E014ED00E003
:1013E800002807DB00F01F02400901239340024A4E
:1013F80042F82030704700BF00E100E000280CDB15
:1014080000F01F024009012393402030034A42F8AC
:101418002030BFF34F8FBFF36F8F704700E100E0BC
:101428000138B0F1807F0BD24FF0E0235861054AB4
:10143800F02182F823100020986107221A61704772
:101448000120704700ED00E010B4154B03640168FB
:10145800D1F8802022F4F812446B42EA0442C1F821
:101468008020104A42640168D1F8802022F070621E
:10147800846B42EA0462C1F880200B4A8264D83245
:10148800C264D83202651832426502E0002243F88D
:10149800042B064A9342F9D95DF8044B704700BF04
:1014A80000A4004070A40040B0A400404FA7004032
:1014B80070B54C68E4B90D698C6825430C6845EA39
:1014C8008445CC690E6A44EA06648E6934434E69E1
:1014D8003443CE683443406D03EBC30300EBC30EC3
:1014E80040F83350CEF804400EF1080E002019E001
:1014F8000C698D6825430C68254345F08045E0E775
:1015080002EB000C9CF803409CF802301B0443EAF1
:1015180004639CF8014043EA0423145C23434EF817
:10152800043B0430CB89024CE35C8342E8D870BDAD
:101538007C480008002800F0E38038B5044690F89D
:101548005C30D3B12268936923F010039361FFF7ED
:101558007DFB054623689A6912F0080F12D0FFF741
:1015680075FB401B0A28F5D9236E43F00103236657
:10157800032384F85C30012038BD80F85D30FEF725
:101588007BFFDFE79A6942F001029A61FFF75EFB91
:10159800054623689A6912F0010F0DD1FFF756FB33
:1015A800401B0A28F5D9236E43F001032366032361
:1015B80084F85C300120DFE79A6942F002029A6100
:1015C8002268504B9A4242D0237C012B45D0226896
:1015D800936943F040039361637C012B43D02268F5
:1015E800936923F480439361A37C012B41D0226843
:1015F800936943F4805393612268936923F4407399
:10160800A1680B4393612268936923F0A403936153
:101618002268136923F010031361E368012B2ED0AD
:10162800002B31D0022B54D02268936943F08003F9
:1016380093612268136943F010031361E368032B75
:1016480022D12268936943F0200393611CE0626809
:10165800A3F58063C3F80025B6E72268936923F0F1
:1016680040039361B8E72268936943F48043936128
:10167800BAE72268936923F480539361BCE7226830
:10168800936943F004039361A3695A1EE369013B1C
:101698001B0243EA4263226A013A13436269013A30
:1016A800216843EA0243CB61A368B3F5407F16D0B3
:1016B8002268D2F8C030E16B0B43C2F8C030204634
:1016C800FFF7C2FE0020A0652066012384F85C3085
:1016D80052E72268936943F020039361D4E7A36A31
:1016E800013BE26A013A43EA0223226B013A43EAE8
:1016F8000213626A013A216843EA0243CB60D7E7E2
:10170800012070470064004090F85C30013BDBB278
:10171800012B05D9036E43F00203036601207047CD
:101728000B68A3B110B4CA680B6943EA42724B69EB
:101738008C6843EA8473406C496800EBC10C40F83C
:101748003120CCF8043000205DF8044B70478A68DB
:10175800CB68DB0643EA82730A6943EA02434A69B3
:101768001343026C496842F821300020704790F812
:101778005CC05FFA8CFCBCF1010F05D0036E43F02E
:10178800040303660120704710B40468D4F880008D
:1017980020F03F00920042EA011242EA4302019B14
:1017A8001A430243C4F8802000205DF8044B7047B8
:1017B80090F85C30DBB2012B05D0036E43F00403D4
:1017C800036601207047022380F85C300268936941
:1017D80023F001039361002303661846704790F8CD
:1017E8005C30DBB2022B39D10268936943F0010304
:1017F800936100230268916911F0010F0CD10A2B43
:1018080001D80133F6E7036E43F0010303660323AF
:1018180080F85C3001207047936923F010039361CE
:1018280000230268916911F0080F0CD00A2B01D827
:101838000133F6E7036E43F001030366032380F8E0
:101848005C3001207047936943F0020393610023E1
:101858008365012280F85C2018467047036E43F0C8
:10186800080303660120704780B110B50446FFF7EE
:10187800B6FF2268D36D23F00303D3652046FEF735
:101888003DFE0020206684F85C0010BD01207047F2
:1018980038B5044690F85C30DBB2022B1BD10368E4
:1018A800D3F8C40010F4001F05D0236E43F400736E
:1018B8002366012014E0D3F8C450C5F301452B4634
:1018C8002046FFF7F5FD22680123AB40C2F8CC3073
:1018D800A365002004E0036E43F0080303660120BB
:1018E80038BD000070B590F85C40E4B2022C7DD1A0
:1018F80040290BD00468D4F8985015F00F0F1BD16D
:10190800036E43F480730366012074E00468D4F81E
:10191800905015F00F0F05D1036E43F480730366E2
:10192800012068E0D4F89060C6F30126846C06EBC9
:10193800C60C04EBCC0C08E0D4F89860C6F301267A
:10194800C46C06EBC60C04EBCC0CDCF8004004F0CD
:101958008044546074BBDCF80040C4F38A441460CB
:10196800DCF8004004F000549460DCF8004004F017
:1019780000441461BCF80440D461DCF8044004F469
:101988007024D460DCF8044004F480145461DCF85A
:10199800044004F4001494619CF8074004F07F04A8
:1019A8001462DCF80440E40F54620CF1080E4FF0A6
:1019B800000C0BE0DCF8004024F060441460CFE732
:1019C8001EF80C4003F80C400CF1010CD4890A4DA8
:1019D8002C5D6445F4D8402904D00368C3F89C60A2
:1019E800002008E00368C3F89460F9E7036E43F049
:1019F80008030366012070BD7C4800080368D3F81B
:101A0800C40000F00700704790F85C30013BDBB27F
:101A1800012B05D9036E43F00203036601207047CA
:101A280070B40468A36D11F0070602D013F0010F1B
:101A380023D011F0380F02D013F0020F1DD011F48B
:101A4800E07F02D013F0040F17D011F4F05F02D03A
:101A580013F0080F11D011F4604F02D013F0100FDB
:101A68000BD011F4403F02D013F0200F05D011F431
:101A78007C0F06D013F0400F03D1E56D45F001054A
:101A8800E56516B113F0010F23D111F0380F02D01C
:101A980013F0020F1DD111F4E07F02D013F0040FF0
:101AA80017D111F4F05F02D013F0080F11D111F41F
:101AB800604F02D013F0100F0BD111F4403F02D049
:101AC80013F0200F05D111F47C0F07D013F0400F4D
:101AD80004D00468E36D43F00203E36511F0800F5E
:101AE80005D00468D4F8DC301343C4F8DC3011F4B2
:101AF800807F05D00468D4F8E0301A43C4F8E020A9
:101B08000268536D19435165002070BC70477047D7
:101B18007047704770477047704770477047704705
:101B280070472DE9F843044603681A6D02F4E0593A
:101B38005A6D09EA02091A6D02F007085A6D08EA97
:101B480002081F6D07F038075A6D17401D6D05F420
:101B580071055A6D15401E6D06F460265A6D1640C3
:101B68001A6D12F0400F03D05A6D12F0400F51D188
:101B780023681A6D12F4807F03D05A6D12F4807FA7
:101B88004DD1B9F1000F56D1B8F1000F5BD1002F3C
:101B980061D123681A6D12F4007F03D05A6D12F4D4
:101BA800007F5FD123681A6D12F0800F03D05A6D41
:101BB80012F0800F5DD123681A6D12F4005F03D014
:101BC8005A6D12F4005F5FD123681A6D12F4004F4A
:101BD80003D05A6D12F4004F5DD123681A6D12F4C8
:101BE800804F0AD05A6D12F4804F06D04FF48042CD
:101BF8001A65236E43F080032366002E52D125B167
:101C080023681D65236E1D432566236E002B50D166
:101C1800BDE8F88340221A65FFF780FFA8E7D3F8EC
:101C2800D810D3F8E0204FF4807018651140204692
:101C3800FFF771FFA5E72368C3F85090494620468F
:101C4800FFF765FFA0E72368C3F8508041462046A8
:101C580000F002FE9BE723681F6539462046FFF720
:101C680057FF96E74FF400721A652046FFF751FFB9
:101C780098E7D3F8D410D3F8DC20802018651140F9
:101C88002046FFF747FF96E74FF400521A652046B3
:101C9800FFF742FF98E74FF400421A652046FFF726
:101CA8003CFF9AE723681E6531462046FFF738FF58
:101CB800A5E72046FFF733FFAAE700004B4B984201
:101CC8001CD0B0F1804F25D0494B98422DD0494BBC
:101CD800984236D0484B98423FD0484B984248D01B
:101CE800474B984251D0474B98425AD0464B98425E
:101CF80063D0464B98426CD00120704703F564438B
:101D08001A6C42F400621A641A6C22F400621A64B3
:101D1800002070473E4B9A6B42F001029A639A6B1F
:101D280022F001029A630020704703F503339A6B8F
:101D380042F002029A639A6B22F002029A63002030
:101D4800704703F502339A6B42F004029A639A6B68
:101D580022F004029A630020704703F500339A6B5F
:101D680042F010029A639A6B22F010029A630020E4
:101D7800704703F5FE339A6B42F020029A639A6B20
:101D880022F020029A630020704703F55C431A6C26
:101D980042F400521A641A6C22F400521A640020A9
:101DA800704703F550431A6C42F480321A641A6C77
:101DB80022F480321A640020704703F54C431A6CF1
:101DC80042F400321A641A6C22F400321A640020B9
:101DD800704703F548431A6C42F480221A641A6C5F
:101DE80022F480221A640020704700BF002C0140B2
:101DF80000040040000800400010004000140040AB
:101E080000340140004001400044014000480140C6
:101E18000010024003682C4A90420ED0B0F1804F67
:101E28000BD0A2F59432904207D002F5806290421E
:101E380003D002F59632904203D123F070034A682A
:101E48001343214A90421AD0B0F1804F17D0A2F51F
:101E58009432904213D002F5806290420FD002F57E
:101E6800963290420BD002F54062904207D002F5BC
:101E78008062904203D002F58062904203D123F43D
:101E88004073CA68134303608B68C3620B8883621C
:101E98000D4B98420FD003F5006398420BD003F521
:101EA8004063984207D003F58063984203D003F556
:101EB8008063984201D10B690363436943F00103CE
:101EC80043610020704700BF002C0140034AD2F84C
:101ED800883043F47003C2F88830704700ED00E0A2
:101EE80008B5464A136823F00F0343F00403136050
:101EF800424B1B6803F00F03042BF9D1404A1368C7
:101F080023F4C06343F40073136002F5D0321368FE
:101F180043F4807313603B4B1B6813F4806FFAD053
:101F2800384B5A6822F0FE4242F080425A60D96823
:101F3800354A0A4042F4964242F03202DA60DA68E0
:101F480042F08072DA601A6842F080721A602D4B93
:101F58001B6813F0007FFAD02A4A936843F0030302
:101F68009360936823F0F00343F080039360254B5C
:101F78009B6803F00C030C2BF9D1244AD2F8FC30EF
:101F880043F08073C2F8FC30214B1A6842F001021A
:101F98001A6000225A601E4B5B68632BFBD9194BF1
:101FA8009A6822F0F0029A609A6822F4E0629A60D5
:101FB8009A6822F460529A601648FEF7C5FB0F2013
:101FC800FEF70CFE08B172B6FEE70E4BD3F8882078
:101FD80022F0407242F00072C3F88820D3F88820BB
:101FE80022F03002C3F88820D3F8882022F040522B
:101FF80042F00052C3F8882008BD00BF002002400C
:1020080000700040001002400C80FFF900ED00E075
:10201800001000E080D1F008044B4FF48072C3F840
:102028008420BFF34F8FBFF36F8F704700E100E04C
:1020380008B5802001F0DCF90028FDD000230365F5
:102048008364C3644365C3650364C363036643640D
:102058008365C362436283620363C361836183638D
:1020680043630362C3600361436143608360036049
:10207800012280F8642006E0C218002182F8651069
:1020880082F86D100133072BF6DD0023836780F893
:102098007C3008BDC16102624362009B03634FF458
:1020A80000034363704700002DE9F04182B0044605
:1020B800884616461F46184B1A68D2F8803023F413
:1020C800F81343EA0743C2F880300025BD4215D211
:1020D800C4F8008065600123A3600523E36056F817
:1020E8002520226156F82520626121460A48FFF71B
:1020F8000BFB08B90135E9E772B6FEE70023009348
:10210800022211460448FFF732FB08B172B6FEE717
:1021180002B0BDE8F08100BF740D002070B505461F
:10212800C1F30740082805D816461A460B0C4FF08D
:10213800000C0BE0002385F8643030E012F80C4006
:1021480005EB0C0080F865400CF1010CD8B2604535
:10215800F4DCAE6169625223AB6305F118011048E3
:10216800FFF796FB88B900240D48FFF747FC0328C2
:1021780012D0013440F6B8339C42F5D9002385F8D3
:102188006430AB6F0133AB6709E0002385F8643036
:10219800AB6F0133AB6702E0012385F8643070BD93
:1021A800740D002008B5002201210648FFF72CFC19
:1021B80008B172B6FEE7002202211520FFF7D8F811
:1021C80008BD00BF740D0020F0B583B005460E466B
:1021D8001746002400944FF4002322462146FFF7B7
:1021E80059FF3B46324621462846FFF75DFFFFF779
:1021F800D9FF1520FFF702F90348FFF7D9FA08B10C
:1022080072B6FEE703B0F0BD740D0020044B4FF426
:102218000062C3F88020BFF34F8FBFF36F8F704702
:1022280000E100E0044B4FF08042C3F88020BFF388
:102238004F8FBFF36F8F704700E100E0044B4FF002
:102248008072C3F88020BFF34F8FBFF36F8F704742
:1022580000E100E0044B4FF08052C3F88020BFF348
:102268004F8FBFF36F8F704700E100E0164BDA68BD
:1022780042F00102DA601A6842F001021A60134B58
:10228800DA68C2F30222C2F10703042B28BF042331
:102298001946131D062B15D9033A4FF0FF338B400F
:1022A800DB4303F0050393401B01DBB2084A82F8C5
:1022B8001D334FF00053C2F88030BFF34F8FBFF388
:1022C8006F8F70470022E8E70004004000ED00E04F
:1022D80000E100E005498A6A0132054BB3FBF2F3DD
:1022E800B3FBF0F3013BCB62704700BF0004004032
:1022F80080D1F008024B4FF480525A60704700BFFB
:1023080000E100E0044B4FF48052C3F88420BFF38F
:102318004F8FBFF36F8F704700E100E008B5144B93
:10232800DA6842F00102DA601A6842F001021A60C3
:10233800104BDA68C2F30222C2F10703042B28BF4C
:1023480004231946131D062B0FD9033A4FF0FF3308
:102358008B40DB4303F0060393401B01DBB2064AC4
:1023680082F82C33FFF7CEFF08BD0022EEE700BF4E
:102378000034014000ED00E000E100E0FF2805D84E
:102388000844B0F5807F04D8002070474FF0FF3034
:1023980070474FF0FF30704770B586B005460C4661
:1023A800FFF7ECFFB0B90646FEF78EFC0123039356
:1023B800049505940023029301A902A8FEF76EFD77
:1023C80058B9FEF799FC019BB3F1FF3F08D130469D
:1023D80006B070BD4FF0FF36F9E74FF0FF36F6E76D
:1023E8004FF0FF36F3E710F0070F16D170B504462B
:1023F80016461D46FEF768FC32462B46214600204D
:10240800FEF7B8FC60B9FEF777FC22686368AB4258
:1024180008BFB24207D1002070BD4FF0FF307047AF
:102428004FF0FF30F8E74FF0FF30F5E718B1874677
:1024380000BF00BF00BF0000BFF34F8F0549CA6847
:1024480002F4E062044B1343CB60BFF34F8F00BF2D
:10245800FDE700BF00ED00E00400FA0508B572B61C
:10246800064B9860BFF34F8F002383F314880368EB
:1024780083F308884068FFF7D9FFFEE700ED00E026
:1024880012F0070F13D1F8B506460F46154600247B
:10249800AC420AD23B19D3E90023A019FFF7A3FFE6
:1024A800B0F1FF3F02D00834F2E70020F8BD4FF04A
:1024B800FF307047CAB32DE9F047ADF5805D05469A
:1024C8000F469146C0F3CF2808F58036F602141857
:1024D800C4F3CF24A4EB0804A4B20134A4B2022CA0
:1024E80026D80021009140F6FC7201A800F096FF62
:1024F8004FEAC42A52463146684600F081FFA81BBD
:102508004A463946684400F07BFF21464046FFF7BB
:1025180043FFB0F1FF3F04D0524669463046FFF70B
:10252800AFFF0DF5805DBDE8F0874FF0FF307047D5
:102538004FF0FF30F5E70146002204E00133B3F520
:10254800967FFBDB01328A4201DA0023F7E7704706
:1025580008B572B6FEF76AFBFFF7C2FC264BDA68CD
:10256800C2F30222C2F10703042B28BF0423194631
:10257800131D062B3ED9033A4FF0FF338B40DB4344
:1025880003F00A0393401B01DBB21B4A82F8233095
:102598004FF0E02319495961F02182F823100022F5
:1025A8009A6107221A61FDF733FEFDF741FFFFF735
:1025B8003FFD134B186003221249FFF705FEFEF793
:1025C80007F8FFF7ABFEFDF7BDFFFFF74FFE4FF42F
:1025D8007A70FFF77FFE00F0E7FA00F047FA0A4B3F
:1025E8004FF000521A601520FEF7FAFEFFF782FE40
:1025F80062B608BD0022BFE700ED00E0EF49020027
:10260800DC0D00202C00002000E100E008B54FF4AC
:102618007A70FFF790FFFFF79BFF044B93F8803326
:10262800062BFAD1024800F045FAF6E7F00D002033
:1026380070110020034A1368034909680B441360AA
:10264800704700BFD80D00200000002070B5774B00
:102658001C68621C1A600025754B93F8813353B9C6
:10266800734B93F88033072B1FD8DFE803F00C2A4D
:102678004462809ABFD76F4E22462B46304600F000
:102688001DFD7570ECE76A4BD3F8D027D3F8D43723
:10269800944275EB030103D313430BD1002300E0ED
:1026A80000234BB9634800F08CFD634B6FF00102C7
:1026B8001A6170BD0123F4E707215E4800F020FD90
:1026C800F0E75B4BD3F8D027D3F8D437944275EBB7
:1026D800030103D3134307D1002300E000232BB9E0
:1026E800544800F03BFDE0E70123F8E70721514893
:1026F80000F006FDF4E74E4BD3F8D027D3F8D437D3
:10270800944275EB030103D313430BD1002300E07C
:1027180000234BB94648D0F8D837DB6800F560701D
:102728009847C2E70123F4E70721424800F0E8FC94
:10273800F0E73F4BD3F8D027D3F8D437944275EB62
:10274800030103D313430BD1002300E000234BB94B
:102758003748D0F8D8371B6900F560709847A4E768
:102768000123F4E70721334800F0CAFC9DE7304B0A
:10277800D3F8D027D3F8D437944275EB030103D3A9
:10278800134308D1002300E0002333B1072129486F
:1027980000F0B6FC89E70123F7E7264800F021FDA1
:1027A80083E7234BD3F8D027D3F8D437944275EB7B
:1027B800030103D3134312D1002300E000231BB10C
:1027C8001B4B93F8843363B1194B93F88333002B75
:1027D8003FF46BAF0121174800F092FC65E7012335
:1027E800EDE70621134800F08BFC5EE7104BD3F8A9
:1027F800D027D3F8D437944275EB030103D313439E
:102808000AD1002300E00023002B3FF44EAF07213C
:10281800084800F075FC48E70123F5E70448D0F8BC
:10282800D8379B6900F5607098473EE7E00D0020B7
:10283800F00D0020701100200034014008B501217E
:10284800034801F016FE034B6FF001021A6108BD40
:10285800F00D00200004004011F0010F00D1704776
:1028680008B5094B1A6802F16D033C32402107484C
:10287800FFF738F800B108BD034B1B6803F16D0181
:10288800D86B00F03BF9F6E7DC0D0020740D002052
:1028980070477047704770B506460D46104672B6C9
:1028A80022F00704A4B2A24201D00834A4B2221A2A
:1028B800FF21284400F0B2FD224629463046FFF7A2
:1028C800DFFDB0F1FF3F00D0002062B670BD08B553
:1028D800002300E001339A4207D910F803E011F809
:1028E80003C0E645F6D0002300E001230BB1002029
:1028F80008BD72B6FFF7DEFDB0F1FF3F00D0002043
:1029080062B6F5E708B5FFF797FD08BD08B5C068DA
:10291800FFF7A4FD08BD000070B586B006460D4659
:10292800002327E01E4B93F85132002BFAD102AB5B
:102938000022029203920492059202960321ADF8B6
:102948000C100122ADF80E2041F28832019200935A
:10295800062342F20102134800F06AFE104B93F876
:102968005132012BFAD0032B0FD10D4B002283F8E3
:10297800512223465C1CE4B2AB42D3D9FF2DD1D0FF
:102988000721304600F0BCFB07E0054B002283F826
:1029980051220221304600F0B3FB06B070BD00BFE3
:1029A800F00D0020E80F002010B50446D0F8583488
:1029B8005B6A816951F80C0BB4F8442098470028E9
:1029C8000DDBB4F846300133A4F846300221204626
:1029D80000F096FB03212046FFF79EFF10BD07215C
:1029E800204600F08DFBF9E710B50446022100F0FF
:1029F80087FB237923B1FF212046FFF78DFF10BD08
:102A08000321F9E708B5FDF7D9FCFDF791FDFDF7BE
:102A180029FEFDF741FEFEF7CBF8FFF703FCFFF7B1
:102A280019FCFFF7F9FA094B4FF00052C3F8802060
:102A3800BFF34F8FBFF36F8FFFF764FCFFF7E6FB21
:102A4800FFF7FCFB1520FEF7D9FC08BD00E100E00C
:102A580008B572B60B21C0F3CF20FFF79DFCB0F18B
:102A6800FF3F00D0002062B608BD000008B50D4841
:102A78000D4BC0F8D83700F57073C0F8B433C0F800
:102A880098330A4BC0F8B833C0F89C33084BC0F8E9
:102A9800BC33C0F8A033002100F5607000F030FBB3
:102AA80008BD00BFF00D0020380000209F28000856
:102AB800592A000810B5044672B6D0F858345B6835
:102AC8009847D4F858345B692046984710BD70473A
:102AD800704770477047704708B5FFF7EBFC08BDB3
:102AE80008B50346017B53F8042B92B20904024847
:102AF8000068FFF713FB08BDDC0D0020264BD3F858
:102B0800B832C3F31C0398420ED0234BD3F8FC31E0
:102B1800C3F31C0398421ED01F4BD3F85C32C3F397
:102B28001C03984236D070471B4B93F8BB3213F006
:102B3800400FF8D1184B93F8C4C2002304E0C85CD6
:102B4800164A985401339BB29C45F8D8124B01227F
:102B580083F8C5227047104B93F85032002BDBD016
:102B6800002304E0C85C0E4A985401339BB2072B3B
:102B7800F8D9094B012283F809227047C85C094A31
:102B8800985401339BB2072BF8D9034B012283F8E1
:102B98006922C8E70023F6E7F00D0020AC100020FA
:102BA800F00F00205010002070B582B02C4B2D4A39
:102BB8001A602D4C2D4A2E49204601F0C7FC2D4A9B
:102BC800A2F14805A4F547742B4B1B6852F8481C22
:102BD800204601F043FC294604F52E7001F037FB2E
:102BE800002421E0254B53F824300193244D04EBB5
:102BF800C4039A0002F5C472224E3244C4EB041393
:102C0800D90001F1180004EB84018B0003F59C73D3
:102C18003344043300936B69043205F52E7128445C
:102C280001F0B8FB0134E4B2032CDBD9144C04F5F1
:102C38002E76144D63693246294604F5167000F065
:102C4800CEFF3246294604F5FC7000F0BCFC0E4B62
:102C580093F85010204601F056FC02B070BD00BF3A
:102C6800E40A0020E92A00080C110020DF2A0008E5
:102C7800E12A0008B8000020780800206000002041
:102C8800F00D00207000002034060020144B1A6854
:102C9800144B9A4205D0144B144AC3F8A8220220B8
:102CA800704710B5124C02221146204601F081FCF3
:102CB80002220321204601F07CFC204601F08BFC17
:102CC800B0F1FF3F01D0032010BDA4F54D74D4F836
:102CD80030339847074BC4F8A8320220F4E700BF06
:102CE800E40D002064616F6CF00D002020000008E6
:102CF8002411002000000606114B1A68114B9A4255
:102D080005D0114B114AC3F8A8220220704710B50C
:102D18000F4C02221146204601F04BFC204601F0E0
:102D28005AFCB0F1FF3F01D0032010BDA4F54D744B
:102D3800D4F830339847074BC4F8A8320220F4E798
:102D4800E40D002064616F6CF00D00202000000885
:102D58002411002000000606114B1A68114B9A42F4
:102D680005D0114B114AC3F8A8220220704710B5AC
:102D78000F4C02220321204601F01BFC204601F0E3
:102D88002AFCB0F1FF3F01D0032010BDA4F54D741B
:102D9800D4F830339847074BC4F8A8320220F4E738
:102DA800E40D002064616F6CF00D00202000000825
:102DB80024110020000006062B4B1A682B4B9A4260
:102DC80005D02B4B2B4AC3F8A8220220704710B518
:102DD800294801F00BFCB0F1FF3F05D0264801F06F
:102DE80010FCB0F1FF3F1CD1234C022211462046B3
:102DF80001F0DFFB02220321204601F0DAFB204626
:102E080001F0E9FBB0F1FF3F05D0194B1B4AC3F8AD
:102E1800A822022010BDA4F54D73D3F8303398478B
:102E2800F3E7134CB4F86C13D4F8680301F0FAFB19
:102E3800A4F83C03D4F87003D4F85C33B4F87413E2
:102E4800C91A184401F0EEFBA4F83E0304F54D70CE
:102E580001F0C1FBB0F1FF3F01D00320DAE7D4F85D
:102E680030339847F9E700BFE40D002065766173B9
:102E7800F00D0020200000082411002000000606A4
:102E8800224B1A68224B9A4205D0224B224AC3F899
:102E9800A8220220704710B5204801F0A7FBB0F126
:102EA800FF3F11D01B4CB4F86C13D4F8680301F041
:102EB800B9FBA4F83C0304F54D7001F08CFBB0F1AC
:102EC800FF3F1ED0032010BD144C0222114620469D
:102ED80001F06FFB02220321204601F06AFB204625
:102EE80001F079FBB0F1FF3F05D00A4B0C4AC3F85B
:102EF800A8220220E7E7A4F54D73D3F830339847AA
:102F0800F3E7D4F830339847DCE700BFE40D00203E
:102F180065766173F00D0020200000082411002060
:102F280000000606244B1A68244B9A4205D0244B0D
:102F3800244AC3F8A8220220704710B5224801F09D
:102F480060FBB0F1FF3F15D01D4CD4F87003D4F8E6
:102F58005C33B4F87413C91A184401F063FBA4F87D
:102F68003E0304F54D7001F036FBB0F1FF3F1ED073
:102F7800032010BD144C02221146204601F019FB13
:102F880002220321204601F014FB204601F023FB16
:102F9800B0F1FF3F05D00A4B0C4AC3F8A822022023
:102FA800E7E7A4F54D73D3F830339847F3E7D4F83F
:102FB80030339847DCE700BFE40D00206576617385
:102FC800F00D002020000008241100200000060653
:102FD800034BB3F87E22A3F8C4230320704700BF35
:102FE800F00D0020024B042283F880230320704751
:102FF800F00D0020034B1A78034B83F8832303203A
:10300800704700BFE80D0020F00D002008B5064805
:1030180000F093F908B9022008BD0321034800F025
:103028006FF80320F8E700BFB011002070110020EE
:1030380008B5044800F06FF908B9022008BD03205C
:10304800FCE700BF7811002030B589B00546EC4692
:10305800104C0FCCACE80F0094E80F00ACE8070068
:103068008CF800309DF80030003B18BF0123AB708E
:103078000DF1010105F1080000F0DCF80DF10F0178
:1030880005F1240000F0D6F8034BEB60AB6209B001
:1030980030BD00BF0060000800A8010838B504462C
:1030A8000D46837801F8013B083000F0FAF805F185
:1030B8000F0104F1240000F0F4F838BD0178072965
:1030C80005D8DFE801F00F0F070F0F0B0F0F0021D6
:1030D8008C460BE009494FF0000C07E064214FF0E3
:1030E800000C03E041F288314FF0000C89184CEBDA
:1030F8000303C0F85014C0F854347047400D03005F
:10310800017001234370704770B588B004462026CB
:1031180032460021684600F081F90F4DEC46AE4674
:10312800BEE80F00ACE80F009EE80F008CE80F0027
:1031380069462046FFF7B2FFD4F858341B6A324676
:1031480069462846984708B908B070BD0721204647
:10315800FFF7D6FFF8E700BF0060000810B5044687
:10316800002383704375FFF7CFFF04F1080000F0D8
:10317800DEF8D4F85834DB6920469847D4F8583438
:103188009B682046984710BD10B5044683786BB9F4
:10319800083000F0AFF868B1D4F85834DB6920463D
:1031A800984705212046FFF7ABFF02E00121FFF712
:1031B800A7FF10BD0123237105212046FFF7A0FFBB
:1031C800F7E710B50446D0F858341B689847002331
:1031D800E37023712046FFF737FF2046FFF7D4FF3F
:1031E80010BD10B5044601234375FFF78DFF062176
:1031F8002046FFF785FF10BDB8B1844600234FF67F
:10320800FF708B4212D210B41CF8032082EA1022FD
:10321800074C246834F9122082EA002080B2013376
:103228008B42F1D35DF8044B70477047704700BF7D
:103238007C08002082B00B788DF800304B788DF830
:1032480001308B788DF80230CB788DF80330009BF5
:10325800B3F5B04F28BF4FF4B04303600B798DF836
:1032680000304B798DF801308B798DF80230CB79AD
:103278008DF80330009B43600B7A003B18BF012395
:103288004373B1F80920CB7A428103730B7B8DF825
:1032980000304B7B8DF80130BDF80030038102B05F
:1032A800704782B0036800930B70C3F307224A701B
:1032B800C3F307428A70C3F30763CB704368009374
:1032C8000B71C3F307224A71C3F307428A71C3F330
:1032D8000763CB71437B0B724289037BA1F80920FA
:1032E800CB720389ADF800300B73C3F307234B731C
:1032F80002B0704710B5044601684068FFF77CFFCC
:10330800637B23B12389834203D0002000E000209F
:1033180010BD0120FCE710B5044601684068FFF7BE
:103328006BFF2389834214BF0020012010BD08B51C
:1033380083690B214068984708BD10B50446818809
:103348000C30FFF759FF2389834214BF0020012066
:1033580010BD00000D4885460D480E490E4A002351
:1033680002E0D458C4500433C4188C42F9D30B4A31
:103378000B4C002301E013600432A242FBD3FEF79A
:10338800A5FD00F011F8FFF741F9FEE700800020E5
:1033980000000020F40C002094480008F80C0020DD
:1033A800F8150020FEE7000070B50D4D0D4C641BAC
:1033B800A4100026A64209D10B4D0C4C01F04EFA80
:1033C800641BA4100026A64205D170BD55F8043B25
:1033D80098470136EEE755F8043B98470136F2E77F
:1033E8008C4800088C4800088C4800089048000861
:1033F800024B0146186800F039B800BF800A002067
:103408000A44914200F1FF3300D1704710B511F81A
:10341800014B03F8014F9142F9D110BD0244034614
:10342800934200D1704703F8011BF9E770B50E4EBF
:103438000C463168054611B900F08CF83060214619
:10344800284600F087F8431C0AD0C41C24F0030463
:10345800A04207D0211A284600F07CF8013001D19B
:103468004FF0FF34204670BDD41500202DE9F041FF
:10347800CD1C25F0030508350C2D38BF0C25002D73
:10348800074601DBA94205D90C233B6000263046DC
:10349800BDE8F0812E4E00F06DF833681C4634BB51
:1034A80029463846FFF7C2FF431C04464DD134680D
:1034B8002646002E40D123683146384604EB0308DF
:1034C80000F048F880453AD1216803356D1A25F097
:1034D800030508350C2D38BF0C2529463846FFF75B
:1034E800A5FF01302BD023682B4423600EE022680F
:1034F800521B1ED40B2A16D96119A342256018BF86
:103508005960636808BF316062514B60384604F106
:103518000B0600F035F826F00706231DF21AB6D080
:103528009B1BA350B3E76268A3420CBF32605A608A
:10353800ECE723466468B2E734467668B9E70C23BB
:103548003B60384600F01CF8A1E72560DEE700BFC5
:10355800D015002038B5064D0023044608462B60D8
:1035680000F016F8431C02D12B6803B1236038BD64
:10357800D8150020014800F009B800BFDC1500206C
:10358800014800F004B800BFDC1500207047704700
:10359800044A1168034609B90349116010680344D5
:1035A80013607047E0150020F815002070470023CD
:1035B80080F828308384038F43761B0A837690F83B
:1035C8003A30C376704710B40123037043694FF44F
:1035D800C06464F31C034361082380F8203000238F
:1035E80080F8213044684FF4B06C6CF31C044460DC
:1035F80043748384C38480F82830B1F864404485D8
:10360800896EC162038780F83A30C3630364A0F807
:103618004430A0F84630826480F84C300365436536
:1036280080F8583080F859305DF8044B7047000036
:1036380010B5029C4FF0010C80F859C001F07F01D1
:1036480090F814E061F3060E80F814E090F804E0B6
:1036580061F3060E80F804E0028780F83A30BDF87E
:103668000C30A0F84630A288074B9A80E288DA80AE
:1036780022681A60A2689A60C36380F84CC010235D
:1036880080F8583010BD00BFE415002070B582B036
:1036980004460378002B00F0508290F85850002D13
:1036A80000F04C82B0F844203AB1114489B2A0F835
:1036B8004410B0F84620914226D8A16C888B628DC0
:1036C800904226D000210AB101B90023002B00F056
:1036D8003A82637C23B994F84C20002A00F03582A2
:1036E80033B10023A4F84430237A5B09042B18D0A3
:1036F800103D052D00F21F82DFE815F0270061005C
:10370800C30026014401BA01994901F075F803255F
:1037180014E2E06A096A084201D00121D3E70021D6
:10372800D1E7237B8DF80030637B8DF80130A37BD4
:103738008DF80230E37B8DF80330009B636500232E
:10374800637484F858300325F8E12046FFF72FFF0B
:10375800E16BCA88E284042A23D8C2F104039B00DF
:1037680003F00C0343F02303237604F11C050868D7
:10377800002303E0C15CE95401339BB29A42F9D8B3
:103788007C4B1B6804F1140098470125A4F84450A9
:10379800002384F84C30112384F8583000236374D4
:1037A800CCE12123237600922277C2F307236377A3
:1037B800C2F30743A377C2F30762E277E0E7257A0B
:1037C8006D09032D1FD1637A8DF80030A37A8DF827
:1037D8000130BDF80020E17A238F9A4219D194F87C
:1037E8003A30994215D1E28C042A17D9E36B19684B
:1037F800A38C07339A4234DC5FFA82FC04F1190582
:103808006246002313E05C49204601F003F80325D3
:10381800C4E75A49204600F0FDFFBFE7002384F8BB
:1038280058300225BAE7C85CE85401339BB29A4283
:10383800F9D8E38CA38494F92830CCF1070243EA41
:1038480042035BB243F0010323760125A4F84450F8
:10385800484B1B6804F114009847122384F8583029
:103868009CE704F11900002303E0CA5CC254013349
:103878009BB2062BF9D90723A38494F82830237622
:10388800E3E7237A5D09012D1DD194F8282003F080
:10389800100393421DD182F0100284F82820E38C93
:1038A800A08C83421BD9E26B11680144C21D93426C
:1038B80039DCDAB2C0B2121A5FFA82FE04F1190CCE
:1038C8007246002315E02C49204600F0A3FF03258B
:1038D80064E72B49204600F09DFF03255EE700239F
:1038E80084F85830022559E7C85C0CF80300013306
:1038F8009BB29A42F8D8E38CA38494F92830CEF18D
:10390800070243EA42035BB243F001032376012333
:10391800A4F84430174B1B6804F11400984712238D
:1039280084F858303AE704F11900002303E0CA5C30
:10393800C25401339BB2062BF9D9A38C0733A38455
:1039480094F828302376E2E72046FFF730FE40233C
:103958002376084B1B6804F1140098470125A4F846
:103968004450002384F84C30142384F8583015E769
:1039780000000405E40A002023000A0643000406A8
:1039880000000305237A5909022938D1627A8DF893
:103998000020A27A8DF80120BDF80000E57A228F78
:1039A800904232D194F83A2095422ED103F0030583
:1039B800032D30D0012D55D1237B8DF80030637B4A
:1039C8008DF80130A37B8DF80230E37B8DF803304E
:1039D800BDF80030E384E26BD28893423CD80023E0
:1039E800A384602323760123A4F84430584B1B6832
:1039F80004F114009847152384F85830CEE6554949
:103A0800204600F007FF0325C8E65349204600F08A
:103A180001FF0325C2E6C3F38102C2F1040292B298
:103A2800E284E36BD888824204D81E6804F10C054E
:103A3800002308E04949204600F0DEFEAEE6E85CD7
:103A4800F05401339BB29A42F9D8E38CA384002343
:103A580084F858300D46A1E64049204600F0DAFEC9
:103A680003259BE63E49204600F0D4FE032595E653
:103A7800217A4B091AD194F8283001F010029A42A1
:103A88001AD183F0100384F82830E36B1A68A08CED
:103A98000244E38CC51DAB4228DC11F0010F11D0A4
:103AA80004F109051B1A99B2002316E0294920469A
:103AB80000F0B0FE032571E62A49204600F0AAFE70
:103AC80003256BE64FF00061204600F0A3FE0325B6
:103AD80064E6E85CD05401339BB29942F9D8E38C90
:103AE800A384002384F85830022557E611F0010F0B
:103AF80003D104F1090000230AE04FF000612046D9
:103B080000F088FE032549E6C15CD15401339BB21D
:103B1800062BF9D9A38C0733A38494F8283043F0F3
:103B2800600323760A4B1B6804F1140098470125AB
:103B3800A4F8445032E6012530E601250DB184F899
:103B4800595002B070BD0125F8E70125F6E700BF1E
:103B5800E40A002023000A064300040605000405C1
:103B68001000070600000305002380F8283083842E
:103B7800437A4376837A8376C37AC376704710B4E0
:103B8800C36BD96829B19A681468B3F806C00023D2
:103B980010E01C689A681068D988002303E0C25CAA
:103BA800E25401339BB29942F9D815E0E25CCA5459
:103BB80001339BB29C45F9D8C26B938813F4807388
:103BC8000AD1146891680868D18803E0C25CE2549D
:103BD80001339BB29942F9D85DF8044B704730B471
:103BE8000124047091F85C4004F5B064456964F3FD
:103BF8001C054561082480F82040002480F82140F5
:103C080091F85CC00CF5C06C45686CF31C05456008
:103C1800047444748484C48480F82840B1F85E50E5
:103C2800458504864363048780F83A40C463046486
:103C3800A0F84440B1F86030A0F84630826480F8BB
:103C48004C400465446580F8584080F8594030BCC1
:103C58007047000070B582B004460378002B00F06E
:103C6800DA82B0F844303BB1194489B2A0F8441064
:103C7800B0F8463099421ED8637C23B994F84C209A
:103C8800002A00F0C6824BB10023A4F84430237AFE
:103C98005B09042B14D094F858302BB394F858309F
:103CA800113B042B00F2B382DFE813F08B003701DD
:103CB800B10202024A02A24900F09EFD0325ABE2CE
:103CC800237B8DF80030637B8DF80130A37B8DF862
:103CD8000230E37B8DF80330009B63650023637437
:103CE80084F85830032597E2257A6D096B1EDBB2FC
:103CF800012B35D8637A8DF80030A37A8DF801301E
:103D0800BDF800102187E37A84F83A30606B00F040
:103D1800A5FC20864FF6FF7398422DD0626B94F86D
:103D28003A101388984221D24FF6FF7398421FD059
:103D3800526802EBC000837899421BD2436803EBB8
:103D48000113E363D3B1012D1ED09B8813F0010F3B
:103D580031D0142384F858300125032D9ED15BE21D
:103D68007849204600F056FD0325F6E70023E8E7EA
:103D78000023E6E70023E4E70023E2E77249204650
:103D880000F048FD0325E8E79A8812F0020F07D0F3
:103D98009A685AB112682264112384F85830DCE713
:103DA8006A49204600F036FD0325D6E7DA68002A7E
:103DB800F1D11A68EFE76549204600F02BFD03258D
:103DC800CBE794F84C307BB300232365E36B9B6807
:103DD8005B689847042805D0032806D0022812D02B
:103DE800012685E12046FFF7CAFE002584F84C50DD
:103DF800A4F84450564B1B6804F11400984784F803
:103E08005850022674E1002384F84C30A4F844305A
:103E1800216D29B94F49204600F0FCFC032667E1D3
:103E2800204600F0F7FCF9E72046FFF79DFE237ACD
:103E380003F00306032E24D0012E68D1237B8DF8CE
:103E48000030637B8DF80130A37B8DF80230E37B73
:103E58008DF80330BDF80030E384E26BD2889342DA
:103E68004FD80023A384602323760123A4F8443089
:103E7800374B1B6804F114009847122384F8583014
:103E880036E1C3F38102C2F1040292B2E284E36B29
:103E9800DB889A4204D8256C04F10C00002308E062
:103EA8002D49204600F0B6FC22E1C15CE9540133FB
:103EB8009BB29A42F9D8E38CA38460232376E26B01
:103EC80093682BB10126A4F8446084F84C600FE194
:103ED800D06860B1938813F4807308D11568D188CD
:103EE80003E0C25CEA5401339BB29942F9D8184BFB
:103EF8001B6804F114009847002384F85830022600
:103F0800F6E01549204600F085FC0326F0E0134949
:103F1800204600F07FFC0326EAE094F84C30002BA2
:103F280040D000232365E36B9B685B6898470428AF
:103F380016D0032817D0022823D00126D8E000BFC6
:103F4800000004050100040511000906000001062F
:103F5800E40A0020210000080500040510000706F7
:103F68002046FFF70CFE002584F84C50A4F8445076
:103F7800AB4B1B6804F11400984784F8585002268C
:103F8800B6E0002384F84C30A4F84430216D29B9F8
:103F9800A449204600F03EFC0326A9E0204600F094
:103FA80039FCF9E7217A4B0915D194F8283001F04A
:103FB80010029A4215D1226CA08C0244E38CC51DD4
:103FC800AB424ADC11F0010F11D004F109051B1AAC
:103FD80099B2002316E09449204600F01BFC032602
:103FE80086E09249204600F015FC032680E04FF059
:103FF8000061204600F00EFC032679E0E85CD0540E
:1040080001339BB29942F9D8E38CA38494F8283001
:1040180043F020032376E26B93682BB10126A4F8C2
:10402800446084F84C6063E0D16861B1938813F40C
:10403800807308D11568D08803E0CA5CEA5401335C
:104048009BB29842F9D8764B1B6804F11400984744
:10405800002384F8583002264AE011F0010F09D1F4
:1040680004F109000023062B0BD8C15CD15401339D
:104078009BB2F8E74FF00061204600F0CBFB032627
:1040880036E0A38C0733A38494F8283043F0200348
:1040980023760126A4F84460614B1B6804F11400E0
:1040A800984794F8283083F0100384F828301FE0EC
:1040B8002046FFF759FDE16BCA88E284042A20D91B
:1040C8004123237600922277C2F307236377C2F352
:1040D8000743A377C2F30762E277514B1B6804F1E9
:1040E800140098470126A4F84460152384F8583032
:1040F8000023637494F85850002D00F08D803546E5
:104108008AE0C2F104039B0003F00C0343F043036D
:10411800237604F11C050868002303E0C15CE95418
:1041280001339BB29A42F9D83D4B1B6804F1140045
:104138009847E38CA384002384F858300226D7E7F5
:10414800237A5E09032E11D194F8282003F0100376
:10415800934211D1E36B1A68A08C0244E38CC11D11
:104168008B420EDD04F11900002339E02E49204668
:1041780000F050FB0326BBE72C49204600F04AFB21
:10418800B6E7D9B2C0B2091ACEB204F11905314660
:104198000023994204D9D05CE85401339BB2F8E774
:1041A800E38CA38494F92830C6F1070243EA42035A
:1041B8005BB243F001032376194B1B6804F114002A
:1041C800984794F8283083F0100384F828300023A7
:1041D80084F8583002268BE7D15CC15401339BB276
:1041E800062BF9D9A38C0733A38494F828302376B7
:1041F8000B4B1B6804F1140098470126A4F844608F
:1042080094F8283083F0100384F8283070E70126EA
:104218006EE701266EE7012584F8595002B070BD9B
:10422800E40A00202100000823000A060000030514
:1042380002780023037001F07F01037D61F3060318
:104248000375037961F30603037102707047032352
:1042580003734B680360002343730A8902824A8907
:104268004282B1F85820828291F85A2082750383DD
:10427800438383838377036280F824307047000088
:10428800C17890F90330002B5BDB10B582B004468F
:10429800438B1A4492B2934200D24283228B531C1E
:1042A8009BB29A4200D2238311F0400F33D0628B25
:1042B800238A9A4225D3A38B01339BB2A383A28A74
:1042C80093420ED90123A383A37F0133DBB2A377E3
:1042D800A27D934201D90023A377A27F01239340B3
:1042E8002362A38BADF800302371C3F307236371F6
:1042F800A37FA371134B1B68204698470023238391
:104308006383638B628A93428CBF0023012384F802
:10431800243002B010BD637B002BF2D023798DF8D6
:10432800003063798DF80130BDF80030A383A2799D
:10433800A27701239340236200232383638363735B
:10434800DFE77047E40A002010B5044690F86830AB
:10435800022B01D0002310E0436F043098470C4B28
:104368001B68204698470EE004F1100252F823100B
:10437800221D0978D1540133DBB2072BF4D9044B41
:104388001B6820469847002384F8703010BD00BF92
:10439800E40A0020F8B504460E461146069D079F1C
:1043A8001A4600F01DFA2A68A265AB88A4F85C30AA
:1043B800E988A4F85E102889A4F86000EB686366B1
:1043C800AB7A84F862302B7C84F86830226008224B
:1043D8002273002262736665A4F86C00A4F86E105C
:1043E80084F870206767022B01D01DB1F8BD002F3B
:1043F800FCD1FEE7FEE708B590F90330002B14DB8B
:10440800B0F85C304FF6FF718B420BD06AB1426D49
:10441800918B8B420DD043B990F870302BB1FFF7D8
:1044280093FF02E090F8703003B908BDFFF78CFFE6
:10443800FBE7416E126A1142EDD0FFF785FFF4E702
:10444800C378DA0943F08003C370037861F3060385
:104458000370C37862F3C713C370704708B501606F
:10446800002141600261436100F5387000F061F895
:1044780008BD70B504460E460A46012100F52E70A7
:10448800FFF7FEFE94F9BB32002B22DBB4F8D032E2
:1044980023B9B4F8D032012B19D070BD314604F5D8
:1044A8001670FFF7D7FB314604F5FC70FFF7EEF8FE
:1044B800EFE7C5EB0510C000183001223146204453
:1044C800FFF799FF0135EDB2032DF2D9E5E7002595
:1044D800FAE7314604F51670FFF7BCFB314604F5E0
:1044E800FC70FFF7D3F800250AE0C5EB0510C00003
:1044F8001830012231462044FFF77DFF0135EDB227
:10450800032DF2D9C9E770B505460E4600F51670B9
:10451800FFF78EFE002409E0C4EB0410C000183039
:1045280031462844FFF78CFF0134E4B2032CF3D959
:1045380070BD0028FDD0002302E00022C2540133E0
:10454800072BFADD00238360C360704700230370E4
:10455800016143608360C36042617047F8B51C46DF
:1045680090F900301BBB07460D4616460123037021
:104578000369224631462846984798B94FF0000CFF
:1045880001E00CF1010C644507D915F80C2016F868
:104598000C309A42F5D0002300E0012323B94FF0F4
:1045A800FF3001E04FF0FF3000233B70F8BD0120E1
:1045B800FCE7022908D090F9003023F00C039200A0
:1045C80052B21A430270704790F9003023F0030387
:1045D8001A430270704710B50446236B2246E16AFD
:1045E800606CFFF7BBFF0128F7D010BD10B504467B
:1045F800238F626BA169606CFFF7B0FF0128F7D0C9
:1046080010BD10B50446206AA16AE26BB4F84030C8
:104618005B1A0A440144606CFFF7A0FF0128F2D03E
:1046280010BD0000B0B1844600234FF6FF708B42E6
:1046380011D210B41CF8032082EA1022064C34F977
:10464800122082EA002080B201338B42F2D35DF857
:10465800044B704770477047E80A002000B586464B
:1046680003884FF0000C02E001301FFA80FC9C45E3
:1046780010D20CEB0300C0F34F00DEF8042032F830
:1046880030208A4209D0EFD910B1431E9BB2EEE721
:104698000346ECE703D04FF6FF705DF804FBDEF845
:1046A800043033F83C308B4202D04FF6FF70F4E709
:1046B8006046F2E7C0B100B5864691F800C0BCF18B
:1046C800070F00D9FEE780F830C0002308E001EBAF
:1046D8008302506803F10C020EEB82025060013332
:1046E8009C45F4DC5DF804FBFEE700002DE9F84387
:1046F80005460F46C37843F08003C3704FF00008A7
:10470800444695F8303043455ADD08F10C0305EB73
:10471800830393F80690DE7999883846FFF79EFF61
:104728004FF6FF7398421BD03B8898421AD24FF637
:10473800FF73984218D07B6803EBC00083789945D3
:1047480014D2416801EB0911D9B1002325E0224AAE
:104758001A44191D45F821200133072BF7DD2FE0F6
:104768000023FAE70021EFE70021EDE70021EBE75E
:10477800194A1A44191D45F821200133072BF7DD82
:104788001EE00023FAE7221D1448006845F82200BD
:104798000134E4B2082C15D801339E4214DDCA88CE
:1047A8009A42F0DD0A681A44201D45F82020EFE7F8
:1047B800094A1A44191D45F821200133072BF7DD52
:1047C800BDE8F8830023F9E7EB786FF3C713EB70C4
:1047D80008F1010895E700BFE80C0020F00C002064
:1047E80048B138B514460546FFF764FF2146284608
:1047F800FFF77CFF38BD704701650023A0F84430FF
:10480800437480F84C3080F85830032380F85930CE
:104818007047000010B582B00446019180230376EA
:1048280000F11C01002307E003F108026A4412F8B2
:10483800042CCA5401339BB2032BF5D9082384F8FE
:104848002030054B1B6804F1140098470199204655
:10485800FFF7D2FF02B010BDE40A0020F8B500BF90
:10486800F8BC08BC9E467047F8B500BFF8BC08BC49
:044878009E467047A1
:10487C000001020304050607080C10141820304030
:04488C00FD01000822
:04489000D901000842
:104894000100000010000000000000000000000003
:1048A4000000000000000000010000000000000003
:1048B40000000000000000000024F400800000005C
:1048C40002060000830500009D2800080D2A000848
:1048D400F12900089B280008B129000815290008BF
:1048E4000D29000899280008D72800089F280008E7
:1048F400D72A0008D92A0008DB2A0008DD2A000884
:1049040000000000800000800A00050053454C456B
:10491400585F4D434C0000000000000003000000FD
:104924000000000000000000820000800000000081
:104934000000000000000000000000000000000073
:104944000000000000000000000000000000000063
:10495400000000000000000019000B00020001002C
:10496400E8030000000000000000000000020080D6
:1049740000000000000000000000000000030080B0
:10498400000000000000000000000000000400809F
:10499400000000000000000000000000000500808E
:1049A4000000000000000000000000000000000003
:1049B40000000000000000000000000000000000F3
:1049C40000000000000000000000000000000000E3
:1049D40000000000000000000000000000000000D3
:1049E40000000000000000000000000000000000C3
:1049F40000000000000000000000000000000000B3
:104A040000000000000000000000000000000000A2
:104A14000000000000000000000000000000000092
:104A24000000000000000000000000000000000082
:104A3400000000000000000000000000820100C02F
:104A44000000E8031027000000000000020000003E
:104A5400820200C00000E8031027000000000000EC
:104A640002000000820300C00000E80310270000D9
:104A74000000000002000000820400C00000E803FF
:104A840010270000000000000200000000000000E9
:104A94000000000000000000000000000000000012
:104AA4000000000000000000000000000000000002
:104AB40000000000000000000000000000000000F2
:104AC40000000000000000000000000000000000E2
:104AD40000000000000000000000000000000000D2
:104AE40000000000000000000000000000000000C2
:104AF40000000000000000000000000000000000B2
:104B040000000000000000000000000000000000A1
:104B14000000000000000000000000000000000091
:104B24000000000000000000000000000000000081
:104B34000000000000000000000000000000000071
:104B44000000000000000000000000000000000061
:104B54000000000000000000000000000000000051
:104B64000000000000000000000000000000000041
:104B74000000000000000000000000000000000031
:104B84000000000000000000000000000000000021
:104B940000000000F00D00200100040000000000EF
:104BA40070000020DC100020010001000000000063
:104BB40000000000F40D00200500040000000000C7
:104BC40000000000E01000200500010000000000CB
:104BD40000000000E41000200500040000000000B4
:104BE40000000000E81000200500040000000000A0
:104BF40000000000EC10002005000400000000008C
:104C040000000000F0100020050004000000000077
:104C140000000000F4100020050004000000000063
:104C240000000000F810002005000400000000004F
:104C340000000000FC10002005000400000000003B
:104C44000000000000110020050004000000000026
:104C540000000000A8100020030104000000000070
:104C640074000020B81000200300020000000000BF
:104C740078000020BA1000200300020000000000A9
:104C84007A0000207C00002001000C0000000000DD
:104C94000000000088000020010004000000000063
:104CA400000000008C00002001000400000000004F
:104CB400000000009000002003000200000000003B
:104CC400000000009200002003000100000000002A
:104CD40000000000E40D002002000400040600208F
:104CE40000000000E40D0020020004000C06002077
:104CF40000000000E40D002002000400140600205F
:104D040000000000E40D0020020004001C06002046
:104D140000000000E40D002002000400240600202E
:104D240000000000E40D0020020004002C06002016
:104D340000000000940000200301040000000000B3
:104D440000000000FC0D002003000400000000002F
:104D5400000000009800002003010400000000008F
:104D6400980000209C0000200301040000000000C3
:104D7400980000209E0000200100010000000000B7
:104D840000000000A0000020030104000000000057
:104D940000000000A4000020030104000000000043
:104DA40000000000A800002003010400000000002F
:104DB40000000000AC00002003010400000000001B
:104DC40000000000B0000020030104000000000007
:104DD40000000000B40000200301020000000000F5
:104DE40000000000B80000200300040000000000E0
:104DF40000000000BC0000200300040000000000CC
:104E040000000000C00000200300040000000000B7
:104E140000000000C40000200300040000000000A3
:104E240000000000BC10002003000200000000008D
:104E3400C8000020BE100020030001000000000094
:104E4400CA000020CC000020010001000000000086
:104E540000000000721000200300020000000000A7
:104E6400CE0000208E10002003000200000000008D
:104E7400D00000201210002003000200D400002003
:104E8400000000001410002003000400D8000020DB
:104E940000000000E40D0020C12D0008E40D0020F6
:104EA400892E0008E40D00202D2F0008E40D0020B9
:104EB400952C0008E40D0020012D0008E40D0020CD
:104EC400612D000800000000000000000000000048
:104ED40000000000000000000000000000000000CE
:104EE40000000000000000000000000000000000BE
:104EF40000000000000000000000000000000000AE
:104F04000000000000000000000000000F27000067
:104F14000F27000002000F27821100200300030066
:104F2400380700200000000078110020030004006E
:104F340000000000000000008011002003000200B7
:104F44003007002000000000B0110020030004001E
:104F54000000000000000000BC1100200300000459
:104F64008807002000000000B811002003000200A0
:104F740080070020000000007011002003000100E1
:104F84000000000000000000731100200000010078
:104F94002807002000000000731100200000010019
:104FA4000000000000000000731100200300010055
:104FB4000000000000000000E80D0020FD2F0008A4
:104FC400801100203930000882110020ED2F0008E4
:104FD4007C06002001000400000000000000000026
:104FE4008006002001000400000000000000000012
:104FF4008406002003010100000000008406002054
:10500400860600200301020000000000860600203E
:10501400B811002015300008BC110020D92F000859
:105024001C00000098070020001001000403002069
:1050340001100100140300200210010024030020C9
:10504400031009003403002005100100C4030020EC
:1050540006100100D403002007100100E40300201F
:1050640008100100F40300200910010004040020CA
:105074000A100100140400200C1001002404002074
:105084000D1001003404002010100300440400201B
:10509400111003007404002012100100A404002065
:1050A40013100100B404002014100100C4040020F3
:1050B40015100100D404002016100600E40400209A
:1050C40017100100440500201810040054050020A6
:1050D400191001009405002030100100A4050020DF
:1050E40031100300B405002032100200E405002052
:1050F40001200A008806002000500200400700201A
:105104000150020060070020900700208008002062
:1051140000002110422063308440A550C660E7702F
:10512400088129914AA16BB18CC1ADD1CEE1EFF1D7
:105134003112100273325222B5529442F772D6627F
:10514400399318837BB35AA3BDD39CC3FFF3DEE327
:105154006224433420040114E664C774A4448554CF
:105164006AA54BB528850995EEE5CFF5ACC58DD577
:105174005336722611163006D776F6669556B4461F
:105184005BB77AA719973887DFF7FEE79DD7BCC7C7
:10519400C448E5588668A77840086118022823386F
:1051A400CCC9EDD98EE9AFF9488969990AA92BB917
:1051B400F55AD44AB77A966A711A500A333A122ABF
:1051C400FDDBDCCBBFFB9EEB799B588B3BBB1AAB67
:1051D400A66C877CE44CC55C222C033C600C411C0F
:1051E400AEED8FFDECCDCDDD2AAD0BBD688D499DB7
:1051F400977EB66ED55EF44E133E322E511E700E5F
:105204009FFFBEEFDDDFFCCF1BBF3AAF599F788F06
:105214008891A981CAB1EBA10CD12DC14EF16FE1E6
:105224008010A100C230E32004502540467067601E
:10523400B9839893FBA3DAB33DC31CD37FE35EF336
:10524400B1029012F322D23235421452776256726E
:10525400EAB5CBA5A89589856EF54FE52CD50DC586
:10526400E234C324A01481046674476424540544BE
:10527400DBA7FAB79987B8975FE77EF71DC73CD7D6
:10528400D326F2369106B01657667676154634560E
:105294004CD96DC90EF92FE9C899E9898AB9ABA926
:1052A4004458654806782768C018E1088238A3285E
:1052B4007DCB5CDB3FEB1EFBF98BD89BBBAB9ABB76
:1052C400754A545A376A167AF10AD01AB32A923AAE
:1052D4002EFD0FED6CDD4DCDAABD8BADE89DC98DC6
:1052E400267C076C645C454CA23C832CE01CC10CFE
:1052F4001FEF3EFF5DCF7CDF9BAFBABFD98FF89F16
:10530400176E367E554E745E932EB23ED10EF01E4D
:10531400840A0020000000000000000000000000DB
:105324000000000000000000000000000000000079
:105334000000000000000000000000000000000069
:105344000000000000000000000000000000000059
:105354000000000000000000000000000000000049
:105364000000000000000000000000000000000039
:1053740000000000B5350008000021104220633011
:105384008440A550C660E770088129914AA16BB199
:105394008CC1ADD1CEE1EFF1311210027332522241
:1053A400B5529442F772D662399318837BB35AA3E9
:1053B400BDD39CC3FFF3DEE3622443342004011411
:1053C400E664C774A44485546AA54BB52885099539
:1053D400EEE5CFF5ACC58DD55336722611163006E1
:1053E400D776F6669556B4465BB77AA71997388789
:1053F400DFF7FEE79DD7BCC7C448E5588668A778A1
:105404004008611802282338CCC9EDD98EE9AFF9D8
:10541400488969990AA92BB9F55AD44AB77A966A80
:10542400711A500A333A122AFDDBDCCBBFFB9EEB28
:10543400799B588B3BBB1AABA66C877CE44CC55C50
:10544400222C033C600C411CAEED8FFDECCDCDDD78
:105454002AAD0BBD688D499D977EB66ED55EF44E20
:10546400133E322E511E700E9FFFBEEFDDDFFCCFC8
:105474001BBF3AAF599F788F8891A981CAB1EBA11C
:105484000CD12DC14EF16FE18010A100C230E32098
:105494000450254046706760B9839893FBA3DAB340
:1054A4003DC31CD37FE35EF3B1029012F322D232E8
:1054B4003542145277625672EAB5CBA5A895898510
:1054C4006EF54FE52CD50DC5E234C324A014810438
:1054D4006674476424540544DBA7FAB79987B897E0
:1054E4005FE77EF71DC73CD7D326F2369106B01688
:1054F40057667676154634564CD96DC90EF92FE9A0
:10550400C899E9898AB9ABA94458654806782768D7
:10551400C018E1088238A3287DCB5CDB3FEB1EFB7F
:10552400F98BD89BBBAB9ABB754A545A376A167A27
:10553400F10AD01AB32A923A2EFD0FED6CDD4DCD4F
:10554400AABD8BADE89DC98D267C076C645C454C77
:10555400A23C832CE01CC10C1FEF3EFF5DCF7CDF1F
:105564009BAFBABFD98FF89F176E367E554E745EC7
:10557400932EB23ED10EF01E6D61705F6661696C50
:04558400F4150020FA
:040000050800335D5F
:00000001FF
