:1080000010200020EDBD000049BC0000E9BD0000CB
:10801000E9BD0000E9BD0000E9BD0000E9BD0000C8
:10802000000000000000000000000000E9BD0000AA
:10803000E9BD000000000000E9BD0000E9BD00004E
:10804000E1B30000BDB40000E5B50000BDB4000020
:10805000E5B50000A9AE000035AE0000C5B90000CE
:10806000C5B90000C5B9000055A800000000000017
:108070000000000000000000000000000000000000
:1080800000000000000000000000000000000000F0
:1080900000000000000000000000000000000000E0
:1080A00000000000000000000000000000000000D0
:1080B00000000000000000000000000000000000C0
:1080C00000000000000000000000000000000000B0
:1080D00000000000000000000000000000000000A0
:1080E0000000000000000000000000000000000090
:1080F0000000000000000000000000000000000080
:10810000000000000000000000000000000000006F
:10811000000000000000000000000000000000005F
:10812000000000000000000000000000000000004F
:10813000000000000000000000000000000000003F
:10814000000000000000000000000000000000002F
:10815000000000000000000000000000000000001F
:10816000000000000000000000000000000000000F
:1081700000000000000000000000000000000000FF
:1081800000000000000000000000000000000000EF
:1081900000000000000000000000000000000000DF
:1081A00000000000000000000000000000000000CF
:1081B00000000000000000000000000000000000BF
:1081C000FFFFFFFFFFFFFFFFFFFFFFFFFFFFFFFFBF
:1081D000FFFFFFFFFFFFFFFFFFFFFFFFFFFFFFFFAF
:1081E000FFFFFFFFFFFFFFFFFFFFFFFFFFFFFFFF9F
:1081F000FFFFFFFFFFFFFFFFFFFFFFFFFFFFFFFF8F
:1082000010B5054C237833B9044B13B1044800E092
:1082100000BF0123237010BDA8180020000000003B
:10822000B8C3000008B5034B1BB10349034800E085
:1082300000BF08BD00000000AC180020B8C300005B
:1082400008B50160002141600261436100F53D70A5
:1082500000F026F808BDF8B505460E460A4601218D
:1082600000F5327000F02EFF0746314605F5187014
:1082700000F04CFC314605F5FC7000F085F9002457
:108280000AE0C4EB0413DB0018333A463146E81821
:1082900000F0D3FF0134E4B2032CF2D9F8BD7047EB
:1082A0000028FDD0002302E00022C2540133072B36
:1082B000FADD00238360C360704730B4054603884D
:1082C000002401E0013084B29C420ED2E018C0F3D9
:1082D0004F006A6832F830208A4209D0F2D910B1D2
:1082E000431E9BB2F0E70346EEE703D04FF6FF7064
:1082F00030BC70476B6833F834308B4202D04FF695
:10830000FF70F5E72046F3E7B8B130B40A460446FB
:108310000978072900D9FEE780F83410002308E027
:1083200002EB8300456803F10C0004EB80008560DC
:1083300001339942F4DC30BC7047FEE72DE9F84385
:1083400005460F46C37843F08003C3704FF0000822
:10835000444695F83430434534DD08F10C0305EB11
:10836000830393F80A90DE7A19893846FFF7A5FF50
:108370004FF6FF7398421AD03B88984224D27B680C
:1083800003EBC0008378994520D2416809EB490985
:1083900011EB89011CD0002327E0234919441A1D41
:1083A00005EB820251600133072BF6DD0AE0002362
:1083B000FAE71D4919441A1D05EB82025160013389
:1083C000072BF6DDBDE8F8830023F9E70023F7E784
:1083D0000023F5E7221D05EB820214480068506077
:1083E0000134E4B2082C16D801339E4215DDCA8848
:1083F0009A42EFDD0A68D018221D05EB8202506018
:10840000EEE7094919441A1D05EB82025160013358
:10841000072BF6DDD6E70023FAE7EB786FF3C713F7
:10842000EB7008F1010894E7A4050020AC050020DA
:1084300048B138B514460546FFF766FF2146284681
:10844000FFF77CFF38BD704781650023A0F84C30F2
:10845000437580F8543080F86030032380F8613031
:108460007047FFFF10B582B004460191802380F869
:10847000203000F124010023032B07D802AA1A445C
:1084800012F8042CCA5401339BB2F5E7082384F890
:108490002830054B1B6804F11800984701992046C5
:1084A000FFF7D2FF02B010BDA0050020002380F826
:1084B00030308385B0F8403080F821301B0A80F8D6
:1084C000223090F8423080F82330704730B40123D6
:1084D000037083694FF4C06464F31C038361082351
:1084E00080F82830002380F8293044684FF4B065C4
:1084F00065F31C04446043758385C38580F8303080
:10850000B1F864404486896E4163A0F8403080F839
:10851000423043648364A0F84C30A0F84E300265CA
:1085200080F854308365C36580F8603080F861302E
:1085300030BC704770B4039C012580F8615001F095
:108540007F01067E61F306060676067961F306066C
:108550000671A0F8402080F84230BDF81030A0F835
:108560004E302279074B1A71E288DA8022681A604D
:10857000A2689A60436480F85450102380F86030F9
:1085800070BC704708190020F0B583B0044603782A
:10859000002B00F05A8290F86050002D00F05682B7
:1085A000B0F84C303BB1194489B2A0F84C10B0F887
:1085B0004E30994224D8226DD18B638E994224D0BB
:1085C000002213B1002A00F04682637D23B994F89B
:1085D0005420002A00F0418233B10023A4F84C302B
:1085E000237B5B09042B18D0103D052D00F22B8254
:1085F000DFE815F027006600CA002D014201C50121
:10860000BD49FFF721FF032520E2616B526A114249
:1086100001D00122D5E70022D3E7237C8DF800307A
:10862000637C8DF80130A37C8DF80230E37C8DF8FB
:108630000330009BE3650023637584F860300325F5
:1086400004E22046FFF732FF616CCA88E285042A03
:1086500024D8C2F104039B0003F00C0343F023036E
:1086600084F8203004F124050868002303E0C15C8D
:10867000E95401339BB29A42F9D8A04B1B6804F12C
:10868000180098470125A4F84C50002384F8543072
:10869000112384F8603000236375D7E1212384F827
:1086A000203084F82420C2F3072384F82530C2F355
:1086B000074384F82630C2F3076284F82720DCE7FA
:1086C000257B6D09032D1FD1637B8DF80030A37BC3
:1086D0008DF80130BDF80020E17BB4F840309A42BB
:1086E00018D194F84230994214D1E28D042A16D957
:1086F000636C1968A38D07339A4234DCD6B204F157
:1087000021053246002313E07D492046FFF7AAFEEB
:108710000325C0E77B492046FFF7A4FEBBE7002303
:1087200084F860300225B6E7C85CE85401339BB298
:108730009A42F9D8E38DA38594F93030C6F1070247
:1087400043EA42035BB243F0010384F82030012581
:10875000A4F84C50694B1B6804F118009847122389
:1087600084F8603097E704F12100002303E0CA5C3D
:10877000C25401339BB2062BF9D90723A38594F881
:10878000303084F82030E2E7237B5D09012D1CD1D5
:1087900094F8302003F0100393421CD182F01002B1
:1087A00084F83020E38DA08D83421AD9626C116861
:1087B0000144C21D934238DCDAB2C0B2121AD7B2F9
:1087C00004F121063A46002314E04D492046FFF704
:1087D00049FE03255FE74C492046FFF743FE03258A
:1087E00059E7002384F86030022554E7C85CF05450
:1087F00001339BB29A42F9D8E38DA38594F93030C6
:10880000C7F1070243EA42035BB243F0010384F875
:1088100020300123A4F84C30384B1B6804F11800B9
:108820009847122384F8603035E704F121000023D3
:1088300003E0CA5CC25401339BB2062BF9D9A38D65
:108840000733A38594F8303084F82030E1E72046E0
:10885000FFF72CFE402384F82030284B1B6804F1DE
:10886000180098470125A4F84C50002384F8543090
:10887000142384F860300EE7237B5909022945D17F
:10888000627B8DF80020A27B8DF80120BDF80000EE
:10889000E57BB4F8402090423ED194F842209542C6
:1088A0003AD103F00305032D3CD0012D61D1237C87
:1088B0008DF80030637C8DF80130A37C8DF8023098
:1088C000E37C8DF80330BDF80030E385626CD2881C
:1088D000934248D80023A385602384F820300123E5
:1088E000A4F84C30054B1B6804F118009847152379
:1088F00084F86030CFE600BF00000405A00500202A
:1089000023000A06430004060000030554492046DC
:10891000FFF7A8FD0325BEE652492046FFF7A2FD5A
:108920000325B8E6C3F38102C2F1040292B2E285E4
:10893000636CD888824204D81E6804F110050023B5
:1089400008E049492046FFF77FFDA4E6E85CF054C3
:1089500001339BB29A42F9D8E38DA385002384F8B2
:1089600060300D4697E640492046FFF77BFD032522
:1089700091E63E492046FFF775FD03258BE6217BF6
:108980004B091AD194F8303001F010029A421AD1F2
:1089900083F0100384F83030636C1A68A08D0244B1
:1089A000E38DC51DAB4228DC11F0010F11D004F19D
:1089B0000D051B1A99B2002316E029492046FFF73E
:1089C00051FD032567E62A492046FFF74BFD0325A5
:1089D00061E64FF000612046FFF744FD03255AE6AB
:1089E000E85CD05401339BB29942F9D8E38DA3855A
:1089F000002384F8603002254DE611F0010F03D109
:108A000004F10D0000230AE04FF000612046FFF75B
:108A100029FD03253FE6C15CD15401339BB2062BEF
:108A2000F9D9A38D0733A38594F8303043F0600360
:108A300084F820300F4B1B6804F11800984701257B
:108A4000A4F84C5027E6012525E601250DB184F850
:108A5000615003B0F0BD0125F8E70125F6E700BF3E
:108A600023000A064300040605000405100007065B
:108A700000000305A0050020002380F83030838526
:108A8000437B80F82130837B80F82230C37B80F8E1
:108A90002330704770B40124047091F85C4004F5F1
:108AA000B064856964F31C058561082480F828405A
:108AB000002480F8294091F85C5005F5C0654668AF
:108AC00065F31C064660047544758485C48580F88A
:108AD0003040B1F85E5045860487C363A0F840403B
:108AE00080F8424044648464A0F84C40B1F860309F
:108AF000A0F84E30026580F854408465C46580F863
:108B0000604080F8614070BC7047FFFF70B582B074
:108B100004460378002B00F0AD82B0F84C303BB136
:108B2000194489B2A0F84C10B0F84E3099421ED8C2
:108B3000637D23B994F85420002A00F099824BB148
:108B40000023A4F84C30237B5B09042B14D094F849
:108B500060302BB394F86030113B042B00F2868216
:108B6000DFE813F088001A018402CE011B02B0492D
:108B7000FFF76AFC03257EE2237C8DF80030637CDE
:108B80008DF80130A37C8DF80230E37C8DF8033042
:108B9000009BE3650023637584F8603003256AE277
:108BA000257B6D096B1EDBB2012B35D8637B8DF8FD
:108BB0000030A37B8DF80130BDF80010A4F8401000
:108BC000E37B84F84230E06BFFF777FB20874FF6BA
:108BD000FF73984226D0E36B94F8422019888842AC
:108BE00022D25B6803EBC00083789A421ED24368AE
:108BF00002EB420213EB82031AD06364D3B1012D5E
:108C00001ED01B7913F0010F2ED0142384F860308E
:108C10000125032D9ED12EE286492046FFF722FC36
:108C20000325F6E70023E8E70023E6E70023E4E76F
:108C30000023E2E780492046FFF714FC0325E8E71C
:108C40001A7912F0020F07D09A685AB11368A36418
:108C5000112384F86030DCE778492046FFF702FCF6
:108C60000325D6E71B68F2E774492046FFF7FAFBB5
:108C70000325CEE794F8543013B3636C9B685B68AC
:108C80009847032803D002280FD001265CE1002575
:108C900084F85450A4F84C50694B1B6804F1180038
:108CA000984784F8605002264EE1002384F854303F
:108CB000A4F84C3063492046FFF7D4FB032643E178
:108CC0002046FFF7D9FE237B03F00306032E25D0B1
:108CD000012E5BD1237C8DF80030637C8DF8013050
:108CE000A37C8DF80230E37C8DF80330BDF80030B2
:108CF000E385626CD288934242D80023A385602327
:108D000084F820300123A4F84C304D4B1B6804F14B
:108D100018009847122384F8603015E1C3F38102EC
:108D2000C2F1040292B2E285636CDB889A420AD8EF
:108D3000A56C04F1100000239A4209D9C15CE954E2
:108D400001339BB2F8E740492046FFF78BFBFBE07D
:108D5000E38DA385602384F82030636C9B682BB17E
:108D60000126A4F84C6084F85460EDE0344B1B6895
:108D700004F118009847002384F860300226E3E0ED
:108D800031492046FFF76EFB0326DDE02F492046E0
:108D9000FFF768FB0326D7E094F8543013B3636CF5
:108DA0009B685B689847032803D002280FD00126F0
:108DB000CAE0002584F85450A4F84C50204B1B689E
:108DC00004F11800984784F860500226BCE00023A4
:108DD00084F85430A4F84C301A492046FFF742FB7F
:108DE0000326B1E0217B4B0915D194F8303001F016
:108DF00010029A4215D1A26CA08D0244E38DC51DCC
:108E0000AB4251DC11F0010F26D004F10D051B1A05
:108E100099B200232BE00E492046FFF723FB0326DF
:108E200092E00C492046FFF71DFB03268CE000BFB3
:108E300000000405010004051100090600000106F8
:108E4000A005002021000008050004051000070609
:108E500023000A06000003054FF000612046FFF7DB
:108E600001FB032670E0E85CD05401339BB29942C9
:108E7000F9D8E38DA38594F8303043F0200384F8CB
:108E80002030636C9B682BB10126A4F84C6084F8F9
:108E9000546059E07A4B1B6804F11800984700238E
:108EA00084F8603002264FE011F0010F09D104F17F
:108EB0000D000023062B0BD8C15CD15401339BB2AB
:108EC000F8E74FF000612046FFF7CCFA03263BE0BD
:108ED000A38D0733A38594F8303043F0200384F842
:108EE00020300126A4F84C60654B1B6804F1180083
:108EF000984794F8303083F0100384F8303023E042
:108F00002046FFF7B9FD616CCA88E285042A24D99E
:108F1000412384F8203084F82420C2F3072384F806
:108F20002530C2F3074384F82630C2F3076284F881
:108F30002720534B1B6804F1180098470126A4F81A
:108F40004C60152384F860300023637594F86050FA
:108F5000002D00F0908035468DE0C2F104039B00A7
:108F600003F00C0343F0430384F8203004F124059C
:108F70000868002303E0C15CE95401339BB29A42C4
:108F8000F9D83F4B1B6804F118009847E38DA3857F
:108F9000002384F860300226D6E7237B5E09032E87
:108FA00011D194F8302003F01003934211D1636C77
:108FB0001A68A08D0244E38DC11D8B420EDD04F1C1
:108FC000210000233AE02F492046FFF74BFA032601
:108FD000BAE72D492046FFF745FAB5E7D9B2C0B246
:108FE000091ACEB204F121053146002303E0D05C1A
:108FF000E85401339BB29942F9D8E38DA38594F9E3
:109000003030C6F1070243EA42035BB243F001038A
:1090100084F820301A4B1B6804F11800984794F824
:10902000303083F0100384F83030002384F860304F
:10903000022689E7D15CC15401339BB2062BF9D9D2
:10904000A38D0733A38594F8303084F820300C4B7F
:109050001B6804F1180098470126A4F84C6094F8A6
:10906000303083F0100384F830306DE701266BE771
:1090700001266BE7012584F8615002B070BD00BF86
:10908000A005002023000A060000030503460A4647
:10909000032101749168506883E80300002159742A
:1090A00090899882D089D882B2F85800188392F8B3
:1090B0005A209A769983D98383F82010596283F8CD
:1090C00028107047C17890F90330002B5ADB10B597
:1090D00082B00446838B1A4492B2934200D28283B8
:1090E00011F0400F36D0A28BA38A9A4248D3E38B6B
:1090F00001339BB2E383228B934212D90123E38392
:1091000094F820300133DBB284F82030A27E934201
:1091100002D9002384F8203094F8202001239340C2
:109120006362E38B2372C3F30723637294F82030E6
:10913000A372154B1B68204698470023A383012088
:10914000A38BE28A93428CBF0023012384F828304A
:1091500002B010BD607C0028F2D0237A8DF8003078
:10916000637A8DF80130BDF80030E383A27A84F889
:1091700020200123934063620023A3836374DFE70D
:109180000020DDE700207047A005002010B5044650
:1091900090F87330022B01D0002311E0436F0830A8
:1091A00098470B4B1B68204698470FE004F11402C8
:1091B00052F8231004F108020978D1540133DBB2CC
:1091C000072BF3D9024B1B682046984710BD00BF00
:1091D000A00500202DE9F04104460E461146069DEB
:1091E0009DF81C80089F1A46FFF722F92B68E3655B
:1091F0002A89A4F864206A89A4F86620A989A4F8B9
:109200006810A87B84F86A00236008232374002375
:109210006374A66584F8701084F8712084F8723045
:1092200084F873806767B8F1020F02D025B1BDE8FA
:10923000F081002FFBD1FEE7FEE708B590F903307F
:10924000002B14DBB0F864304FF6FF718B420BD06B
:109250006AB1826DD18B8B420DD043B990F87230D8
:109260002BB1FFF793FF02E090F8723003B908BD0D
:10927000FFF78CFFFBE7C16E526A1142EDD0FFF79A
:1092800085FFF4E708B5074A0021116002F54F6237
:109290009060BFF34F8F026882F308884368984755
:1092A000FEE700BF10E000E028B130B4054600231F
:1092B0004FF6FF700BE07047020292B2EC5C84EA5A
:1092C0001020054C246834F81000504001338B42C4
:1092D000F2D330BC704700BFB005002070B588B035
:1092E00006466C460E4D0FCD0FC495E80F0007C41F
:1092F00023700C4B1B78B3700DF10101301D00F091
:1093000002F90DF10F0106F1200000F0FCF84FF416
:109310008033B3604FF42033736208B070BD00BF78
:10932000800400084000000838B504460D468378E4
:1093300001F8013B043000F01EF905F10F0104F1C2
:10934000200000F018F938BD10B40178072905D8BD
:10935000DFE801F00B0B0B0B0B070B0B00210C468E
:1093600006E040F28A21002402E041F28831002424
:10937000891844EB0303C0F85014C0F854345DF866
:10938000044B704703788B4202D001700123437075
:109390007047FFFF2DE9F04188B006464FF02008E6
:1093A00042460021684602F094FD0E4F6C463D4651
:1093B0000FCD0FC495E80F0084E80F0069463046D2
:1093C000FFF7B2FFD6F858341B6A42466946384662
:1093D000984710B908B0BDE8F08107213046FFF783
:1093E000D1FFF7E78004000838B504468389038578
:1093F000437C80F82D3043680362034633F80E2F18
:109400009B78428580F82C30FFF7C4FF04F12005DB
:10941000284600F000F9A168284600F002F938BD9E
:1094200038B50446038D838190F82D304374036A68
:109430004360034633F82A2F9B78C2810374FFF7F9
:10944000A9FF251D284600F0E6F8616A284600F0CD
:10945000E8F838BD10B50446002383704374FFF765
:1094600099FF2046FFF7C0FF201D00F0D4F8D4F884
:109470005834DB6920469847D4F858349B68204616
:10948000984710BD10B5044683786BB9043000F0DE
:1094900097F868B904F1200000F092F868B901214A
:1094A0002046FFF76FFF02E00121FFF76BFF10BDC1
:1094B00005212046FFF766FFF9E72046FFF7B0FFDA
:1094C00005212046FFF75EFFF1E710B50446D0F80E
:1094D00058341B6898472046FFF700FF2046FFF7E7
:1094E000D1FF10BD10B5044641688068FFF7DCFE6F
:1094F000A081002363742046FFF74CFF062120461D
:10950000FFF740FF10BD82B00B788DF800304B782C
:109510008DF801308B788DF80230CB788DF80330E0
:10952000009BB3F5C03F28BF4FF4C03303600B79F5
:109530008DF800304B798DF801308B798DF8023041
:10954000CB798DF80330009B43600B7A003B18BF4A
:10955000012343730B4633F8092F9B784281037331
:109560000B7B8DF800304B7B8DF80130BDF800305F
:10957000038102B0704703680B70C3F307224A707F
:10958000C3F307428A70C3F30763CB7043680B7160
:10959000C3F307224A71C3F307428A71C3F3076317
:1095A000CB71437B0B72034633F80A2F9B78A1F8EB
:1095B0000920CB7203890B73C3F307234B737047E6
:1095C00010B5044601684068FFF76EFE23898342A8
:1095D00014BF0020012010BD10B50446016840688A
:1095E000FFF762FE2389834214BF0020012010BDD3
:1095F00038B504464369016951F80C0B4FF4806299
:109600009847054620694FF48062FF210C3002F034
:1096100060FC284638BD08B5836903214068984737
:1096200008BDF8B505460F4600200446B4F5C03F16
:1096300012D228694FF48066324639190C3002F094
:109640003BFC6B696868296932460C3120449847B5
:10965000002801DB3444E9E7F8BD10B504468188F1
:109660000C30FFF721FE2389834214BF0020012024
:1096700010BDFFFF10B5044C0449204602F0B2F8BB
:10968000204602F027F910BDE01900205CC0000060
:1096900010B5044C0449204602F0A4F8204602F01C
:1096A00019F910BD8819002090C0000010B5044CB5
:1096B0000449204602F096F8204602F00BF910BD4E
:1096C000A4190020C4C0000008B5FFF7D3FFFFF7BE
:1096D000DFFFFFF7EBFF08BD08B50A4B9A68D26AB7
:1096E00018689047084B9A68D26A18689047074BE9
:1096F0009A68D26A18689047054B9A68D26A1868C7
:10970000904708BD50C0000084C00000B8C00000F1
:10971000ECC0000008B5037913B902480368984704
:1097200008BD00BF1419002008B5037913B9024819
:109730004368984708BD00BF1419002008B5037995
:1097400013B902488368984708BD00BF1419002068
:1097500008B5037913B90248C368984708BD00BF2C
:109760001419002070B50E4615461C46012824D059
:10977000022829D0002240F20231354800F055FD80
:10978000012E2ED0022E32D000220D21304800F0C2
:109790004CFD012D36D0022D3AD000220E212C484E
:1097A00000F043FD012C3ED0022C43D0002240F2B9
:1097B0000621274800F039FD70BD012240F2023138
:1097C000234800F032FDDBE7224BD3F8C820C2F378
:1097D000400282F0010240F202311D4800F025FDF6
:1097E000CEE701220D211A4800F01FFDD1E7194BE9
:1097F0005A6BC2F3400282F001020D21144800F0BE
:1098000014FDC6E701220E21114800F00EFDC9E744
:10981000104B9A6BC2F3400282F001020E210C48F9
:1098200000F003FDBEE7012240F20621084800F0E7
:10983000FCFCC1E7074BD3F89820C2F3400282F04A
:10984000010240F20621024800F0EFFCB4E700BF3D
:109850005819002000080840094B1B781BB9094B18
:109860001B78002BF8D0064B1B781BB90020054B4A
:1098700018707047024B00221A700320704700BF17
:10988000C7180020C518002010B5054C0549204612
:1098900001F006F901220221204601F0C6FA10BDAE
:1098A000FC1900203CC0000008B5024801F03CF85B
:1098B00008BD00BFFC19002070B582B006460D46F9
:1098C00000238DF807300A460146124801F092FA4B
:1098D000C8B9002401E00134E4B2AC4210D20DF169
:1098E00007034FF4004206EBC4310A4801F058FA6E
:1098F00060B99DF80730012BEDD14FF0FF3000E04B
:10990000002002B070BD4FF0FF30FAE74FF0FF309B
:10991000F7E700BFFC19002008B5134602460448CB
:1099200001F057FA00B908BD4FF0FF30FBE700BF68
:10993000FC1900202DE9F04182B000AF04460D462D
:1099400016460023FB71012201462D4801F052FA10
:10995000002849D12B4B93F80080B8F1000F06D0B6
:10996000294B1B78002BFBD0274B00221A70FB1DC4
:1099700040222146224801F013FA002837D1FB7912
:10998000012B37D0022B25D03346224629461C48CE
:1099900001F01FFA88BBB8F1000F06D01B4B1B78F3
:1099A000002BFBD0194B00221A706C46F31DDB080C
:1099B000A4EBC3039D4632462946684602F07CFA72
:1099C0002946684602F08DFA58B9A5460837BD46C3
:1099D000BDE8F081FFF740FF0028D5D04FF0FF3001
:1099E000F4E74FF0FF30F0E74FF0FF30EEE74FF0D5
:1099F000FF30EBE74FF0FF30E8E74FF0FF30E5E7EF
:109A0000FC1900203CC00000C6180020C818002027
:109A10000378032B12D8DFE803F00A0E0602084B86
:109A200001221A707047074B01221A707047064BCB
:109A300001221A707047054B01221A70704700BF4F
:109A4000C7180020C5180020C6180020C81800201C
:109A500008238371002303714371704710B5064CCE
:109A60002046FFF7F5FF04F11400FFF7F1FF03496B
:109A7000034801F095FB10BD2C190020F8BF000031
:109A8000601900208288B2F5806F12D110B50346AC
:109A9000084A02F12804014651F8240F496803C41A
:109AA000997F82F822109B69D361136B1046984707
:109AB00010BD7047241900207047FFFF10B5774B89
:109AC00093F8E93573B9754B93F8E835072B12D83D
:109AD000DFE813F012002D00480067008600A100A7
:109AE000C300DC006E4C6F4BD3E900232046FFF728
:109AF0002BFC0023637010BD6A4BD3E900016A4B55
:109B0000D3E90023994208BF904203D3134308D1FD
:109B1000002300E0002333B107216148FFF732FC46
:109B2000E9E70123F7E75E48FFF7CFFCE3E75D4B8A
:109B3000D3E900015C4BD3E90023994208BF90426E
:109B400003D3134308D1002300E0002333B10721DE
:109B50005348FFF717FCCEE70123F7E75048FFF71C
:109B600079FCC8E74F4BD3E900014F4BD3E9002301
:109B7000994208BF904203D313430BD1002300E066
:109B800000234BB94548D0F8403ADB6800F5BD608A
:109B90009847B0E70123F4E707214148FFF7F2FBBC
:109BA000A9E7404BD3E900013F4BD3E90023994299
:109BB00008BF904203D313430BD1002300E00023DE
:109BC0004BB93648D0F8403A1B6900F5BD6098475C
:109BD00091E70123F4E707213148FFF7D3FB8AE738
:109BE000304BD3E90001304BD3E90023994208BF41
:109BF000904203D3134308D1002300E0002333B184
:109C000007212748FFF7BEFB75E70123F7E7244844
:109C1000FFF768FC6FE7234BD3E90001224BD3E940
:109C20000023994208BF904203D313430ED100236F
:109C300000E0002363B9194B93F8EB35002B3FF498
:109C40005AAF01211648FFF79DFB54E70123F1E7C6
:109C500006211348FFF796FB4DE7124BD3E90001AD
:109C6000114BD3E90023994208BF904203D3134319
:109C70000AD1002300E00023002B3FF43CAF062173
:109C80000748FFF77FFB36E70123F5E70348D0F8E5
:109C9000403A9B6900F5BD6098472CE7580D0020BD
:109CA00040130020D01800209017002008B5012193
:109CB0000148FEF7D0FA08BD580D002008B51C4A2F
:109CC00013685168013341F1000113605160194A72
:109CD000136801331360012B0BD0C82B0FD0B3F5E1
:109CE000C87F13D0B3F5167F17D0B3F5487F1BD0CC
:109CF00008BD1A4600210846FFF734FDF8E70023A7
:109D0000012211461846FFF72DFDF1E700231A4600
:109D100001210846FFF726FDEAE70123002211464C
:109D20001846FFF71FFDE3E7024B00221A60DFE74A
:109D3000D0180020CC18002008B5064B064A1A603F
:109D4000064A5A60064A9A60064ADA60FFF7BCFC87
:109D500008BD00BF14190020BD9C0000AD9C000090
:109D6000BD9A0000B99A00007047FFFF034BB3F89B
:109D70008E22A3F828260320704700BF580D00202C
:109D8000024B042283F8E82503207047580D002079
:109D900008B50648FFF761FC08B9022008BD032199
:109DA0000348FFF7EFFA0320F8E700BF7C13002019
:109DB0004013002008B50448FFF70EFC08B9022044
:109DC00008BD0320FCE700BF441300207047704724
:109DD00070477047C2692830284BD3F8C832C3F3A4
:109DE0001C039A420ED0254BD3F8FC31C3F31C035D
:109DF0009A4221D0214BD3F86432C3F31C039A4218
:109E000039D070471D4B93F8CB3213F0400FF8D187
:109E100010B41A4B93F8D842002304E0C15C184AEE
:109E2000995401339BB29C42F8D8144B012283F819
:109E3000D9225DF8044B7047104B93F85832002B31
:109E4000D8D00023072B05D8C15C0E4A99540133A2
:109E50009BB2F7E7094B012283F80D227047C15CE2
:109E6000094A995401339BB2072BF8D9034B0122BD
:109E700083F8752270470023F6E700BF580D0020D5
:109E8000281000205C0F0020C40F002010B50246EF
:109E90000A4B03F11404014651F8080F496803C442
:109EA0001168C1F31C019960127C9A7303F10802D6
:109EB0005968034801F0D2F810BD00BF24190020F2
:109EC0006019002070B584B0FFF74EFF274B284A79
:109ED0001A60284A284C294B1B6852F8481C204617
:109EE000FEF7AEF9264904F53270FFF7CFF80024EB
:109EF00023E0244B53F824301F4D04EBC4018A00A7
:109F000002F5CC721E490A44C4EB0416F000183066
:109F100002930223019304EB840606FA03F303F58C
:109F2000A4730B44043300936B69043205F532715A
:109F30002844FFF74FF90134E4B2032CD9D90E4C71
:109F400004F532760E4D63693246294604F51870E1
:109F5000FEF7A0FD3246294604F5FC70FEF7B6FA7E
:109F6000094B0A4A1A6304B070BD00BFA005002067
:109F70008D9E00000C080020580D0020700C002061
:109F8000C4070020200D002024190020D59D0000CA
:109F90007047704708B572B6FFF7BEFC62B608BDE1
:109FA00008B5FFF7C7FC08BD08B5012240F2012142
:109FB0000A4800F03AF94FF47A71084601F0F8FDCA
:109FC000BFF34F8F0649CA6802F4E062054B1343A2
:109FD000CB60BFF34F8F00BFFDE700BF58190020D3
:109FE00000ED00E00400FA0508B58068FFF74AF9C3
:109FF00008BDFFFF70B586B005460E4600235C1C09
:10A00000E4B2B3422ED81A4B93F85932002BFAD14E
:10A01000039503218DF810100123ADF812300023B1
:10A02000059341F28833019303AB0093062342F278
:10A0300001021048FEF77EFA0D4B93F85932012BBE
:10A04000FAD0032B05D10A4B002283F8592223466C
:10A05000D5E7074B002283F8592202212846FFF753
:10A0600091F903E007212846FFF78CF906B070BD8F
:10A07000580D0020500F002010B504460430FFF7A3
:10A08000B7FA68B9B4F842300133A4F8423002217B
:10A090002046FFF777F903212046FFF7ABFF10BDFD
:10A0A00007212046FFF76EF9F9E710B504460221B3
:10A0B000FFF768F903212046FFF79CFF10BD08B5A4
:10A0C000FFF7F2FB08BD08B5FFF7DEFB08BD08B5DA
:10A0D00072B6FFF7F1FB62B608BDFFFF08B50D4889
:10A0E0000D4BC0F8403A00F22463C0F81836C0F8AF
:10A0F000FC350A4BC0F81C36C0F80036084BC0F8D7
:10A100002036C0F80436002100F5BD60FFF73AF9AB
:10A1100008BD00BF580D0020300D0020959F0000A5
:10A12000CFA0000008B5074B00221A6003F54F636B
:10A130009860BFF34F8F036883F30888436898479C
:10A1400008BD00BF10E000E008B5FFF7C7FFFFF74C
:10A15000B9FEFFF783FCFFF7EFFD19E04FF47A71CA
:10A16000322001F025FDFFF7B7FA0C4B9A685269CF
:10A17000186890470A4B9A68D26818689047094B4C
:10A180009A685268186890474FF48030FFF7CAFF0A
:10A19000054B93F8E835062BFAD1DFE730C0000015
:10A1A000ECBF0000E0BF0000580D0020022800D0E6
:10A1B000704708B5024B5968024800F065F908BDC0
:10A1C000E0BF00005819002008B5FFF7BDFF0020D0
:10A1D00008BD0346002018607047FFFF0B0A1B01F3
:10A1E00053FA81F1034B53F82130C3F3400313704A
:10A1F0000020704700080840090A490101F1804128
:10A2000001F500214B6813800020704702EA03002B
:10A2100023EA0203090A490101F1804101F5002105
:10A2200040EA03438B6000207047CBB20120984086
:10A2300080B262B9024600200B0A5B0103F1804341
:10A2400003F5002340EA0240986000207047002296
:10A25000F2E710B4090A490101F1804101F500213A
:10A26000086802EA0304204362EA030202400A602B
:10A2700000205DF8044B7047090A490101F1804153
:10A2800001F500214B68C3F30F4313800020704792
:10A290000B0A5B0103F1804303F500235868C9B240
:10A2A000012303FA01F18BB201EA1041994203D074
:10A2B000002313700020704701231370FAE702EAAD
:10A2C000030023EA0203090A490101F1804101F573
:10A2D000002140EA0343CB6000207047062070470E
:10A2E00010B4000A400100F1804000F50020C4686D
:10A2F000012B0AD044EA02426FEA01416FEA1141A0
:10A300001140C1605DF8044B704721434FF6FF7365
:10A3100043EA02421140F4E708B5134601F47F40D6
:10A32000012A09D0C9B2012202FA01F18AB2002140
:10A33000FFF7D6FF002008BDC9B2012202FA01F1E1
:10A3400089B20022F4E7FFFF10B411F4803F0ED071
:10A35000030A0C4A1B0153FA80F352F823406FF3AF
:10A36000104442F8234021F4803442F82340030A89
:10A370001B0153FA80F0034B43F820105DF8044BA7
:10A38000704700BF00080840F8B50026374632463F
:10A390001FE001219940C9B20F430133022B17D8A6
:10A3A000416801EBC204A588144C34F81340A5425F
:10A3B000F3D151F8321001F0F851B1F1807FE8D0BB
:10A3C000B1F1106FE5D001219940C9B20E43E4E725
:10A3D00001320388934201D90023DFE7012001F015
:10A3E000D9FC074A92F8BB343B43F743FFB21F4006
:10A3F00082F8BB74012001F099FCF8BDB0C20000E6
:10A4000000E0014038B50546FFF7BEFFEFF31081CD
:10A41000012383F310881A4B1B6823B9194B0022C0
:10A42000DA704022DA70164A13680133136081F340
:10A43000108800242B88A3420AD96B6803EBC4025E
:10A4400053F834109088FFF77FFF0134A4B2F1E78E
:10A45000EFF31083012282F31088094A12681AB1BF
:10A4600007490A68013A0A60054A126822B9054A92
:10A470000021D1708021D17083F3108838BD00BFD6
:10A48000801A0020000D084008B5034B0360084601
:10A49000FFF7B8FF002008BD54524F5008B50846DA
:10A4A000FFF7B0FF002008BD70B584B00C4615461C
:10A4B000ADF8041000920126ADF80860CDF80CD07C
:10A4C00002A8FFF761FFEFF3108286F31088144BA8
:10A4D0001B6823B9134B0021D9704021D970104E4D
:10A4E00033680133336082F3108829462046FFF732
:10A4F0002BFFEFF31083012282F31088326812B130
:10A500003268013A3260064A126822B9054A0021CF
:10A51000D1708021D17083F31088002004B070BD09
:10A52000801A0020000D08408368C2689A600020ED
:10A5300070478368C2685A60002070478368C268A9
:10A54000DA600020704730B44368DB695A6842F033
:10A550000042996841F00044D96841F000418568A3
:10A560006C618468A16181680A61826819695162BD
:10A5700082685B699362002030BC70470139836850
:10A5800099668368DA6A12F0010F03D1596683680D
:10A59000C268DA6000207047062070478368DB6A73
:10A5A000C3F300030B7183689B6C0B600020704742
:10A5B0004161C261836100207047FFFF4160012358
:10A5C0000374C36813F00F0F01D0002303740A7CD7
:10A5D000054B13441B0283604B6943618B69C36164
:10A5E00000238361704700BF9016400082684FF0DF
:10A5F000004313618268536182689361826800231B
:10A60000536282689362704708B5FFF7EFFF00203E
:10A6100008BDFFFF002810DB00F01F0143090122E5
:10A620008A402033054941F82320BFF34F8FBFF301
:10A630006F8F034B002243F82020704700E100E0B9
:10A64000841A002038B504464368DD6993F9120086
:10A65000FFF7E0FF95F92400FFF7DCFF95F92500EF
:10A66000FFF7D8FF00202060A368E2689A60A36823
:10A67000586338BD002820DB10B40901C9B20F4C63
:10A68000231883F800130E4B43F820200D4B00F1E4
:10A69000C00253F822106FF3104143F8221000F06B
:10A6A0001F0240090123934000F1600244F8223068
:10A6B00044F820305DF8044B7047704700E100E03B
:10A6C000841A0020006000402DE9F04104460E4647
:10A6D000CD69EFF31087012383F31088314B1A699A
:10A6E00091F810C04FF0004121FA0CF122EA01026A
:10A6F0001A611B6987F3108883684FF425421A603A
:10A7000083680027DF628368DF6383689F64337A2E
:10A71000DB05726802F1FF388268D362FFF766FFDB
:10A72000A368AA69DA61A368EA691A62A368C3F830
:10A730006880A368C3F86480EB6AA2689763A26824
:10A74000C2F88870EA6A3AB995F8202043EA4233A1
:10A7500095F8212043EA4273A2684FF4AA011164DC
:10A76000A268E168D160A2685363A36803221A63F8
:10A77000A36801221A632246717C96F91200FFF742
:10A7800079FF224695F8221095F92400FFF772FF11
:10A79000224695F8231095F92500FFF76BFFBDE8D9
:10A7A000F08100BF0040084038B504460D460A7CE1
:10A7B00001239340C360FFF701FF29462046FFF7BE
:10A7C00083FF024B2360002038BD00BF5450470078
:10A7D0008368D86AC0F3C350064B1A6AC2F3026199
:10A7E00002F00702044B1B688B40D34023FA00F0B1
:10A7F000704700BF00E001400C1C002010B50C4663
:10A8000083685B6E01338B60FFF7E2FF60600123BA
:10A810002370002010BD70B584B004460E46154666
:10A820008369ABB193E807000DF1100C0CE9070048
:10A830001E719D60E2691A60626918469047A369BB
:10A8400023B104AA12E9070083E8070004B070BD31
:10A8500001ABEDE738B5EFF30383C3F30803103B17
:10A860005BB21A4A03F1C00152F821006FF31040A5
:10A8700042F82100164A52F8230042681278012A51
:10A8800006D043691BB100221146FFF7C4FF38BD53
:10A890008268C1689160816800228A648168CA64A4
:10A8A00081680A65094903F1C00451F8245062F334
:10A8B000104541F8245003F01F015B0901228A4032
:10A8C0006033044941F82320DBE700BF006000400B
:10A8D000841A002000E100E0054BB3F8843003F057
:10A8E000810313B90B700020704701230B70FAE746
:10A8F00000E07F4006207047062070470620704722
:10A90000062070470B46064A92E8030083E80300DE
:10A91000044A083392E8030083E8030000207047EC
:10A9200018C3000020C3000000230360436893F9AC
:10A930001130002B0CDB03F01F015B0901228A4060
:10A940002033104941F82320BFF34F8FBFF36F8F9F
:10A950000D4B00221A76436893F9133093420CDBB7
:10A9600003F01F015B0901228A402033054941F8A9
:10A970002320BFF34F8FBFF36F8F0020024B18755A
:10A98000704700BF00E100E000E07F4081630264A7
:10A99000C36300207047FFFF10B4002380F83430F9
:10A9A000374C012384F81634236AC3F30262C3F3DD
:10A9B00002733449096801FA02F2DA40236AC3F3E8
:10A9C00002639940D940304B9A4255D902F574221E
:10A9D00002F23F2204F1467404F5FF348334A4FBF1
:10A9E0000232920C01F5742303F23F23A4FB0313FC
:10A9F0009B0C02F5F0522549A1F8E42043F6B8512A
:10AA000001FB03F1224AA2FB01418908816040F663
:10AA1000D86101FB03F1A2FB01418908C160590023
:10AA2000A2FB014189080161542101FB03F1A2FB52
:10AA3000014189084161174901FB03F1A2FB014172
:10AA40008908816144F2506101FB03F1A2FB0141DD
:10AA500089084162104901FB03F1A2FB0141890809
:10AA600001620E4901FB03F3A2FB03329208C261AB
:10AA700000205DF8044B70474FF4FB70F9E700BF0E
:10AA800000E001400C1C0020FF083D0000E07F407A
:10AA9000ABAAAAAA38AF040080DE0F00A0F703001B
:10AAA0002DE9F041044641600B78002B52D04B68F1
:10AAB0008363CB6803640026C663DFF8B0E001203F
:10AAC0008EF8180091F911300D7C2D01EDB2244A59
:10AAD000D71887F80053DFF898C04CF82340214D71
:10AAE00003F1C00755F8278066F3104845F8278022
:10AAF00003F01F075B0900FA07F703F1600842F84B
:10AB0000287042F8237098238EF8143091F913308E
:10AB1000897C0901C9B2D71887F800134CF8234083
:10AB200003F1C00155F8217066F3104745F8217014
:10AB300003F01F015B09884003F1600142F8210026
:10AB400042F823002046FFF727FF08B9064B236091
:10AB5000BDE8F081054B00221A761A75F2E700BFB6
:10AB600000E100E0006000404E45504F00E07F40B3
:10AB7000841A002008B5FFF70FFF08BD10B582B09A
:10AB800004460A46C36BA3B193E803000DF1080C19
:10AB90000CE903001A70226C5A60A26B18469047A9
:10ABA000E36B23B102AA12E9030083E8030002B0B9
:10ABB00010BD6B46EEE7FFFF70B483B04FF49643D1
:10ABC000019343681A7862B393F91130214C03F171
:10ABD000C00254F822106FF3104144F8221003F021
:10ABE0001F055B09012202FA05F51B4903F1600606
:10ABF00041F8265041F82350436893F9133003F18C
:10AC0000C00054F820506FF3104544F8205003F072
:10AC10001F005B09824003F1600041F8202041F8E9
:10AC200023200E4B4AF68022A3F884200B4BB3F866
:10AC300084309BB2802B05D0019B3BB1019B013B33
:10AC40000193F3E7002003B070BC70474FF4FA7033
:10AC5000F9E700BF0060004000E100E000E07F4055
:10AC600008B501F0A5F908BD70B50546FFF7A4FFCA
:10AC7000E0B96B681B78D3B1012385F83430064600
:10AC800032460421284601F083F96B681B786BB9C2
:10AC900018224FF4805101F09BF904462B6B0BB145
:10ACA0000028EDD001F05CF904B1204670BDEE68DB
:10ACB000E6E7FFFF70B5054681620263FFF77CFFA0
:10ACC00018BB06466B681B78EBB1022385F834305D
:10ACD0000F4B0122A3F8E02032464021284601F024
:10ACE00047F96B681B786BB919224FF4005101F0DA
:10ACF0006FF904462B6B0BB10028EDD001F030F951
:10AD000004B1204670BDEE68E2E74FF4FA70F9E74F
:10AD100000E07F40F8B507460C4616461D46FFF793
:10AD20004BFF10BB1D4B002283F8D0201C63344422
:10AD3000013C5C63A3F5F03371221A70D0221A70C3
:10AD40007B681B7863B97969B20802FB0112134969
:10AD5000D1F8801011F4004F09D13AB1013AF6E769
:10AD6000032387F8343002232B70F8BD14204FF4EE
:10AD7000FC72002101F02CF90446084B93F8D43002
:10AD8000DBB2012B07D000232B7001F0E9F8002C77
:10AD9000EBD02046E9E72B70F7E700BF00E07F40EB
:10ADA00010B5B1F5C02F11D2002480F834401C70CA
:10ADB0002046904208D20C5CFF2C01D10130F8E70C
:10ADC00001221A70002000E0002010BDFFF7A2FF52
:10ADD000FBE708B55B0803638162C262002380F869
:10ADE0003430B2F1006F02D201F0EAF808BDFFF78B
:10ADF0003BFFFBE708B5002380F83430B1F1006F6A
:10AE00000ED2B1F5803F06D221F4FF5121F01F018F
:10AE100001F0B6F808BD21F4FF4121F07F01F7E70A
:10AE200021F03F01FFF746FFF4E708B501F0B8F85D
:10AE300008BDFFFF70B5EFF30384C4F30804103CB2
:10AE400064B2164B53F82450154A137CD2F8802074
:10AE500013F0080F0BD1D9B211F0800F18D111F0F7
:10AE6000100F17D012F4405F16D0072600E004261A
:10AE7000284601F09DF80B4BC03453F824206FF3A3
:10AE8000104243F8242031462846FFF777FE70BD74
:10AE90000526EDE70726EBE70626E9E7841A0020FA
:10AEA00000E07F400060004038B5EFF30383C3F358
:10AEB0000803103B5BB21E4A52F823401D4AC033C0
:10AEC00052F823106FF3104142F8231094F83450D5
:10AED000012D12D0022D1ED0174B93F8D430DBB2C7
:10AEE000012B22D0022501F03BF8002384F83430F6
:10AEF00029462046FFF742FE38BD236B002BF2D0D7
:10AF000000220421204601F043F80028F4D0204616
:10AF100001F04EF8F0E7236B0BB90025E3E70022C0
:10AF20004021204601F024F8E6E70325DBE700BFD7
:10AF3000841A00200060004000E07F4030B40346E7
:10AF4000002098601A6892F9152002F01F05510937
:10AF5000012202FA05F51E4C203144F82150BFF3BE
:10AF60004F8FBFF36F8F196891F9161001F01F050D
:10AF7000490902FA05F5203144F82150BFF34F8FFB
:10AF8000BFF36F8F196891F9171001F01F05490978
:10AF900002FA05F5203144F82150BFF34F8FBFF37B
:10AFA0006F8F596881F84C08C1F82C04EFF31085B5
:10AFB00082F3108807494C681B681B68C3F10203C1
:10AFC0009A4022434A604B6885F3108830BC704732
:10AFD00000E100E000400840062070474268B2F8F7
:10AFE00042389BB20B6092F84E384B7392F84F3850
:10AFF0000B7392F8503803F07F030B6183F07F03EB
:10B0000082F8503800207047C1614262036200201C
:10B010007047FFFF037B5BB1022B06D0022B12D0DF
:10B020000023106820F0604007E010790028F5D177
:10B030001068094B03EA80400023527943EA827387
:10B0400003430B6070471379012B01D00023E8E71D
:10B050004FF00043E5E700BF0000FC1FF8B50346D2
:10B060001746026810695E68731893F82038DB0988
:10B070001FD10D4601F1200306EB03143A46214689
:10B08000FFF7C8FFBA79A38862F30303A380B879F6
:10B09000A31D07F10C0204E012F8010B03F8010BE9
:10B0A0000846411E0028F7D13544802385F8203812
:10B0B000F8BD4EF66320FBE7F0B58DB007460C46B1
:10B0C000D0F820C0BCF1000F22D001AD66460FCEF3
:10B0D0000FC50FCE0FC596E8070085E80700654647
:10B0E0000FCC0FC50FCC0FC594E8070085E807000B
:10B0F000FB69604698473C6A44B101AD0FCD0FC46F
:10B100000FCD0FC495E8070084E807000DB0F0BD2F
:10B110008C46EDE74268B2F840386FF38A23A2F814
:10B120004038B2F8403861F30923A2F84038B2F849
:10B13000423803F4E063B3EB012FF8D17047F8B560
:10B1400004460D464768437B93420AD1237BAB42BA
:10B1500006D0052D0FD029462046FFF7DBFF2573CB
:10B16000F8BD16460221FFF7D5FF87F858686673C9
:10B1700002232373EAE702212046FFF7CBFFB7F84B
:10B18000403843F48063A7F84038B7F8423813F4E6
:10B19000806FFAD0E3E708B5FFF7D1FF002008BDC4
:10B1A0002DE9F041074688460D690E6806F58026B0
:10B1B000A83636034660EFF3108C012181F3108826
:10B1C000804A5468D8F80030C3F1020301FA03F34F
:10B1D00024EA0303536053688CF31088C0F800809E
:10B1E000D8F80830C361D8F80C30436200240462F8
:10B1F0002B7803762246FFF7A2FF2A7B2B7DDB000C
:10B2000043EA420343F4E073A6F84038D8F8042038
:10B210001368591E6C4B03EA01435168013943EA34
:10B2200001739168013943EA0123D268013A43EA84
:10B2300002333A7E1343C6F8443822460221384688
:10B24000FFF77DFF802386F850384FF400722146C7
:10B25000B01800F03EFE04E00023321982F82038D6
:10B2600001341F2C11D8AA6802EBC4029379002B79
:10B27000F2D12969A142F0D904F1200106EB0111B4
:10B280002846FFF7C7FE4023E7E70023184608E0FB
:10B2900003F5807146F8212099000F228A4010435F
:10B2A00001332A69B3EB920F0DD26A6852F823205A
:10B2B0006FF060418A42F3D2297B0029E8D14349EB
:10B2C00001EA8242E4E7C043C6F82804002211469E
:10B2D0003846FFF734FFB6F8403843F02003A6F8AD
:10B2E0004038B6F8403813F0200FFAD198F91520FD
:10B2F00098F814100901C9B2354B981880F800135A
:10B30000344D45F82270344802F1C00150F8214014
:10B310006FF3104440F8214002F01F04520901214C
:10B3200001FA04F402F1600C43F82C4043F8224087
:10B3300098F9162098F814402401E4B203EB020CAB
:10B340008CF8004345F8227002F1C00450F824C084
:10B350006FF3104C40F824C002F01F04520901FAA8
:10B3600004F402F1600C43F82C4043F8224098F9B1
:10B37000172098F814402401E4B203EB020C8CF877
:10B38000004345F8227002F1C00450F824506FF3D6
:10B39000104540F8245002F01F005209814002F18C
:10B3A000600043F8201043F822103E2386F84C3802
:10B3B0004FF0FF33C6F82C34084BBB600020BDE8CB
:10B3C000F08100BF004008400000FF030000FC1FA8
:10B3D00000E100E0841A0020006000404E4143522A
:10B3E00030B58DB0EFF30383C3F30803103B5BB2BA
:10B3F0002F4AC03352F823106FF3104142F8231044
:10B40000EFF30383C3F30803103B5BB2294A52F8FE
:10B4100023502C22002101A800F05BFD6C6894F8F9
:10B420004D38ADF80830002284F84D28B4F8422891
:10B4300012F0100F3AD043F02003ADF8083094F822
:10B440005328D2B2022384F8533894F8523803F0C8
:10B450001F0384F85328E11891F820286FF3820223
:10B4600081F82028002205922A68126801926A6AEF
:10B470000692049301A92846FFF71EFE2B6819695E
:10B48000B4F8422812F0100F0ED00A7D62B193F981
:10B490001530002B08DB03F01F015B0901228A40F5
:10B4A0004033054941F823200DB030BD0023D9E7D2
:10B4B00000600040841A002000E100E0F0B58DB08B
:10B4C000EFF30383C3F30803103B5BB2424AC0337C
:10B4D00052F823106FF3104142F82310EFF3038466
:10B4E000C4F30804103CE6B264B23C4B53F82400A9
:10B4F000456895F85328D2B2002385F8533895F85B
:10B50000523803F01F0385F85328426803F1200CDA
:10B510004FEA0C1C52F80C70C7F380718DF82110A3
:10B5200001680969097B52F80CC041EADC7101F03D
:10B5300001018DF8201011BBC7F38A47079703F16B
:10B54000200102EB01118988C1F3030701F00F010B
:10B550008DF82270082902D908218DF822100021C7
:10B560009DF82270B9420ED202EB03170F4497F8F0
:10B5700006C20CAF0F4407F808CC0131F0E727F002
:10B5800060470797DBE71A44442182F8201800221D
:10B59000099207AA05924FF48062ADF8082004933F
:10B5A00003681B680193436A069301A9FFF784FDB2
:10B5B000B5F8423813F0010F0BD0002C09DB06F070
:10B5C0001F066409012303FA06F64034044B43F8CE
:10B5D00024600DB0F0BD00BF00600040841A002060
:10B5E00000E100E030B58DB0EFF30383C3F308034F
:10B5F000103B5BB2244AC03352F823106FF3104162
:10B6000042F82310EFF30383C3F30803103B5BB24C
:10B610001E4A52F823500023ADF808306C6894F8A5
:10B620005318C9B2012284F8532894F8522802F022
:10B630001F0284F85318A11881F8203881F82038A7
:10B6400004924FF40062ADF808202A681268019253
:10B650006A6A0692059301A92846FFF72DFDB4F802
:10B66000423813F0020F0DD02B6893F91730002BDE
:10B6700008DB03F01F015B0901228A4040330449C3
:10B6800041F823200DB030BD00600040841A002036
:10B6900000E100E0C3688268013B9BB213808368CD
:10B6A000F1221A72002070478368F0221A7200207B
:10B6B0007047062070470161826143610020704736
:10B6C00081680A7A02F001020B7AC3F340039A42BE
:10B6D000FAD10020704710B50446FFF7F1FF10B90A
:10B6E000A368F0221A7210BD10B50446FFF7E8FFF8
:10B6F00020B9E368A268013B9BB2138010BD38B546
:10B7000005460C46FFF7DCFF40B9AB681B7AC3F374
:10B7100040032371AB681B889BB2236038BDFFFFD9
:10B7200010B50446FFF7CCFF10BBA368F4221A72D1
:10B73000A36800221A73636893F9123013F1210F82
:10B7400014D093420CDB03F01F015B0901228A40F5
:10B750002033084941F82320BFF34F8FBFF36F8F89
:10B76000636893F91220044B43F8224000232360BE
:10B7700010BD00BF00E100E0841A002070B4CA6967
:10B7800015782B461679D47804F0070435B90A7A6F
:10B79000AAB182F002031B01002202E0502D10D05A
:10B7A0000A7A234381680E73816800248C73816850
:10B7B000DBB24B728168D3B28B7270BC70470022CF
:10B7C000EFE70022EDE7FFFFC16043681A7C044BFE
:10B7D00043F8221089B2013989B283681980704711
:10B7E000F018002070B504460D460B7C03F580036D
:10B7F00003F568631B0283604160EFF31086012349
:10B8000083F310880B7C032B4ED82C480168032B44
:10B810004CD8C3F1030201239340DB430B40036088
:10B820002B7C032B48D8254B1B6886F31088A36814
:10B8300000221A72A3681A7A12F0020FFAD10022BB
:10B840009A7229462046FFF799FF69682046FFF75C
:10B85000BBFF95F91230002B1DDB6A7C1201D2B2BE
:10B860001749C81880F80023164A42F82340164AA0
:10B8700003F1C00052F820606FF3104642F82060D8
:10B8800003F01F005B090122824003F1600041F8D0
:10B89000202041F823206B692361AB69A36100205C
:10B8A00060610A4B236070BD0948AFE7C3F1130222
:10B8B00001239340DB43B1E7054BB5E70C4008405B
:10B8C00000E100E0841A002000600040544741007D
:10B8D0001040084038B50446FFF7F2FE054630B97F
:10B8E00063681B78012B04D0A368F1221A722846E2
:10B8F00038BDE1682046FFF767FFF5E770B50446FD
:10B900000D46FFF7DDFE064608B1304670BD2946FC
:10B910002046FFF759FFF8E7437AC3F3021333F0E9
:10B92000030213D110B419460C4A146AC4F302601E
:10B93000C4F302240A4A1268824022FA04F00BB1CE
:10B9400083F00201C8405DF8044B7047817A01F032
:10B9500007014FF40040C840704700BF00E00140BD
:10B960000C1C002070B504460D46FFF7A9FE0646E4
:10B9700018BBE368AB606368DA691278502A16D1A5
:10B98000A068A0F580701B7C013B0D4A52F8233063
:10B990000BB96B600FE0FFF7BFFF63681B7C013BD7
:10B9A000074A52F82330B0FBF3F0686003E0A06868
:10B9B000FFF7B2FF686000232B70304670BD00BFF8
:10B9C000F018002030B585B0EFF30383C3F308030C
:10B9D000103B5BB2204A03F1C00152F821006FF323
:10B9E000104042F821001D4A52F82340A1680A7A0B
:10B9F000D2B2134660680078012823D02269DAB1F8
:10BA0000656935B395E807000DF1100C0CE90700E6
:10BA100013F0200F01D000232B71A3692B60236941
:10BA200028469847636923B104AA12E9070083E80E
:10BA30000700A3681B7ADBB2A26803F00F0313723E
:10BA400005B030BDF4230B7202F0F003A26813724C
:10BA5000D4E701ADDCE700BF00600040841A00209D
:10BA6000064A92F82610064B53F82130126AC2F3A8
:10BA70000262D340034A1360704700BF00E00140F8
:10BA8000881800200C1C002008B5084B084A1A60D2
:10BA9000084A5A604FF400429A600749D9601A6117
:10BAA000064A5A61FFF7DCFF08BD00BF8818002076
:10BAB000002D310100127A00001BB70000E1F505EE
:10BAC00008B50A4B012283F81C2103F50053052217
:10BAD00083F82620064A1A62FFF7C2FF054BF122BF
:10BAE0001A7300221A72F0221A7308BD00C00140B6
:10BAF000100101100020004008B5284B4AF2035203
:10BB0000A3F8FE23A3F500530122A3F80421244B3C
:10BB1000B3F804319BB2002BF9D10123204AA2F8DB
:10BB20000031A2F5A83293601360FFF7ADFF1B4B05
:10BB3000202283F81324092283F8A22093F880346A
:10BB400013B3164B002283F8812483F8802483F8F2
:10BB50003220124B93F83C3013F0080FF9D00F4B02
:10BB600043F202121A85002283F82A200B4B93F825
:10BB70003C3013F0200FF9D0FFF7A2FF074B4FF432
:10BB80002542A3F8FE2308BD0121044B83F880144D
:10BB900040F2C44000F00CF8D3E700BF00E00140E1
:10BBA00000C001407047A0F101000028FBD17047A0
:10BBB00038B501FB00F11D4B1A681D48B0FBF2F0CF
:10BBC0004A01CB0E521A63F100039C0044EA9274BE
:10BBD00095006A1844F10003DC0044EA5274D50071
:10BBE000012C08BF002D06D2B5FBF0F0800808B18B
:10BBF000FFF7D9FF38BD8000B1FBF0F25001D10E44
:10BC0000801A61F100018B0043EA90738400A01850
:10BC100043F10001CB0043EA5073C2001046012BF0
:10BC200008BF002AE3D34FF0FF30E1E70C1C0020EF
:10BC300000CA9A3B08B5034B53F8203003B198472C
:10BC400008BD00BF401A002038B50B4BB3F8405177
:10BC5000ADB2002404E02046FFF7ECFF0134E4B26B
:10BC60000F2C05D825FA04F313F0010FF6D0F2E7F4
:10BC7000014BA3F8305138BD0060004000B585B0DD
:10BC8000032000F087F8244B6FF0FF029A644FF016
:10BC9000FF33019302930393002300E001335F2BF2
:10BCA00014D81E4A32F81320002AF7D05A0903F09C
:10BCB0001F00012101FA00F004A901EB820252F8F1
:10BCC0000C1C21EA000142F80C1CE7E700230DE000
:10BCD00004AA02EB830252F80C2C114941F82320EC
:10BCE00003F1A0000F4941F820200133022BEFD9C6
:10BCF000032000F01BF8002308E0084A32F8130084
:10BD000003F1C001084A42F8210001335F2BF4D946
:10BD100005B05DF804FB00BF00800040B8C1000022
:10BD20007080004000E100E000600040EFF310820E
:10BD3000012383F31088144B33F810309BB23BB1CE
:10BD4000114931F810309BB2013B9BB221F8103001
:10BD50000D4B33F810309BB293B910B40B49B1F8C6
:10BD6000FE339BB20A4C34F8100043F4254323EA17
:10BD70000003A1F8FE3382F310885DF8044B70478E
:10BD800082F31088704700BF041C002000E00140CF
:10BD9000B0C3000010B4EFF31081012383F31088C7
:10BDA0000E4B33F810309BB25BB90D4AB2F8FE333C
:10BDB0009BB20C4C34F81040234343F42543A2F8C3
:10BDC000FE33064A32F810309BB201339BB222F8A0
:10BDD000103081F310885DF8044B7047041C00207C
:10BDE00000E00140B0C3000000BE704708B500F09D
:10BDF00003F8FEF7E9F9FEE738B5244B4FF470027B
:10BE0000C3F88820224A9A600020FEF7CFF9FFF796
:10BE100073FE0120FEF7CAF91E4B83F30A881E4801
:10BE20001E4A121A002100F054F81D481D4A121A29
:10BE30001D4900F041F81D4D1D4BED1AAD100024B9
:10BE4000AC4205DA1A4B53F8243098470134F7E72F
:10BE5000FFF706FE0320FFF79DFF002307E003F135
:10BE60000801144A4FF6FF7022F811000133082B25
:10BE7000F5D90320FFF75AFF0220FEF797F9FFF7E5
:10BE8000FDFE0020FFF78EFE38BD00BF00ED00E094
:10BE900000800000101C0020A8180020101C0020AA
:10BEA0000000002088180020BCC300008418002077
:10BEB00080180020000D08400A44431E914200D122
:10BEC000704710B511F8014B914203F8014FF9D1B9
:10BED00010BD02440346934200D1704703F8011B92
:10BEE000F9E710F8012B11F8013B012A28BF9A420B
:10BEF000F7D0D01A7047FFFF4275696C74207769DC
:10BF000074682052656E6573617320416476616E5A
:10BF100063656420466C657869626C6520536F6662
:10BF20007477617265205061636B61676520766527
:10BF30007273696F6E20332E362E3000332E362EFC
:10BF40003000000000000603F8B500BFF8BC08BCD4
:10BF50009E467047F8B500BFF8BC08BC9E467047C7
:10BF600001B40248844601BC604700BF01000020C4
:10BF700001B40248844601BC604700BF950100201F
:10BF800001B40248844601BC604700BF270400207A
:10BF900001B40248844601BC604700BFE1010020B3
:10BFA00001B40248844601BC604700BFC9040020B8
:10BFB00001B40248844601BC604700BF150100205F
:10BFC00001B40248844601BC604700BFF103002071
:10BFD00001B40248844601BC604700BF71020020E2
:10BFE0005819002048C1000078C2000060190020E4
:10BFF000F8BF000064C3000000000000A01700208C
:10C00000859A00000000000010C00000010001023D
:10C0100000000000D8180020B01700200000000029
:10C0200018000000000000000000000000000000F8
:10C03000FC1900203CC0000028C3000001000000E3
:10C04000119A000000000000000000000205020636
:10C05000E01900205CC0000080C300000000000068
:10C0600050C3000000000000A861000000030700AA
:10C0700015970000000000007CC0000000000001D7
:10C08000000000FF8819002090C0000080C300005D
:10C090000000000050C3000000000000A861000084
:10C0A000010408002997000000000000B0C0000053
:10C0B00000000001000000FFA4190020C4C000001F
:10C0C00080C300000000000050C30000000000001A
:10C0D000A8610000020509003D9700000000000073
:10C0E000E4C0000000000001000000FFC0190020B3
:10C0F000F8C00000B8C200000000000080F0FA02A2
:10C100000000000040787D01000A0A0051970000FD
:10C110000000000018C10000000000000000000046
:10C12000000000000000000000000000000000000F
:10C1300000000000000000000000FFFFDFDF000043
:10C1400000000000000000000D00000050C10000D1
:10C150000400000002000000040000000D000000C8
:10C16000040000000E000000040000000F000000AA
:10C170000000011002010000000001100301000096
:10C18000000001000801000000000100090100009A
:10C19000000001000A01000004000000010200008C
:10C1A000040000000602000000000100000300007F
:10C1B0000400000002030000A100A400A500A200EA
:10C1C000A30031003000400043004600C6000000DC
:10C1D000000000000000000000000000000000005F
:10C1E000000000000000000000000000000000004F
:10C1F000000000000000000000000000000000003F
:10C20000000000000000000000000000000000002E
:10C21000000000000000000000000000000000001E
:10C22000000000000000000000000000000000000E
:10C2300000000000000000000000000000000000FE
:10C2400000000000000000000000000000000000EE
:10C2500000000000000000000000000000000000DE
:10C2600000000000000000000000000000000000CE
:10C27000000000000000000089A40000D3A100001D
:10C280009DA40000A9A4000091A2000019A3000031
:10C29000DDA20000DDA100002BA2000053A20000DF
:10C2A00079A20000BFA20000F9A100000DA20000C9
:10C2B000020403040404FFFFA9A7000033A5000043
:10C2C00029A500003DA5000047A5000009A6000023
:10C2D0007DA5000099A50000FDA700009DA5000018
:10C2E000B1A5000045A6000000000000FFFF00000F
:10C2F000002000008000000000000100FFFF05009A
:10C30000008000008000000000000008FF1F0008FF
:10C31000400000000400000002000000E8C200002D
:10C320000100000008C30000A1AA0000D3AD000076
:10C33000F5AD0000A1AD000005A9000029A900008D
:10C34000D9A80000F9A80000FDA80000F5A8000089
:10C3500061AC000075AB00002BAE000001A900002D
:10C360008DA90000A1B100005DB00000D9AF0000B0
:10C370003DAF000097B10000DDAF000009B0000044
:10C38000E5B70000D5B80000D7B60000E9B6000058
:10C3900095B60000A9B60000FDB80000B3B60000D5
:10C3A00065B90000FFB60000B7B6000021B7000075
:0CC3B00001000200080010000000000066
:10C3BC001D4BB3F8841089B24FF42A42A3F88420A1
:10C3CC004FF49642002000E0013A174BB3F884304A
:10C3DC009BB223B1002AF7D14FF4FA70F4E701298C
:10C3EC0002D0802918D070470F4B4DF60112A3F8DC
:10C3FC0044200E4B0122A3F804210C4BB3F804315A
:10C40C009BB2002BF9D10123084AA2F80031A2F506
:10C41C00A832936013607047054B01225A60044B9D
:10C42C005B68002BFBD1DEE700E07F4000C00140E1
:10C43C000070004082B04FF4964301930D4BB32231
:10C44C001A700D4BD3F8803013F4004F05D1019BBB
:10C45C0053B1019B013B0193F3E7074B1B7C13F09A
:10C46C00100F04D1002000E0142002B0704740F2FD
:10C47C00F510FAE700007E4000E07F4082B04FF4F8
:10C48C00964301930D4B50221A700D4BD3F880300C
:10C49C0013F4004F05D1019B53B1019B013B019358
:10C4AC00F3E7074B1B7C13F0100F04D1002000E0C6
:10C4BC00142002B0704740F2F510FAE700007E40FD
:10C4CC0000E07F4070B5044643681A78EAB193F9EE
:10C4DC00113003F01F015B09012202FA01F1174828
:10C4EC00203340F82310BFF34F8FBFF36F8F636877
:10C4FC0093F9133003F01F015B098A40203340F895
:10C50C002320BFF34F8FBFF36F8F0D4BB3F88430E5
:10C51C009BB27BB1FFF78EFF0646FFF7AFFF0546D8
:10C52C0006B13546FFF744FF05B12846002384F8D1
:10C53C00343070BD204600F003FAEBE700E100E078
:10C54C0000E07F4010B4846A0F4B1C630F4C202317
:10C55C002370D0232370836A0B448362036B013BEB
:10C56C000363104612B95DF8044B7047064BD3F8C1
:10C57C00803013F4004F02D118B10138F6E70020D7
:10C58C00F1E71420EFE700BF00E07F4000007E40A1
:10C59C0030B482B0C46A204B1C63A3F5F033E8249A
:10C5AC001C704D08C1F3470119700024A5421FD916
:10C5BC0003690193836A1988184B1980164BD3F8B9
:10C5CC00803013F4806F08D0019B591E0191002B11
:10C5DC00F4D1142002B030BC7047836A02338362FA
:10C5EC00C36A0233C362036B013B03630134DDE7AF
:10C5FC000A4BD02119700AB91046EBE7064BD3F859
:10C60C00803013F4004F02D11AB1013AF6E7002042
:10C61C00E0E71420DEE700BF00E07F4000007E4032
:10C62C0010B50446114B1B7C13F0100F0BD10020DE
:10C63C000E4BD3F880300B4200D1024604B914469D
:10C64C008CB9204610BD094BD3F8803013F4804FC1
:10C65C0002D140F2F510EBE7044B187C0020187463
:10C66C0040F2F510E4E7FFF7E5FEEAE700E07F4073
:10C67C0082B083690193134B1963A3F5F033402205
:10C68C001A7008221A70002305E00F4A32F81310B2
:10C69C000E4A11800133072BF7D90C4BD0221A709C
:10C6AC00084BD3F8803013F4004F05D1019B33B104
:10C6BC00019B013B0193F3E7002002B0704714206B
:10C6CC00FBE700BF00E07F407018002000007E40B8
:10C6DC0010B40C4B4FF6FF741C805C80C00380B20E
:10C6EC00104380B240F4F040D8806FEA41516FEAB9
:10C6FC00515199801C815C819C81DC815DF8044BDB
:10C70C00704700BF7018002010B483B04FF49643EC
:10C71C000193204B00221A6043681A78EAB193F90E
:10C72C00113003F01F015B09012202FA01F11A4CCE
:10C73C00203344F82310BFF34F8FBFF36F8F436840
:10C74C0093F9133003F01F015B098A40203344F83E
:10C75C002320BFF34F8FBFF36F8F104B4FF4594211
:10C76C00A3F844204AF60122A3F884200B4BB3F81B
:10C77C0084309BB2012B05D0019B43B1019B013B43
:10C78C000193F3E7002003B05DF8044B70474FF4BE
:10C79C00FA70F8E70070004000E100E000E07F4034
:10C7AC0038B50546FFF7B0FF044690B92B6B63B163
:10C7BC005CB9AA6880212846FFF7EAFE18224FF4DC
:10C7CC00A041FFF72DFF0446F0E7FFF7F1FD04B998
:10C7DC000446204638BD38B5044681620263FFF733
:10C7EC0093FF0546F8B9114B0122A3F8E0200BE0AA
:10C7FC00226A4FF400412046FFF7A4FE19224FF4A1
:10C80C00C041FFF70DFF0546236B43B13DB9A36A49
:10C81C00B3F5803FECD2E2694FF40051EBE7FFF740
:10C82C00C7FD05B90546284638BD00BF00E07F406E
:10C83C00F8B504460E4617460D4BD3F8DC50FFF7FF
:10C84C0063FF00B1F8BDED0F7A0B710B2846FFF7B3
:10C85C003FFF08492046FFF70BFF18220021FFF786
:10C86C00DFFE0446FFF7A4FD002CEBD02046E9E7E1
:10C87C0000E07F4030A1000170B506460C4615461D
:10C88C00FFF742FF50B955B144F4CC41114BA3F81A
:10C89C00E8100446FFF78CFD04B1204670BD0E4B2A
:10C8AC004FF0FF321A605A609A60DA6014F0010F90
:10C8BC000DD14FF6FF72084BDA8008493046FFF76E
:10C8CC00D7FE18220021FFF7ABFE0446E2E747F63D
:10C8DC00FF72F0E700E07F407018002030A10001EB
:10C8EC0070B506460D461446FFF70EFF30B170BD0D
:10C8FC0055F82020114B43F820200130032807D88D
:10C90C00002CF5D10D4B4FF0FF3243F82020F4E70B
:10C91C001CB10A4BDA891443DC814AF250113046BF
:10C92C00FFF7A6FE18220021FFF77AFE0446FFF758
:10C93C003FFD002CDBD02046D9E700BF701800204B
:10C94C0001B40248844601BC604700BFB9AB00008B
:10C95C009F8200006D61705F6661696CC418002075
:10C96C00B405002000002110422063308440A55003
:10C97C00C660E770088129914AA16BB18CC1ADD119
:10C98C00CEE1EFF13112100273325222B5529442C1
:10C99C00F772D662399318837BB35AA3BDD39CC369
:10C9AC00FFF3DEE36224433420040114E664C7740D
:10C9BC00A44485546AA54BB528850995EEE5CFF5B9
:10C9CC00ACC58DD55336722611163006D776F66661
:10C9DC009556B4465BB77AA719973887DFF7FEE709
:10C9EC009DD7BCC7C448E5588668A778400861182D
:10C9FC0002282338CCC9EDD98EE9AFF94889699959
:10CA0C000AA92BB9F55AD44AB77A966A711A500A00
:10CA1C00333A122AFDDBDCCBBFFB9EEB799B588BA8
:10CA2C003BBB1AABA66C877CE44CC55C222C033C4C
:10CA3C00600C411CAEED8FFDECCDCDDD2AAD0BBDF8
:10CA4C00688D499D977EB66ED55EF44E133E322EA0
:10CA5C00511E700E9FFFBEEFDDDFFCCF1BBF3AAF48
:10CA6C00599F788F8891A981CAB1EBA10CD12DC1A6
:10CA7C004EF16FE18010A100C230E320045025403C
:10CA8C0046706760B9839893FBA3DAB33DC31CD39C
:10CA9C007FE35EF3B1029012F322D232354214528C
:10CAAC0077625672EAB5CBA5A89589856EF54FE5E8
:10CABC002CD50DC5E234C324A014810466744764DC
:10CACC0024540544DBA7FAB79987B8975FE77EF73C
:10CADC001DC73CD7D326F2369106B016576676762C
:10CAEC00154634564CD96DC90EF92FE9C899E98908
:10CAFC008AB9ABA94458654806782768C018E1087C
:10CB0C008238A3287DCB5CDB3FEB1EFBF98BD89BDB
:10CB1C00BBAB9ABB754A545A376A167AF10AD01ACB
:10CB2C00B32A923A2EFD0FED6CDD4DCDAABD8BAD27
:10CB3C00E89DC98D267C076C645C454CA23C832C1B
:10CB4C00E01CC10C1FEF3EFF5DCF7CDF9BAFBABF7B
:10CB5C00D98FF89F176E367E554E745E932EB23E6B
:10CB6C00D10EF01E53454C45585F424F4F545F4D0C
:10CB7C004300000000000000800000800000000066
:10CB8C0001000100B40700200000000000000000BC
:10CB9C000000000000000000840000800000000085
:10CBAC000000080000000000000000000000000071
:10CBBC000000000000000000000000000000000069
:10CBCC000000000000000000000000000100010057
:10CBDC0004000100E8030000000000000000000059
:10CBEC0000000080000000000000000000000000B9
:10CBFC0000000000000000800000000000000000A9
:10CC0C000000000000000000000000800000000098
:10CC1C000000000000000000000000000000008088
:10CC2C0000000000000000000000000000000000F8
:10CC3C0000000000000000000000000000000000E8
:10CC4C0000000000000000000000000000000000D8
:10CC5C0000000000000000000000000000000000C8
:10CC6C0000000000000000000000000000000000B8
:10CC7C0000000000000000000000000000000000A8
:10CC8C000000000000000000000000000000000098
:10CC9C000000000000000000000000000000000088
:10CCAC000000000000000000000000000000000078
:10CCBC000000000000000000000000000000000068
:10CCCC008401004000000000FFFFE8031027000073
:10CCDC0000000000840200C0000000000000E80317
:10CCEC001027000000000000840300C000000000BA
:10CCFC000000E8031027000000000000840400C0BE
:10CD0C00000000000000E8031027000000000000F5
:10CD1C000000000000000000000000000000000007
:10CD2C0000000000000000000000000000000000F7
:10CD3C0000000000000000000000000000000000E7
:10CD4C0000000000000000000000000000000000D7
:10CD5C0000000000000000000000000000000000C7
:10CD6C0000000000000000000000000000000000B7
:10CD7C0000000000000000000000000000000000A7
:10CD8C000000000000000000000000000000000097
:10CD9C000000000000000000000000000000000087
:10CDAC004E13002003000300080C00204413002045
:10CDBC0003000400000000004C13002003000200DC
:10CDCC00000C00207C130020030004000000000075
:10CDDC008813002003000004C40C002084130020DE
:10CDEC0003000200BC0C00204013002003000100D3
:10CDFC0000000000431300200300010000000000AD
:10CE0C0017000000580A002000100100700B0020D1
:10CE1C0001100100F40B002002100100CC0C0020CA
:10CE2C0003100900880B002005100100F00C0020F5
:10CE3C0006100100100B002007100100080D002047
:10CE4C0008100100640B002009100100280C0020C0
:10CE5C000A100100D80C00200C100100100C00204E
:10CE6C000D100100640C002012100100140D0020A4
:10CE7C00131001001C0C0020141001007C0B00206E
:10CE8C00161006001C0B002017100100740C00205B
:10CE9C0018100400340C002019100100FC0C0020A8
:10CEAC0030100100E40C002031100300980C00201D
:10CEBC0032100200800C002001200800F009002034
:10CECC00D00700200300020000000000F207002041
:10CEDC000100010000000000F40700200300040022
:10CEEC0000000000F8070020030004000000000010
:10CEFC00FC070020030004000000000000080020D4
:10CF0C0003000400000000000408002003000400DB
:10CF1C0000000000D407002001000E0000000000FB
:10CF2C00C40700200100040000000000E8070020F6
:10CF3C0003000400000000005C1000200100010050
:10CF4C000000000060100020010004000000000040
:10CF5C006410002001000400000000006810002094
:10CF6C0001000400000000006C100020010004000F
:10CF7C000000000070100020010004000000000000
:10CF8C007410002001000400000000007810002044
:10CF9C0001000400000000007C10002001000400CF
:10CFAC0000000000581000200100010000000000EB
:10CFBC004C130020B59D00004E130020819D0000F5
:10CFCC00E00700200300020000000000640D0020B8
:10CFDC000300040000000000D8070020010004003A
:10CFEC00000000000C0800200300040000000000FA
:10CFFC0010080020010004000000000014080020AC
:10D00C0001000400000000001808002001000400CA
:10D01C0000000000E20700200300010000000000F7
:10D02C00500A002008080020030002000000000045
:10D03C002808002003000200000000002C0800203B
:10D04C000300040000000000200800200300010081
:10D05C000000000022080020030002000000000075
:10D06C0024080020030002000000000084130020AC
:10D07C00919D0000881300206D9D00005C0D002028
:10D08C000100040000000000DC0700200100040087
:10D09C00000000001E08002003000100000000003A
:10D0AC00C807002003000400000000001C0800203A
:10D0BC000300020000000000D20700200300020061
:10D0CC0000000000E4070020030004000000000042
:10D0DC00CD9D0000CF9D0000D19D0000D39D000090
:10D0EC00C7A00000BFA00000ABA00000939F0000F1
:10D0FC0079A00000E99F0000A99F0000919F00000B
:10D10C00A19F0000959F000000000000000000009F
:10D11C000000000000000000000000000000000003
:10D12C0000000000000000000000000000000000F3
:10D13C0000000000000000000000000000000000E3
:10D14C0000000000000000000000000000000000D3
:10D43C0000000000000000000300000000000000DD
:10D44C0000000000000000000000000000000000D0
:10D45C0000000000000000000000000000000000C0
:10D46C0000000000000000000000000000000000B0
:10D47C0000000000000000000000000000000000A0
:10DB5C00050000000E00000005000000040000009D
:10DB6C0000000000000000000100000000000000A8
:10DB7C000200000000000000030000000000000094
:10DB8C000400000000000000050000000000000080
:10DB9C00060000000000000007000000000000006C
:10DBAC000800000000000000090000000000000058
:10DBBC000A000000000000000B0000000000000044
:10DBCC000C000000000000000D0000000000000030
:10DBDC000E000000000000000F000000000000001C
:10DBEC001000000000000000110000000000000008
:10DBFC0012000000000000001300000000000000F4
:10DC0C0014000000000000001500000000000000DF
:10DC1C0016000000000000001700000000000000CB
:10DC2C00FFFF0000000000000000000000000000EA
:08DC3C002582000001820000B6
:020000040100F9
:10A10000FFFFFFFFFFFFFFFFFFFFFFFFFFFFFFFF5F
:10A11000FFFFFFFFFFFFFFFFFFFFFFFFFFFFFFFF4F
:10A12000FFFFFFFFFFFFFFFFFFFFFFFFFFFFFFFF3F
:08A13000FFFFFFFFFFFFFFFF2F
:10A20000FFFDFFFFFFFFFFFFFFFFFFFFFFFFFFFF60
:10A21000FFFFFFFFFFFFFFFFFFFFFFFFFFFFFFFF4E
:10A22000FFFFFFFFFFFFFFFFFFFFFFFFFFFFFFFF3E
:10A23000FFFFFFFFFFFFFFFFFFFFFFFFFFFFFFFF2E
:10A24000FFFFFFFFFFFFFFFFFFFFFFFFFFFFFFFF1E
:10A25000FFFFFFFFFFFFFFFFFFFFFFFFFFFFFFFF0E
:10A26000FFFFFFFFFFFFFFFFFFFFFFFFFFFFFFFFFE
:10A27000FFFFFFFFFFFFFFFFFFFFFFFFFFFFFFFFEE
:10A28000F8F8FFFFFFFFFFFFFFFFFFFFFFFFFFFFEC
:10A29000FFFFFFFFFFFFFFFFFFFFFFFFFFFFFFFFCE
:10A2A000FFFFFFFFFFFFFFFFFFFFFFFFFFFFFFFFBE
:10A2B000FFFFFFFFFFFFFFFFFFFFFFFFFFFFFFFFAE
:0CA2C000FFFFFFFFFFFFFFFFFFFFFFFF9E
:040000030000BDED4F
:00000001FF
