:020000021000EC
:100000001055002029B501003DB3010025B50100C0
:1000100025B5010025B5010025B5010025B5010074
:10002000000000000000000000000000118D010031
:1000300025B5010000000000298D0100918D01000F
:10004000099701001D960100D5970100199801003C
:10005000099701001D960100D5970100199801002C
:100060000DAA0100E5AA01000DAC0100E5AA0100FE
:100070000DAC0100099701001D960100D597010004
:1000800019980100C19C0100019D0100A1A501007A
:100090002DA501007D900100D9900100759101000E
:1000A000E99101002BB101000000000000000000F8
:1000B0000000000000000000000000000000000040
:1000C0000000000000000000000000000000000030
:1000D0000000000000000000000000000000000020
:1000E0000000000000000000000000000000000010
:1000F0000000000000000000000000000000000000
:1001000000000000000000000000000000000000EF
:1001100000000000000000000000000000000000DF
:1001200000000000000000000000000000000000CF
:1001300000000000000000000000000000000000BF
:1001400000000000000000000000000000000000AF
:10015000000000000000000000000000000000009F
:10016000000000000000000000000000000000008F
:10017000000000000000000000000000000000007F
:10018000000000000000000000000000000000006F
:10019000000000000000000000000000000000005F
:1001A000000000000000000000000000000000004F
:1001B000000000000000000000000000000000003F
:1001C000FFFFFFFFFFFFFFFFFFFFFFFFFFFFFFFF3F
:1001D000FFFFFFFFFFFFFFFFFFFFFFFFFFFFFFFF2F
:1001E000FFFFFFFFFFFFFFFFFFFFFFFFFFFFFFFF1F
:1001F000FFFFFFFFFFFFFFFFFFFFFFFFFFFFFFFF0F
:1002000010B5054C237833B9044B13B1044800E012
:1002100000BF0123237010BD782F002000000000D4
:10022000FC21020008B5034B1BB10349034800E061
:1002300000BF08BD000000007C2F0020FC21020050
:10024000002308E0A2EB030C84441CF901CC01F864
:1002500003C00133DBB29342F4D3704730B585B0AD
:100260000C460022009201920292039213E0144B7A
:10027000A3FB0013DB08194603EB8303A0EB430346
:10028000DBB21048C05602F110036B4403F8100CA7
:100290000132D2B208460928E9D80A4B195602F1B0
:1002A00010036B4403F8101C551CEAB22146684643
:1002B000FFF7C6FF00236355284605B030BD00BFD9
:1002C000CDCCCCCC000E020001E00130013191F91F
:1002D00000303BB190F900209A4205D1002AF4D1B8
:1002E000002070470120704700207047034600201F
:1002F00004E0013103F8012B013080B291F90020B4
:10030000002AF6D11A70704770B50D4604462226B1
:1003100004F8016B2046FFF7E9FF265428460DF04C
:1003200046F980B2023080B270BD30B589B0044663
:100330000D460023009301930293039304930593C6
:100340000693079369465042FFF788FF2046222311
:1003500000F8013B02E0013500F8013B95F900305F
:10036000002BF8D1222303703A234370C31C2D22A3
:1003700082706A4604E00132184600F8011B034609
:1003800092F900100029F6D1184609B030BD30B5F9
:1003900089B004460D460023009301930293039312
:1003A000049305930693079369461046FFF756FF9B
:1003B0002046222300F8013B02E0013500F8013B12
:1003C00095F90030002BF8D10346222203F8022BC6
:1003D0003A2242706A4604E00132184600F8011BD6
:1003E000034692F900100029F6D1184609B030BD35
:1003F0007B2300F8013B704703467D2200F8012B68
:1004000000225A707047222300F8013B02E00131BC
:1004100000F8013B91F90030002BF8D1034622226D
:1004200003F8022B3A224270184670477D2300F8E9
:10043000013B7047222300F8013B02E0013100F844
:10044000013B91F90030002BF8D1222101703A23B1
:100450004370C31C817004E00132184600F8011B90
:10046000034692F900100029F6D11846222300F81D
:10047000013B7047FFFFFFFFF8B52DED028B1446DF
:10048000FCEEC07AB8EE678A30EE488A222300F884
:10049000013B02E0013100F8013B91F90030002BF3
:1004A000F8D10646222306F8023B3A234370314630
:1004B00017EE900AFFF7D2FE351801352E2333547C
:1004C000601C0CF0F9FC41EC110B9FED150B0FF0CB
:1004D0005FFC57EC106B18EE100A0CF0FFFC324674
:1004E0003B460FF019F90CF079FD06462946FFF757
:1004F000B5FEC3B2013BDBB29C4207D82946304669
:10050000FFF7ACFE2844BDEC028BF8BDE41A22468E
:10051000302128460CF085FF2544EFE7AFF300803B
:10052000000000000000244008B5002A02DBFFF7AD
:100530002EFF08BDFFF7F9FEFBE7F0B589B01646C0
:100540001D460023009301930293039304930593A4
:1005500006930793222300F8013B02E0013100F8E3
:10056000013B91F90030002BF8D1222303703A238C
:100570004370C41C5B23837000270EE001312046CA
:1005800000F8013B044691F90030002BF6D12046DB
:100590002C2300F8013B01370446BD4205DD6946C6
:1005A000F05DFFF75BFE6946EDE75D2304F8013C73
:1005B000204609B0F0BDFFFF38B50446222304F8F9
:1005C000013B04E00131204600F8013B044691F96B
:1005D0000030002BF6D12546222305F8023B3A23B2
:1005E00063705AB128460CF0E2FF03462918094A05
:1005F0001068E85013790B71A01D38BD28460CF027
:10060000D6FF03462918044A1068E85093888B8067
:10061000E01DF2E70C0E0200140E0200002304E0BD
:10062000034A927AC2540133DBB28B42F8D370474B
:10063000C8050020002304E0034AD27AC2540133E3
:10064000DBB28B42F8D37047C8050020014BDB7A40
:1006500003707047C8050020144A82FB0132CB1793
:10066000C3EBA20303EB8303A1EB43035BB2104A8A
:10067000D35C0370092914DD0C4B83FB01C2C9173D
:10068000C1EBA20149B283FB0132CB17C3EBA2033A
:1006900003EB8303A1EB430149B2054B5B5C437061
:1006A0007047034B9B7A4370704700BF676666666E
:1006B000C805002010B54FF0000E0EE0134C14F8E2
:1006C0000C4000F80E40124C84FB034CDB17C3EBCC
:1006D000AC030EF1010E5FFA8EFE8E4515D20C4C66
:1006E00084FB03C44FEAE37CCCEBA40C0CEB8C0C36
:1006F000B3EB4C0CE2D19645E0D3BEF1010FDDD94E
:10070000024CA47A00F80E40DDE710BDC8050020B9
:100710006766666608B50369984708BD016043814E
:100720009DF8003003729DF804304372426000234C
:10073000838170472DE9F04104460F4616469846DE
:100740000CF035FF024623181B4D03CDA050596015
:100750002988AA7819819A72414620460CF00EFF2A
:1007600020460CF024FF154BB3F8008024F80080DD
:1007700020460CF01CFF84462518114B07CB44F88B
:100780000C006960AA601A889B78AA81AB73204626
:100790000CF00DFF24F80080394620460CF0EEFEE8
:1007A00020460CF004FF24F80080314620460CF06F
:1007B000E5FEBDE8F08100BF1C0E0200280E02001D
:1007C0002C0E020070B504460D460E682D493046C9
:1007D0000CF0F5FE78B16B68C4F888302378012BF3
:1007E00005D001232370D4F87C322046984704F1C9
:1007F0008406304670BD244930460CF0E0FE70B1EE
:100800006B68C4F820312378022B05D002232370B3
:10081000D4F87C322046984704F58E76E9E71B49E8
:1008200030460CF0CCFE70B16B68C4F8B831237858
:10083000032B05D003232370D4F87C32204698473D
:1008400004F5DA76D5E7124930460CF0B8FE0646D4
:1008500070B12378042B05D004232370D4F87C32A4
:10086000204698476B68C4F8503204F51376C0E709
:100870002378002BBDD000232370D4F87C3220468F
:100880009847B6E73C0E0200440E0200480E0200F4
:10089000500E02002DE9F04F83B004460D46364E4F
:1008A000DFF8E09033464A460430FFF743FFDFF8B5
:1008B000D88033464246294604F19C00FFF73AFFB0
:1008C0002E4F33463A46294604F59A70FFF732FF19
:1008D000DFF8B8B033465A46294604F5E670FFF70C
:1008E00029FF04F1440A264E33464A46294650461B
:1008F000FFF720FF04F1DC0933464246294648460B
:10090000FFF718FF04F5BA7833463A4629464046C1
:10091000FFF710FF04F5037733465A462946384659
:10092000FFF708FF002501950226009601232A46BD
:10093000514604F18400FFF7F1FE01950096012372
:100940002A46494604F58E70FFF7E8FE01950096A9
:1009500001232A46414604F5DA70FFF7DFFE0195D0
:10096000009601232A46394604F51370FFF7D6FE98
:1009700003B0BDE8F08F00BF580E0200480E020021
:10098000600E02003C0E0200440E0200500E0200F7
:100990000B68C0F898304B68C0F830318B68C0F8ED
:1009A000C831CB68C0F860321368C0F8943053681F
:1009B000C0F82C319368C0F8C431D368C0F85C32F9
:1009C000704782B00B788DF800304B788DF801308D
:1009D0008B788DF80230CB788DF80330009B8360E4
:1009E0000B798DF800304B798DF801308B798DF8CB
:1009F0000230CB798DF80330009B43600B7A003BCB
:100A000018BF01238373B1F80920CB7A0280837069
:100A10000B7B8DF800304B7B8DF80130BDF800303A
:100A2000838102B0704782B0836800930B70C3F378
:100A300007224A70C3F307428A70C3F30763CB707F
:100A4000436800930B71C3F307224A71C3F3074253
:100A50008A71C3F30763CB71837B0B72028883783F
:100A6000A1F80920CB728389ADF800300B73C3F372
:100A700007234B7302B070470160012343710023C9
:100A8000037170470023036043710371704710B511
:100A900088B00446EC464FF0006EBEE80F00ACE8AC
:100AA0000F009EE80F00ACE807008CF800309DF8BE
:100AB0000030003B18BF012384F8E8340DF1010138
:100AC00004F59160FFF77DFF0DF10F0104F59760CC
:100AD000FFF777FF08B010BD38B504460D4690F813
:100AE000E83401F8013B00F59160FFF79CFF05F148
:100AF0000F0104F59760FFF796FF38BD0023072B21
:100B00000CD8074A12F91320824201D00133F6E7CC
:100B1000034A02EB430393F901007047002070473A
:100B2000AC0E020084460022032A08D81CF80210EA
:100B3000044BCB5613F0440002D00132F4E73F20BF
:100B4000704700BFFA1D020070B5044605460FE06D
:100B500000232B70601C1BE0661C607875280FD08A
:100B600040B2FFF7CBFFB0B12870344601340135F5
:100B7000237863B1222BEBD05C2BEDD02B70F5E703
:100B8000A01CFFF7CFFF20B128700534EEE700204E
:100B900070BD0020FCE70020FAE710B50C468B681A
:100BA00001338B600130FFF7CFFF08B102232374BC
:100BB00010BD91F9003033B110F9012B01319A4287
:100BC000F7D000207047704700230B6083681BB18B
:100BD000C3681960C16070478160C16070470123BC
:100BE00040F8043C50F80C0C704750F8043C50F8A6
:100BF000082C934209D250F80C2C591C40F8041CC4
:100C000003EB830302EB830070470020704791F9E8
:100C1000003023B101318342F9D101207047002017
:100C2000704738B504460D4600E0013494F90000E1
:100C300028B12946FFF7EBFF0028F6D1204638BD42
:100C400008B50249FFF7EDFF08BD00BF6C0E0200BA
:100C500008B501304860FFF777FF40B1FFF7F0FFBC
:100C600028B110F9013B3A2B02D1FFF7E9FF08BD8B
:100C70000020FCE700E0013090F900302BB1044A7D
:100C80009B5613F0040FF6D100E00020704700BF20
:100C9000FA1D020008B590F90020054BD35613F059
:100CA000040F03D00130FFF7E5FF08BD0020FCE78B
:100CB000FA1D020008B590F900302D2B01D02B2B26
:100CC00000D1013090F90020054BD35613F0040FEA
:100CD00003D00130FFF7CEFF08BD0020FCE700BFC6
:100CE000FA1D020010B50446054990F90000FFF70F
:100CF0008EFF10B9002304F8013B204610BD00BF51
:100D0000740E02002C2801D10120704710B5044652
:100D10000649FFF77CFF08B1012010BD04492046B9
:100D2000FFF775FF0028F8D00120F6E76C0E0200EF
:100D3000740E020070B50D461E461146FFF739FFCE
:100D4000044648B190F90000FFF7DCFF30B12046BF
:100D5000FFF7C8FF04462E74204670BD0024FBE751
:100D600008B50323014AFFF7E5FF08BD0C0E02009A
:100D700008B50323014AFFF7DDFF08BD140E02008A
:100D800008B50623014AFFF7D5FF08BD780E02001B
:100D900070B50D4690F900302D2B12D090F900302F
:100DA000324A9A5612F0040F57D0302B0BD1441C04
:100DB00090F901202D4BD35613F0040F07D00024D7
:100DC00028E00130EAE7FFF755FF044610B304239B
:100DD0002B7494F900302E2B1ED094F90030652B23
:100DE00023D0452B21D094F900603046FFF78AFFCD
:100DF000A8B32B7C042B09D1A96891F900002D28F8
:100E00001CD01322631A9A422BD319D02046FFF725
:100E100069FF0446204670BD601CFFF73BFF044697
:100E20000028F7D005232B74D7E7601CFFF742FF9B
:100E300004460028EED005232B74D4E71422E1E702
:100E4000002323702D2806D009480CF0A6FB0028AB
:100E500009DB2670DAE70748F7E70024DAE7002421
:100E6000D8E70024D6E70024D4E700BFFA1D02002B
:100E7000800E0200940E0200F8B50D461746044697
:100E800014F9013B7B3B18BF01230B7400238B60DB
:100E90000B601AE0013418E05D2224E00023237087
:100EA0002B6823B100222A6001341D460DE0013475
:100EB0002046F8BD002343602DE000233374B36067
:100EC000356001343546002CF2D02046FFF7B8FEDD
:100ED00004460028ECD090F900302C2BDAD02A7C84
:100EE000002AD9D17D229342D8D07B6838469847D2
:100EF0000646002800F08C802B7C012BDAD094F978
:100F00000030222B40F0868001462046FFF7A0FEED
:100F100004460028CCD031462846FFF755FEB46081
:100F200094F90030222B55D06CDB7B2B6ADC5B2BD9
:100F300068DB5B3B202B65D801A252F823F000BF91
:100F4000C50F01000510010005100100051001008A
:100F50000510010005100100051001000510010039
:100F6000051001000510010005100100ED0F010042
:100F70000510010005100100051001000510010019
:100F8000051001000510010005100100F90F010016
:100F900005100100051001000510010005100100F9
:100FA00005100100E10F010005100100051001000E
:100FB00005100100051001000510010005100100D9
:100FC000BB0E0100012333740023B360356001348C
:100FD000354678E731462046FFF7DFFD044672E7E5
:100FE00031462046FFF7BCFE04466CE731462046FA
:100FF000FFF7BEFE044666E731462046FFF7C0FE17
:10100000044660E731462046FFF7C2FE04465AE731
:1010100004464DE700244BE738B50D46846800E0F0
:1010200024683CB160680028FAD029460CF0B5FA73
:101030000028F5D1204638BD70B50D46FFF700FEFB
:101040000646A8B190F900307B2B01D05B2B11D163
:101050002B6828469847044600234360036083605A
:101060002A4601463046FFF707FF28B1204670BDEB
:101070000446FBE70024F9E70446F7E700B587B02C
:1010800001910292044B0493044B059304A9FFF7CA
:10109000D3FF07B05DF804FBDF0B0100EB0B010091
:1010A00008B50160002141600261436100F53D70B7
:1010B00000F035F808BDFFFF2DE9F04105460E466A
:1010C0000A46012100F5327000F098FF8046314653
:1010D00005F5187000F0E6FD314605F5FC7000F0EE
:1010E000D5F90D4B1F7800240AE0C4EB0413DB0094
:1010F00018333A463146E81801F041F80134E4B2B9
:10110000032CF2D9044B00221A70B8F1000F01D061
:1011100001221A70BDE8F081942F0020704700284A
:10112000FDD0002302E00022C2540133072BFADD78
:1011300000238360C360704700B5864603884FF084
:10114000000C02E001301FFA80FC9C4510D20CEB31
:101150000300C0F34F00DEF8042032F830208A424A
:1011600009D0EFD910B1431E9BB2EEE70346ECE77E
:1011700003D04FF6FF705DF804FBDEF8043033F85F
:101180003C308B4202D04FF6FF70F4E76046F2E746
:10119000C0B100B5864691F800C0BCF1070F00D978
:1011A000FEE780F834C0002308E001EB83025068BA
:1011B00003F10C020EEB8202906001339C45F4DCDB
:1011C0005DF804FBFEE7FFFF2DE9F84305460F46F7
:1011D000C37843F08003C3704FF00008444695F88D
:1011E0003430434561DD08F10C0305EB830393F8CC
:1011F0000A90DE7A19893846FFF79EFF4FF6FF7393
:1012000098421ED03B8898421DD24FF6FF739842F9
:101210001BD07B6803EBC0008378994517D24168E7
:1012200009EB490901EB8901E9B1002328E02449D0
:1012300019441A1D05EB820251600133072BF6DDBC
:1012400033E00023FAE70021EEE70021ECE700217C
:10125000EAE71B4919441A1D05EB8202516001336C
:10126000072BF6DD21E00023FAE7221D05EB8202C1
:101270001448006850600134E4B2082C17D80133D8
:101280009E4216DDCA889A42EFDD0A68D018221DF8
:1012900005EB82025060EEE7094919441A1D05EB7F
:1012A000820251600133072BF6DDBDE8F88300238D
:1012B000F9E7EB786FF3C713EB7008F101088EE7DD
:1012C000D8050020E005002048B138B51446054691
:1012D000FFF75EFF21462846FFF776FF38BD7047CF
:1012E00081650023A0F84C30437580F8543080F8B5
:1012F0006030032380F861307047FFFF10B582B083
:1013000004460191802380F8203000F1240100235D
:1013100007E003F108026A4412F8042CCA540133AE
:101320009BB2032BF5D9082384F82830054B1B68A2
:1013300004F11800984701992046FFF7D1FF02B049
:1013400010BD00BFD4050020002380F83030838515
:10135000B0F8403080F821301B0A80F8223090F835
:10136000423080F82330704710B401230370836942
:101370004FF4C06464F31C038361082380F82830B1
:10138000002380F8293044684FF4B06C6CF31C04DF
:10139000446043758385C38580F83030B1F864407C
:1013A0004486896E4163A0F8403080F8423043643F
:1013B0008364A0F84C30A0F84E30026580F85430B9
:1013C0008365C36580F8603080F861305DF8044B58
:1013D0007047FFFF10B5029C4FF0010C80F861C010
:1013E00001F07F0190F818E061F3060E80F818E034
:1013F00090F804E061F3060E80F804E0A0F84020C5
:1014000080F84230BDF80C30A0F84E302279074BFE
:101410001A71E288DA8022681A60A2689A604364CE
:1014200080F854C0102380F8603010BD982F002041
:1014300010B5029C4FF0010C80F861C001F07F01F3
:1014400090F818E061F3060E80F818E090F804E0D8
:1014500061F3060E80F804E0A0F8402080F84230E6
:10146000BDF80C30A0F84E302279074B1A71E28893
:10147000DA8022681A60A2689A60436480F854C0D7
:10148000132380F8603010BD982F002070B582B013
:1014900004460378002B00F05F8290F86050002D26
:1014A00000F05B82B0F84C203AB1114489B2A0F848
:1014B0004C10B0F84E20914226D8216DC88B628E18
:1014C000904226D000210AB101B90023002B00F080
:1014D0004982637D23B994F85420002A00F04482A5
:1014E00033B10023A4F84C30237B5B09042B18D0C4
:1014F000103D052D00F22E82DFE815F02700670071
:10150000CC0031015001C8019F49FFF7E9FE0325D6
:1015100023E2606B496A084201D00121D3E7002130
:10152000D1E7237C8DF80030637C8DF80130A37CFB
:101530008DF80230E37C8DF80330009BE3650023D7
:10154000637584F86030032507E22046FFF7FCFE50
:10155000616CCA88E285042A24D8C2F104039B0086
:1015600003F00C0343F0230384F8203004F1240536
:101570000868002303E0C15CE95401339BB29A423E
:10158000F9D8824B1B6804F1180098470125A4F88C
:101590004C50002384F85430112384F86030002329
:1015A0006375DAE1212384F82030009284F8242046
:1015B000C2F3072384F82530C2F3074384F82630AA
:1015C000C2F3076284F82720DBE7257B6D09032D32
:1015D00020D1637B8DF80030A37B8DF80130BDF8FE
:1015E0000020E17BB4F840309A4219D194F842309F
:1015F000994215D1E28D042A17D9636C1968A38D1D
:1016000007339A4235DC5FFA82FC04F12105624619
:10161000002313E05E492046FFF770FE0325BEE776
:101620005C492046FFF76AFEB9E7002384F8603082
:101630000225B4E7C85CE85401339BB29A42F9D85A
:10164000E38DA38594F93030CCF1070243EA4203DD
:101650005BB243F0010384F820300125A4F84C501C
:101660004A4B1B6804F118009847122384F8603035
:1016700095E704F12100002303E0CA5CC254013362
:101680009BB2062BF9D90723A38594F8303084F850
:101690002030E2E7237B5D09012D1DD194F8302035
:1016A00003F0100393421DD182F0100284F8302021
:1016B000E38DA08D83421BD9626C11680144C21D69
:1016C00093423ADCDAB2C0B2121A5FFA82FE04F137
:1016D000210C7246002315E02D492046FFF70EFE2F
:1016E00003255CE72C492046FFF708FE032556E753
:1016F000002384F86030022551E7C85C0CF8030031
:1017000001339BB29A42F8D8E38DA38594F9303027
:10171000CEF1070243EA42035BB243F0010384F8CF
:1017200020300123A4F84C30184B1B6804F118003A
:101730009847122384F8603031E704F12100002338
:1017400003E0CA5CC25401339BB2062BF9D9A38DC6
:101750000733A38594F8303084F82030E1E7204641
:10176000FFF7F2FD402384F82030084B1B6804F19A
:10177000180098470125A4F84C50002384F85430F1
:10178000142384F860300AE700000405D405002023
:1017900023000A064300040600000305237B5909C1
:1017A00002293AD1627B8DF80020A27B8DF80120BE
:1017B000BDF80000E57BB4F84020904233D194F8A6
:1017C000422095422FD103F00305032D31D0012D86
:1017D00056D1237C8DF80030637C8DF80130A37CDA
:1017E0008DF80230E37C8DF80330BDF80030E385DE
:1017F000626CD28893423DD80023A385602384F88D
:1018000020300123A4F84C30584B1B6804F1180019
:101810009847152384F86030C1E655492046FFF704
:101820006DFD0325BBE653492046FFF767FD032501
:10183000B5E6C3F38102C2F1040292B2E285636CA1
:10184000D888824204D81E6804F11005002308E0FD
:1018500049492046FFF744FDA1E6E85CF054013316
:101860009BB29A42F9D8E38DA385002384F86030B7
:101870000D4694E640492046FFF740FD03258EE6DD
:101880003E492046FFF73AFD032588E6217B4B09B8
:101890001AD194F8303001F010029A421AD183F034
:1018A000100384F83030636C1A68A08D0244E38D15
:1018B000C51DAB4228DC11F0010F11D004F10D055C
:1018C0001B1A99B2002316E029492046FFF716FD9E
:1018D000032564E62A492046FFF710FD03255EE64E
:1018E0004FF000612046FFF709FD032557E6E85C4D
:1018F000D05401339BB29942F9D8E38DA3850023DC
:1019000084F8603002254AE611F0010F03D104F19A
:101910000D0000230AE04FF000612046FFF7EEFCC7
:1019200003253CE6C15CD15401339BB2062BF9D9A7
:10193000A38D0733A38594F8303043F0600384F817
:1019400020300A4B1B6804F1180098470125A4F8C1
:101950004C5024E6012522E601250DB184F86150A2
:1019600002B070BD0125F8E70125F6E7D405002097
:1019700023000A06430004060500040510000706BC
:1019800000000305002380F830308385437B80F816
:101990002130837B80F82230C37B80F8233070476E
:1019A00030B583B0044690F8543023B3436C9B6841
:1019B0005B689847032805D0022811D001252846E6
:1019C00003B030BD002584F85450A4F84C503F4B70
:1019D0001B6804F11800984784F860500225EEE770
:1019E000002384F85430A4F84C3039492046FFF7DE
:1019F00085FC0325E3E7FFF7C5FF227B02F0030523
:101A0000032D25D0012D5BD1237C8DF80030637C24
:101A10008DF80130A37C8DF80230E37C8DF8033023
:101A2000BDF80030E385626CD288934242D800232F
:101A3000A385602384F820300123A4F84C30234B85
:101A40001B6804F118009847122384F86030B6E749
:101A5000C2F38102C2F1040292B2E285636CDB88B8
:101A60009A4204D8A56C04F11000002308E019493B
:101A70002046FFF743FCA2E7C15CE95401339BB267
:101A80009A42F9D8E38DA385602384F82030636CF3
:101A90009B682BB10125A4F84C5084F854508EE774
:101AA0000A4B1B6804F118009847002384F8603043
:101AB000022584E707492046FFF720FC03257EE73F
:101AC00005492046FFF71AFC032578E7D4050020D6
:101AD00021000008050004051000070638B504467B
:101AE00090F8543013B3436C9B685B6898470328A5
:101AF00003D002280FD0012038BD002584F85450AF
:101B0000A4F84C50454B1B6804F11800984784F822
:101B100060500220F0E7002384F85430A4F84C30E1
:101B20003F492046FFF7EAFB0320E5E7037B5A091C
:101B300015D190F8301003F01002914214D1826C4C
:101B4000808D0244E18DC51DA9423ADC13F0010FDE
:101B50000FD004F10D05091A89B2002314E03149B0
:101B6000FFF7CCFB0320C7E72F49FFF7C7FB032094
:101B7000C2E74FF000612046FFF7C0FB0320BBE740
:101B8000E85CD05401339BB29942F9D8E38DA38528
:101B900094F8303043F0200384F82030636C9B6865
:101BA0002BB10120A4F84C0084F85400A4E71B4B8F
:101BB0001B6804F118009847002384F86030022065
:101BC0009AE713F0010F03D104F10D0000230AE09E
:101BD0004FF000612046FFF791FB03208CE7C15CCA
:101BE000D15401339BB2062BF9D9A38D0733A385BA
:101BF00094F8303043F0200384F820300125A4F815
:101C00004C50064B1B6804F11800984794F830308C
:101C100083F0100384F8303028466DE7D4050020A7
:101C20002100000823000A060000030530B4012447
:101C3000047091F85C4004F5B064856964F31C0598
:101C40008561082480F82840002480F8294091F814
:101C50005CC00CF5C06C45686CF31C0545600475F0
:101C600044758485C48580F83040B1F85E5045865F
:101C70000487C363A0F8404080F842404464846411
:101C8000A0F84C40B1F86030A0F84E30026580F802
:101C900054408465C46580F8604080F8614030BC81
:101CA0007047FFFF70B582B004460378002B00F048
:101CB0007581B0F84C303BB1194489B2A0F84C1092
:101CC000B0F84E3099421ED8637D23B994F8542061
:101CD000002A00F061814BB10023A4F84C30237B33
:101CE0005B09042B14D094F860302BB394F8603067
:101CF000113B042B00F24E81DFE813F08B009800BB
:101D00004C019D00E300A849FFF7EAFA032546E1EC
:101D1000237C8DF80030637C8DF80130A37C8DF836
:101D20000230E37C8DF80330009BE365002363758C
:101D300084F86030032532E1257B6D096B1EDBB230
:101D4000012B38D8637B8DF80030A37B8DF80130F0
:101D5000BDF80010A4F84010E37B84F84230E06B3B
:101D6000FFF7EAF920874FF6FF7398422FD0E36B15
:101D700094F842201988884223D24FF6FF71884296
:101D800021D05B6803EBC00083789A421DD2436880
:101D900002EB420203EB82036364D3B1012D1ED038
:101DA0001B7913F0010F2ED0142384F86030012525
:101DB000032D9BD1F3E07D492046FFF79FFA0325D1
:101DC000F6E70023E8E70023E6E70023E4E7002343
:101DD000E2E777492046FFF791FA0325E8E71A7909
:101DE00012F0020F07D09A685AB11368A364112346
:101DF00084F86030DCE76F492046FFF77FFA03255F
:101E0000D6E71B68F2E76B492046FFF777FA032510
:101E1000CEE72046FFF7C4FD06460023637594F81D
:101E20006050002D00F0BB803546B8E02046FFF73B
:101E300055FE0646F1E72046FFF7A4FD616CCA880F
:101E4000E285042A1DD9412384F82030009284F8C9
:101E50002420C2F3072384F82530C2F3074384F813
:101E60002630C2F3076284F82720534B1B6804F125
:101E7000180098470126A4F84C60152384F86030B8
:101E8000CBE7C2F104039B0003F00C0343F04303D0
:101E900084F8203004F124050868002303E0C15CC5
:101EA000E95401339BB29A42F9D8434B1B6804F1C1
:101EB00018009847E38DA385002384F8603002263C
:101EC000ABE7237B5E09032E11D194F8302003F099
:101ED0001003934211D1636C1A68A08D0244E38D04
:101EE000C11D8B420EDD04F1210000233AE033498D
:101EF0002046FFF703FA03268FE731492046FFF714
:101F0000FDF98AE7D9B2C0B2091ACEB204F12105AF
:101F100031460023994204D9D05CE85401339BB286
:101F2000F8E7E38DA38594F93030C6F1070243EA60
:101F300042035BB243F0010384F820301E4B1B6860
:101F400004F11800984794F8303083F0100384F8B7
:101F50003030002384F8603002265EE7D15CC15443
:101F600001339BB2062BF9D9A38D0733A38594F8CF
:101F7000303084F82030104B1B6804F1180098476B
:101F80000126A4F84C6094F8303083F0100384F8F4
:101F9000303042E7012640E7012640E7012584F87A
:101FA000615002B070BD00BF0000040501000405CF
:101FB0001100090600000106D405002023000A06CE
:101FC0000000030503460A4603210174111D03C9DD
:101FD00083E803000021597490899882D089D882BF
:101FE000B2F85800188392F85A209A769983D983C8
:101FF00083F82010596283F828107047C17890F94F
:102000000330002B5CDB10B582B00446838B1A448E
:1020100092B2934200D2828311F0400F38D0A28B4B
:10202000A38A9A424AD3E38B01339BB2E383228B88
:10203000934212D90123E38394F820300133DBB2B9
:1020400084F82030A27E934202D9002384F8203005
:1020500094F82020012393406362E38BADF80030B5
:102060002372C3F30723637294F82030A372154BD5
:102070001B68204698470023A3830120A38BE28A94
:1020800093428CBF0023012384F8283002B010BD96
:10209000607C0028F2D0237A8DF80030637A8DF8C6
:1020A0000130BDF80030E383A27A84F820200123B8
:1020B000934063620023A3836374DFE70020DDE7BE
:1020C00000207047D405002010B5044690F8733006
:1020D000022B01D0002311E0436F083098470C4BCE
:1020E0001B68204698470FE004F1140252F82310B1
:1020F00004F108020978D1540133DBB2072BF3D97C
:10210000034B1B6820469847002384F8723010BDAB
:10211000D40500202DE9F04104460E461146069DE7
:102120009DF81C80089F1A46FFF7CEF82B68E365E0
:102130002A89A4F864206A89A4F86620A989A4F8E9
:1021400068102869E066A87B84F86A002360082389
:10215000237400236374A66584F8701084F87120DA
:1021600084F8723084F873806767B8F1020F02D088
:1021700025B1BDE8F081002FFBD1FEE7FEE708B5F1
:1021800090F90330002B14DBB0F864304FF6FF7188
:102190008B420BD06AB1826DD18B8B420DD043B98B
:1021A00090F872302BB1FFF78FFF02E090F8723099
:1021B00003B908BDFFF788FFFBE7C16E526A114201
:1021C000EDD0FFF781FFF4E710B50446094B00F1AD
:1021D0002E011868C4F82E001B790B71636C052260
:1021E00020469847044B1868C4F801001B796371B6
:1021F00010BD00BFBC0E0200C40E020008B50146AF
:10220000436C2D220131984708BD01238366704736
:102210002DE9F04104460E46412380F82430542332
:1022200080F8253000F127032B2280F82620244A4D
:1022300002E0013203F8011B92F900100029F8D1E5
:10224000324602E0013203F8015B92F90050002DA2
:10225000F8D10D221A700A225A7000279F7004F1DB
:1022600004084FF4FA714046FEF706FCE28A39464C
:1022700020690BF0D6F8A782A36E04F124009847DA
:102280003146204600F0FEFF002802DA237A002BB8
:10229000F6D0237A83B9636FFA21204698474046E7
:1022A000FEF7F0FBE28A002120690BF0BAF8002368
:1022B000A3822846BDE8F0814FF0FF35EFE700BF6D
:1022C000CC0E0200F8B50446412380F82430542394
:1022D00080F8253000F127032B2280F826201E4AA3
:1022E00002E0013203F8015B92F90050002DF8D1B1
:1022F0000D221A700A225A7000269E70271D4FF474
:10230000FA713846FEF7B8FBE28A314620690BF0D5
:1023100088F8A682A36E04F1240098470F4920464E
:1023200000F0B0FF002802DA237A002BF6D0237ADF
:102330007BB9636FFA21204698473846FEF7A2FB27
:10234000E28A002120690BF06CF80023A382284662
:10235000F8BD4FF0FF35F0E7D40E0200DC0E0200AE
:10236000002380F83C3080F83E30A0F8A43080F89C
:102370003B3080F83A30C0F89030436580F839300F
:1023800083660360FF22026480F83D3080F82C33BE
:10239000704770B582B005461646019101AA3146D4
:1023A00001980BF077FF286004350028F6D102B0C1
:1023B00070BDFFFF03780BB90020704710B50C46C5
:1023C0000BF00CF851EC100B0AF028FE07EE900A07
:1023D0009FED0F7AF4EEC77AF1EE10FA15D4F0EE15
:1023E000476A87EEA67ABDEEC77AB8EEC77A67EE7F
:1023F000266A77EEE67A9FED076AC7EE866A37EEC1
:10240000267A84ED007A012010BD0020FCE700BF91
:102410000000C8420000704210B50446412380F815
:102420002430542380F82530262380F82630562384
:1024300080F827300D2380F828300A2380F82930CF
:102440004FF4FA720B4900F048FF002808DB0A49F4
:10245000204600F017FF002803DB01232373002030
:1024600010BD0649204600F00DFF0028F8DB0020D3
:102470002073F5E7EC0E0200F40E0200FC0E0200E1
:1024800030B58DB00446412380F82430542380F8C1
:1024900025302B2380F82630432380F8273049232A
:1024A00080F828304D2280F8292080F82A300D232A
:1024B00080F82B300A2380F82C304FF4FA721D4933
:1024C00000F00BFF002833DB25690DF1100C2868A4
:1024D0006968AA68EB68ACE80F0028696969AA69AD
:1024E000EB69ACE80F0000239C4600E001331F2B92
:1024F00011DC03F130026A4412F9201CA1F1300210
:10250000D2B2092AF2D80CF130026A4402F8301C27
:102510000CF1010CEAE7002308E003F137026A44FA
:1025200012F9301CE21882F872100133072BF4DD27
:102530000DB030BDEC0E02002DE9F0410446412300
:1025400080F82430542380F8253000F127032B2213
:1025500080F826201C4A02E0013203F8011B92F9A0
:1025600000100029F8D13D221A7031225A702C2512
:102570009D70DA705E1D1D7114493046FDF7C4FE72
:10258000371801373554DFF84C8041463846FDF79F
:10259000BBFE3E1801363D5441463046FDF7B4FEC1
:1025A0003318355430225A709D70DA700D221A712A
:1025B0000A225A7100229A714FF4FA720449204695
:1025C00000F08BFEBDE8F081040F02000C0F02004A
:1025D000EC0E0200180F020008B5412280F82420FA
:1025E000542280F82520452280F82620302280F8C9
:1025F00027200D2280F828200A2280F829204FF475
:10260000FA72024900F069FE08BD00BFEC0E02003C
:1026100008B5412280F82420542280F82520262263
:1026200080F82620462280F82720302280F82820B3
:102630000D2280F829200A2280F82A204FF4FA720D
:10264000014900F04AFE08BDEC0E020008B5412326
:1026500080F82430542380F8253000F127032B2202
:1026600080F826200D4A02E0013203F8011B92F99E
:1026700000100029F8D13D221A7031225A702C2105
:102680009970DA700D221A710A225A7100229A7119
:102690004FF4FA72024900F020FE08BD1C0F020040
:1026A000EC0E020008B5412380F82430542380F852
:1026B000253000F127032B2280F826200A4A02E069
:1026C000013203F8011B92F900100029F8D10D2204
:1026D0001A700A225A7000229A7041F28832034915
:1026E00000F0FBFD08BD00BF240F02002C0F02000C
:1026F0002DE9F04105460E46412380F8243054234D
:1027000080F8253000F127032B2280F82620164A76
:1027100002E0013203F8014B92F90040002CF8D19D
:102720003D221A7030225A70DF1C4FF02C0883F8BB
:10273000028031683846FDF7E7FD3C18013407F8A0
:10274000008021467068FDF789FD23180D22225470
:102750000A225A7000229A7041F2883203492846B0
:1027600000F0BBFDBDE8F0813C0F0200440F020009
:1027700008B5412380F82430542380F8253000F137
:1027800027032B2280F826200C4A02E0013203F8AE
:10279000011B92F900100029F8D13D221A70302255
:1027A0005A700D229A700A22DA7000221A7141F2D0
:1027B0008832034900F091FD08BD00BF540F0200AC
:1027C000600F02002DE9F04105460E46412380F8D6
:1027D0002430542380F8253000F127032B2280F881
:1027E00026201A4A02E0013203F8014B92F9004018
:1027F000002CF8D13D221A7030225A70DC1C4FF0A8
:102800002C0883F8028031692046FDF77DFD2718EA
:10281000013704F80080B1683846FDF775FD3C18B3
:10282000013407F80080F1682046FDF76DFD23189C
:102830000D2222540A225A7000229A7041F28832E4
:102840000349284600F049FDBDE8F081740F0200FD
:102850007C0F020008B5412380F82430542380F80F
:10286000253000F127032B2280F826200C4A02E0B5
:10287000013203F8011B92F900100029F8D13D2222
:102880001A7030225A700D229A700A22DA700022D1
:102890001A7141F28832034900F01FFD08BD00BFE4
:1028A000900F0200980F02002DE9F04105460E46F8
:1028B000412380F82430542380F8253000F1270389
:1028C0002B2280F82620224A02E0013203F8014B35
:1028D00092F90040002CF8D13D221A7030225A7033
:1028E000DC1C4FF02C0883F8028021467089FDF72C
:1028F000B5FC2718013704F800803946307AFDF717
:10290000ADFC3C18013407F800802146707AFDF7D1
:10291000A5FC2718013704F8008031683846FDF718
:10292000F3FC3C18013407F800802146B089FDF71C
:1029300095FC23180D2222540A225A7000229A7004
:1029400042F210720349284600F0C7FCBDE8F0814E
:10295000A80F0200B40F02002DE9F04190B0044628
:102960000E464022002168460AF05BFD2B238DF8BD
:1029700000300DF1010528460AF019FE02462F1815
:10298000144B03CBA85079601B783B723A238DF827
:10299000093020238DF80A3030278DF80B704FF066
:1029A0002C088DF80C800DF10D0529467089FDF776
:1029B00055FC2B1805F800805F700D229A700A22D2
:1029C000DA7043F698226946204600F0ADFC10B05C
:1029D000BDE8F081A80F02002DE9F04786B005465A
:1029E0000E46412380F82430542380F8253000F12E
:1029F00027032B2280F82620394A02E0013203F80F
:102A0000014B92F90040002CF8D13D221A704FF092
:102A1000300983F80190DF1C2C249C7039467089A2
:102A2000FDF71CFC07EB000808F101083C54316875
:102A30004046FDF769FC08EB0007013708F8004045
:102A40003946307AFDF70AFC3A184FF00D0807F8BE
:102A500000800A2757700023937001930293039319
:102A6000049305932B238DF804300DF1050A50468D
:102A70000AF09DFD03460AEB0001194A10684AF866
:102A800003009088937988808B713A238DF80B30FE
:102A900020238DF80C308DF80D908DF80E400DF13F
:102AA0000F0A51467089FDF7D9FB0AEB00030AF8BB
:102AB000004083F8019003F103099C704946307A85
:102AC000FDF7CCFB09EB000309F800805F7042F2D0
:102AD000107201A9284600F000FC06B0BDE8F0879E
:102AE000B80F020008B51A2280F82420002280F8CE
:102AF00025204FF47A72024900F0EFFB08BD00BFB9
:102B0000EC0E02002DE9F04786B005460E46412343
:102B100080F82430542380F8253000F127032B223D
:102B200080F826202D4A02E0013203F8014B92F989
:102B30000040002CF8D13D221A704FF0300883F885
:102B4000018003F103092C279F7049467089FDF726
:102B500085FB09EB0004013409F800703168204658
:102B6000FDF7D2FB23184FF00D0904F800904FF049
:102B70000A0A83F801A000229A702B238DF80430F2
:102B80000DF1050420460AF012FD03462118134AF0
:102B90001068E0509088937988808B713A238DF883
:102BA0000C3020238DF80D308DF80E808DF80F70CD
:102BB00004AC21467089FDF751FB2318275483F894
:102BC000018083F8029083F803A042F2107201A9F9
:102BD000284600F082FB06B0BDE8F087C00F020077
:102BE0000E4B1B780E4A9A56914203D00B4B002293
:102BF0001A7070470133DBB2084A1370072B00D0FC
:102C00007047012380F87A300369828A01321344C5
:102C10000362024B00221A70F2E700BFA42F0020CB
:102C2000C80F020000B583B001911346084601AAFF
:102C300019460BF02FFB019803B05DF804FBFFFF72
:102C400070B50446061D3046FDF716FFE28A0021E6
:102C500020690AF0E6FB0023A382A36E04F124009E
:102C600098471A49204600F00DFB051E02DA237A28
:102C7000002BF6D01649204600F004FB002802DAAB
:102C8000237A002BF6D0237AE3B9236906351D4455
:102C9000256200251D540F4A216A2046FFF7C2FF16
:102CA0000A2229460BF098FC84F87B003046FDF799
:102CB000E9FEE28A002120690AF0B3FB0023A38227
:102CC000284670BD4FF0FF35F0E700BFD00F02007F
:102CD000D80F0200E00F020008B5412380F824302D
:102CE000542380F8253000F127032B2280F826207A
:102CF000094A02E0013203F8011B92F90010002991
:102D0000F8D10D221A700A225A7000229A704FF4DC
:102D1000FA71FFF795FF08BDE40F020010B50446F5
:102D2000202200210C300AF07CFB0023C4F8843000
:102D3000C4F8883084F8683084F86930E36684F831
:102D4000803084F86A30C4F88C30C4F8A830C4F8F5
:102D50009030C4F89430C4F89830C4F89C30C4F86B
:102D6000A030A4F8A43084F82C3010BD10B504466F
:102D70000AF01DFC202800D92020002308E0E1569D
:102D8000C21A013A14F902C004F803C0A154013375
:102D9000B3EB500FF3D310BDF8B504460D4600F168
:102DA0000C0738460AF003FC02462B4E39463046E3
:102DB0000AF02AFB3046FFF7D9FF2846FDF718FB3B
:102DC00032462649FDF736FB2C2500F8015BD4F886
:102DD00084202349FDF7A8FB00F8015BD4F8882084
:102DE0002049FDF7A1FB00F8015B102304F19002DC
:102DF0001D49FDF7A2FB00F8015B062304F1A002C8
:102E00001A49FDF79AFB00F8015BE26E1849FDF7DD
:102E10008BFB00F8015B94F880201649FDF784FBDA
:102E200000F8015B94F868201349FDF77DFB00F87A
:102E3000015B94F869201149FDF776FBFDF7DCFA98
:102E4000044638460AF0B3FB0246002130460AF039
:102E5000E8FA2046F8BD00BFA82F0020E80F0200C6
:102E6000F80F0200FC0F0200001002000C1002001C
:102E70001410020018100200500E02001C10020074
:102E800090F8692052B190F86A30013303EB830364
:102E900003EB830302EB8303A0F8BC30704708B553
:102EA000002180F8531080F8541080F85510C0F8B5
:102EB0000310C0F80710C0F80B10C0F80F10402224
:102EC00013300AF0AEFA08BD70B5C2B005460C4624
:102ED000244B1B88ADF8043100218DF80611FF2228
:102EE00001A80AF09EFA01A8FDF782FA94F90030D1
:102EF0008DF8043141AA1C49FDF79CFA2C2600F8F4
:102F0000016BB4F80130ADF8043141AA1749FDF75F
:102F100091FA00F8016B1649FDF775FA2378572BE3
:102F200008D0522B16D0FDF767FA01A800F0CAFBB3
:102F300042B070BDFDF75CFAE21C0E49FDF77AFA6B
:102F400000F8016B94F855200B49FDF735FBFDF7B0
:102F50006DFAE8E7D5F89C319B6A01462846984708
:102F6000E1E700BF64100200241002002C100200F0
:102F7000341002003C100200500E0200838E013318
:102F80001FFA83FC1BB201E0013B1BB2A3EB0C0256
:102F900088188A562A2A01D0002BF5DA002B17DB75
:102FA00000B50022027001E0013B1BB2A3EB0C0054
:102FB00001EB000E0A562B2A01D0002BF4DA002B6D
:102FC00008DB00238EF80030013008445DF804FB74
:102FD000002070470020F9E710B50446D0F89C3176
:102FE0005B69984700232370D4F89C315B6A2046C4
:102FF000984710BD2DE9F0419EB00446084694F86C
:103000009B6106226946FEF739F838B105463A4910
:10301000FEF702F810B1027C022A02D01EB0BDE811
:10302000F08183681A78562303FB064383F89920BE
:1030300032492846FDF7F0FF0028EFD0027C022A33
:10304000ECD1D0F80880562706FB07F798372744BD
:10305000023740460AF0ABFA0246414638460AF0CB
:10306000D3F927492846FDF7D7FF0028D6D0027CA0
:10307000002AD3D18568002DD0D02B7C022BCDD156
:10308000D5F80880562706FB07F7983727440437FA
:1030900040460AF08CFA0246414638460AF0B4F936
:1030A0002B6813B11A7C022A16D0562303FB06465E
:1030B000012386F8ED3094F89B310133DBB284F8BC
:1030C0009B3194F89820013284F89820022BA5D9DE
:1030D000002384F89B31A1E79F68562506FB05F580
:1030E000A8352544043538460AF061FA02463946C7
:1030F00028460AF089F9D8E7241002002C100200B3
:103100003410020008B5817051B90378012B00D04A
:1031100008BD04230370D0F89C315B6A9847F7E739
:103120000378023BDBB2022BF2D801230370D0F804
:103130009C315B6A9847EBE770B50646002401E0D6
:103140000134E4B2022C19D8562304FB03F303F133
:10315000980535440135334493F8ED30002BEFD01A
:10316000D6F89C31DB6829463046984729463046D8
:10317000FFF7AAFE2846FFF792FEE1E770BDFFFFCA
:1031800038B504460B78572B0CD0D4F89C315B69CA
:103190002046984701232370D4F89C315B6A20466F
:1031A000984738BD0D4691F90130452BEDD10C49BA
:1031B000E81C0AF0F2F90028E7D10A4905F11300EA
:1031C0000AF0EBF90028E0D1012385F855300323FC
:1031D0002370D4F89C315B6A20469847E1E700BF32
:1031E000441002002C0E020091F90130452B00D052
:1031F000704770B505460C460B78572B00D070BD54
:10320000CE1C1D4930460AF0C8F990B91B4904F19B
:1032100013000AF0C2F960B9D5F89C31DE691B6968
:103220002846984701462846B047012384F8553080
:10323000E5E7134930460AF0B0F90028DFD105F17F
:10324000170104F113000AF0A8F90028D7D10123CF
:1032500084F85530D5F89C311B6A28469847D5F834
:103260009C31DB6A2846984704232B70D5F89C31A3
:103270005B6A28469847C2E74C10020058100200CB
:103280005C10020070B582B005460E46838AADF828
:10329000063008460AF08BF9BDF806309BB2B3B190
:1032A00080B2BDF806309BB2834213D30024AB8AB0
:1032B000A34207DD286931462044FDF705F818B917
:1032C0000134F4E74FF0FF34204602B070BD4FF0F8
:1032D000FF34F9E74FF0FF34F6E770B504460D46CA
:1032E000061D11463046FDF7C7FBE28A0021206922
:1032F0000AF097F80023A382A36E04F124009847F4
:1033000029462046FFF7BEFF002802DA237A002B69
:10331000F6D0237A2BB900243046FDF7B3FB2046C4
:1033200070BD4FF0FF34F7E770B504460D46061D3B
:1033300011463046FDF7A0FBE28A002120690AF021
:1033400070F80023A382A36E606E9847294620463A
:10335000FFF798FF002802DA237A002BF6D0237AB1
:1033600063B900253046FDF78DFBE28A0021206914
:103370000AF057F80023A382284670BD4FF0FF35AE
:10338000F0E7FFFF10B50446C3689847A36800FB49
:1033900003F303EB4313044A82FB03121A44DB17C3
:1033A000C3EBE223636010BD8100088008B50249C9
:1033B000024806F0F7FB08BD941202009443002077
:1033C0007047FFFF08B50249024806F055F808BDEE
:1033D000F81202000444002008B50379042B02D03F
:1033E000022B06D008BD037A04480371836898470E
:1033F000F8E7034B01221A70F4E700BF2C300020DD
:1034000028300020094B1B781BB9094B1B78002B77
:10341000F8D0064B1B781BB90020054B187070477D
:10342000024B00221A700320704700BF3A30002080
:103430003830002010B5054C0549204606F020FF25
:1034400001220221204607F06CF810BD50430020F5
:10345000801202002DE9F04182B000AF04460D4613
:1034600016460023FB71012201462D4807F03EF865
:10347000002849D12B4B93F80080B8F1000F06D0FB
:10348000294B1B78002BFBD0274B00221A70FB1D09
:1034900040222146224806F0FBFF002837D1FB7965
:1034A000012B37D0022B25D03346224629461C4813
:1034B00007F00BF888BBB8F1000F06D01B48007866
:1034C0000028FBD0194B00221A706C46F31D03F440
:1034D000FC73ADEB030D32462946684609F094FFB4
:1034E000294668460AF059F858B9A5460837BD4636
:1034F000BDE8F081FFF786FF0028D5D04FF0FF3000
:10350000F4E74FF0FF30F0E74FF0FF30EEE74FF019
:10351000FF30EBE74FF0FF30E8E74FF0FF30E5E733
:103520005043002080120200393000203B30002040
:1035300084B0036803938DF80430C3F307228DF839
:103540000520C3F307428DF80620C3F307638DF807
:103550000730019804B070470378032B12D8DFE8D6
:1035600003F00A0E0602084B01221A707047074B3F
:1035700001221A707047064B01221A707047054BE2
:1035800001221A70704700BF3A3000203830002006
:10359000393000203B30002008B50249024805F0D0
:1035A0006BFF08BDC4120200D443002010B50446CE
:1035B000074B00221A7009F0FAFF0246214605481F
:1035C00005F04EFE024B1B78002BFBD010BD00BF58
:1035D0003C300020D443002008B50379042B02D0EE
:1035E000022B06D008BD037A04480371836898470C
:1035F000F8E7034B01221A70F4E700BF40300020C7
:103600003C3000200823837100230371437170470D
:1036100010B5074C04F10800FFF7F4FF04F11C009B
:10362000FFF7F0FF0349044807F0D0F810BD00BFD2
:1036300050300020481202001043002008B5074B0C
:1036400000221A7000F108024168054807F016F8D8
:10365000024B1B78002BFBD008BD00BF4C30002074
:103660001043002008B58288B2F5006F07D00346EA
:10367000B2F5005F03D0B2F5806F04D008BD0A4BED
:1036800001221A70FAE7094A02F1280C406A996A85
:10369000ACE80300997F82F822109B69D361136B19
:1036A00010469847EAE700BF4C3000205030002019
:1036B00008B50249024805F0DFFE08BD2C130200E0
:1036C0003444002010B50446074B00221A7009F05C
:1036D0006EFF02462146054805F0C2FD024B1B78ED
:1036E000002BFBD010BD00BFE405002034440020B7
:1036F00008B50A4A1368013313600379042B02D01A
:10370000022B06D008BD037A0548037183689847E9
:10371000F8E7044B01221A70F4E700BF9030002054
:1037200084300020E405002008B5024807F0C6FAFE
:1037300008BD00BFEC42002010B5064C06492046EB
:1037400007F0C6FB0549204607F0E6FCFFF7ECFF53
:1037500010BD00BFEC420020101202003412020023
:10376000837803B1704710B5044C22460C210448FD
:1037700007F0A9FA63682046984710BD94300020EE
:10378000EC420020036818887047FFFF10B5054C15
:103790002046FFF7F7FD4FF47A7104F11000FDF7B2
:1037A0006BF910BD3025002008B5084B084AC3F856
:1037B000382208495160084AC3F8442240F23A22AC
:1037C000C3F84022FFF7B8FF08BD00BFF822002071
:1037D000943000208D370100853701007047704715
:1037E0007047FFFF10B5044641680448FFF7D4FA5C
:1037F000606809F0DCFEA08110BD00BF2821002018
:1038000010B5044641680448FFF7C6FA606809F03D
:10381000CEFEA08110BD00BF6820002010B5044678
:1038200041680448FFF7B8FA606809F0C0FEA0815B
:1038300010BD00BFA81F002000B58BB00222694652
:103840004068FDF71BFC0749FDF7E6FB30B1027C41
:10385000022A03D10449806809F09FFE0BB05DF88D
:1038600004FB00BF500E02006810020030B59BB090
:10387000052201A94068FDF701FC05462949FDF72D
:10388000CBFBF0B1027C022A1BD183680093002499
:103890000DE06A46244900980AF0FCFC09F0A1FDFD
:1038A000224B234441F26C7298540134E4B2022C4E
:1038B000EFD91F492846FDF7AFFB10B1027C042A5F
:1038C00001D01BB030BD0A22002180680AF008FE3A
:1038D000184BC3F8700718492846FDF79DFB0028D0
:1038E000EFD0027C042AECD10A22002180680AF081
:1038F000F7FD104BC3F8740710492846FDF78CFB01
:103900000028DED0027C042ADBD10A220021806854
:103910000AF0E6FD074BA3F87807092283F8502246
:10392000CFE700BF7010020078100200F8120020EC
:103930007C100200F8220020841002008C1002008B
:1039400070B5A0B0062202A94068FDF797FB0446B7
:103950003549FDF761FB10B1027C042A01D020B08B
:1039600070BD0A22002180680AF0BAFD2F4BC3F80F
:10397000B8022F492046FDF74FFB0028EFD0027C0C
:10398000042AECD10A22002180680AF0A9FD274B05
:10399000A3F8BC0227492046FDF73EFB0028DED0F5
:1039A000027C022ADBD18668002596F900307BB1C3
:1039B00036F8023BADF804301022002101A80AF0CD
:1039C000EFFC1A4B2B4483F8C2020135ADB2ECE791
:1039D00019492046FDF720FB0028C0D0027C042AAC
:1039E000BDD10A22002180680AF07AFD0F4BA3F8AE
:1039F000C00212492046FDF70FFB0028AFD0027C21
:103A0000032AACD1836893F90020742A14BF0022E2
:103A10000122064B83F8C426032283F85022002299
:103A200083F8B4229BE700BF90100200F822002028
:103A300084100200341002008C1002009810020062
:103A400038B504460A4DD5F8A40F6060FCF7D0FCE9
:103A500005F58055D5F8642702F519720549FCF77C
:103A6000E9FCFCF7C9FC606809F0A1FDA08138BD44
:103A7000F8120020500E0200F0B583B00546254B29
:103A8000D3F8A40F6860FCF7B3FC07460024009449
:103A900001946E460DE01F4B2344314641F26C7297
:103AA000985CFCF7DBFB06442E2306F8013B01344F
:103AB000E4B2022CEFD9002306F8013C6A4616490D
:103AC0003846FCF7B7FC2C2600F8016B134CD4F8F1
:103AD00070271349FCF728FD00F8016BB4F878272C
:103AE0001049FCF721FD00F8016BD4F874270E494A
:103AF000FCF71AFDFCF780FC686809F058FDA88106
:103B00006B8901339BB26B810BB901236B8103B0CD
:103B1000F0BD00BFF812002070100200F822002053
:103B20007C1002008C1002008410020010B50446C4
:103B30004168044804F0E4F8606809F038FDA081A9
:103B400010BD00BFF812002010B500240649074838
:103B5000FEF742FF034628B10134E4B2052CF5D943
:103B60004FF0FF33184610BD000800203822002017
:103B700038B50D46002429460648FEF72DFF0346BA
:103B800028B10134E4B2052CF5D94FF0FF331846C3
:103B900038BD00BF3822002038B5044645692049A9
:103BA000284609F00CFDC0B91E49284609F007FD5A
:103BB00010BB1D49284609F002FD60B31B4800F503
:103BC00080530222C3F8682700F62820C3F8640750
:103BD00004F11401FCF7F6FD0DE0144800F58053E4
:103BE0000822C3F8682700F56970C3F8640704F178
:103BF0001401FCF7E7FD38BD0C4800F580530122A5
:103C0000C3F8682700F5DF60C3F8640704F1140106
:103C1000FCF7D8FDEFE700236361A361EBE700BF8A
:103C2000A0100200A4100200A8100200F812002048
:103C30002DE9F0410446154BDFF8548003F5746616
:103C40004246D3F8581F3046FEF7ECFF0146424685
:103C50003046FEF7E7FF0546606109F0A8FC013831
:103C600000272F5463690133636142462946304679
:103C7000FEF7D8FF0546A06109F099FC01382F54E2
:103C8000A3690133A361BDE8F08100BFF8120020F1
:103C9000E00F020038B50D46002429460648FEF71D
:103CA00031FF034628B10134E4B2052CF5D94FF0B9
:103CB000FF33184638BD00BF3822002010B582B04F
:103CC0000C4600238DF807300B69084698472146BB
:103CD0000D48FEF7E9FD68B19DF807300133DBB20E
:103CE0008DF807309DF80730DBB2052BEFD94FF088
:103CF000FF3004E021460448FEF72EFE08B902B06A
:103D000010BD4FF0FF30FAE73822002010B5002434
:103D10000648FEF79FFD034628B10134E4B2052CA6
:103D2000F6D94FF0FF33184610BD00BF38220020EF
:103D300038B50546002469680648FEF743FD03468A
:103D400028B10134E4B2052CF5D94FF0FF33184601
:103D500038BD00BF3822002010B500240648FEF709
:103D600007FD034628B10134E4B2052CF6D94FF023
:103D7000FF33184610BD00BF3822002070B506463C
:103D8000002402E0012008F0ADFB71680A48FEF74C
:103D9000AFFC034670B1084D2846FEF7CDFB284620
:103DA000FEF7E6FC0028EDD00134E4B2052CE9D999
:103DB0004FF0FF33184670BD3822002010B50024A4
:103DC0000C48FEF725FC38B10134E4B2052CF7D9D4
:103DD0004FF0FF33184610BD00240648FEF736FCAE
:103DE00003460028F6D00134E4B2052CF5D94FF093
:103DF000FF33EFE73822002010B5144C2046FEF7C1
:103E00003FFB2046FEF708FB00280CDB104B93F825
:103E10004C3F1BB10D48FEF7DFFB50B90B48FEF7D6
:103E200041FC60B910BD2046FEF75CFE4FF0FF304C
:103E3000F8E70648FEF756FE4FF0FF30F2E703487A
:103E4000FEF750FE4FF0FF30ECE700BF38220020B5
:103E5000F812002008B5FFF7A9FB08BD0179002979
:103E60003AD02DE9F04104461C4B93F8BA3F4BB3CE
:103E70001A4BD3F8586F0D2908D0194D2A8821798B
:103E8000B1542A8801322A80BDE8F0811D46B3F87A
:103E90005C2F0023B354012285F8C82F85F8BA3F60
:103EA000D5F8588FD5F8607F384609F080FB024678
:103EB0003946404609F0A8FA052385F8BC3F05F6C7
:103EC0005C75DBE7054DD5F8506F05F57460FEF7BE
:103ED00087FE05F65475D1E7704700BFF812002041
:103EE0005422002010B5FFF757FE78B14269904781
:103EF0000E4CB4F85E2F0021D4F8580F09F091FA57
:103F00000020A4F85C0FC4F8600F10BD074CB4F893
:103F10005E2F0021D4F8580F09F083FA0023A4F88B
:103F20005C3FC4F8603F4FF0FF30EEE7F81200202E
:103F30002DE9F04182B0704B002483F8BC4F43F66A
:103F40009822C3F8C42F6D4AC3F8AC2F6C49916016
:103F50006C4AC3F8A82F6C4AC3F8502FC822A3F8A4
:103F6000562F6A4AC3F8582F40F6B832A3F85E2F8E
:103F7000674AC3F8A42F674AC3F8C02F664AC3F83C
:103F8000E82F664AC3F8EC2F654AC3F8F02F654A5C
:103F9000C3F8F42F644AC3F8F82F644AC3F8FC2F1F
:103FA00003F5805262491160624951606249916033
:103FB0006249D16162499161624911614FF47A624B
:103FC000C3F8CC2F39E004EB44039B0103F54B63AA
:103FD000494E334403F10C085B4A04EB4407D01903
:103FE000D15B827899819A73584D05EBC415584B73
:103FF0001968284609F0C2FA284609F0D8FA554B44
:104000001B882B524146284609F0B8FABF0107F534
:104010004E6030440023019302230093631CD6F8C2
:10402000A42F29460830FCF779FB4B4B53F824307A
:104030003E44C6F8F83C0134E4B22F4B93F83053B9
:10404000A542C0D8424F454C3968204609F096FA3F
:10405000294E00230193022300936B1CD6F8A42F52
:10406000214606F55570FCF759FB3D4BC6F8643305
:104070003C4C204609F09BFA034625183A4A03CAED
:10408000E0506960204609F092FA324B1D882552B3
:104090003968204609F072FA204609F088FA25525C
:1040A000204609F084FA314B1B88235206F56977C4
:1040B0002F493846FCF7EEFB2E4D2F4C2A46214661
:1040C0003846FCF765FC06F5DF672C493846FCF7F7
:1040D000E1FB2A4621463846FCF75AFC06F628261C
:1040E00027493046FCF7D6FB2A4621463046FCF7E6
:1040F0004FFC02B0BDE8F081F812002040300020F3
:104100005D3E0100553E0100543C00209C300020E3
:104110001C3D00207C080020F93D0100BD3D010050
:104120007D3D0100593D0100313D01000D3D010083
:10413000BD3C0100713B0100953C0100313C010098
:10414000E53E0100493B0100F40500200006002087
:1041500078080020280E0200E805002080070020D3
:104160002D3B010018080020580E0200AC10020080
:10417000A01002005808002068080020A4100200C7
:10418000A81002001E4A116B938E90F804C001F82B
:1041900003C0938E01339BB2938692F89020934292
:1041A00021D302790D2A02D00A2A00D07047144A7E
:1041B000116B013B0020C85492F8A8311BB1104B81
:1041C00000229A86F2E710B51446928E013A216BCE
:1041D00004F1920009F018F9012384F8A831084B82
:1041E00000229A8610BD0179054AD2F88C2013442A
:1041F00013F9013C9942D9D0014B00229A867047AD
:10420000F822002008B50E4B0E4A1A634FF4807254
:10421000DA860D4AC3F884200C4AC3F8A4210C495D
:1042200091600C4AC3F88C20062283F8902000226B
:1042300083F8A821012283F8D821FFF7C3F808BD2D
:10424000F8220020483E0020483F00202C3000206B
:1042500085410100C810020008B54FF00060FFF76B
:1042600067F908BD00B585B0FFF7F6FF0F4BD3F82F
:10427000FC39984216D00022039201938DF80C303D
:10428000C3F307228DF80D20C3F307428DF80E20EB
:10429000C3F307638DF80F30042203A94FF00060C9
:1042A000FFF7D8F805B05DF804FB00BFF812002056
:1042B00008B503688B4207D00160044B93F8E831DE
:1042C000032B01D10369984708BD00BFF8220020E5
:1042D00061B108B50B46016819440160044B93F8BD
:1042E000E831032B01D10369984708BD704700BF2F
:1042F000F822002008B5044B93F8E831032B01D1D4
:104300000369984708BD00BFF8220020094B93F8C5
:10431000FC2161F3410283F8FC2111F0010F0CBF75
:104320000121002193F8FD2161F3410283F8FD2171
:10433000704700BFF8220020034B93F8102261F36E
:10434000000283F810227047F8220020034B93F8F4
:10435000102261F3C30283F810227047F822002074
:10436000034B93F8102261F3820283F81022704706
:10437000F822002010B511B101290FD010BD0F4C4B
:10438000D4F8283F04F57260984704F5805494F8F7
:1043900011326FF3041384F81132EFE7074CD4F8AD
:1043A000243F04F57260984704F5805494F8113264
:1043B00043F0100384F81132E0E700BFF812002048
:1043C00010B511B101290FD010BD0F4CD4F8383FF2
:1043D00004F57360984704F5805494F8FC316FF34A
:1043E000041384F8FC31EFE7074CD4F8343F04F5AC
:1043F0007360984704F5805494F8FC3143F010033F
:1044000084F8FC31E0E700BFF8120020034B93F87A
:10441000002261F3410283F800227047F822002055
:10442000034B93F8112261F3861283F8112270472F
:10443000F8220020034B93F8112261F3C71283F88E
:1044400011227047F8220020034B93F8112261F3E8
:10445000451283F811227047F822002000B583B07E
:10446000022101A8FCF7DAF89DF80420C2F38000CD
:10447000354B93F8021260F3410183F80212C2F344
:104480004000C9B260F3820183F80212C2F38010C7
:10449000C9B260F3C30183F8021293F8031262F306
:1044A000041183F80312C2F3C000C9B260F34511CE
:1044B00083F80312C2F34010C9B260F3861183F887
:1044C0000312C2F30012C9B262F3C71183F80312D8
:1044D0009DF80520C9B262F3000183F80312C2F30C
:1044E000C000C9B260F3410183F80312C2F3400077
:1044F000C9B260F3820183F80312C2F38000C9B22B
:1045000060F3C30183F80312C2F3001093F804129E
:1045100060F3451183F80412C2F34010C9B260F38E
:10452000861183F80412C2F38012C9B262F3C71174
:1045300083F8041293F802226FF3000283F8022238
:1045400003B05DF804FB00BFF822002000B583B083
:104550000B1E0DDD0122032101A8FCF7ABF8464A32
:1045600092F8103243F0020382F8103200234AE03E
:10457000032101A8FCF752F83F4B93F810226FF388
:10458000410283F81022F1E7581C24333B4A00F122
:104590000801694411F8041CC1F3C00E12F803C0ED
:1045A0006EF3000C03F802C05FFA8CFC61F3410C5F
:1045B00003F802C0C1F3001E5FFA8CFC6EF3820C9C
:1045C00003F802C0C1F3401E5FFA8CFC6EF3C30C0B
:1045D00003F802C0C1F3800E5FFA8CFC6EF3041C7A
:1045E00003F802C0C1F3801E5FFA8CFC6EF3861CD8
:1045F00003F802C0C1F340015FFA8CFC61F3C71CF1
:1046000003F802C0C3B2012BBED99DF80420C2F347
:104610008000194B93F8101260F3041183F8101204
:10462000C2F38010C9B260F3861183F81012C2F38E
:104630004000C9B260F3C71183F81012C2F3C00082
:1046400093F8111260F3000183F81112C9B262F3FA
:10465000410183F81112C2F30010C9B260F3820164
:1046600083F81112C2F34012C9B262F3C30183F896
:10467000111203B05DF804FBF8220020E6240020AC
:1046800000B583B00B460222114601A8FCF712F8D0
:10469000002141E001F11000224B01F108026A44BF
:1046A00012F8042CC2F3400E13F800C06EF3000C95
:1046B00000F803C0C2F3801E5FFA8CFC6EF3820C1C
:1046C00000F803C0C2F3800E5FFA8CFC6EF3C30CDB
:1046D00000F803C001F1110013F800C062F3041CDC
:1046E00000F803C0C2F3C00E5FFA8CFC6EF3451CE9
:1046F00000F803C0C2F3401E5FFA8CFC6EF3861C08
:1047000000F803C0C2F300125FFA8CFC62F3C71C0E
:1047100000F803C00131C9B20129BBD903B05DF86B
:1047200004FB00BFE624002000B583B00B46022244
:10473000114601A8FBF7BEFF002141E001F1120084
:10474000224B01F108026A4412F8042CC2F3400E15
:1047500013F800C06EF3000C00F803C0C2F3801E13
:104760005FFA8CFC6EF3820C00F803C0C2F3800E7B
:104770005FFA8CFC6EF3C30C00F803C001F1130068
:1047800013F800C062F3041C00F803C0C2F3C00EAB
:104790005FFA8CFC6EF3451C00F803C0C2F3401EA8
:1047A0005FFA8CFC6EF3861C00F803C0C2F30012A3
:1047B0005FFA8CFC62F3C71C00F803C00131C9B278
:1047C0000129BBD903B05DF804FB00BFE62400203B
:1047D00000B583B00B460122032101A8FBF76AFF55
:1047E0009DF806204C4B93F8141262F3000183F8F5
:1047F0001412C2F3C000C9B260F3410183F814126D
:10480000C2F34000C9B260F3820183F81412C2F30C
:104810008000C9B260F3C30183F81412C2F3001020
:10482000C9B260F3451183F81412C2F34010C9B243
:1048300060F3861183F81412C2F38012C9B262F3D6
:10484000C71183F814129DF8052093F80F1262F334
:10485000000183F80F12C2F3C000C9B260F3410136
:1048600083F80F12C2F34000C9B260F3820183F8EB
:104870000F12C2F38000C9B260F3C30183F80F12B4
:10488000C2F3401093F8151260F3041183F8151267
:10489000C2F38010C9B260F3861183F81512C2F317
:1048A0000012C9B262F3C71183F815129DF80420F3
:1048B00093F80E1262F3000183F80E12C2F3C000E7
:1048C000C9B260F3410183F80E12C2F34000C9B2CD
:1048D00060F3820183F80E12C2F38000C9B260F364
:1048E000C30183F80E12C2F3401093F80F1260F365
:1048F000041183F80F12C2F38010C9B260F386115D
:1049000083F80F12C2F30012C9B262F3C71183F821
:104910000F1203B05DF804FBF822002000B583B04D
:104920000B1E75DB0122022101A8FBF7C3FE3E4AE4
:1049300092F8F03143F0200382F8F0319DF8042022
:10494000394B93F8EF1162F3000183F8EF11C2F3D2
:10495000C000C9B260F3410183F8EF11C2F3401007
:10496000C9B260F3820183F8EF11C2F30010C9B23B
:1049700060F3C30183F8EF11C2F3400093F8F01124
:1049800060F3041183F8F011C2F38010C9B260F330
:10499000861183F8F011C2F38002C9B262F3C71125
:1049A00083F8F0119DF8052093F8EE1162F30001F1
:1049B00083F8EE11C2F3C000C9B260F3410183F87D
:1049C000EE11C2F34010C9B260F3820183F8EE1118
:1049D000C2F30010C9B260F3C30183F8EE11C2F351
:1049E000800093F8EF1160F3451183F8EF11C2F3E3
:1049F0004000C9B260F3861183F8EF11C2F3801250
:104A0000C9B262F3C71183F8EF1103B05DF804FB7C
:104A1000022101A8FBF702FE034B93F8F0216FF38C
:104A2000451283F8F02189E7F822002010B582B002
:104A30000C1E31DB23460122032101A8FBF73AFEBD
:104A4000AE4B93F8F22142F0020283F8F22193F880
:104A5000EF2142F0100283F8EF21002C40F0B180EA
:104A600093F8FB216FF3000283F8FB21D2B26FF3BE
:104A7000820283F8FB21D2B26FF3C30283F8FB21D9
:104A8000D2B26FF3410283F8FB2193F8F3216FF365
:104A9000000283F8F3212BE0032101A8FBF7BEFD00
:104AA000964B93F8F2216FF3410283F8F22193F8C9
:104AB000EF216FF3041283F8EF2193F8F3216FF3E2
:104AC000000283F8F32193F8FB216FF3000283F8CF
:104AD000FB21D2B26FF3820283F8FB21D2B26FF3D3
:104AE000C30283F8FB21D2B26FF3410283F8FB21AA
:104AF0009DF80420C2F3C000804B93F8F01160F3DE
:104B0000000183F8F011C9B262F3410183F8F0119A
:104B1000C2F38000C9B260F3820183F8F011C2F3DE
:104B20004000C9B260F3C30183F8F011C2F3401032
:104B300093F8F31160F3410183F8F311C2F300100D
:104B4000C9B260F3820183F8F311C2F38012C9B2D3
:104B500062F3C30183F8F3119DF80520C2F300103E
:104B600093F8F21160F3000183F8F211C2F38010A0
:104B7000C9B260F3820183F8F211C2F34010C9B2E6
:104B800060F3C30183F8F211C2F3C00093F8F3118C
:104B900060F3041183F8F311C9B262F3451183F88D
:104BA000F311C2F38000C9B260F3861183F8F311E8
:104BB000C2F34002C9B262F3C71183F8F31102B025
:104BC00010BD192C1CDC4D4B93F8FB2142F0010267
:104BD00083F8FB21D2B26FF3820283F8FB21D2B2B9
:104BE0006FF3C30283F8FB21D2B26FF3410283F863
:104BF000FB2193F8F3216FF3000283F8F32177E7A9
:104C0000322C1CDC3D4B93F8FB2142F0010283F86F
:104C1000FB21D2B242F0040283F8FB21D2B26FF33F
:104C2000C30283F8FB21D2B26FF3410283F8FB2168
:104C300093F8F3216FF3000283F8F32158E74B2C2C
:104C40001CDC2E4B93F8FB2142F0010283F8FB2180
:104C5000D2B242F0040283F8FB21D2B242F0080241
:104C600083F8FB21D2B26FF3410283F8FB2193F862
:104C7000F3216FF3000283F8F32139E7632C1CDC86
:104C80001E4B93F8FB2142F0010283F8FB21D2B2C4
:104C900042F0040283F8FB21D2B242F0080283F80A
:104CA000FB21D2B242F0020283F8FB2193F8F321F8
:104CB0006FF3000283F8F3211AE7642C7FF418AF36
:104CC0000E4B93F8FB2142F0010283F8FB21D2B294
:104CD00042F0040283F8FB21D2B242F0080283F8CA
:104CE000FB21D2B242F0020283F8FB2193F8F321B8
:104CF00042F0010283F8F321FAE600BFF822002017
:104D000000B583B00B1E75DB0122022101A8FBF761
:104D1000D1FC3E4A92F8F43143F0200382F8F4319A
:104D20009DF80420394B93F8F11162F3041183F8D4
:104D3000F111C2F3C000C9B260F3451183F8F1115B
:104D4000C2F34010C9B260F3861183F8F111C2F3C7
:104D50000010C9B260F3C71183F8F111C2F340002B
:104D600093F8F41160F3041183F8F411C2F3801086
:104D7000C9B260F3861183F8F411C2F38002C9B29C
:104D800062F3C71183F8F4119DF80520C2F3800087
:104D900093F8F11160F3410183F8F111C2F340007F
:104DA000C9B260F3820183F8F111C2F38010C9B275
:104DB00060F3C30183F8F11193F8F21162F3041167
:104DC00083F8F211C2F3C000C9B260F3451183F851
:104DD000F211C2F34010C9B260F3861183F8F211E8
:104DE000C2F30012C9B262F3C71183F8F21103B023
:104DF0005DF804FB022101A8FBF710FC034B93F8BC
:104E0000F4216FF3451283F8F42189E7F82200209A
:104E100010B582B00C1E31DB23460122032101A80C
:104E2000FBF748FCAD4B93F8F62142F0200283F8E3
:104E3000F62193F8F12142F0010283F8F121002CD0
:104E400040F0B08093F8FB216FF3041283F8FB214C
:104E5000D2B26FF3861283F8FB21D2B26FF3C7127E
:104E600083F8FB21D2B26FF3451283F8FB2193F84C
:104E7000F5216FF3041283F8F5212BE0032101A83B
:104E8000FBF7CCFB954B93F8F6216FF3451283F8B3
:104E9000F62193F8F1216FF3000283F8F12193F8E2
:104EA000F5216FF3041283F8F52193F8FB216FF3DA
:104EB000041283F8FB21D2B26FF3861283F8FB2130
:104EC000D2B26FF3C71283F8FB21D2B26FF345124F
:104ED00083F8FB219DF80420C2F3C0007F4B93F8B8
:104EE000F41160F3000183F8F411C9B262F34101D7
:104EF00083F8F411C2F38000C9B260F3820183F831
:104F0000F411C2F34000C9B260F3C30183F8F41195
:104F1000C2F3401093F8F51160F3451183F8F511D1
:104F2000C2F30010C9B260F3861183F8F511C2F321
:104F30008012C9B262F3C71183F8F5119DF80520FC
:104F4000C2F3C000C9B260F3000183F8F511C9B221
:104F500062F3410183F8F511C2F38000C9B260F336
:104F6000820183F8F511C2F34000C9B260F3C301B6
:104F700083F8F511C2F3001093F8F61160F30411F1
:104F800083F8F611C2F38010C9B260F3861183F87A
:104F9000F611C2F34012C9B262F3C71183F8F611D9
:104FA00002B010BD192C1CDC4C4B93F8FB2142F0D5
:104FB000100283F8FB21D2B26FF3861283F8FB2133
:104FC000D2B26FF3C71283F8FB21D2B26FF345124E
:104FD00083F8FB2193F8F5216FF3041283F8F52190
:104FE00078E7322C1CDC3D4B93F8FB2142F0100299
:104FF00083F8FB21D2B242F0400283F8FB21D2B207
:105000006FF3C71283F8FB21D2B26FF3451283F816
:10501000FB2193F8F5216FF3041283F8F52159E78A
:105020004B2C1CDC2D4B93F8FB2142F0100283F833
:10503000FB21D2B242F0400283F8FB21D2B242F00F
:10504000800283F8FB21D2B26FF3451283F8FB2173
:1050500093F8F5216FF3041283F8F5213AE7632CF6
:105060001CDC1E4B93F8FB2142F0100283F8FB215D
:10507000D2B242F0400283F8FB21D2B242F0800269
:1050800083F8FB21D2B242F0200283F8FB2193F88F
:10509000F5216FF3041283F8F5211BE7642C7FF4EC
:1050A00019AF0E4B93F8FB2142F0100283F8FB215D
:1050B000D2B242F0400283F8FB21D2B242F0800229
:1050C00083F8FB21D2B242F0200283F8FB2193F84F
:1050D000F52142F0100283F8F521FBE6F8220020CA
:1050E00000B583B00B1E74DB0122022101A8FBF77F
:1050F000E1FA3E4A92F8F83143F0200382F8F831A1
:105100009DF80520394B93F8F61162F3000183F8FE
:10511000F611C2F3C000C9B260F3410183F8F61181
:10512000C2F34010C9B260F3820183F8F611C2F3F2
:105130000010C9B260F3C30183F8F611C2F3800016
:1051400093F8F71160F3451183F8F711C2F34000AB
:10515000C9B260F3861183F8F711C2F38012C9B2A5
:1051600062F3C71183F8F7119DF80420C9B262F306
:10517000000183F8F711C2F3C000C9B260F3410126
:1051800083F8F711C2F34010C9B260F3820183F8CB
:10519000F711C2F30010C9B260F3C30183F8F7112D
:1051A000C2F3400093F8F81160F3041183F8F8118A
:1051B000C2F38010C9B260F3861183F8F811C2F30C
:1051C0008002C9B262F3C71183F8F81103B05DF829
:1051D00004FB022101A8FBF721FA044B93F8F82104
:1051E0006FF3451283F8F8218AE700BFF822002008
:1051F00010B582B00C1E31DB23460122032101A829
:10520000FBF758FAAD4B93F8FA2142F0200283F8ED
:10521000FA2193F8F72142F0100283F8F721002CCD
:1052200040F0B08093F8FA216FF3000283F8FA217E
:10523000D2B26FF3820283F8FA21D2B26FF3C302C3
:1052400083F8FA21D2B26FF3410283F8FA2193F87E
:10525000F9216FF3041283F8F9212BE0032101A84F
:10526000FBF7DCF9954B93F8FA216FF3451283F8BD
:10527000FA2193F8F7216FF3041283F8F72193F8DA
:10528000F9216FF3041283F8F92193F8FA216FF3EF
:10529000000283F8FA21D2B26FF3820283F8FA2176
:1052A000D2B26FF3C30283F8FA21D2B26FF3410294
:1052B00083F8FA219DF80420C2F3C0007F4B93F8D5
:1052C000F81160F3000183F8F811C9B262F34101EB
:1052D00083F8F811C2F38000C9B260F3820183F849
:1052E000F811C2F34000C9B260F3C30183F8F811AA
:1052F000C2F3401093F8F91160F3451183F8F911E6
:10530000C2F30010C9B260F3861183F8F911C2F339
:105310008012C9B262F3C71183F8F9119DF8052014
:10532000C2F3C000C9B260F3000183F8F911C9B239
:1053300062F3410183F8F911C2F38000C9B260F34E
:10534000820183F8F911C2F34000C9B260F3C301CE
:1053500083F8F911C2F3001093F8FA1160F3041105
:1053600083F8FA11C2F38010C9B260F3861183F892
:10537000FA11C2F34012C9B262F3C71183F8FA11ED
:1053800002B010BD192C1CDC4C4B93F8FA2142F0F2
:10539000010283F8FA21D2B26FF3820283F8FA2174
:1053A000D2B26FF3C30283F8FA21D2B26FF3410293
:1053B00083F8FA2193F8F9216FF3041283F8F921A5
:1053C00078E7322C1CDC3D4B93F8FA2142F00102C5
:1053D00083F8FA21D2B242F0040283F8FA21D2B261
:1053E0006FF3C30283F8FA21D2B26FF3410283F85C
:1053F000FA2193F8F9216FF3041283F8F92159E7A0
:10540000462C1CDC2D4B93F8FA2142F0010283F864
:10541000FA21D2B242F0040283F8FA21D2B242F069
:10542000080283F8FA21D2B26FF3410283F8FA211D
:1054300093F8F9216FF3041283F8F9213AE7632C0A
:105440001CDC1E4B93F8FA2142F0010283F8FA218A
:10545000D2B242F0040283F8FA21D2B242F008023A
:1054600083F8FA21D2B242F0020283F8FA2193F8CB
:10547000F9216FF3041283F8F9211BE7642C7FF400
:1054800019AF0E4B93F8FA2142F0010283F8FA218A
:10549000D2B242F0040283F8FA21D2B242F00802FA
:1054A00083F8FA21D2B242F0020283F8FA2193F88B
:1054B000F92142F0100283F8F921FBE6F8220020DE
:1054C00010B582B00C463E4BD3F8A436012B73D0F6
:1054D00023460122022101A8FBF7ECF89DF80420E5
:1054E000C2F38000374B93F8021260F3410183F856
:1054F0000212C2F34000C9B260F3820183F80212C3
:10550000C2F38010C9B260F3C30183F8021293F8AA
:10551000031262F3041183F80312C2F3C000C9B28C
:1055200060F3451183F80312C2F34010C9B260F36F
:10553000861183F80312C2F30012C9B262F3C711D5
:1055400083F803129DF80520C9B262F3000183F8C5
:105550000312C2F3C000C9B260F3410183F8031221
:10556000C2F34000C9B260F3820183F80312C2F3B0
:105570008000C9B260F3C30183F80312C2F30010C4
:1055800093F8041260F3451183F80412C2F340103B
:10559000C9B260F3861183F80412C2F38012C9B253
:1055A00062F3C71183F8041293F8022242F0010259
:1055B00083F8022202B010BDFEF750FF88E700BF5B
:1055C000F8120020F822002000B583B0434B83FB83
:1055D0000123C917C1EBA3130122032101A8FBF783
:1055E00069F8002141E001F116003D4B01F108028C
:1055F0006A4412F8042C13F800C062F3000C00F89F
:1056000003C0C2F3C00E5FFA8CFC6EF3410C00F8CD
:1056100003C0C2F3400E5FFA8CFC6EF3820C00F8FC
:1056200003C0C2F3800E5FFA8CFC6EF3C30C00F86B
:1056300003C001F11700C2F3401E13F800C06EF35F
:10564000041C00F803C0C2F3801E5FFA8CFC6EF3EA
:10565000861C00F803C0C2F300125FFA8CFC62F3F0
:10566000C71C00F803C00131C9B20129BBD99DF89C
:1056700006201C4B93F8061262F3000183F8061211
:10568000C2F3C000C9B260F3410183F80612C2F34D
:105690004000C9B260F3820183F80612C2F38000B1
:1056A000C9B260F3C30183F80612C2F3001093F885
:1056B000071260F3451183F80712C2F34010C9B214
:1056C00060F3861183F80712C2F38012C9B262F345
:1056D000C71183F8071203B05DF804FBD34D6210C5
:1056E000E6240020F822002010B582B0624B83FB34
:1056F0000123C917C1EB6313022207216846FAF799
:10570000D9FF00223CE002F1010C02F11A005B4BD0
:1057100002F10901694411F8081C13F800E061F373
:10572000000E00F803E0C1F3C0045FFA8EFE64F3DC
:10573000410E00F803E0C1F340045FFA8EFE64F30B
:10574000820E00F803E0C1F380045FFA8EFE64F37A
:10575000C30E00F803E01B32C1F3401E985C6EF3E9
:105760000410D054C1F3801EC0B26EF38610D05422
:10577000C1F30011C0B261F3C710D0545FFA8CF2CC
:10578000042AC0D99DF806203D4B93F80D1262F310
:10579000000183F80D12C2F3C000C9B260F34101E9
:1057A00083F80D12C2F34000C9B260F3820183F89E
:1057B0000D12C2F38000C9B260F3C30183F80D1269
:1057C000C2F3001093F80E1260F3451183F80E1225
:1057D000C2F34010C9B260F3861183F80E12C2F30F
:1057E0008012C9B262F3C71183F80E129DF800202F
:1057F00093F8071262F3000183F80712C2F3C000A6
:10580000C9B260F3410183F80712C2F34000C9B284
:1058100060F3820183F80712C2F38000C9B260F31B
:10582000C30183F80712C2F3401093F8081260F323
:10583000041183F80812C2F38010C9B260F3861114
:1058400083F80812C2F30012C9B262F3C71183F8D9
:10585000081293F8092242F0200283F8092293F8F3
:105860000E2242F0100283F80E22CAB242F0200249
:1058700083F8082202B010BD1F85EB51E6240020FA
:10588000F822002090B583B000AF6C4600291CDBE5
:105890004A4A137883F001031370494A92F8AC2CFA
:1058A000D2B903688B4202D1464B1B7893B1016099
:1058B000454A82FB0132CB17C3EBA203012202212E
:1058C000381DFAF7F7FE002272E00221381DFAF7C0
:1058D000B1FEF8E7A5466EE0012A16D04BB3016091
:1058E000394A82FB0132CB17C3EBA203092BA8BFB5
:1058F000092301221146381DFAF7DCFE781DFAF75C
:10590000A5FE304B01221A70DDE76BB1016002F198
:10591000663282FB0132CB17C3EBA20301220221C4
:10592000381DFAF7C7FECEE70221381DFAF776FEDA
:10593000C9E70121381DFAF771FE781DFAF786FED6
:10594000204B01221A70BEE702F10E011F4B02F13B
:105950000800384410F804CCCCF3800E585C6EF389
:10596000C300C854CCF3801EC0B26EF38200C8548A
:10597000CCF3400EC0B26EF30000C85402F10F0128
:10598000CCF3001E585C6EF3C710C854CCF3401E15
:10599000C0B26EF38610C854CCF3C00EC0B26EF322
:1059A0004510C854C0B26CF30410C8540132D2B2CE
:1059B000012AC9D9A5460C37BD4690BD883F0020B5
:1059C000F81200209008002067666666E624002032
:1059D00038B503688B4217D004460D4601600E4B64
:1059E00093F8E831032B0FD1036998476DB90B4D3C
:1059F000D5F8203AD5F8101A20469847284602F0E4
:105A00006DFA032385F8AC3938BD044BD3F8183A46
:105A100020469847F8E700BFF8220020F81200203F
:105A20002DE9F041074628220021764807F0F9FCCD
:105A3000754C04F5805393F8EE2142F0200283F870
:105A4000EE2193F8042242F0100283F8042293F826
:105A5000EE2142F0800283F8EE2193F8142242F006
:105A6000100283F8142293F80F2242F0200283F8E8
:105A70000F2293F80E2242F0100283F80E2293F8C0
:105A8000082242F0200283F8082293F8072242F00D
:105A9000100283F8072293F8052242F0200283F8CF
:105AA0000522D4F8143FD4F8041F04F60470984774
:105AB000D4F8E439D4F8D41904F6D4109847D4F8BB
:105AC000F839D4F8E81904F6E8109847D4F80C3AF5
:105AD000D4F8FC1904F6FC109847D4F8B436D4F87E
