:020000040800F2
:107800000080002061160108599000085B90000874
:107810005D9000085F900008619000080000000083
:10782000000000000000000000000000639000085D
:10783000659000080000000067900008699000084B
:10784000B1160108B1160108B1160108B1160108F8
:10785000B1160108B11601083DC40008B1160108AF
:10786000B1160108B1160108B1160108719000089F
:10787000B1160108B1160108B1160108B1160108C8
:10788000B116010800000000B1160108B116010888
:10789000B116010881900008B1160108B11601085F
:1078A00031FB0008B1160108B1160108B116010834
:1078B000C9FB000805FF000809FB0008B116010814
:1078C000B1160108B1160108B1160108B116010878
:1078D000B1160108B1160108B1160108B116010868
:1078E000ADFB0008B1160108B1160108B116010878
:1078F00031080108B1160108B116010800000000A6
:1079000000000000B116010800000000B1160108D7
:10791000B116010800000000B1160108B1160108F7
:10792000B1160108B1160108B1160108B116010817
:10793000B11601080000000000000000B1160108A7
:10794000B1160108B1160108000000000000000097
:107950000000000000000000000000000000000027
:10796000000000000000000000000000B116010847
:10797000B116010800000000000000000000000037
:1079800000000000B1160108000000000000000027
:1079900000000000000000000000000000000000E7
:1079A0000000000000000000B1160108B116010837
:1079B000B1160108B1160108B11601080000000057
:1079C00000000000B11601080000000000000000E7
:0879D000B1160108B11601080F
:1079D80010B5054C237833B9044B13B10448AFF301
:1079E80000800123237010BDD00700200000000094
:1079F8009428010808B5034B1BB103490348AFF3AA
:107A0800008008BD00000000D40700209428010869
:107A180070B54FF0FF0C4CF4E06C1CEA11541DBF1C
:107A28001CEA135594EA0C0F95EA0C0F00F0DEF8E7
:107A38002C4481EA030621EA4C5123EA4C5350EACC
:107A4800013518BF52EA033541F4801143F480131D
:107A580038D0A0FB02CE4FF00005E1FB02E506F0AE
:107A68000042E0FB03E54FF00006E1FB03569CF003
:107A7800000F18BF4EF0010EA4F1FF04B6F5007F09
:107A880064F5407404D25FEA4E0E6D4146EB06067B
:107A980042EAC62141EA55514FEAC52040EA5E5004
:107AA8004FEACE2EB4F1FD0C88BFBCF5E06F1ED8AE
:107AB800BEF1004F08BF5FEA500E50F1000041EBE5
:107AC800045170BD06F0004646EA010140EA020092
:107AD80081EA0301B4EB5C04C2BFD4EB0C0541EAB4
:107AE800045170BD41F480114FF0000E013C00F3C9
:107AF800AB8014F1360FDEBF002001F0004170BDED
:107B0800C4F10004203C35DA0C341BDC04F1140405
:107B1800C4F1200500FA05F320FA04F001FA05F291
:107B280040EA020001F0004221F0004110EBD3705E
:107B380021FA04F642EB06015EEA430E08BF20EA8A
:107B4800D37070BDC4F10C04C4F1200500FA04F32D
:107B580020FA05F001FA04F240EA020001F00041BF
:107B680010EBD37041F100015EEA430E08BF20EA32
:107B7800D37070BDC4F1200500FA05F24EEA020E7A
:107B880020FA04F301FA05F243EA020321FA04F0A9
:107B980001F0004121FA04F220EA020000EBD37060
:107BA8005EEA430E08BF20EAD37070BD94F0000F60
:107BB8000FD101F00046400041EB010111F4801F94
:107BC80008BF013CF7D041EA060195F0000F18BF45
:107BD800704703F00046520043EB030313F4801F81
:107BE80008BF013DF7D043EA0603704794EA0C0F3B
:107BF8000CEA135518BF95EA0C0F0CD050EA410651
:107C080018BF52EA4306D1D181EA030101F00041CD
:107C18004FF0000070BD50EA410606BF10461946F5
:107C280052EA430619D094EA0C0F02D150EA013601
:107C380013D195EA0C0F05D152EA03361CBF104642
:107C480019460AD181EA030101F0004141F0FE41E1
:107C580041F470014FF0000070BD41F0FE4141F465
:107C6800780170BD81F0004102E000BF83F000435D
:107C780030B54FEA41044FEA430594EA050F08BFBF
:107C880090EA020F1FBF54EA000C55EA020C7FEA83
:107C9800645C7FEA655C00F0E2804FEA5454D4EB00
:107CA8005555B8BF6D420CDD2C4480EA020281EACA
:107CB800030382EA000083EA010180EA020281EA02
:107CC8000303362D88BF30BD11F0004F4FEA013154
:107CD8004FF4801C4CEA113102D0404261EB410163
:107CE80013F0004F4FEA03334CEA133302D05242E9
:107CF80063EB430394EA050F00F0A780A4F10104A5
:107D0800D5F1200E0DDB02FA0EFC22FA05F28018DE
:107D180041F1000103FA0EF2801843FA05F35941C4
:107D28000EE0A5F120050EF1200E012A03FA0EFC43
:107D380028BF4CF0020C43FA05F3C01851EBE3716D
:107D480001F0004507D54FF0000EDCF1000C7EEB8A
:107D580000006EEB0101B1F5801F1BD3B1F5001FC8
:107D68000CD349085FEA30004FEA3C0C04F10104E7
:107D78004FEA445212F5800F80F09A80BCF1004F10
:107D880008BF5FEA500C50F1000041EB045141EA92
:107D9800050130BD5FEA4C0C404141EB0101013C5B
:107DA80028BFB1F5801FE9D291F0000F04BF01464A
:107DB8000020B1FA81F308BF2033A3F10B03B3F11C
:107DC80020020CDA0C3208DD02F1140CC2F10C02AC
:107DD80001FA0CF021FA02F10CE002F11402D8BF0A
:107DE800C2F1200C01FA02F120FA0CFCDCBF41EAD6
:107DF8000C019040E41AA2BF01EB0451294330BDA5
:107E08006FEA04041F3C1CDA0C340EDC04F1140481
:107E1800C4F1200220FA04F001FA02F340EA030058
:107E280021FA04F345EA030130BDC4F10C04C4F19E
:107E3800200220FA02F001FA04F340EA030029467E
:107E480030BD21FA04F0294630BD94F0000F83F4C8
:107E5800801306BF81F480110134013D4EE77FEAAB
:107E6800645C18BF7FEA655C29D094EA050F08BFF7
:107E780090EA020F05D054EA000C04BF19461046D8
:107E880030BD91EA030F1EBF0021002030BD5FEA1C
:107E9800545C05D14000494128BF41F0004130BD44
:107EA80014F580043CBF01F5801130BD01F0004598
:107EB80045F0FE4141F470014FF0000030BD7FEA0B
:107EC800645C1ABF194610467FEA655C1CBF0B4606
:107ED800024650EA013406BF52EA033591EA030F1D
:107EE80041F4002130BD00BF90F0000F04BF002115
:107EF800704730B54FF4806404F132044FF0000548
:107F08004FF0000150E700BF90F0000F04BF0021C0
:107F1800704730B54FF4806404F1320410F0004526
:107F280048BF40424FF000013EE700BF42004FEA21
:107F3800E2014FEA31014FEA02701FBF12F07F439E
:107F480093F07F4F81F06051704732F07F4208BF55
:107F5800704793F07F4F04BF41F40021704730B55C
:107F68004FF4607401F0004521F000411CE700BFA8
:107F780050EA010208BF704730B54FF000050AE02B
:107F880050EA010208BF704730B511F0004502D52C
:107F9800404261EB41014FF4806404F132045FEA2E
:107FA800915C3FF4D8AE4FF003025FEADC0C18BFD7
:107FB80003325FEADC0C18BF033202EBDC02C2F1C9
:107FC800200300FA03FC20FA02F001FA03FE40EA5B
:107FD8000E0021FA02F11444BDE600BF4FEA410247
:107FE800B2F1E04324BFB3F5001CDCF1FE5C0DD90F
:107FF80001F0004C4FEAC0024CEA5070B2F1004F59
:1080080040EB830008BF20F00100704711F0804F5B
:1080180021D113F13872BCBF01F00040704741F420
:1080280080114FEA5252C2F11802C2F1200C10FA24
:108038000CF320FA02F018BF40F001004FEAC12308
:108048004FEAD32303FA0CFC40EA0C0023FA02F3AC
:108058004FEA4303CCE77FEA625307D150EA013382
:108068001EBF4FF0FE4040F44000704701F0004052
:1080780040F0FE4040F40000704700BFF0B58FB0FC
:1080880000230B930C930D93059306930793089382
:1080980009930A9303F1804303F50433DA6C42F041
:1080A8000402DA64DA6C02F004020492049ADA6CCC
:1080B80042F02002DA64DA6C02F020020392039A9A
:1080C800DA6C42F00102DA64DA6C02F00102029220
:1080D800029ADA6C42F00202DA64DB6C03F0020303
:1080E8000193019B4FF090434FF400429A6203F5CD
:1080F800806308229A6210229A6220229A62464B72
:108108005A6922F0F002F02393FAA3F3002B7DD0F2
:10811800B3FA83F303F01F03022101FA03F31343B5
:108128003D4A53614FF400540B9401238DF83430C9
:1081380000238DF8353003238DF836300BA800F076
:10814800CBFF364BDB6894FAA4F4002C60D0B4FA69
:1081580084F46400032202FA04F423EA04044FF4CA
:10816800005393FAA3F22D4AD460126893FAA3F34A
:10817800002B4FD0B3FA83F35B00032606FA03F310
:1081880022EA03034FF4005292FAA2F2234A136040
:1081980001250595069600240994214F05A938461E
:1081A80001F06AF84FF40043059306950796089482
:1081B800099405A94FF0904001F05EF80823059353
:1081C800069507960894099405A9384601F054F8CD
:1081D80010230593069507960894099405A938462F
:1081E80001F04AF82023059306950794089409940A
:1081F80005A9384601F040F80A4BDB680A4B83F8BA
:1082080028434FF480725A600FB0F0BD202381E7F5
:1082180020249EE72023AFE7000001400008004823
:108228000004004800ED00E000E100E010B58CB06B
:10823800002409940A940B942022214601A809F0ED
:108248006FFA43484FF0A04303604FF44033436054
:108258008460C4600461012343610422826104775D
:1082680044770722026280F824404FF4A462C26275
:108278004FF40062026380F83830C46380F84040ED
:1082880002F0FEFD08B172B6FEE70023099309A9C2
:108298002F4803F0ADFA08B172B6FEE72D4B0193F3
:1082A80006230293012303937F2304930423059356
:1082B8000023069301A9264802F05AFF08B172B6B6
:1082C800FEE7254B01930C23029301A9204802F0F5
:1082D8004FFF08B172B6FEE7204B019312230293B9
:1082E80001A91B4802F044FF08B172B6FEE71C4B17
:1082F80001931823029301A9154802F039FF08B128
:1083080072B6FEE7174B01934FF48073029301A9ED
:108318000F4802F02DFF08B172B6FEE7124B019329
:108328004FF48373029301A9094802F021FF08B1B1
:1083380072B6FEE70D4B01934FF48673029301A9C1
:10834800034802F015FF08B172B6FEE70CB010BD85
:10835800F007002002003004040060081000C0107C
:108368000008302E001060320080F03E0800900CAB
:1083780030B58DB000230793089309930A930B93A4
:108388000368B3F1A04F04D0504A93425DD00DB0BA
:1083980030BD04464E4AD2F8883023F0405343F0AB
:1083A8000053C2F888304B4A136801331360012B1D
:1083B8003CD0474BDA6C42F00102DA64DA6C02F026
:1083C80001020292029ADA6C42F00202DA64DB6C71
:1083D80003F002030393039B0F23079303250895D8
:1083E80007A94FF0904001F0F1F941F20303079318
:1083F80008950025099507A9374801F0E7F9374896
:10840800374B0360052343608560C56080230361A3
:108418004FF4007343614FF4006383612023C36109
:10842800056201F017FB60B172B6FEE7284BDA6C03
:1084380042F40052DA64DB6C03F400530193019BAD
:10844800B7E7264B63659C62A1E7214AD2F88830DA
:1084580023F0405343F00053C2F888301D4A136894
:1084680001331360012B25D0194BDA6C42F001025D
:10847800DA64DA6C02F001020592059ADA6C42F0CD
:108488000202DA64DB6C03F002030693069BC02346
:1084980007930324089407A94FF0904001F096F938
:1084A8000423079308940023099307A90A4801F0B5
:1084B8008DF96CE7064BDA6C42F40052DA64DB6C37
:1084C80003F400530493049BCEE700BF000100505F
:1084D80000100240EC070020000400485C0800205F
:1084E8000800024010B58EB0002409940A940B9439
:1084F8000C940D940394049405940694079408949A
:108508001E4BDA6C42F00102DA64DB6C03F0010303
:108518000193019B022303930323049303A94FF0C0
:10852800904000F0A9FE099440230A930B940C9400
:108538000D9409A9124801F02BFC0294114B1B68F9
:10854800114AA2FB0323DB0CC82202FB03F30293AC
:1085580002E0029B013B0293029B002BF9D103F13D
:10856800804303F582335A6822F400125A601A686D
:1085780022F400121A600EB010BD00BF00100240B5
:10858800000201402800002083DE1B4310B58EB096
:10859800002409940A940B940C940D940394049465
:1085A80005940694079408941F4BDA6C42F0010274
:1085B800DA64DB6C03F001030193019B0823039346
:1085C8000323049303A94FF0904000F055FE4FF4A5
:1085D8008073099340230A930B940C940D9409A972
:1085E800124801F0D5FB0294114B1B68114AA2FBFB
:1085F8000323DB0CC82202FB03F3029302E0029B75
:10860800013B0293029B002BF9D103F1804303F550
:1086180082335A6822F480025A601A6822F480026F
:108628001A600EB010BD00BF0010024004020140E5
:108638002800002083DE1B4310B58EB00024099467
:108648000A940B940C940D94039404940594069442
:10865800079408941E4BDA6C42F00102DA64DB6C72
:1086680003F001030193019B012303930323049364
:1086780003A94FF0904000F0FFFD099440230A93AE
:108688000B940C940D9409A9124801F081FB0294F3
:10869800114B1B68114AA2FB0323DB0CC82202FB07
:1086A80003F3029302E0029B013B0293029B002B1F
:1086B800F9D103F1804303F582335A6822F000525E
:1086C8005A601A6822F000521A600EB010BD00BF3E
:1086D80000100240080201402800002083DE1B43EE
:1086E80030B591B0002409940A940B940C940D941D
:1086F8000E940F9403940494059406940794089494
:10870800284BDA6C42F48032DA64DA6C02F4803294
:108718000292029ADA6C42F00102DA64DB6C03F02E
:1087280001030193019B102303930325049503A9D7
:108738004FF0904000F0A0FD202303930495079488
:1087480003A94FF0904000F097FD174DEB6B23F411
:108758000073EB6309940A940B940D9401230E9310
:108768000F9409AA1149284601F052FC2B6823F0FE
:1087780002032B60EB6B23F48073EB63EB6B23F04A
:108788000073EB6309AA0A49284601F041FC2B68EB
:1087980023F400332B60EB6B23F08073EB6311B091
:1087A80030BD00BF00100240000800500100110257
:1087B800F200423510B588B0002301930293039369
:1087C800049305930693079303F1804303F5043359
:1087D800DA6C42F48022DA64DB6C03F480230093C1
:1087E800009B144CE36B23F40073E36302230593AB
:1087F8000123069301AA1049204601F009FC2368C9
:1088080023F002032360E36B23F48073E363E36BD9
:1088180023F00073E36301AA0849204601F0F8FB3E
:10882800236823F400332360E36B23F08073E3634E
:1088380008B010BD0010005001001102F2004235CE
:1088480000B583B00E4B9A6C42F004029A649A6C9D
:1088580002F004020092009A9A6C42F001029A64B3
:108868009B6C03F001030193019B002211460B202E
:1088780001F022FA0B2001F057FA03B05DF804FB6F
:108888000010024008B50F480F4B036000224260F9
:108898008260C260012303744374827414214161AD
:1088A80083610C21C1610221016243628362C36258
:1088B800036343638263C26301F082FC08B172B64A
:1088C800FEE708BDBC0800200064004000B589B080
:1088D80000230393049305930693079302681B4BA5
:1088E8009A4202D009B05DF804FB03F5D633D3F8F9
:1088F800882022F0407242F00072C3F888209A6DF6
:1089080042F000729A659A6D02F000720192019A23
:10891800DA6C42F00102DA64DB6C03F001030293C3
:10892800029B4FF4C0530393022304930923079334
:1089380003A94FF0904000F049FF0022114615208E
:1089480001F0BAF9152001F0EFF9CBE70064004017
:108958002DE9F043A3B000241D941E941F94209485
:1089680021942022214615A808F0DAFE302221465B
:1089780009A808F0D5FE0394049405940694079476
:108988000894A74B1A6E42F400621A661B6E03F431
:1089980000630293029BA34BDB68A34B83F8184345
:1089A8004FF080721A60ADF874404FF06008CDF84F
:1089B800788040F6A5631F93209421949B4D1DA9B0
:1089C800284602F005F92B6843F080032B60AB685A
:1089D80023F4A03323F00703AB60954E954FD7F8E7
:1089E800183C43F00803C7F8183CCDF85480169497
:1089F8001794189419941A941B941C9415AA01217D
:108A0800284602F041F9336823F004033360D7F8AD
:108A1800183C43F40063C7F8183C15AA10212846EF
:108A280002F032F9336823F480633360736843F0EB
:108A38000803736015AA4FF48071284602F024F9E0
:108A4800736823F004037360736843F4006373600E
:108A580015AA4FF48051284602F016F9736823F4DA
:108A6800806373606B6823F0007323F0700343F036
:108A780070036B606B6823F470036B60AB6843F042
:108A88008003AB606C484268022393FAA3F3002B7F
:108A980000F0BF80B3FA83F303F01F034FF40071B3
:108AA80001FA03F322EA0303022292FAA2F24360D4
:108AB80061484268042393FAA3F3002B00F0AB80CB
:108AC800B3FA83F303F01F034FF4007101FA03F3C1
:108AD80022EA0303042292FAA2F2436056494A6842
:108AE800082393FAA3F3002B00F09780B3FA83F3DB
:108AF80003F01F034FF4007808FA03F322EA030394
:108B0800082292FAA2F24B604848436D43F40033BE
:108B180043654FF4006309934FF48069CDF82890BA
:108B280000240B943C238DF83030ADF832404FF4DC
:108B380000550D950E940F944FF0807310934FF0DD
:108B48000073119312941394149409A902F0C6F8AF
:108B5800334BDA6C42F00202DA64DA6C02F0020299
:108B68000192019ADA6C42F00102DA64DB6C03F0DC
:108B780001030093009B0395022504950594069430
:108B88000794062608962D4F03A9384600F074FB73
:108B98004FF480430393049505940694079408962C
:108BA80003A9384600F068FB4FF40043039304958B
:108BB8000594069407940423089303A9384600F003
:108BC8005BFB4FF480730393049505940694079414
:108BD800089603A94FF0904000F04EFBCDF80C80AA
:108BE8000495059406940794089603A94FF09040BD
:108BF80000F042FBCDF80C90049505940694079478
:108C0800089603A94FF0904000F036FB23B0BDE86A
:108C1800F083202340E7202354E7202368E700BFA0
:108C28000010024000ED00E000E100E0002C0140EF
:108C3800182C014000200140602C0140000400482D
:108C480000B587B00023019302930393049305931F
:108C58001C4A916D41F001019165926D02F001028B
:108C68000092009A184AD268184A82F81C334FF0CA
:108C78008051116040F2FF32ADF8042002934FF0AA
:108C8800FF320392049301A94FF0804001F0A0FF46
:108C98004FF080431A6822F080021A609A6822F422
:108CA800A03222F007029A605A6822F0007222F07D
:108CB80070025A609A6822F080029A6007B05DF8E4
:108CC80004FB00BF0010024000ED00E000E100E0FE
:108CD80010B586B000230193029303930493059380
:108CE8001A4A916D41F002019165926D02F00202FB
:108CF8000092009A164AD268164A82F81D334FF03D
:108D08000051116040F2DB52ADF80420029342F2A8
:108D1800107203920493104C01A9204601F058FFE9
:108D2800236823F080032360A36823F4A03323F08F
:108D38000703A360636823F0007323F07003636084
:108D4800A36823F08003A36006B010BD00100240A2
:108D580000ED00E000E100E00004004070B58EB0D6
:108D6800002409940A940B940C940D94039404948D
:108D78000594069407940894474B9A6D42F00402B0
:108D88009A659A6D02F004020292029ADA6C42F035
:108D98000202DA64DB6C03F002030193019B4023B7
:108DA80003930225049508953C4E03A9304600F02C
:108DB80063FA802303930495059406940794089511
:108DC80003A9304600F058FA4FF400730393049552
:108DD800059406940794089503A9304600F04CFAC8
:108DE8002F4BDB682F4B83F81E434FF080421A60ED
:108DF800ADF824400A944FF6FF730B930C942A4C59
:108E080009A9204601F0E4FE236823F080032360CB
:108E1800636823F0007323F070036360A36823F092
:108E28008003A360214B1A6822F0030242F001027A
:108E38001A601A6822F00C021A601A6822F0F0020E
:108E48001A60226A42F00A0222621A6822F4407208
:108E580042F480721A601A6822F440621A601A6832
:108E680022F470421A60226A42F0A00222625A6812
:108E780022F4407242F480725A605A6822F44062C6
:108E88005A605A6822F470425A60236A43F42043B5
:108E980023620EB070BD00BF0010024000040048FD
:108EA80000ED00E000E100E0000800401808004084
:108EB80010B586B00023019302930393049305939E
:108EC8001C4A116E41F400511166126E02F40052F0
:108ED8000092009A184AD268184A82F82C334FF444
:108EE800805151609622ADF8042002934FF47A72B3
:108EF800039204930593124C01A9204601F068FEE1
:108F0800236823F080032360A36823F4A03323F0AD
:108F18000703A360636823F0007323F070036360A2
:108F2800636823F470036360A36823F08003A3607D
:108F380006B010BD0010024000ED00E000E100E0C6
:108F480000340140F0B591B0202200210DEB020061
:108F580008F0E6FB00240294039404940594069414
:108F68000794374BD3F8882022F03002C3F88820C2
:108F78009A6D42F480229A659A6D02F480220192D9
:108F8800019ADA6C42F00202DA64DB6C03F0020345
:108F98000093009B4FF480630293022703970726F0
:108FA8000796284D02A9284600F066F94FF4006399
:108FB80002930397049405940694079602A92846F9
:108FC80000F05AF908944FF4E13309930A940B948A
:108FD8000C940C230D930E940F9408A91A4801F0D1
:108FE800C3FE1A4B53E8002F22F0604243E80021E9
:108FF8000029F6D153E8002F22F0606243E80021EF
:109008000029F7D1104B1A6822F000521A605A68EA
:1090180022F490425A609A6822F02A029A601A68EA
:1090280042F001021A60084BDB6913F4001FFAD002
:10903800054BDB6913F4800FF5D011B0F0BD00BF0C
:109048000010024000040048004800400848004062
:10905800FEE7FEE7FEE7FEE7FEE77047704770476A
:1090680008B506F017FF08BD08B5024800F0A8FDCE
:1090780008BD00BF5C08002008B5024801F03DFBB0
:1090880008BD00BFBC08002000B583B00E4B1A6EA7
:1090980042F001021A661A6E02F001020092009A6A
:1090A8009A6D42F080529A659B6D03F0805301934C
:1090B800019B00F0FDF9022000F0F0F900F0E2FD5C
:1090C80003B05DF804FB00BF00100240014B1860BC
:1090D800704700BF280000200346027A002A00F0EB
:1090E800B18010B4006800283FD05A7A012A1DD0F8
:1090F800022A26D062B101209A7A002A35D0022AA3
:109108003FD0032A48D0012A25D040F002002CE0A5
:1091180002F1804202F58232516821EA0000506073
:1091280019681068014311600020E5E7514A116889
:1091380021EA00001060196850680143516000205E
:10914800DAE74C4A1168084310601968506801430F
:1091580051600020D0E71C68464AD16821EA040122
:10916800D16019689468214391605A68002A51D0E7
:10917800597A012931D0022939D0B9B140F0040017
:1091880020E01C683B4A916821EA04019160196853
:10919800D4682143D160E8E71968364A94682143C6
:1091A80091601968D4682143D160DEE701F18041FC
:1091B80001F582314C6A24EA02024A625A680C6A52
:1091C80022430A629A7A2AB3022A26D0032A2FD087
:1091D800012A15D040F005001CE026490C6A24EA53
:1091E80002020A625A684C6A22434A62EAE7214943
:1091F8000C6A22430A625A684C6A22434A62E1E7CF
:109208005C681C4AD16A21EA0401D1625B68916AF0
:109218000B4393625DF8044B70475C68154A916A8A
:1092280021EA040191625B68D16A0B43D362F1E7DA
:109238005968104A946A214391625B68D16A0B436A
:10924800D362E7E700680B4A116821EA0001116060
:109258001868516821EA000151605868116A21EACA
:10926800000111625968536A23EA0103536200201E
:10927800704700BF00040140F0B40A6892FAA2F2F5
:1092880012B1B2FA82F24EE020224CE08E68856874
:1092980093FAA3F4E4B1B4FA84F464004FF0030C35
:1092A8000CFA04F425EA040593FAA3F494B1B4FA89
:1092B80084F4640006FA04F42C4384600D68CE68D4
:1092C800446824EA050406FB05F52C43446039E0AC
:1092D8002024E2E72024ECE720243BE0202446E099
:1092E800202456E02024A40006FA04F42C43046247
:1092F8004E68056893FAA3F4002C75D0B4FA84F488
:1093080064004FF0030C0CFA04F425EA040493FA01
:10931800A3F3002B6AD0B3FA83F35B0006FA03F3D6
:109328002343036001320B6833FA02F460D04FF034
:10933800010C0CFA02FC1CEA0303F3D04C68013C54
:10934800012CA3D90E69C56893FAA3F4002CC3D0E5
:10935800B4FA84F464004FF0030C0CFA04F425EA20
:10936800040593FAA3F4002CB8D0B4FA84F464008A
:1093780006FA04F42C43C4604C68022CB8D1FF2BC5
:1093880014D84E69056A93FAA3F4002CA8D0B4FA4D
:1093980084F4A4000F2707FA04F425EA040593FAD5
:1093A800A3F4002C9ED0B4FA84F49CE74F69466A73
:1093B8001C0A94FAA4F59DB1B5FA85F5AD004FF0F5
:1093C8000F0C0CFA05F526EA050594FAA4F44CB13D
:1093D800B4FA84F4A40007FA04F42C43446287E73F
:1093E8002025EBE72024F5E7202489E7202394E7CC
:1093F8000020F0BC70470000104B1B680BB901201F
:10940800704710B504464FF47A70B0FBF3F30C4A7A
:109418001068B0FBF3F000F0A7FC68B90F2C01D975
:1094280001200AE0002221464FF0FF3000F044FC02
:10943800044B1C60002000E0012010BD000000204B
:10944800280000200400002010B5032000F022FCB2
:109458000F20FFF7D1FF10B10124204610BD0446AC
:10946800FFF712FEF9E70000014B1868704700BFCC
:109478002009002038B50446FFF7F6FF0546B4F189
:10948800FF3F02D0044B1B681C44FFF7EDFF401B55
:10949800A042FAD338BD00BF00000020034A136B76
:1094A80023F0020303431363704700BF0000014029
:1094B800024A136B23F00103136370470000014055
:1094C80010B4064C616941F0010161610260BFF3AB
:1094D8006F8F43605DF8044B704700BF0020024067
:1094E800094A536943F480235361EFF3108C72B631
:1094F800402351F8042B40F8042B013B13F0FF03E1
:10950800F7D18CF31088704700200240094B5B6943
:10951800002B01DB00207047064B074A9A6002F1D6
:1095280088329A605B69002B01DB002070470120BC
:10953800704700BF0020024023016745054B5A6968
:1095480042F000425A615B69002B01DB0120704741
:10955800002070470020024038B50546FFF784FF19
:109568000446134B1B6913F4803F06D0FFF77CFFBA
:10957800001BA842F5D9032038BD0D4B1B694CF2DE
:10958800FA32134009D10A4B1B6913F0010F0CD0B2
:10959800074B01221A610020EEE706494A681A4380
:1095A8004A60034A13610120E6E70020E4E700BFB0
:1095B8000020024008000020F8B516461B4A127821
:1095C800012A31D004460D461F46184B01221A7055
:1095D8004FF47A70FFF7C0FF80B9144B58608CB114
:1095E800631E012B15D900244FF47A70FFF7B4FFDE
:1095F80024B10F4A536923EA040454610B4B002237
:109608001A70F8BD32463B462846FFF759FF012439
:10961800EAE731462846FFF763FF022C01D0002411
:10962800E2E74FF48024DFE70220EAE708000020A1
:109638000020024010F0010F04D0054A536943F09E
:1096480004035361024A536943F4803353617047FA
:1096580000200240084B5A6922F4FC72C00000F452
:10966800FF6002435A615A6942F002025A615A691C
:1096780042F480325A61704700200240164B1B7F2B
:10968800DBB2012B01D0032B10D1144A116821F44D
:1096980000711160116841F400611160116821F4D2
:1096A80000611160116841F400711160023BDBB286
:1096B800012B03D9084B00221A777047074B1A6809
:1096C80042F480521A601A6822F480521A601A68AA
:1096D80042F480621A60EDE7080000200020024092
:1096E800F8B5384B1B78012B69D004460E46354B2C
:1096F80001221A704FF47A70FFF72EFF07460028F0
:1097080058D1304B00225A602F4B1B6813F4007F4E
:109718002DD02D4B1B6813F4806F24D02A4A136870
:1097280023F480631360274B03221A772368012BE5
:109738002FD04FF0FF333360A568A368E268134465
:10974800AB4235D961682846FFF784FF4FF47A7039
:10975800FFF702FF1C4A536923F4FD735361074660
:1097680028BB0135E9E7174B01221A77DEE7164BCC
:109778001B6813F4806F08D0134A136823F48063BE
:109788001360104B02221A77D0E70E4B00221A778B
:10979800CCE76068FFF74EFF4FF47A70FFF7DCFE06
:1097A8000746094A536923F00403536100E0356012
:1097B800FFF764FF034B00221A703846F8BD0227F2
:1097C800FBE700BF0800002000200240F0B583B08E
:1097D800002362E085685E000324B44025EA04059E
:1097E800CC68B4402C438460446824EA0C0C4C6870
:1097F800C4F300149C4044EA0C0444605EE0DD08B5
:10980800083550F8256003F007044FEA840C0F244C
:1098180004FA0CF426EA040E0C6904FA0CF444EA7F
:109828000E0440F8254060E0052400E0002404FA16
:109838000EF42C430CF1020C554D45F82C40554CB8
:10984800A568D44325EA02064F6817F4801F01D0A3
:1098580042EA05064F4DAE60ED6804EA05064F681A
:1098680017F4001F01D042EA05064A4DEE606D6804
:1098780004EA05064F6817F4003F01D042EA0506DE
:10988800444D6E602D682C404E6816F4803F01D020
:1098980042EA05043F4A146001330A6832FA03F4C5
:1098A80074D04FF0010C0CFA03FC1CEA0202F3D04E
:1098B8004C6804F00304013C012C8BD94C6804F07B
:1098C8000304032C0CD0C4685D004FF0030C0CFAA1
:1098D80005FC24EA0C0C8C68AC4044EA0C04C46017
:1098E8004C6804F00304022C89D004684FEA430E44
:1098F8004FF0030C0CFA0EFC24EA0C0C4C6804F034
:10990800030404FA0EF444EA0C0404604C6814F4EA
:10991800403FC1D0204C256E45F001052566246ED8
:1099280004F001040194019C4FEA930C0CF1020528
:10993800174C54F8255003F003044FEA840E0F2403
:1099480004FA0EF425EA0405B0F1904F3FF46EAF27
:10995800124CA04212D004F58064A04210D004F545
:109968008064A0420ED004F58064A0420CD004F5B7
:109978008064A0423FF458AF062458E7012456E714
:10998800022454E7032452E7042450E703B0F0BD4F
:10999800000001400004014000100240000400489B
:1099A80030B4C46C056D6560446D14B1846DC56DCB
:1099B8006560446C04F01F0C012404FA0CF4056C77
:1099C8006C60046863608368102B05D00368996035
:1099D8000368DA6030BC704703689A600368D9602E
:1099E800F8E7000003680C4A934213D80B49DBB22E
:1099F800083B0B4AA2FB0323426C22F003020A44F1
:109A08008264084AC264C3F30413012202FA03F30E
:109A1800036570470449EAE707040240000802406A
:109A2800CDCCCCCC80080240200802400379074AFC
:109A38001A4492004265064A8265013B03F01F03FF
:109A4800012202FA03F3C365704700BF3F8200108A
:109A58004009024000285BD010B5044601682D4B30
:109A680099423DD82C4B0B442C4AA2FB03231B09DB
:109A78009B0043642A4B0364022384F825300A6858
:109A880022F4FF4222F07002A368E06803432069D1
:109A9800034360690343A0690343E0690343206A01
:109AA800034313430B602046FFF79CFFA368B3F5FD
:109AB800804F20D0A36C22791A60E36C226D5A6023
:109AC8006368013B032B19D900236365A365E3652C
:109AD8000020E063012384F8253084F8240010BDB9
:109AE800104B0B440D4AA2FB03231B099B00436444
:109AF8000D4B0364C0E700236360DBE72046FFF7F4
:109B080095FF636D00221A60A36DE26D5A60DFE76E
:109B18000120704707040240F8FFFDBFCDCCCCCC34
:109B280000000240F8FBFDBF0004024038B50446BF
:109B380090F82400012841D0012084F8240094F8EA
:109B48002500C0B2012804D0002384F82430022064
:109B580038BD022084F825000020E06325682868C5
:109B680020F0010028602046FFF71AFF236BD3B1CD
:109B78002268136843F00E031360A36C1A6812F48A
:109B8800803F03D01A6842F480721A60636D1BB17B
:109B98001A6842F480721A602268136843F001035D
:109BA80013600020D4E72268136823F004031360CD
:109BB8002268136843F00A031360DEE70220C7E750
:109BC80038B5036C196804682568436C03F01F03F3
:109BD80004229A400A4215D015F0040F12D02368C7
:109BE80013F0200F03D1236823F004032360436C90
:109BF80003F01F02016C042393404B60036B03B115
:109C0800984738BD02229A400A421CD015F0020F2C
:109C180019D0236813F0200F06D1236823F00A0314
:109C28002360012380F82530436C03F01F02016C88
:109C3800022393404B60002380F82430C36A002B32
:109C4800DFD09847DDE7082202FA03F30B42D8D0A9
:109C580015F0080FD5D0236823F00E032360436C5A
:109C680003F01F03016C012202FA03F34B60C26385
:109C780080F82520002380F82430436B002BC0D0C7
:109C88009847BEE7024A936843F48043936070475D
:109C980000700040074AD36823F4E0631B041B0CE0
:109CA800000200F4E060034343F0BF6343F4003371
:109CB800D360704700ED00E000B5194BDB68C3F3D3
:109CC8000223C3F1070CBCF1040F28BF4FF0040CAA
:109CD80003F1040EBEF1060F18D9033B4FF0FF3E07
:109CE8000EFA0CFC21EA0C0199400EFA03F322EA61
:109CF8000303194300280BDB0901C9B200F16040D6
:109D080000F5614080F800135DF804FB0023E5E7E7
:109D180000F00F000901C9B2024B1954F4E700BF63
:109D280000ED00E014ED00E0002807DB00F01F0262
:109D3800400901239340024A42F82030704700BF8F
:109D480000E100E000280CDB00F01F0240090123BD
:109D580093402030034A42F82030BFF34F8FBFF3BF
:109D68006F8F704700E100E00138B0F1807F0BD2BF
:109D78004FF0E0235861054AF02182F823100020B3
:109D8800986107221A6170470120704700ED00E0D2
:109D98000368002B12DB10B40368094A1A400B68E9
:109DA8004C6823438C682343CC68234309690B43DD
:109DB8001343036000205DF8044B7047012070478F
:109DC8000F7E00FF044B9B68C3F30313034AD35C65
:109DD80003F01F03D840704700100240EC28010828
:109DE800044B9B68C3F30223034AD35C03F01F03AD
:109DF800D840704700100240FC280108044B9B68BB
:109E0800C3F3C223034AD35C03F01F03D84070474F
:109E180000100240FC2801080E4BDB6803F0030326
:109E2800032B14D00C480B4AD368C3F3062303FB57
:109E380000F0D368C3F303130133B0FBF3F0D36826
:109E4800C3F3416301335B00B0FBF3F07047034891
:109E5800E9E700BF001002400024F400001BB7002F
:109E680008B5074B9B6803F00C03082B04D00C2B98
:109E780004D1FFF7D1FF02E0024800E0024808BD24
:109E880000100240001BB7000024F40008B50328A6
:109E980005D00C282CD0302853D0002008BD3D4BCD
:109EA800D3F88830034043EA00403B4B98420FD038
:109EB800B0F1031F13D0013B984206D0FFF7D0FF43
:109EC800FFF780FFFFF79AFFE8E7FFF7C9FFE5E72D
:109ED800304B186810F48060E0D03048DEE72D4B36
:109EE800D3F8900010F00200D8D04FF40040D5E726
:109EF800284BD3F88830034043EA0040284B984267
:109F08000FD0B0F10C1F13D0043B984206D0FFF7D6
:109F1800A7FFFFF757FFFFF763FFBFE7FFF7A0FFB4
:109F2800BCE71C4B186810F48060B7D01B48B5E735
:109F3800184BD3F8900010F00200AFD04FF4004057
:109F4800ACE7144BD3F88830034043EA0040154B84
:109F580098420FD0B0F1301F13D0103B984206D072
:109F6800FFF77EFFFFF72EFFFFF73AFF96E7FFF7B1
:109F780077FF93E7074B186810F480608ED0074886
:109F88008CE7044BD3F8900010F0020086D04FF411
:109F9800004083E700100240020003000024F400A0
:109FA80008000C0020003000C02801D000207047B5
:109FB80008B5144BD3F88830034043EA0040124BED
:109FC80098420FD0B0F1C01F13D0403B984206D042
:109FD800FFF746FFFFF7F6FEFFF702FF01E0FFF786
:109FE8003FFF08BD074B186810F48060F9D0074898
:109FF800F7E7044BD3F8900010F00200F1D04FF4CB
:10A008000040EEE7001002408000C0000024F40089
:10A0180030B49468056801F0100C012303FA0CF3BE
:10A02800AB4354D0002C35D0C02C0FD0036840F679
:10A03800FC7101FA0CF123EA010311680C43D168A1
:10A048000C4304FA0CF41C4304602EE00368C0259A
:10A0580005FA0CF523EA050304FA0CF41C43046022
:10A06800036E40F60F7505FA0CF523EA050514682A
:10A0780053689B081B0243EA940303FA0CF32B432F
:10A08800036600F15803C909890001F00401D46886
:10A098005C500AE00368FC2101FA0CF123EA010391
:10A0A800116801FA0CF10B430360C36B072101FA35
:10A0B8000CF123EA0101136954692343926913439C
:10A0C80003FA0CF30B43C363002030BC7047012034
:10A0D800FBE7000010B4154B03640168D1F8802039
:10A0E80022F4F812446B42EA0442C1F88020104A74
:10A0F80042640168D1F8802022F07062846B42EAE1
:10A108000462C1F880200B4A8264D832C264D83213
:10A1180002651832426502E0002243F8042B064A21
:10A128009342F9D95DF8044B704700BF00A4004082
:10A1380070A40040B0A400404FA7004070B54C6820
:10A14800E4B90D698C6825430C6845EA8445CC69F7
:10A158000E6A44EA06648E6934434E693443CE6815
:10A168003443406D03EBC30300EBC30E40F8335098
:10A17800CEF804400EF1080E002019E00C698D6835
:10A1880025430C68254345F08045E0E702EB000CC9
:10A198009CF803409CF802301B0443EA04639CF8D3
:10A1A800014043EA0423145C23434EF8043B043083
:10A1B800CB89024CE35C8342E8D870BDAC28010827
:10A1C800002800F0E38038B5044690F85C30D3B13D
:10A1D8002268936923F010039361FFF745F9054658
:10A1E80023689A6912F0080F12D0FFF73DF9401B57
:10A1F8000A28F5D9236E43F001032366032384F864
:10A208005C30012038BD80F85D30FEF75FFBDFE78A
:10A218009A6942F001029A61FFF726F90546236818
:10A228009A6912F0010F0DD1FFF71EF9401B0A2899
:10A23800F5D9236E43F001032366032384F85C30C9
:10A248000120DFE79A6942F002029A612268504BC6
:10A258009A4242D0237C012B45D02268936943F06F
:10A2680040039361637C012B43D02268936923F4F4
:10A2780080439361A37C012B41D02268936943F406
:10A28800805393612268936923F44073A1680B4358
:10A2980093612268936923F0A40393612268136988
:10A2A80023F010031361E368012B2ED0002B31D06B
:10A2B800022B54D02268936943F08003936122688B
:10A2C800136943F010031361E368032B22D122685A
:10A2D800936943F0200393611CE06268A3F58063EF
:10A2E800C3F80025B6E72268936923F04003936119
:10A2F800B8E72268936943F480439361BAE7226818
:10A30800936923F480539361BCE72268936943F00F
:10A3180004039361A3695A1EE369013B1B0243EAE4
:10A328004263226A013A13436269013A216843EAA7
:10A338000243CB61A368B3F5407F16D02268D2F8F8
:10A34800C030E16B0B43C2F8C0302046FFF7C2FEB5
:10A358000020A0652066012384F85C3052E722685B
:10A36800936943F020039361D4E7A36A013BE26A4F
:10A37800013A43EA0223226B013A43EA0213626A72
:10A38800013A216843EA0243CB60D7E701207047CE
:10A398000064004090F85C30013BDBB2012B05D92A
:10A3A800036E43F002030366012070470B68A3B1F4
:10A3B80010B4CA680B6943EA42724B698C6843EA75
:10A3C8008473406C496800EBC10C40F83120CCF82C
:10A3D800043000205DF8044B70478A68CB68DB06C0
:10A3E80043EA82730A6943EA02434A691343026CE7
:10A3F800496842F821300020704790F85CC05FFA45
:10A408008CFCBCF1010F05D0036E43F00403036616
:10A418000120704710B40468D4F8800020F03F0091
:10A42800920042EA011242EA4302019B1A430243A4
:10A43800C4F8802000205DF8044B704790F85C3029
:10A44800DBB2012B05D0036E43F004030366012041
:10A458007047022380F85C300268936923F0010397
:10A468009361002303661846704738B5044690F890
:10A478005C30DBB2022B1BD10368D3F8C40010F4A4
:10A48800001F05D0236E43F400732366012014E0F7
:10A49800D3F8C450C5F301452B462046FFF74EFEBE
:10A4A80022680123AB40C2F8CC30A365002004E049
:10A4B800036E43F008030366012038BD70B590F8B9
:10A4C8005C40E4B2022C7DD140290BD00468D4F85A
:10A4D800985015F00F0F1BD1036E43F48073036679
:10A4E800012074E00468D4F8905015F00F0F05D1DE
:10A4F800036E43F480730366012068E0D4F890602B
:10A50800C6F30126846C06EBC60C04EBCC0C08E001
:10A51800D4F89860C6F30126C46C06EBC60C04EBAD
:10A52800CC0CDCF8004004F08044546074BBDCF8C8
:10A538000040C4F38A441460DCF8004004F000547E
:10A548009460DCF8004004F000441461BCF8044056
:10A55800D461DCF8044004F47024D460DCF80440CE
:10A5680004F480145461DCF8044004F40014946189
:10A578009CF8074004F07F041462DCF80440E40F00
:10A5880054620CF1080E4FF0000C0BE0DCF80040B0
:10A5980024F060441460CFE71EF80C4003F80C4028
:10A5A8000CF1010CD4890A4D2C5D6445F4D840297E
:10A5B80004D00368C3F89C60002008E00368C3F86F
:10A5C8009460F9E7036E43F008030366012070BD49
:10A5D800AC2801080368D3F8C40000F007007047EE
:10A5E80090F85C30013BDBB2012B05D9036E43F0D8
:10A5F800020303660120704770B40468A36D11F06C
:10A60800070602D013F0010F23D011F0380F02D043
:10A6180013F0020F1DD011F4E07F02D013F0040FE5
:10A6280017D011F4F05F02D013F0080F11D011F415
:10A63800604F02D013F0100F0BD011F4403F02D03E
:10A6480013F0200F05D011F47C0F06D013F0400F43
:10A6580003D1E56D45F00105E56516B113F0010F6D
:10A6680023D111F0380F02D013F0020F1DD111F4CD
:10A67800E07F02D013F0040F17D111F4F05F02D07D
:10A6880013F0080F11D111F4604F02D013F0100F1E
:10A698000BD111F4403F02D013F0200F05D111F473
:10A6A8007C0F07D013F0400F04D00468E36D43F02B
:10A6B8000203E36511F0800F05D00468D4F8DC309C
:10A6C8001343C4F8DC3011F4807F05D00468D4F853
:10A6D800E0301A43C4F8E0200268536D194351650D
:10A6E800002070BC704770477047704770477047CC
:10A6F800704770477047704770472DE9F843044624
:10A7080003681A6D02F4E0595A6D09EA02091A6DD4
:10A7180002F007085A6D08EA02081F6D07F03807AB
:10A728005A6D17401D6D05F471055A6D15401E6D63
:10A7380006F460265A6D16401A6D12F0400F03D0C9
:10A748005A6D12F0400F51D123681A6D12F4807FB0
:10A7580003D05A6D12F4807F4DD1B9F1000F56D154
:10A76800B8F1000F5BD1002F61D123681A6D12F484
:10A77800007F03D05A6D12F4007F5FD123681A6DF1
:10A7880012F0800F03D05A6D12F0800F5DD123684C
:10A798001A6D12F4005F03D05A6D12F4005F5FD196
:10A7A80023681A6D12F4004F03D05A6D12F4004F4B
:10A7B8005DD123681A6D12F4804F0AD05A6D12F4D5
:10A7C800804F06D04FF480421A65236E43F0800311
:10A7D8002366002E52D125B123681D65236E1D43C3
:10A7E8002566236E002B50D1BDE8F88340221A65F8
:10A7F800FFF780FFA8E7D3F8D810D3F8E0204FF48C
:10A808008070186511402046FFF771FFA5E723689F
:10A81800C3F8509049462046FFF765FFA0E7236834
:10A82800C3F850804146204605F07CFB9BE723682F
:10A838001F6539462046FFF757FF96E74FF4007229
:10A848001A652046FFF751FF98E7D3F8D410D3F8DC
:10A85800DC208020186511402046FFF747FF96E767
:10A868004FF400521A652046FFF742FF98E74FF46D
:10A8780000421A652046FFF73CFF9AE723681E65E9
:10A8880031462046FFF738FFA5E72046FFF733FF9C
:10A89800AAE7000030B4036A23F001030362036AE5
:10A8A8004468826922F4803222F073020D682A43D8
:10A8B80023F002030D692B4323F001034D682B435A
:10A8C800174DA8420FD005F50065A8420BD005F535
:10A8D8004065A84207D005F58065A84203D005F574
:10A8E8008065A84213D123F008034D6943EA850324
:10A8F80023F004038D6843EA850324F4807C8C6983
:10A908004CEA040C2CF4007CCC694CEA4404446006
:10A918008261CA6842630362002030BC704700BF8E
:10A92800002C014030B4036A23F010030362036A69
:10A938004468826922F0807222F4E6420D6842EA95
:10A94800052223F020030D6943EA051323F01003C1
:10A958004D6843EA0513174DA8420FD005F5006569
:10A96800A8420BD005F54065A84207D005F58065DB
:10A97800A84203D005F58065A84213D123F08003CF
:10A988004D6943EA851323F040038D6843EA851334
:10A9980024F4806C8C694CEA840C2CF4006CCC692F
:10A9A8004CEAC40444608261CA688263036200207E
:10A9B80030BC7047002C014030B4036A23F4807324
:10A9C8000362036A4468C26922F4803222F0730287
:10A9D8000D682A4323F400730D6943EA052323F421
:10A9E80080734D6843EA0523174DA8420FD005F53B
:10A9F8000065A8420BD005F54065A84207D005F5CB
:10AA08008065A84203D005F58065A84213D123F4D8
:10AA180000634D6943EA852323F480638D6843EA24
:10AA2800852324F4805C8C694CEA041C2CF4005CBB
:10AA3800CC694CEA44144460C261CA68C2630362C8
:10AA4800002030BC704700BF002C014030B4036ABE
:10AA580023F480530362036A4468C26922F0807257
:10AA680022F4E6420D6842EA052223F400530D69F8
:10AA780043EA053323F480534D6843EA0533174D01
:10AA8800A8420FD005F50065A8420BD005F5406532
:10AA9800A84207D005F58065A84203D005F5806572
:10AAA800A84213D123F400434D6943EA853323F4C4
:10AAB80080438D6843EA853324F4804C8C694CEAE2
:10AAC800841C2CF4004CCC694CEAC4144460C26168
:10AAD800CA6802640362002030BC7047002C014041
:10AAE80030B4036A23F480330362036A026D22F4EC
:10AAF800803222F070020C68224323F400330C6980
:10AB080043EA044323F480334C6843EA0443114C7A
:10AB1800A0420FD004F50064A0420BD004F54064B5
:10AB2800A04207D004F58064A04203D004F58064F5
:10AB3800A04206D1446824F480348D6944EA05248F
:10AB480044600265CA68816C82640362002030BC7C
:10AB5800704700BF002C014030B4036A23F480130F
:10AB68000362036A026D22F0807222F4E0420C68EC
:10AB780042EA042223F400130C6943EA045323F441
:10AB880080134C6843EA0453104CA0420FD004F5DC
:10AB98000064A0420BD004F54064A04207D004F53D
:10ABA8008064A04203D004F58064A04206D14468C2
:10ABB80024F480248D6944EA852444600265CA68C7
:10ABC800C2640362002030BC704700BF002C014003
:10ABD80003682C4A90420ED0B0F1804F0BD0A2F5FA
:10ABE8009432904207D002F58062904203D002F579
:10ABF8009632904203D123F070034A681343214AE6
:10AC080090421AD0B0F1804F17D0A2F594329042FA
:10AC180013D002F5806290420FD002F5963290422E
:10AC28000BD002F54062904207D002F58062904254
:10AC380003D002F58062904203D123F44073CA68BE
:10AC4800134303608B68C3620B8883620D4B984281
:10AC58000FD003F5006398420BD003F54063984288
:10AC680007D003F58063984203D003F580639842C8
:10AC780001D10B690363436943F001034361002079
:10AC8800704700BF002C014008B50B461146B3F5CC
:10AC9800805F1DD00ED8102B17D0B3F5807F02D15E
:10ACA800FFF78AFE05E0012B02D1FFF7F3FD00E074
:10ACB800012008BDB3F5803F0DD0B3F5801F02D148
:10ACC800FFF74AFFF5E70120F3E7FFF72BFEF0E770
:10ACD800FFF7BCFEEDE7FFF703FFEAE70B7B8A68A7
:10ACE800134323F480634A68134323F400630A6818
:10ACF800134323F48053CA89134323F400530A6986
:10AD0800134323F48043CA6A134323F400431343D1
:10AD1800144A904203D002F50062904207D123F40E
:10AD280070234A69134323F080538A6913430D4AF9
:10AD3800904203D002F5006290420FD123F47003D1
:10AD48004A6A134323F08073CA69134323F00073DC
:10AD58000A6A134323F000538A6A134343640020AA
:10AD6800704700BF002C014038B5036813F0010F8D
:10AD78006DD104460D460368364A1A408B68096946
:10AD88000B4369690B43E9690B4313430360EB68A1
:10AD9800426822F4405213434360AB69826822F44C
:10ADA8004072134383602C4B984210D02B4B98422F
:10ADB80016D02B4B984217D02A4B984218D0012016
:10ADC800E26A22F00F022B881343E36238BD0320A6
:10ADD800FFF75CF8002838D06A686AB90120EFE705
:10ADE8000C20FFF753F8F5E73020FFF74FF8F1E7AD
:10ADF800C020FFF7D9F8EDE72B68E9690B2B0FD8CE
:10AE080072B1B1F5004F0DD0DBB2174951F82330BC
:10AE1800B0FBF3F303EB5203B3FBF2F39BB2E36033
:10AE28000020CDE7DBB2104951F82330B0FBF3F036
:10AE3800530803EB4000B0FBF2F34FF6F0721A40F0
:10AE4800C3F342031343E360EAE70120B8E70120B4
:10AE5800BCE700BFF369FFEF003801400044004041
:10AE680000480040004C0040BC280108034AD2F8C2
:10AE7800883043F47003C2F88830704700ED00E072
:10AE880030B583B000230193002800F00D810446FB
:10AE9800C36D13B323689A6812F0005F05D09A68EF
:10AEA80022F0204222F03F029A602268936813F051
:10AEB800805F1FD1936823F0104323F03F0343F0D2
:10AEC80080539360794B1B689B09794AA2FB032343
:10AED8009B0901335B00019309E0FDF749FA002360
:10AEE800236684F85830D5E7019B013B0193019B09
:10AEF800002BF9D12268936813F0805F40F09C80A2
:10AF0800E36D43F01003E365236E43F0010323660A
:10AF18000120936813F0040300D00123E16D11F0C0
:10AF2800100F40F0BA80002B40F0B780E36D23F497
:10AF3800817343F00203E365936813F0010F15D1A1
:10AF48004FF0A0439B6813F0010300D00123594A36
:10AF5800926812F0010200D00122134306D16368FF
:10AF680055498A6822F47C1213438B60627FE36B35
:10AF780043EA4233E2681343A268134394F8242057
:10AF880043EA0243012A59D0E26A22B102F47872F4
:10AF9800216B0A4313432168CD68484A2A4013436A
:10AFA800CB602268136923F04063616B0B43136124
:10AFB80021688B6813F0040300D001238A6812F01B
:10AFC800080200D0012243BB3ABB227F94F83830F4
:10AFD8005B0043EA8232CB6823F4804323F0020308
:10AFE8001343CB60236973B32268136943F4803336
:10AFF80013612268D2F8C03023F47F5323F03F0353
:10B0080021690B43C2F8C03094F84030012B29D095
:10B018002268136923F0010313616369012B33D09C
:10B028002268136B23F00F031363E36D23F003030C
:10B0380043F00103E36535E000206AE7A26A013ABC
:10B0480043EA4243A0E72268136923F4803313617B
:10B058002268D2F8C03023F47F5323F03F03C2F8AC
:10B06800C030D1E721680B6923F4FF6323F00403A0
:10B07800626CA56C2A43E56C2A43256D2A43134369
:10B0880043F001030B61C8E721680B6B23F00F0342
:10B09800226A013A13430B63C7E7E36D43F01003D9
:10B0A800E365012003B030BD0120FBE72800002044
:10B0B800632D3E0500010050000300500740F0FFDB
:10B0C800704708B5806AFFF7FBFF08BD704708B5F1
:10B0D8000346806AC26D12F0500F30D1C36D43F43D
:10B0E8000073C36503681A6812F0080F14D0DA6891
:10B0F80012F4406F20D1DB6813F4005F1CD1C36DDC
:10B1080023F48073C365C36D13F4805F14D1C36DDA
:10B1180043F00103C3650FE0DB6813F0020F0BD1A6
:10B12800C36D23F48073C365C36D13F4805F03D1CB
:10B13800C36D43F00103C36504F062FC08BDC26D32
:10B1480012F0100F04D1426D526B18469047F5E784
:10B15800FFF7BCFFF2E708B5806AC36D43F0400310
:10B16800C365036E43F004030366FFF7AFFF08BD32
:10B17800F0B583B00022019290F85820012A00F01F
:10B188005E820346012280F858200568A86810F0FE
:10B19800040F09D0DA6D42F02002DA65012000229E
:10B1A80083F8582003B0F0BD4C683035220A92006D
:10B1B80002F00C02A85804F01F0E1F2404FA0EF423
:10B1C80020EA04000C68C4F3846C0CFA0EFC40EA14
:10B1D8000C00A8501868826812F0040200D00122FE
:10B1E800846814F0080400D00124002A4FD1002CF0
:10B1F8004DD18D68B5F1004F7CD00F6814307A0EB0
:10B20800920002F004028658C7F3045E4FF0070C60
:10B218000CFA0EFC26EA0C0C05FA0EF54CEA0505AC
:10B2280085501868426922F0004242614D691868E9
:10B23800C268C2F3C102520005FA02F20E69042E76
:10B2480070D0603050F82670A94D3D400F6807F067
:10B25800F8473A43154345F0004540F826501A6828
:10B268000E698869603252F8265025F080752843A7
:10B2780042F826001A680D69087F01284FD060320D
:10B2880052F8250020F00070044342F825401A685F
:10B29800906810F0010F12D10868CD68954CA5424E
:10B2A80000F0A780D2F8B040C0F3120024EA0000F2
:10B2B800C2F8B000C8688F4A904200F0A2800A68BD
:10B2C8008D490A4200F0B3818C49896801F0E07029
:10B2D8008B4CA24200F062818A4CA24200F05E814F
:10B2E800894CA24200F08081884CA24200F08E81F5
:10B2F800002054E70D6814306A0E920002F0040230
:10B308008658C5F30455072707FA05F526EA050503
:10B3180085501868426942F00042426186E74FF062
:10B328000074ACE7026E046EC4F384640A68C2F366
:10B3380012057DBBC2F38462944233D01C68626EEE
:10B34800606EC0F384600A68C2F312057DBBC2F365
:10B358008462904233D01C68A26EA06EC0F38460F1
:10B368000A68C2F312057DBBC2F38462904233D0EF
:10B378001C68E26EE06EC0F384600A68C2F31205CE
:10B388007DBBC2F38462904281D1E26E22F000421A
:10B39800E2667CE792FAA2F212B1B2FA82F2CBE745
:10B3A8002022C9E7026E22F000420266C6E792FA3E
:10B3B800A2F212B1B2FA82F2CBE72022C9E7626E9A
:10B3C80022F000426266C6E792FAA2F212B1B2FA1D
:10B3D80082F2CBE72022C9E7A26E22F00042A266E1
:10B3E800C6E792FAA2F212B1B2FA82F2CBE72022B1
:10B3F800C9E7D2F8B040C0F312002043C2F8B00049
:10B4080058E71C680A68C2F31205002D38D1900E5F
:10B41800013000F01F0009288CBF002001200028FF
:10B4280076D0002D3BD1900E0130800600F0F84018
:10B43800002D40D1960E013606F01F070126BE40AA
:10B448003043002D45D1920E013202F01F0202EB6B
:10B45800420212050243886804F11406550EAD0035
:10B4680005F004057459C2F304524FF0070C0CFAA6
:10B4780002FC24EA0C0C90404CEA000070511EE7D4
:10B4880092FAA2F048B1B0FA80F0013000F01F0043
:10B4980009288CBF00200120C1E72020F5E792FA97
:10B4A800A2F030B1B0FA80F00130800600F0F84028
:10B4B800BEE72020F8E792FAA2F646B1B6FA86F679
:10B4C800013606F01F06012707FA06F6B8E7202618
:10B4D800F6E792FAA2F242B1B2FA82F2013202F02F
:10B4E8001F0202EB42021205B4E72022F6E700BF72
:10B4F80000F0FF0300007F400000088000030050B8
:10B50800000021C31000C090000052C7000084CB87
:10B51800CDB9900E0130800600F0F840FDB9960EC6
:10B52800013606F01F070126BE4030432DBB920EA0
:10B53800013202F01F0202EB42021E3A120542F0EB
:10B548000072024387E792FAA2F030B1B0FA80F0B5
:10B558000130800600F0F840E0E72020F8E792FA92
:10B56800A2F646B1B6FA86F6013606F01F0601279E
:10B5780007FA06F6D9E72026F6E792FAA2F25AB1B8
:10B58800B2FA82F2013202F01F0202EB42021E3AC4
:10B59800120542F00072D4E72022F3E711F4000FFD
:10B5A8007FF49EAE1A68B2F1A04F01D00020F6E5F4
:10B5B80040F4000023498A6822F0E0721043886052
:10B5C800214A126892092149A1FB0212920901320B
:10B5D80002EB420292000192019A1AB1019A013AD1
:10B5E8000192F9E70020DAE511F0807F7FF47CAE64
:10B5F8001968174A91421CD040F0807011498A6836
:10B6080022F0E072104388600020C8E511F4800F32
:10B6180011D119680E4A91420FD040F480020948AE
:10B62800816821F0E0710A4382600020B7E50020BC
:10B63800B5E50020B3E50020B1E50020AFE5022024
:10B64800B0E500BF0003005028000020632D3E0530
:10B658000001005038B503689A6812F0010F40D114
:10B6680004469968204A114209D0C36D43F010037B
:10B67800C365036E43F001030366012032E09A6854
:10B6880022F0004222F03F0242F001029A60FDF7E8
:10B69800EBFE054623681A6812F0010F1FD19A685D
:10B6A80012F0010F07D19A6822F0004222F03F02FF
:10B6B80042F001029A60FDF7D7FE431B022BE9D93D
:10B6C80023681B6813F0010FE4D1E36D43F0100306
:10B6D800E365236E43F001032366012002E00020A6
:10B6E80000E0002038BD00BF3F000080F8B50446E8
:10B6F8003A4B9D680068806810F0040F69D10E46C7
:10B70800174605F01F0594F85830012B63D0012324
:10B7180084F8583045B1052D06D0092D04D00023F2
:10B7280084F85830012055E02046FFF793FF0028A1
:10B738004BD1E36D23F4706323F0010343F480736A
:10B74800E3652368264A934239D01A46934200D0CB
:10B758001DB9E36D23F48013E365E36D13F4805F93
:10B7680030D0236E23F006032366636D1D4ADA6228
:10B77800636D1D4A1A63636D1C4A5A6323681C2251
:10B788001A60002384F858302268536843F0100385
:10B7980053602268D36843F00103D36021683B46B5
:10B7A80032464031606DFEF7C1F92268936823F094
:10B7B800004323F03F0343F0040393600AE04FF093
:10B7C800A042C3E700232366CFE7002384F858305C
:10B7D80000E00220F8BD0220FCE700BF0003005093
:10B7E80000010050D7B00008CBB000085FB10008D6
:10B7F80090F85820012A7FD010B49DB0034601224A
:10B8080080F858200022189219920068B0F1A04FD1
:10B8180039D000220192019A002A37D0926812F09A
:10B82800040200D00122806810F0040F54D1002ACD
:10B8380052D10A68002A32D0304CA26822F4604201
:10B84800486893F838C040EA4C300243A2604FF091
:10B85800A042926812F0010200D0012228488068B4
:10B8680010F0010000D00120024341D1234CA2680E
:10B8780022F4716222F00F020868896801430A43C2
:10B88800A26000202DE01E4A0192C4E7DA6D42F062
:10B898002002DA65002283F85820012024E01749A5
:10B8A8008A6822F460428A604FF0A042926812F0DF
:10B8B800010200D001221249896811F0010100D06B
:10B8C80001210A4316D10D498A6822F4716222F0D7
:10B8D8000F028A60002004E0DA6D42F02002DA6587
:10B8E8000120002283F858201DB05DF8044B7047F2
:10B8F8000020F6E70020F4E702207047000300501C
:10B908000001005008B53A4A136823F00F0343F0CA
:10B9180004031360364B1B6803F00F03042BF9D1A3
:10B92800344A136823F4C06343F40073136002F5C8
:10B93800D032136843F4807313602F4B1B6813F4E1
:10B94800806FFAD02C4B5A6822F0FE4242F08042B7
:10B958005A60D968294A0A4042F4964242F03202B3
:10B96800DA60DA6842F08072DA601A6842F080724F
:10B978001A60214B1B6813F0007FFAD01E4A9368A7
:10B9880043F003039360936823F0F00343F08003CC
:10B998009360194B9B6803F00C030C2BF9D1184AE0
:10B9A800D2F8FC3043F08073C2F8FC30154B1A68AB
:10B9B80042F001021A6000225A60124B5B68632B46
:10B9C800FBD90D4B9A6822F0F0029A609A6822F42B
:10B9D800E0629A609A6822F460529A600A48FDF719
:10B9E80075FB0F20FDF708FD08B172B6FEE708BD2C
:10B9F8000020024000700040001002400C80FFF957
:10BA080000ED00E0001000E080D1F008044B4FF496
:10BA18008072C3F88420BFF34F8FBFF36F8F7047D6
:10BA280000E100E008B50F4BDA68C2F30222C2F168
:10BA38000703042B28BF04231946131D062B0FD90F
:10BA4800033A4FF0FF338B40DB4303F00C03934082
:10BA58001B01DBB2044A82F82833FFF7D7FF08BD81
:10BA68000022EEE700ED00E000E100E008B58020EC
:10BA780005F040FE0028FDD0002303658364C364FD
:10BA88004365C3650364C363036643648365C36234
:10BA9800436283620363C3618361836343630362B5
:10BAA800C36003614361436083600360012280F8DF
:10BAB800642006E0C218002182F8651082F86D1033
:10BAC8000133072BF6DD0023836780F87C3008BD3F
:10BAD800C16102624362009B03634FF40003436346
:10BAE800704700002DE9F04182B0044688461646AA
:10BAF8001F46184B1A68D2F8803023F4F81343EA2B
:10BB08000743C2F880300025BD4215D2C4F8008032
:10BB180065600123A3600523E36056F825202261B0
:10BB280056F82520626121460A48FEF733FC08B919
:10BB38000135E9E772B6FEE70023009302221146B9
:10BB48000448FEF75AFC08B172B6FEE702B0BDE839
:10BB5800F08100BFBC08002070B50546C1F307405E
:10BB6800082805D816461A460B0C4FF0000C0BE0B7
:10BB7800002385F8643030E012F80C4005EB0C0027
:10BB880080F865400CF1010CD8B26045F4DCAE6178
:10BB980069625223AB6305F118011048FEF765FC92
:10BBA80088B900240D48FEF715FD032812D001348A
:10BBB80040F6B8339C42F5D9002385F86430AB6F62
:10BBC8000133AB6709E0002385F86430AB6F0133BC
:10BBD800AB6702E0012385F8643070BDBC08002023
:10BBE80008B5002201210648FEF7FAFC08B172B632
:10BBF800FEE7002203211520FEF75EF808BD00BF0E
:10BC0800BC080020F0B583B005460E461746002450
:10BC180000944FF4002322462146FFF759FF3B4684
:10BC2800324621462846FFF75DFFFFF7D9FF15206A
:10BC3800FEF788F80348FEF701FC08B172B6FEE784
:10BC480003B0F0BDBC08002008B5074B1B685B6C4F
:10BC580013F0800F00D108BD0348012380F85C3041
:10BC6800FEF7ECFBF7E700BFBC080020034B1864A5
:10BC78001A6A42F480521A62704700BF002C0140D1
:10BC880001280CD0022813D000B170474FF0A04211
:10BC9800D36823F4406343F48063D36070474FF064
:10BCA800A042D36823F4406343F40063D360704731
:10BCB8004FF0A042D36843F44063D360E5E710B582
:10BCC80004460846FFF7DCFF2046FFF7CFFF10BD0C
:10BCD800024B4FF400621A60704700BF00E100E0B9
:10BCE800044B4FF40062C3F88020BFF34F8FBFF3BB
:10BCF8006F8F704700E100E008B5154BD86A002146
:10BD08007138FFF7DCFF072212491348FFF7EEFCF2
:10BD1800124BDA68C2F30222C2F10703042B28BFD0
:10BD280004231946131D062B0FD9033A4FF0FF338E
:10BD38008B40DB4303F0040393401B01DBB2084A4A
:10BD480082F80B33FFF7CCFF08BD0022EEE700BFF7
:10BD5800002C014028090020F007002000ED00E039
:10BD680000E100E00A207047044B4FF08042C3F81E
:10BD78008020BFF34F8FBFF36F8F704700E100E063
:10BD880008B51E4BDA6842F00202DA60DA6842F05F
:10BD98000402DA60DA6842F01002DA601A6A42F0E5
:10BDA80001021A621A6A42F010021A621A6A42F40E
:10BDB80080521A621A6842F001021A60104BDA685F
:10BDC800C2F30222C2F10703042B28BF0423194639
:10BDD800131D062B0FD9033A4FF0FF338B40DB437B
:10BDE80003F0020393401B01DBB2064A82F81E33BC
:10BDF800FFF7BAFF08BD0022EEE700BF00080040C9
:10BE080000ED00E000E100E0024B4FF080421A60D4
:10BE1800704700BF00E100E0036843F001030360DE
:10BE280040F2771301E0013B9BB2002BFBD1704736
:10BE380008B50548FFF7F0FF0448FFF7EDFF044891
:10BE4800FFF7EAFF08BD00BF0002014004020140FD
:10BE580008020140094BD3F8002222F00102C3F87E
:10BE68000022D3F8042222F00102C3F80422D3F8F6
:10BE7800082222F00102C3F808227047000001409E
:10BE8800024B4FF080721A60704700BF00E100E07B
:10BE9800044B4FF08072C3F88020BFF34F8FBFF37D
:10BEA8006F8F704700E100E070B51F4E1F4C0022F5
:10BEB8003146204600F03AF91D4D00222946204619
:10BEC80000F034F93146204600F00EF929462046A4
:10BED80000F00AF9174BD3F8002242F40042C3F8E5
:10BEE8000022D3F8042242F40042C3F80422D3F813
:10BEF800082242F40042C3F808220F4A536C23F484
:10BF0800700343F450035364D36843F08003D36051
:10BF18000A4BDB680A4B002283F81823FFF79AFFC5
:10BF2800FFF7B6FF70BD00BF0100110200100050FE
:10BF3800F200423500000140002C014000ED00E015
:10BF480000E100E0024BB3FBF0F3024AD362704712
:10BF5800C0687804002C0140962303FB00F0164BC0
:10BF6800A3FB00239B09A3F180027F2A0CD8134A64
:10BF7800904200D9FE235B08403311494A6C22F0F5
:10BF8800FF0213434B647047A3F58072FF2A07D85A
:10BF98000C4A904201D94FF4FC73DB08A033ECE75C
:10BFA800B0F5FA2FE9D3084A904201D94FF47C73CF
:10BFB8001B09C033E1E700BFD34D621017E403004B
:10BFC800002C0140A7B4070067650F0008B544F6C8
:10BFD8002060FFF7B7FF4FF4C870FFF7BDFF074BAE
:10BFE80000225A639A63DA635A6C22F400425A6454
:10BFF8001A6842F001021A6008BD00BF002C014017
:10C00800024B4FF080521A60704700BF00E100E019
:10C01800044B4FF08052C3F88020BFF34F8FBFF31B
:10C028006F8F704700E100E008B54FF0804340F2A1
:10C03800FF329A62DA6842F00102DA601A6842F066
:10C0480001021A600F4BDA68C2F30222C2F1070339
:10C05800042B28BF04231946131D062B0FD9033AB6
:10C068004FF0FF338B40DB4303F0050393401B0184
:10C07800DBB2054A82F81C33FFF7CAFF08BD00226D
:10C08800EEE700BF00ED00E000E100E038B1044B4E
:10C0980003EB5003B3FBF0F39BB2024AD360704743
:10C0A80080D1F00800480040024600210D4BD869B5
:10C0B80010F0800005D101314CF250339942F5D986
:10C0C80000E00120074B9A620022064BDB6913F05F
:10C0D800400305D101324CF250318A42F5D9184655
:10C0E800704700BF00480040036801F010010122BA
:10C0F8008A40134303604FF4167301E0013B9BB27F
:10C10800002BFBD17047000010B5054C05492046AF
:10C11800FFF7EAFF04492046FFF7E6FF10BD00BF1E
:10C128000008005001001102F200423507EE102A03
:10C13800B8EE477ADFED0E7A27EE277ADFED0D6A43
:10C14800C7EE267AFCEEE77A17EE903AB3F5805FF1
:10C1580001D340F6FF730830090F50F8212022F46C
:10C168007F6222F00F02134340F82130704700BF6E
:10C1780000F07F45001B374A164BDA6842F001028F
:10C18800DA601A6842F001021A60134BDA68C2F3E7
:10C198000222C2F10703042B28BF04231946131DEA
:10C1A800062B15D9033A4FF0FF338B40DB4303F0DE
:10C1B800070393401B01DBB2084A82F81D334FF096
:10C1C8000053C2F88030BFF34F8FBFF36F8F7047B3
:10C1D8000022E8E70004004000ED00E000E100E094
:10C1E80005498A6A0132054BB3FBF2F3B3FBF0F35E
:10C1F800013BCB62704700BF0004004080D1F008CB
:10C20800024B4FF480525A60704700BF00E100E0D3
:10C21800044B4FF48052C3F88420BFF34F8FBFF311
:10C228006F8F704700E100E008B5144BDA6842F000
:10C238000102DA601A6842F001021A60104BDA68EB
:10C24800C2F30222C2F10703042B28BF04231946B4
:10C25800131D062B0FD9033A4FF0FF338B40DB43F6
:10C2680003F0060393401B01DBB2064A82F82C3325
:10C27800FFF7CEFF08BD0022EEE700BF0034014003
:10C2880000ED00E000E100E0FF2805D80844B0F523
:10C29800807F04D8002070474FF0FF3070474FF080
:10C2A800FF30704770B586B005460C46FFF7ECFFC7
:10C2B800B0B90646FDF72AF90123039304950594BE
:10C2C8000023029301A902A8FDF70AFA58B9FDF75D
:10C2D80035F9019BB3F1FF3F08D1304606B070BD78
:10C2E8004FF0FF36F9E74FF0FF36F6E74FF0FF362D
:10C2F800F3E710F0070F16D170B5044616461D4631
:10C30800FDF704F932462B4621460020FDF754F983
:10C3180060B9FDF713F922686368AB4208BFB242FF
:10C3280007D1002070BD4FF0FF3070474FF0FF304D
:10C33800F8E74FF0FF30F5E7BFF34F8F0549CA68BC
:10C3480002F4E062044B1343CB60BFF34F8F00BF8E
:10C35800FDE700BF00ED00E00400FA05D0B90E4B80
:10C36800DB68C3F30223C3F10702042A28BF0422AF
:10C3780010461A1D062A01D9033B00E000234FF09E
:10C38800FF32824021EA020199400901C9B2034BF8
:10C3980083F80613704700BF00ED00E000E100E0FD
:10C3A80000B1704700B585B0002301930293039351
:10C3B800012301938DF80C3001A8FCF78DFE05B020
:10C3C8005DF804FB044B03EBC00300225A7010B95C
:10C3D800024B40221A6070474409002000E100E047
:10C3E800074B03EBC00301225A7038B9054B4022B2
:10C3F800C3F88020BFF34F8FBFF36F8F704700BF24
:10C408004409002000E100E008B172B6FEE770B50B
:10C418000D4614460646FFF7C3FF29463046FFF788
:10C428009DFF1CB93046FFF7CDFF70BD3046FFF7C2
:10C43800D7FFFAE708B5064B5B6913F0010F00D187
:10C4480008BD034B01225A6103F0CCFBF8E700BF9B
:10C458000004014010B50446836998476368C01A10
:10C4680007EE900AF8EEE77A94ED040A27EE800AC0
:10C4780010BDC161704700008161054BC361002395
:10C48800436180ED040A426083606423C36070479F
:10C498005DC4000870B52DED028B0546B0EE408AEC
:10C4A8000E46202005F026F90446002CFDD0324621
:10C4B800B0EE480A29462046FFF7DEFF2046BDECCD
:10C4C800028B70BD8160C26070474068704708B5D4
:10C4D8004068C369984708BD70B52DED028B0446C6
:10C4E8000D46B0EE408A164606991846B0EE600A28
:10C4F80000F098F92060074B0360074BA3603146B2
:10C50800B0EE480A2846FFF7C5FF6060BDEC028B15
:10C5180070BD00BF0AD7A33CD7C4000890ED0A7AC3
:10C5280001EB4101490007EE901AF8EE677AC7EE71
:10C53800276AC0ED006ADFED046A27EE267AC7EEA7
:10C54800276AC0ED016A70477077D63D80F88C1075
:10C55800022380F88D300023C0F89030012906D0DE
:10C5680000F13403C36700F140038367704700F1AB
:10C578003A03C36700F15C038367704790F880C093
:10C588005FFA8CFC0023052B13D800B5C26F9E46BA
:10C59800D15C614506D00133DBB2052BF6D9FF200B
:10C5A8005DF804FB052B02D01A445078F8E71078A0
:10C5B800F6E7FF20704710B4C46F90F88010C9B236
:10C5C8000023052B0CD8E25C8A4202D00133DBB28F
:10C5D800F7E70BB9607904E01C4414F8010C00E09B
:10C5E800FF205DF8044B7047836F90F8802003EBC1
:10C5F8008203D3ED007A90F88D30012B02D0C0ED84
:10C60800217A70479FED0B7A77EE877AC0ED217A11
:10C6180090ED217ADFED087AB4EEE77AF1EE10FAC0
:10C62800EFDDD0ED217A9FED047A77EEC77AC0ED81
:10C63800217A7047000070420000B44330B583B0DF
:10C6480000228DF80720642494460EE09DF8071018
:10C6580001EBC20200BF00BF00BF00BF00BF013333
:10C668000B2BF3DD944519D0013C24B3204D2B69E5
:10C678009B099B0003F004032969C909490001F0DB
:10C6880002010B432969C1F340210B448DF807309F
:10C698009DF8073003EBCC0C0023E1E79DF8073049
:10C6A8005BB19DF80730DBB2062B08D89DF8071060
:10C6B800C9B2002307E0FF21FBE7FF21F9E7FF21CB
:10C6C800F7E70133DBB2052B05D8C26FD25C8A428B
:10C6D800F7D1002400E001240CB980F88010FFF79E
:10C6E80083FFFFF791FBFFF78BFC204603B030BDBB
:10C6F8000004004838B52DED028B04469FED0F8AE3
:10C7080000F19405B0EE480A284600F09DFE84ED3D
:10C718002A8A84ED2B8A84ED2C8A84ED2D8A0123C4
:10C7280084F8B8309FED060A284600F084FE84EDB0
:10C73800308A84ED2F8ABDEC028B38BD00000000E2
:10C74800CDCCCC3E70B504461646002383614FF02D
:10C758008040026842F001020260A383E383002262
:10C76800626222621E48A062E26284F830300AE007
:10C778001C4AD55CE01880F834501B4D15F803C0EE
:10C7880080F83AC00133052BF2DD2046FFF7DEFEC4
:10C79800DFF86CC0C4F854C0144D65641448E064F4
:10C7A8001449A164144AA265144B2365C4F870C0E7
:10C7B800E56660676166A2662366FF2384F88030B9
:10C7C8000023C4F88430C4F88830C4F8C430204644
:10C7D800FFF790FF31462046FFF7A0FE70BD00BF6F
:10C7E800000D0F48682B0108602B01080000A543C5
:10C7F8000000F0410000B44200001643000052431C
:10C808000000874370B505460E46C82004F072FF45
:10C818000446002CFDD0324629462046FFF792FFF9
:10C82800204670BD70B510EE106A05460C461420FF
:10C8380004F060FF0028FDD0002303604660042355
:10C848000372C560046170BD10B5044602E001348E
:10C85800FFF72AFC20780028F9D110BDF8B52DED96
:10C86800028B04460E46B0F8F80202F053FE351863
:10C878002C2737540135D4EDF67A2946FCEEE77AB1
:10C8880017EE900A02F046FE2E182F540136D4ED0A
:10C89800E27A3146FCEEE77A17EE900A02F03AFEA9
:10C8A800351837540135D4EDFF7A2946FCEEE77A7E
:10C8B80017EE900A02F02EFE2E182F54013604F5BA
:10C8C800A363D3ED007A3146FCEEE77A17EE900ABF
:10C8D80002F020FE35183754013504F26453D3EDC5
:10C8E800007AF5EE407AF1EE10FA40F0B68029466B
:10C8F800002002F00FFE2B183E462F545D1C2946DF
:10C90800002002F007FE2F182E54013704F264535A
:10C91800D3ED007A9FED608A67EE887A3946FCEE9F
:10C92800E77A17EE900A02F0F5FD3E182C253D54E3
:10C93800013604F2FC43D3ED007A3146FCEEE77A87
:10C9480017EE900A02F0E6FD37183554013704F265
:10C95800CC43D3ED007AF8EE677A3946FCEEE77AF5
:10C9680017EE900A02F0D6FD3E183D54013694F8B1
:10C978003834D4F8942492F8342002EB820203EB82
:10C98800420307EE903AF8EEE77A3146FCEEE77A92
:10C9980017EE900A02F0BEFD37183554013704F53A
:10C9A800B163D3ED007A3946FCEEE77A17EE900AC8
:10C9B80002F0B0FD3E183D54013604F28C53D3ED1D
:10C9C800007A3146FCEEE77A17EE900A02F0A2FDF3
:10C9D80037183554013704F5B763D3ED007A394673
:10C9E800FCEEE77A17EE900A02F094FD3E183D54EB
:10C9F800013604F5B263D3ED007A67EE887A3146E2
:10CA0800FCEEE77A17EE900A02F084FD37183554E9
:10CA1800013704F29453D3ED007A3946FCEEE77AF5
:10CA280017EE900A02F076FD3E183D54013604F2E6
:10CA3800B454D4ED007A67EE887A3146FCEEE77A92
:10CA480017EE900A02F066FD331835540A225A7020
:10CA580000229A70BDEC028BF8BD04F21453D3ED9A
:10CA6800007A2946FCEEE77A17EE900A02F052FDAA
:10CA78002B182C262E545D1C04F5AE63D3ED007ADA
:10CA88002946FCEEE77A17EE900A02F043FD2F18CC
:10CA98002E5401373AE700BF0000C84210B50446DB
:10CAA8008369984707EE900AF8EEE77A94ED017AE1
:10CAB800B8EEC77A77EEC77A94ED047A67EE877A8C
:10CAC800C4ED0C7AE38C07EE103AB8EEC77A27EE7D
:10CAD800277ADFED096A76EEE77AC7EE276AFCEE79
:10CAE800E66A16EE903AA386E36A2046984700EE77
:10CAF800100AB8EE400A10BD806A494A0246002072
:10CB080001E0013080B2918E136A33F810309942F7
:10CB180004D292F82430013B9842F2DB7047024677
:10CB2800002001E0013080B2918E136A33F8103092
:10CB3800994204D992F82430013B9842F2DB7047BD
:10CB4800F8B5044616461D469DF81C70FDEEC07AE1
:10CB580017EE902A9FED0D0AFFF78EFC0C49204630
:10CB6800FFF787FC266284F82450BDF81830E38468
:10CB780084F82870012F06D0064BE3620023A386B1
:10CB880000232363F8BD044BE362F7E7001B374437
:10CB9800A5CA000805CB000827CB000838B504460D
:10CBA80011EE105AFDEEE07A17EE902AFFF764FCBA
:10CBB800002323626362A362E5622363636338BD73
:10CBC800F8B52DED028B054600273E46022F59D9B0
:10CBD80095ED097AF7EE007AB4EEE77AF1EE10FAFD
:10CBE80061DC002058E0EB692846984785ED080A83
:10CBF80038EE008A0120FCF73DFC0134E4B21D2C1C
:10CC0800F1D9B3EE0E7AC8EE077AC5ED097A013686
:10CC1800102E40D89FED257AF4EEC77AF1EE10FA7F
:10CC28003DDC9FED237AF4EEC77AF1EE10FA38D4A2
:10CC380095ED0A7A77EE676A9FED1E6AF4EEC66A8A
:10CC4800F1EE10FA06D5F5EEC06AF1EE10FA01DD44
:10CC5800012312E077EEC76A9FED166AF4EEC66A02
:10CC6800F1EE10FA08D5F5EEC06AF1EE10FA01DD22
:10CC7800012302E0002300E0002377EEC77AC5ED28
:10CC88000D7A2BB96B6AAB6200249FED0B8AB6E76D
:10CC98000137FFB29AE70120BDEC028BF8BD0220F4
:10CCA800FAE70220F8E70320F6E700BFCDCC8C4076
:10CCB8009A99193F0AD7233C0000000012F0070F89
:10CCC80013D1F8B506460F4615460024AC420AD2E1
:10CCD8003B19D3E90023A019FFF70BFBB0F1FF3F85
:10CCE80002D00834F2E70020F8BD4FF0FF3070475B
:10CCF800CAB32DE9F047ADF5805D05460F4691466C
:10CD0800C0F3CF2808F58036F6021418C4F3CF24F0
:10CD1800A4EB0804A4B20134A4B2022C26D8002142
:10CD2800009140F6FC7201A804F0FAFC4FEAC42A0C
:10CD380052463146684604F0E5FCA81B4A46394687
:10CD4800684404F0DFFC21464046FFF7ABFAB0F137
:10CD5800FF3F04D0524669463046FFF7AFFF0DF556
:10CD6800805DBDE8F0874FF0FF3070474FF0FF302F
:10CD7800F5E70000DFED207AB4EEE70AF1EE10FAED
:10CD880001DD30EE670ADFED1D7AB4EEE70AF1EE59
:10CD980010FA1DDBDFED187AB4EEE70AF1EE10FAAF
:10CDA80016D89FED167A30EE470ADFED157A20EE99
:10CDB800270AC0EE077AFCEEE77A17EE903A9BB2A4
:10CDC800104A02EB830393ED000AB1EE400A704764
:10CDD800DFED0B7A20EE270A9FED087AC0EE077A7E
:10CDE800FCEEE77A17EE903A9BB2064A02EB830311
:10CDF80093ED000A704700BF0000B44300003443BD
:10CE080000008043742F010808B5DFED037A30EE87
:10CE1800270AFFF7AFFF08BD0000B44270B52DED3B
:10CE2800028B10EE104AB0EE608A11EE106A11EE15
:10CE3800905AF0EE428A1C2004F05CFC0028FDD0D9
:10CE480004604460866080ED038AC0ED048A28EEA1
:10CE5800288ADFED050A28EE208A80ED058A85619B
:10CE6800BDEC028B70BD00BF000080390023436019
:10CE78000360704710B52DED048BB0EE408AF0EEDC
:10CE8800608AB0EE419AF0EE619A482004F032FCD4
:10CE98000446002CFDD0F0EE691AB0EE491AF0EE07
:10CEA800680AB0EE480A00F0EBF82060F0EE691A64
:10CEB800B0EE491AF0EE680AB0EE480A00F0EEF952
:10CEC80060600023A360E36023616361A361E361A1
:10CED80023626362A362E36223636363A363E3631E
:10CEE800636423642046BDEC048B10BD0000000081
:10CEF80010B52DED048B044690ED099AB0EE490A61
:10CF0800FFF738FFF0EE408AB0EE490AFFF77CFFE2
:10CF1800B0EE408AD4ED027AD4ED036A94ED047A37
:10CF280077EEA77A36EE876A77EEC67AB0EE086AA9
:10CF380087EE869A84ED059A76EEC77A17EE900A00
:10CF4800FAF7F4FF20A3D3E90023FAF761FDFBF712
:10CF580045F807EE900AA06128EE091A28EEA77A8C
:10CF680031EE071A84ED071A68EE277A28EE899AB7
:10CF780077EEC97AC4ED087AD4ED081A94ED0A2A36
:10CF8800D4ED0D0A94ED0C0A206800F0D5F823685A
:10CF980093ED040A84ED0E0AD3ED057AC4ED0F7AF9
:10CFA80028EE007A68EEA76A37EE667A84ED107A82
:10CFB80028EE278A68EE808A38EE288A84ED118A5E
:10CFC800BDEC048B10BD00BFB7627FD93D79E23F4D
:10CFD80010B50446006800F0A1F8606800F081F917
:10CFE800002323636363A362636210BD08B5242032
:10CFF80004F080FB0028FDD008BD38B510EE105AAB
:10D0080010EE904AFFF7F2FF002202604260C26011
:10D0180002614261FF2280F820208560C46138BD2A
:10D0280008B5082004F066FB0028FDD0024B036019
:10D03800024B436008BD00BF783301087837010808
:10D04800D0ED047A27EE800A70470023836070478A
:10D05800016070474160704710B504460023836043
:10D068004FF07E53C36003610349FFF7F1FF0349A3
:10D078002046FFF7EFFF10BD49D0000853D0000845
:10D088002DE9F0412DED048B10EE108A10EE907A08
:10D0980011EE106A11EE905A2C2004F02BFB044676
:10D0A800002CFDD09FED189ADFED188A9FED188AA5
:10D0B800B0EE492AF1EE001AB5EE001AF0EE680A51
:10D0C800B0EE480AFFF7AAFE2060B0EE492ADFED6D
:10D0D800111A9FED111AF0EE680AB0EE480AFFF730
:10D0E8009DFE606084ED028A84ED038A84ED048AE3
:10D0F80084ED058AC4F81C8027626662A562204612
:10D10800BDEC048BBDE8F08117B7513E0000964393
:10D11800000000004FEC44406666A63E10B5044689
:10D128000068FFF7A3FE6068FFF7A0FE0023A36076
:10D13800E3602361636110BD30EE410A0368D0EDFE
:10D14800027A90ED047A77EEC77A93ED067A67EE65
:10D15800877A93ED027A20EE077A70EE677A93ED7C
:10D16800050A67EE807AD3ED006A77EEA67AC3EDFA
:10D17800007A77EE277AC3ED017AC0ED027A70EE75
:10D18800E10A4368D0ED037AD0ED056A77EEE67AD6
:10D19800D3ED066A67EEA66AD3ED027A20EEA77A87
:10D1A80070EEE67AD3ED050A67EEA07AD3ED006A51
:10D1B80077EEA67AC3ED007A77EE277AC3ED017A87
:10D1C800C0ED037A90ED097A61EE871A62EE211AB2
:10D1D80090ED087A21EE071A90ED0A7A31EE071AD7
:10D1E80022EE012A90ED027A77EE611AC0ED021A5A
:10D1F80072EE277AC0ED037AD0ED076A9FED236AB5
:10D2080026EE866A9FED227A26EE877AB4EEE16AE8
:10D21800F1EE10FA06D4B4EEE17AF1EE10FA2BDD55
:10D22800B0EE476A80ED046A86EE267AB5EEC07ADB
:10D23800F1EE10FA23D49FED176A27EE067ABCEEBA
:10D24800C77A17EE103A9BB2134A02EB830393EDA9
:10D25800007A66EE876AB1EE667AF4EEE76AF1EE76
:10D2680010FA06D4B4EEE77AF1EE10FA0ADDF0EE21
:10D27800476AC0ED056A7047B0EE616AD2E7B1EE61
:10D28800477AD8E7F0EE676AF3E700BF6666663F5D
:10D29800666666BF00008043702B010870B52DEDEF
:10D2A800028BB0EE408A10EE906A11EE105A11EE21
:10D2B800904A282004F01EFA0028FDD000230360BD
:10D2C80043608360C36080ED058AB7EE007AC7EEDD
